{
  "_format": "hh-sol-artifact-1",
  "contractName": "PaymentSplitterUpgradeable",
  "sourceName": "contracts/artifacts/lib/contracts-upgradeable/finance/PaymentSplitterUpgradeable.sol",
  "abi": [
    {
      "anonymous": false,
      "inputs": [
        {
          "indexed": true,
          "internalType": "contract IERC20Upgradeable",
          "name": "token",
          "type": "address"
        },
        {
          "indexed": false,
          "internalType": "address",
          "name": "to",
          "type": "address"
        },
        {
          "indexed": false,
          "internalType": "uint256",
          "name": "amount",
          "type": "uint256"
        }
      ],
      "name": "ERC20PaymentReleased",
      "type": "event"
    },
    {
      "anonymous": false,
      "inputs": [
        {
          "indexed": false,
          "internalType": "address",
          "name": "account",
          "type": "address"
        },
        {
          "indexed": false,
          "internalType": "uint256",
          "name": "shares",
          "type": "uint256"
        }
      ],
      "name": "PayeeAdded",
      "type": "event"
    },
    {
      "anonymous": false,
      "inputs": [
        {
          "indexed": false,
          "internalType": "address",
          "name": "from",
          "type": "address"
        },
        {
          "indexed": false,
          "internalType": "uint256",
          "name": "amount",
          "type": "uint256"
        }
      ],
      "name": "PaymentReceived",
      "type": "event"
    },
    {
      "anonymous": false,
      "inputs": [
        {
          "indexed": false,
          "internalType": "address",
          "name": "to",
          "type": "address"
        },
        {
          "indexed": false,
          "internalType": "uint256",
          "name": "amount",
          "type": "uint256"
        }
      ],
      "name": "PaymentReleased",
      "type": "event"
    },
    {
      "inputs": [
        {
          "internalType": "uint256",
          "name": "index",
          "type": "uint256"
        }
      ],
      "name": "payee",
      "outputs": [
        {
          "internalType": "address",
          "name": "",
          "type": "address"
        }
      ],
      "stateMutability": "view",
      "type": "function"
    },
    {
      "inputs": [
        {
          "internalType": "address payable",
          "name": "account",
          "type": "address"
        }
      ],
      "name": "release",
      "outputs": [],
      "stateMutability": "nonpayable",
      "type": "function"
    },
    {
      "inputs": [
        {
          "internalType": "contract IERC20Upgradeable",
          "name": "token",
          "type": "address"
        },
        {
          "internalType": "address",
          "name": "account",
          "type": "address"
        }
      ],
      "name": "release",
      "outputs": [],
      "stateMutability": "nonpayable",
      "type": "function"
    },
    {
      "inputs": [
        {
          "internalType": "contract IERC20Upgradeable",
          "name": "token",
          "type": "address"
        },
        {
          "internalType": "address",
          "name": "account",
          "type": "address"
        }
      ],
      "name": "released",
      "outputs": [
        {
          "internalType": "uint256",
          "name": "",
          "type": "uint256"
        }
      ],
      "stateMutability": "view",
      "type": "function"
    },
    {
      "inputs": [
        {
          "internalType": "address",
          "name": "account",
          "type": "address"
        }
      ],
      "name": "released",
      "outputs": [
        {
          "internalType": "uint256",
          "name": "",
          "type": "uint256"
        }
      ],
      "stateMutability": "view",
      "type": "function"
    },
    {
      "inputs": [
        {
          "internalType": "address",
          "name": "account",
          "type": "address"
        }
      ],
      "name": "shares",
      "outputs": [
        {
          "internalType": "uint256",
          "name": "",
          "type": "uint256"
        }
      ],
      "stateMutability": "view",
      "type": "function"
    },
    {
      "inputs": [
        {
          "internalType": "contract IERC20Upgradeable",
          "name": "token",
          "type": "address"
        }
      ],
      "name": "totalReleased",
      "outputs": [
        {
          "internalType": "uint256",
          "name": "",
          "type": "uint256"
        }
      ],
      "stateMutability": "view",
      "type": "function"
    },
    {
      "inputs": [],
      "name": "totalReleased",
      "outputs": [
        {
          "internalType": "uint256",
          "name": "",
          "type": "uint256"
        }
      ],
      "stateMutability": "view",
      "type": "function"
    },
    {
      "inputs": [],
      "name": "totalShares",
      "outputs": [
        {
          "internalType": "uint256",
          "name": "",
          "type": "uint256"
        }
      ],
      "stateMutability": "view",
      "type": "function"
    },
    {
      "stateMutability": "payable",
      "type": "receive"
    }
  ],
  "bytecode": "0x608060405234801561001057600080fd5b5061178c806100206000396000f3fe60806040526004361061008a5760003560e01c80638b83209b116100595780638b83209b146101905780639852595c146101cd578063ce7c2ac21461020a578063d79779b214610247578063e33b7de314610284576100d1565b806319165587146100d65780633a98ef39146100ff578063406072a91461012a57806348b7504414610167576100d1565b366100d1577f6ef95f06320e7a25a04a175ca677b7052bdd97131872c2192525a629f51be7706100b86102af565b346040516100c7929190611132565b60405180910390a1005b600080fd5b3480156100e257600080fd5b506100fd60048036038101906100f89190610e0a565b6102b7565b005b34801561010b57600080fd5b50610114610462565b604051610121919061125d565b60405180910390f35b34801561013657600080fd5b50610151600480360381019061014c9190610e85565b61046c565b60405161015e919061125d565b60405180910390f35b34801561017357600080fd5b5061018e60048036038101906101899190610e85565b6104f3565b005b34801561019c57600080fd5b506101b760048036038101906101b29190610ec1565b6107bb565b6040516101c491906110ee565b60405180910390f35b3480156101d957600080fd5b506101f460048036038101906101ef9190610de1565b610829565b604051610201919061125d565b60405180910390f35b34801561021657600080fd5b50610231600480360381019061022c9190610de1565b610872565b60405161023e919061125d565b60405180910390f35b34801561025357600080fd5b5061026e60048036038101906102699190610e5c565b6108bb565b60405161027b919061125d565b60405180910390f35b34801561029057600080fd5b50610299610904565b6040516102a6919061125d565b60405180910390f35b600033905090565b6000603560008373ffffffffffffffffffffffffffffffffffffffff1673ffffffffffffffffffffffffffffffffffffffff1681526020019081526020016000205411610339576040517f08c379a00000000000000000000000000000000000000000000000000000000081526004016103309061117d565b60405180910390fd5b6000610343610904565b4761034e91906112aa565b90506000610365838361036086610829565b61090e565b905060008114156103ab576040517f08c379a00000000000000000000000000000000000000000000000000000000081526004016103a2906111fd565b60405180910390fd5b80603660008573ffffffffffffffffffffffffffffffffffffffff1673ffffffffffffffffffffffffffffffffffffffff16815260200190815260200160002060008282546103fa91906112aa565b92505081905550806034600082825461041391906112aa565b92505081905550610424838261097c565b7fdf20fd1e76bc69d672e4814fafb2c449bba3a5369d8359adf9e05e6fde87b0568382604051610455929190611109565b60405180910390a1505050565b6000603354905090565b6000603960008473ffffffffffffffffffffffffffffffffffffffff1673ffffffffffffffffffffffffffffffffffffffff16815260200190815260200160002060008373ffffffffffffffffffffffffffffffffffffffff1673ffffffffffffffffffffffffffffffffffffffff16815260200190815260200160002054905092915050565b6000603560008373ffffffffffffffffffffffffffffffffffffffff1673ffffffffffffffffffffffffffffffffffffffff1681526020019081526020016000205411610575576040517f08c379a000000000000000000000000000000000000000000000000000000000815260040161056c9061117d565b60405180910390fd5b6000610580836108bb565b8373ffffffffffffffffffffffffffffffffffffffff166370a08231306040518263ffffffff1660e01b81526004016105b991906110ee565b60206040518083038186803b1580156105d157600080fd5b505afa1580156105e5573d6000803e3d6000fd5b505050506040513d601f19601f820116820180604052508101906106099190610eea565b61061391906112aa565b9050600061062b8383610626878761046c565b61090e565b90506000811415610671576040517f08c379a0000000000000000000000000000000000000000000000000000000008152600401610668906111fd565b60405180910390fd5b80603960008673ffffffffffffffffffffffffffffffffffffffff1673ffffffffffffffffffffffffffffffffffffffff16815260200190815260200160002060008573ffffffffffffffffffffffffffffffffffffffff1673ffffffffffffffffffffffffffffffffffffffff16815260200190815260200160002060008282546106fd91906112aa565b9250508190555080603860008673ffffffffffffffffffffffffffffffffffffffff1673ffffffffffffffffffffffffffffffffffffffff168152602001908152602001600020600082825461075391906112aa565b92505081905550610765848483610a70565b8373ffffffffffffffffffffffffffffffffffffffff167f3be5b7a71e84ed12875d241991c70855ac5817d847039e17a9d895c1ceb0f18a84836040516107ad929190611132565b60405180910390a250505050565b6000603782815481106107f7577f4e487b7100000000000000000000000000000000000000000000000000000000600052603260045260246000fd5b9060005260206000200160009054906101000a900473ffffffffffffffffffffffffffffffffffffffff169050919050565b6000603660008373ffffffffffffffffffffffffffffffffffffffff1673ffffffffffffffffffffffffffffffffffffffff168152602001908152602001600020549050919050565b6000603560008373ffffffffffffffffffffffffffffffffffffffff1673ffffffffffffffffffffffffffffffffffffffff168152602001908152602001600020549050919050565b6000603860008373ffffffffffffffffffffffffffffffffffffffff1673ffffffffffffffffffffffffffffffffffffffff168152602001908152602001600020549050919050565b6000603454905090565b600081603354603560008773ffffffffffffffffffffffffffffffffffffffff1673ffffffffffffffffffffffffffffffffffffffff168152602001908152602001600020548561095f9190611331565b6109699190611300565b610973919061138b565b90509392505050565b804710156109bf576040517f08c379a00000000000000000000000000000000000000000000000000000000081526004016109b6906111bd565b60405180910390fd5b60008273ffffffffffffffffffffffffffffffffffffffff16826040516109e5906110d9565b60006040518083038185875af1925050503d8060008114610a22576040519150601f19603f3d011682016040523d82523d6000602084013e610a27565b606091505b5050905080610a6b576040517f08c379a0000000000000000000000000000000000000000000000000000000008152600401610a629061119d565b60405180910390fd5b505050565b610af18363a9059cbb60e01b8484604051602401610a8f929190611132565b604051602081830303815290604052907bffffffffffffffffffffffffffffffffffffffffffffffffffffffff19166020820180517bffffffffffffffffffffffffffffffffffffffffffffffffffffffff8381831617835250505050610af6565b505050565b6000610b58826040518060400160405280602081526020017f5361666545524332303a206c6f772d6c6576656c2063616c6c206661696c65648152508573ffffffffffffffffffffffffffffffffffffffff16610bbd9092919063ffffffff16565b9050600081511115610bb85780806020019051810190610b789190610e33565b610bb7576040517f08c379a0000000000000000000000000000000000000000000000000000000008152600401610bae9061123d565b60405180910390fd5b5b505050565b6060610bcc8484600085610bd5565b90509392505050565b606082471015610c1a576040517f08c379a0000000000000000000000000000000000000000000000000000000008152600401610c11906111dd565b60405180910390fd5b610c2385610ce9565b610c62576040517f08c379a0000000000000000000000000000000000000000000000000000000008152600401610c599061121d565b60405180910390fd5b6000808673ffffffffffffffffffffffffffffffffffffffff168587604051610c8b91906110c2565b60006040518083038185875af1925050503d8060008114610cc8576040519150601f19603f3d011682016040523d82523d6000602084013e610ccd565b606091505b5091509150610cdd828286610cfc565b92505050949350505050565b600080823b905060008111915050919050565b60608315610d0c57829050610d5c565b600083511115610d1f5782518084602001fd5b816040517f08c379a0000000000000000000000000000000000000000000000000000000008152600401610d53919061115b565b60405180910390fd5b9392505050565b600081359050610d72816116e3565b92915050565b600081359050610d87816116fa565b92915050565b600081519050610d9c81611711565b92915050565b600081359050610db181611728565b92915050565b600081359050610dc68161173f565b92915050565b600081519050610ddb8161173f565b92915050565b600060208284031215610df357600080fd5b6000610e0184828501610d63565b91505092915050565b600060208284031215610e1c57600080fd5b6000610e2a84828501610d78565b91505092915050565b600060208284031215610e4557600080fd5b6000610e5384828501610d8d565b91505092915050565b600060208284031215610e6e57600080fd5b6000610e7c84828501610da2565b91505092915050565b60008060408385031215610e9857600080fd5b6000610ea685828601610da2565b9250506020610eb785828601610d63565b9150509250929050565b600060208284031215610ed357600080fd5b6000610ee184828501610db7565b91505092915050565b600060208284031215610efc57600080fd5b6000610f0a84828501610dcc565b91505092915050565b610f1c8161142b565b82525050565b610f2b816113bf565b82525050565b6000610f3c82611278565b610f46818561128e565b9350610f56818560208601611461565b80840191505092915050565b6000610f6d82611283565b610f778185611299565b9350610f87818560208601611461565b610f90816114f2565b840191505092915050565b6000610fa8602683611299565b9150610fb382611503565b604082019050919050565b6000610fcb603a83611299565b9150610fd682611552565b604082019050919050565b6000610fee601d83611299565b9150610ff9826115a1565b602082019050919050565b6000611011602683611299565b915061101c826115ca565b604082019050919050565b6000611034602b83611299565b915061103f82611619565b604082019050919050565b600061105760008361128e565b915061106282611668565b600082019050919050565b600061107a601d83611299565b91506110858261166b565b602082019050919050565b600061109d602a83611299565b91506110a882611694565b604082019050919050565b6110bc81611421565b82525050565b60006110ce8284610f31565b915081905092915050565b60006110e48261104a565b9150819050919050565b60006020820190506111036000830184610f22565b92915050565b600060408201905061111e6000830185610f13565b61112b60208301846110b3565b9392505050565b60006040820190506111476000830185610f22565b61115460208301846110b3565b9392505050565b600060208201905081810360008301526111758184610f62565b905092915050565b6000602082019050818103600083015261119681610f9b565b9050919050565b600060208201905081810360008301526111b681610fbe565b9050919050565b600060208201905081810360008301526111d681610fe1565b9050919050565b600060208201905081810360008301526111f681611004565b9050919050565b6000602082019050818103600083015261121681611027565b9050919050565b600060208201905081810360008301526112368161106d565b9050919050565b6000602082019050818103600083015261125681611090565b9050919050565b600060208201905061127260008301846110b3565b92915050565b600081519050919050565b600081519050919050565b600081905092915050565b600082825260208201905092915050565b60006112b582611421565b91506112c083611421565b9250827fffffffffffffffffffffffffffffffffffffffffffffffffffffffffffffffff038211156112f5576112f4611494565b5b828201905092915050565b600061130b82611421565b915061131683611421565b925082611326576113256114c3565b5b828204905092915050565b600061133c82611421565b915061134783611421565b9250817fffffffffffffffffffffffffffffffffffffffffffffffffffffffffffffffff04831182151516156113805761137f611494565b5b828202905092915050565b600061139682611421565b91506113a183611421565b9250828210156113b4576113b3611494565b5b828203905092915050565b60006113ca82611401565b9050919050565b60006113dc82611401565b9050919050565b60008115159050919050565b60006113fa826113bf565b9050919050565b600073ffffffffffffffffffffffffffffffffffffffff82169050919050565b6000819050919050565b60006114368261143d565b9050919050565b60006114488261144f565b9050919050565b600061145a82611401565b9050919050565b60005b8381101561147f578082015181840152602081019050611464565b8381111561148e576000848401525b50505050565b7f4e487b7100000000000000000000000000000000000000000000000000000000600052601160045260246000fd5b7f4e487b7100000000000000000000000000000000000000000000000000000000600052601260045260246000fd5b6000601f19601f8301169050919050565b7f5061796d656e7453706c69747465723a206163636f756e7420686173206e6f2060008201527f7368617265730000000000000000000000000000000000000000000000000000602082015250565b7f416464726573733a20756e61626c6520746f2073656e642076616c75652c207260008201527f6563697069656e74206d61792068617665207265766572746564000000000000602082015250565b7f416464726573733a20696e73756666696369656e742062616c616e6365000000600082015250565b7f416464726573733a20696e73756666696369656e742062616c616e636520666f60008201527f722063616c6c0000000000000000000000000000000000000000000000000000602082015250565b7f5061796d656e7453706c69747465723a206163636f756e74206973206e6f742060008201527f647565207061796d656e74000000000000000000000000000000000000000000602082015250565b50565b7f416464726573733a2063616c6c20746f206e6f6e2d636f6e7472616374000000600082015250565b7f5361666545524332303a204552433230206f7065726174696f6e20646964206e60008201527f6f74207375636365656400000000000000000000000000000000000000000000602082015250565b6116ec816113bf565b81146116f757600080fd5b50565b611703816113d1565b811461170e57600080fd5b50565b61171a816113e3565b811461172557600080fd5b50565b611731816113ef565b811461173c57600080fd5b50565b61174881611421565b811461175357600080fd5b5056fea2646970667358221220ea9e5d5c80c30a18e0b7c83eff4779c2c4d8a1d8ec1327ac09e712a741a5af9664736f6c63430008030033",
  "linkReferences": {},
  "deployedLinkReferences": {}
}