{
  "_format": "hh-sol-artifact-1",
  "contractName": "RefundEscrowUpgradeable",
  "sourceName": "contracts/artifacts/lib/contracts-upgradeable/utils/escrow/RefundEscrowUpgradeable.sol",
  "abi": [
    {
      "anonymous": false,
      "inputs": [
        {
          "indexed": true,
          "internalType": "address",
          "name": "payee",
          "type": "address"
        },
        {
          "indexed": false,
          "internalType": "uint256",
          "name": "weiAmount",
          "type": "uint256"
        }
      ],
      "name": "Deposited",
      "type": "event"
    },
    {
      "anonymous": false,
      "inputs": [
        {
          "indexed": true,
          "internalType": "address",
          "name": "previousOwner",
          "type": "address"
        },
        {
          "indexed": true,
          "internalType": "address",
          "name": "newOwner",
          "type": "address"
        }
      ],
      "name": "OwnershipTransferred",
      "type": "event"
    },
    {
      "anonymous": false,
      "inputs": [],
      "name": "RefundsClosed",
      "type": "event"
    },
    {
      "anonymous": false,
      "inputs": [],
      "name": "RefundsEnabled",
      "type": "event"
    },
    {
      "anonymous": false,
      "inputs": [
        {
          "indexed": true,
          "internalType": "address",
          "name": "payee",
          "type": "address"
        },
        {
          "indexed": false,
          "internalType": "uint256",
          "name": "weiAmount",
          "type": "uint256"
        }
      ],
      "name": "Withdrawn",
      "type": "event"
    },
    {
      "inputs": [],
      "name": "beneficiary",
      "outputs": [
        {
          "internalType": "address payable",
          "name": "",
          "type": "address"
        }
      ],
      "stateMutability": "view",
      "type": "function"
    },
    {
      "inputs": [],
      "name": "beneficiaryWithdraw",
      "outputs": [],
      "stateMutability": "nonpayable",
      "type": "function"
    },
    {
      "inputs": [],
      "name": "close",
      "outputs": [],
      "stateMutability": "nonpayable",
      "type": "function"
    },
    {
      "inputs": [
        {
          "internalType": "address",
          "name": "refundee",
          "type": "address"
        }
      ],
      "name": "deposit",
      "outputs": [],
      "stateMutability": "payable",
      "type": "function"
    },
    {
      "inputs": [
        {
          "internalType": "address",
          "name": "payee",
          "type": "address"
        }
      ],
      "name": "depositsOf",
      "outputs": [
        {
          "internalType": "uint256",
          "name": "",
          "type": "uint256"
        }
      ],
      "stateMutability": "view",
      "type": "function"
    },
    {
      "inputs": [],
      "name": "enableRefunds",
      "outputs": [],
      "stateMutability": "nonpayable",
      "type": "function"
    },
    {
      "inputs": [],
      "name": "initialize",
      "outputs": [],
      "stateMutability": "nonpayable",
      "type": "function"
    },
    {
      "inputs": [],
      "name": "owner",
      "outputs": [
        {
          "internalType": "address",
          "name": "",
          "type": "address"
        }
      ],
      "stateMutability": "view",
      "type": "function"
    },
    {
      "inputs": [],
      "name": "renounceOwnership",
      "outputs": [],
      "stateMutability": "nonpayable",
      "type": "function"
    },
    {
      "inputs": [],
      "name": "state",
      "outputs": [
        {
          "internalType": "enum RefundEscrowUpgradeable.State",
          "name": "",
          "type": "uint8"
        }
      ],
      "stateMutability": "view",
      "type": "function"
    },
    {
      "inputs": [
        {
          "internalType": "address",
          "name": "newOwner",
          "type": "address"
        }
      ],
      "name": "transferOwnership",
      "outputs": [],
      "stateMutability": "nonpayable",
      "type": "function"
    },
    {
      "inputs": [
        {
          "internalType": "address payable",
          "name": "payee",
          "type": "address"
        }
      ],
      "name": "withdraw",
      "outputs": [],
      "stateMutability": "nonpayable",
      "type": "function"
    },
    {
      "inputs": [
        {
          "internalType": "address",
          "name": "",
          "type": "address"
        }
      ],
      "name": "withdrawalAllowed",
      "outputs": [
        {
          "internalType": "bool",
          "name": "",
          "type": "bool"
        }
      ],
      "stateMutability": "view",
      "type": "function"
    }
  ],
  "bytecode": "0x608060405234801561001057600080fd5b50611afb806100206000396000f3fe6080604052600436106100c25760003560e01c80638c52dc411161007f578063c19d93fb11610059578063c19d93fb146101f6578063e3a9db1a14610221578063f2fde38b1461025e578063f340fa0114610287576100c2565b80638c52dc411461019d5780638da5cb5b146101b45780639af6549a146101df576100c2565b806338af3eed146100c757806343d726d6146100f257806351cff8d914610109578063685ca19414610132578063715018a61461016f5780638129fc1c14610186575b600080fd5b3480156100d357600080fd5b506100dc6102a3565b6040516100e9919061144c565b60405180910390f35b3480156100fe57600080fd5b506101076102cd565b005b34801561011557600080fd5b50610130600480360381019061012b9190611204565b610482565b005b34801561013e57600080fd5b50610159600480360381019061015491906111db565b6104d6565b6040516101669190611467565b60405180910390f35b34801561017b57600080fd5b5061018461055a565b005b34801561019257600080fd5b5061019b6105e2565b005b3480156101a957600080fd5b506101b26106ce565b005b3480156101c057600080fd5b506101c9610883565b6040516101d69190611431565b60405180910390f35b3480156101eb57600080fd5b506101f46108ad565b005b34801561020257600080fd5b5061020b610998565b6040516102189190611482565b60405180910390f35b34801561022d57600080fd5b50610248600480360381019061024391906111db565b6109af565b60405161025591906115fd565b60405180910390f35b34801561026a57600080fd5b50610285600480360381019061028091906111db565b6109f8565b005b6102a1600480360381019061029c91906111db565b610af0565b005b600060c960019054906101000a900473ffffffffffffffffffffffffffffffffffffffff16905090565b6102d5610bb6565b73ffffffffffffffffffffffffffffffffffffffff166102f3610883565b73ffffffffffffffffffffffffffffffffffffffff1614610349576040517f08c379a00000000000000000000000000000000000000000000000000000000081526004016103409061159d565b60405180910390fd5b60006002811115610383577f4e487b7100000000000000000000000000000000000000000000000000000000600052602160045260246000fd5b61038b610998565b60028111156103c3577f4e487b7100000000000000000000000000000000000000000000000000000000600052602160045260246000fd5b14610403576040517f08c379a00000000000000000000000000000000000000000000000000000000081526004016103fa9061157d565b60405180910390fd5b600260c960006101000a81548160ff0219169083600281111561044f577f4e487b7100000000000000000000000000000000000000000000000000000000600052602160045260246000fd5b02179055507f088672c3a6e342f7cd94a65ba63b79df24a8973927b4d05d803c44bbf787d12f60405160405180910390a1565b61048b816104d6565b6104ca576040517f08c379a00000000000000000000000000000000000000000000000000000000081526004016104c19061155d565b60405180910390fd5b6104d381610bbe565b50565b600060016002811115610512577f4e487b7100000000000000000000000000000000000000000000000000000000600052602160045260246000fd5b61051a610998565b6002811115610552577f4e487b7100000000000000000000000000000000000000000000000000000000600052602160045260246000fd5b149050919050565b610562610bb6565b73ffffffffffffffffffffffffffffffffffffffff16610580610883565b73ffffffffffffffffffffffffffffffffffffffff16146105d6576040517f08c379a00000000000000000000000000000000000000000000000000000000081526004016105cd9061159d565b60405180910390fd5b6105e06000610d3e565b565b600060019054906101000a900460ff1661060a5760008054906101000a900460ff1615610613565b610612610e04565b5b610652576040517f08c379a00000000000000000000000000000000000000000000000000000000081526004016106499061153d565b60405180910390fd5b60008060019054906101000a900460ff1615905080156106a2576001600060016101000a81548160ff02191690831515021790555060016000806101000a81548160ff0219169083151502179055505b6106aa610e15565b80156106cb5760008060016101000a81548160ff0219169083151502179055505b50565b6106d6610bb6565b73ffffffffffffffffffffffffffffffffffffffff166106f4610883565b73ffffffffffffffffffffffffffffffffffffffff161461074a576040517f08c379a00000000000000000000000000000000000000000000000000000000081526004016107419061159d565b60405180910390fd5b60006002811115610784577f4e487b7100000000000000000000000000000000000000000000000000000000600052602160045260246000fd5b61078c610998565b60028111156107c4577f4e487b7100000000000000000000000000000000000000000000000000000000600052602160045260246000fd5b14610804576040517f08c379a00000000000000000000000000000000000000000000000000000000081526004016107fb906115bd565b60405180910390fd5b600160c960006101000a81548160ff02191690836002811115610850577f4e487b7100000000000000000000000000000000000000000000000000000000600052602160045260246000fd5b02179055507f599d8e5a83cffb867d051598c4d70e805d59802d8081c1c7d6dffc5b6aca2b8960405160405180910390a1565b6000603360009054906101000a900473ffffffffffffffffffffffffffffffffffffffff16905090565b6002808111156108e6577f4e487b7100000000000000000000000000000000000000000000000000000000600052602160045260246000fd5b6108ee610998565b6002811115610926577f4e487b7100000000000000000000000000000000000000000000000000000000600052602160045260246000fd5b14610966576040517f08c379a000000000000000000000000000000000000000000000000000000000815260040161095d9061149d565b60405180910390fd5b610996476109726102a3565b73ffffffffffffffffffffffffffffffffffffffff16610e7e90919063ffffffff16565b565b600060c960009054906101000a900460ff16905090565b6000606560008373ffffffffffffffffffffffffffffffffffffffff1673ffffffffffffffffffffffffffffffffffffffff168152602001908152602001600020549050919050565b610a00610bb6565b73ffffffffffffffffffffffffffffffffffffffff16610a1e610883565b73ffffffffffffffffffffffffffffffffffffffff1614610a74576040517f08c379a0000000000000000000000000000000000000000000000000000000008152600401610a6b9061159d565b60405180910390fd5b600073ffffffffffffffffffffffffffffffffffffffff168173ffffffffffffffffffffffffffffffffffffffff161415610ae4576040517f08c379a0000000000000000000000000000000000000000000000000000000008152600401610adb906114bd565b60405180910390fd5b610aed81610d3e565b50565b60006002811115610b2a577f4e487b7100000000000000000000000000000000000000000000000000000000600052602160045260246000fd5b610b32610998565b6002811115610b6a577f4e487b7100000000000000000000000000000000000000000000000000000000600052602160045260246000fd5b14610baa576040517f08c379a0000000000000000000000000000000000000000000000000000000008152600401610ba19061151d565b60405180910390fd5b610bb381610f72565b50565b600033905090565b610bc6610bb6565b73ffffffffffffffffffffffffffffffffffffffff16610be4610883565b73ffffffffffffffffffffffffffffffffffffffff1614610c3a576040517f08c379a0000000000000000000000000000000000000000000000000000000008152600401610c319061159d565b60405180910390fd5b6000606560008373ffffffffffffffffffffffffffffffffffffffff1673ffffffffffffffffffffffffffffffffffffffff1681526020019081526020016000205490506000606560008473ffffffffffffffffffffffffffffffffffffffff1673ffffffffffffffffffffffffffffffffffffffff16815260200190815260200160002081905550610cec818373ffffffffffffffffffffffffffffffffffffffff16610e7e90919063ffffffff16565b8173ffffffffffffffffffffffffffffffffffffffff167f7084f5476618d8e60b11ef0d7d3f06914655adb8793e28ff7f018d4c76d505d582604051610d3291906115fd565b60405180910390a25050565b6000603360009054906101000a900473ffffffffffffffffffffffffffffffffffffffff16905081603360006101000a81548173ffffffffffffffffffffffffffffffffffffffff021916908373ffffffffffffffffffffffffffffffffffffffff1602179055508173ffffffffffffffffffffffffffffffffffffffff168173ffffffffffffffffffffffffffffffffffffffff167f8be0079c531659141344cd1fd0a4f28419497f9722a3daafe3b4186f6b6457e060405160405180910390a35050565b6000610e0f3061109b565b15905090565b600060019054906101000a900460ff16610e64576040517f08c379a0000000000000000000000000000000000000000000000000000000008152600401610e5b906115dd565b60405180910390fd5b610e6c6110ae565b610e746110ff565b610e7c611160565b565b80471015610ec1576040517f08c379a0000000000000000000000000000000000000000000000000000000008152600401610eb8906114fd565b60405180910390fd5b60008273ffffffffffffffffffffffffffffffffffffffff1682604051610ee79061141c565b60006040518083038185875af1925050503d8060008114610f24576040519150601f19603f3d011682016040523d82523d6000602084013e610f29565b606091505b5050905080610f6d576040517f08c379a0000000000000000000000000000000000000000000000000000000008152600401610f64906114dd565b60405180910390fd5b505050565b610f7a610bb6565b73ffffffffffffffffffffffffffffffffffffffff16610f98610883565b73ffffffffffffffffffffffffffffffffffffffff1614610fee576040517f08c379a0000000000000000000000000000000000000000000000000000000008152600401610fe59061159d565b60405180910390fd5b600034905080606560008473ffffffffffffffffffffffffffffffffffffffff1673ffffffffffffffffffffffffffffffffffffffff16815260200190815260200160002060008282546110429190611634565b925050819055508173ffffffffffffffffffffffffffffffffffffffff167f2da466a7b24304f47e87fa2e1e5a81b9831ce54fec19055ce277ca2f39ba42c48260405161108f91906115fd565b60405180910390a25050565b600080823b905060008111915050919050565b600060019054906101000a900460ff166110fd576040517f08c379a00000000000000000000000000000000000000000000000000000000081526004016110f4906115dd565b60405180910390fd5b565b600060019054906101000a900460ff1661114e576040517f08c379a0000000000000000000000000000000000000000000000000000000008152600401611145906115dd565b60405180910390fd5b61115e611159610bb6565b610d3e565b565b600060019054906101000a900460ff166111af576040517f08c379a00000000000000000000000000000000000000000000000000000000081526004016111a6906115dd565b60405180910390fd5b565b6000813590506111c081611a97565b92915050565b6000813590506111d581611aae565b92915050565b6000602082840312156111ed57600080fd5b60006111fb848285016111b1565b91505092915050565b60006020828403121561121657600080fd5b6000611224848285016111c6565b91505092915050565b6112368161169c565b82525050565b6112458161168a565b82525050565b611254816116ae565b82525050565b611263816116f7565b82525050565b6000611276603883611623565b915061128182611767565b604082019050919050565b6000611299602683611623565b91506112a4826117b6565b604082019050919050565b60006112bc603a83611623565b91506112c782611805565b604082019050919050565b60006112df601d83611623565b91506112ea82611854565b602082019050919050565b6000611302602b83611623565b915061130d8261187d565b604082019050919050565b6000611325602e83611623565b9150611330826118cc565b604082019050919050565b6000611348603383611623565b91506113538261191b565b604082019050919050565b600061136b602983611623565b91506113768261196a565b604082019050919050565b600061138e602083611623565b9150611399826119b9565b602082019050919050565b60006113b1600083611618565b91506113bc826119e2565b600082019050919050565b60006113d4603283611623565b91506113df826119e5565b604082019050919050565b60006113f7602b83611623565b915061140282611a34565b604082019050919050565b611416816116ed565b82525050565b6000611427826113a4565b9150819050919050565b6000602082019050611446600083018461123c565b92915050565b6000602082019050611461600083018461122d565b92915050565b600060208201905061147c600083018461124b565b92915050565b6000602082019050611497600083018461125a565b92915050565b600060208201905081810360008301526114b681611269565b9050919050565b600060208201905081810360008301526114d68161128c565b9050919050565b600060208201905081810360008301526114f6816112af565b9050919050565b60006020820190508181036000830152611516816112d2565b9050919050565b60006020820190508181036000830152611536816112f5565b9050919050565b6000602082019050818103600083015261155681611318565b9050919050565b600060208201905081810360008301526115768161133b565b9050919050565b600060208201905081810360008301526115968161135e565b9050919050565b600060208201905081810360008301526115b681611381565b9050919050565b600060208201905081810360008301526115d6816113c7565b9050919050565b600060208201905081810360008301526115f6816113ea565b9050919050565b6000602082019050611612600083018461140d565b92915050565b600081905092915050565b600082825260208201905092915050565b600061163f826116ed565b915061164a836116ed565b9250827fffffffffffffffffffffffffffffffffffffffffffffffffffffffffffffffff0382111561167f5761167e611709565b5b828201905092915050565b6000611695826116cd565b9050919050565b60006116a7826116cd565b9050919050565b60008115159050919050565b60008190506116c882611a83565b919050565b600073ffffffffffffffffffffffffffffffffffffffff82169050919050565b6000819050919050565b6000611702826116ba565b9050919050565b7f4e487b7100000000000000000000000000000000000000000000000000000000600052601160045260246000fd5b7f4e487b7100000000000000000000000000000000000000000000000000000000600052602160045260246000fd5b7f526566756e64457363726f773a2062656e65666963696172792063616e206f6e60008201527f6c79207769746864726177207768696c6520636c6f7365640000000000000000602082015250565b7f4f776e61626c653a206e6577206f776e657220697320746865207a65726f206160008201527f6464726573730000000000000000000000000000000000000000000000000000602082015250565b7f416464726573733a20756e61626c6520746f2073656e642076616c75652c207260008201527f6563697069656e74206d61792068617665207265766572746564000000000000602082015250565b7f416464726573733a20696e73756666696369656e742062616c616e6365000000600082015250565b7f526566756e64457363726f773a2063616e206f6e6c79206465706f736974207760008201527f68696c6520616374697665000000000000000000000000000000000000000000602082015250565b7f496e697469616c697a61626c653a20636f6e747261637420697320616c72656160008201527f647920696e697469616c697a6564000000000000000000000000000000000000602082015250565b7f436f6e646974696f6e616c457363726f773a207061796565206973206e6f742060008201527f616c6c6f77656420746f20776974686472617700000000000000000000000000602082015250565b7f526566756e64457363726f773a2063616e206f6e6c7920636c6f73652077686960008201527f6c65206163746976650000000000000000000000000000000000000000000000602082015250565b7f4f776e61626c653a2063616c6c6572206973206e6f7420746865206f776e6572600082015250565b50565b7f526566756e64457363726f773a2063616e206f6e6c7920656e61626c6520726560008201527f66756e6473207768696c65206163746976650000000000000000000000000000602082015250565b7f496e697469616c697a61626c653a20636f6e7472616374206973206e6f74206960008201527f6e697469616c697a696e67000000000000000000000000000000000000000000602082015250565b60038110611a9457611a93611738565b5b50565b611aa08161168a565b8114611aab57600080fd5b50565b611ab78161169c565b8114611ac257600080fd5b5056fea2646970667358221220a68d4359d8e158188fa290f242b54ebf0fd5b1ce718687e838545d78cb578c5064736f6c63430008030033",
  "linkReferences": {},
  "deployedLinkReferences": {}
}