{
  "_format": "hh-sol-artifact-1",
  "contractName": "OkiDokiLand",
  "sourceName": "contracts/OkiDokiLand.sol",
  "abi": [
    {
      "anonymous": false,
      "inputs": [
        {
          "indexed": true,
          "internalType": "address",
          "name": "owner",
          "type": "address"
        },
        {
          "indexed": true,
          "internalType": "address",
          "name": "approved",
          "type": "address"
        },
        {
          "indexed": true,
          "internalType": "uint256",
          "name": "tokenId",
          "type": "uint256"
        }
      ],
      "name": "Approval",
      "type": "event"
    },
    {
      "anonymous": false,
      "inputs": [
        {
          "indexed": true,
          "internalType": "address",
          "name": "owner",
          "type": "address"
        },
        {
          "indexed": true,
          "internalType": "address",
          "name": "operator",
          "type": "address"
        },
        {
          "indexed": false,
          "internalType": "bool",
          "name": "approved",
          "type": "bool"
        }
      ],
      "name": "ApprovalForAll",
      "type": "event"
    },
    {
      "anonymous": false,
      "inputs": [
        {
          "indexed": false,
          "internalType": "uint256",
          "name": "tokenId",
          "type": "uint256"
        },
        {
          "indexed": false,
          "internalType": "uint8",
          "name": "x",
          "type": "uint8"
        },
        {
          "indexed": false,
          "internalType": "uint8",
          "name": "y",
          "type": "uint8"
        }
      ],
      "name": "LandMinted",
      "type": "event"
    },
    {
      "anonymous": false,
      "inputs": [
        {
          "indexed": true,
          "internalType": "address",
          "name": "previousOwner",
          "type": "address"
        },
        {
          "indexed": true,
          "internalType": "address",
          "name": "newOwner",
          "type": "address"
        }
      ],
      "name": "OwnershipTransferred",
      "type": "event"
    },
    {
      "anonymous": false,
      "inputs": [
        {
          "indexed": true,
          "internalType": "address",
          "name": "from",
          "type": "address"
        },
        {
          "indexed": true,
          "internalType": "address",
          "name": "to",
          "type": "address"
        },
        {
          "indexed": true,
          "internalType": "uint256",
          "name": "tokenId",
          "type": "uint256"
        }
      ],
      "name": "Transfer",
      "type": "event"
    },
    {
      "inputs": [
        {
          "internalType": "address",
          "name": "to",
          "type": "address"
        },
        {
          "internalType": "uint256",
          "name": "tokenId",
          "type": "uint256"
        }
      ],
      "name": "approve",
      "outputs": [],
      "stateMutability": "nonpayable",
      "type": "function"
    },
    {
      "inputs": [
        {
          "internalType": "address",
          "name": "owner",
          "type": "address"
        }
      ],
      "name": "balanceOf",
      "outputs": [
        {
          "internalType": "uint256",
          "name": "",
          "type": "uint256"
        }
      ],
      "stateMutability": "view",
      "type": "function"
    },
    {
      "inputs": [
        {
          "internalType": "uint8",
          "name": "_landId",
          "type": "uint8"
        },
        {
          "internalType": "uint8",
          "name": "_buildingId",
          "type": "uint8"
        }
      ],
      "name": "buildOnLand",
      "outputs": [],
      "stateMutability": "nonpayable",
      "type": "function"
    },
    {
      "inputs": [
        {
          "internalType": "string",
          "name": "uri",
          "type": "string"
        }
      ],
      "name": "buyLand",
      "outputs": [],
      "stateMutability": "payable",
      "type": "function"
    },
    {
      "inputs": [
        {
          "internalType": "uint256",
          "name": "tokenId",
          "type": "uint256"
        }
      ],
      "name": "getApproved",
      "outputs": [
        {
          "internalType": "address",
          "name": "",
          "type": "address"
        }
      ],
      "stateMutability": "view",
      "type": "function"
    },
    {
      "inputs": [
        {
          "internalType": "uint8",
          "name": "_landId",
          "type": "uint8"
        }
      ],
      "name": "getBuildingByLand",
      "outputs": [
        {
          "internalType": "uint8",
          "name": "",
          "type": "uint8"
        }
      ],
      "stateMutability": "view",
      "type": "function"
    },
    {
      "inputs": [],
      "name": "initialize",
      "outputs": [],
      "stateMutability": "nonpayable",
      "type": "function"
    },
    {
      "inputs": [
        {
          "internalType": "address",
          "name": "owner",
          "type": "address"
        },
        {
          "internalType": "address",
          "name": "operator",
          "type": "address"
        }
      ],
      "name": "isApprovedForAll",
      "outputs": [
        {
          "internalType": "bool",
          "name": "",
          "type": "bool"
        }
      ],
      "stateMutability": "view",
      "type": "function"
    },
    {
      "inputs": [
        {
          "internalType": "address",
          "name": "to",
          "type": "address"
        },
        {
          "internalType": "string",
          "name": "uri",
          "type": "string"
        }
      ],
      "name": "mintLand",
      "outputs": [],
      "stateMutability": "nonpayable",
      "type": "function"
    },
    {
      "inputs": [],
      "name": "name",
      "outputs": [
        {
          "internalType": "string",
          "name": "",
          "type": "string"
        }
      ],
      "stateMutability": "view",
      "type": "function"
    },
    {
      "inputs": [],
      "name": "owner",
      "outputs": [
        {
          "internalType": "address",
          "name": "",
          "type": "address"
        }
      ],
      "stateMutability": "view",
      "type": "function"
    },
    {
      "inputs": [
        {
          "internalType": "uint256",
          "name": "tokenId",
          "type": "uint256"
        }
      ],
      "name": "ownerOf",
      "outputs": [
        {
          "internalType": "address",
          "name": "",
          "type": "address"
        }
      ],
      "stateMutability": "view",
      "type": "function"
    },
    {
      "inputs": [],
      "name": "renounceOwnership",
      "outputs": [],
      "stateMutability": "nonpayable",
      "type": "function"
    },
    {
      "inputs": [
        {
          "internalType": "address",
          "name": "from",
          "type": "address"
        },
        {
          "internalType": "address",
          "name": "to",
          "type": "address"
        },
        {
          "internalType": "uint256",
          "name": "tokenId",
          "type": "uint256"
        }
      ],
      "name": "safeTransferFrom",
      "outputs": [],
      "stateMutability": "nonpayable",
      "type": "function"
    },
    {
      "inputs": [
        {
          "internalType": "address",
          "name": "from",
          "type": "address"
        },
        {
          "internalType": "address",
          "name": "to",
          "type": "address"
        },
        {
          "internalType": "uint256",
          "name": "tokenId",
          "type": "uint256"
        },
        {
          "internalType": "bytes",
          "name": "_data",
          "type": "bytes"
        }
      ],
      "name": "safeTransferFrom",
      "outputs": [],
      "stateMutability": "nonpayable",
      "type": "function"
    },
    {
      "inputs": [
        {
          "internalType": "address",
          "name": "operator",
          "type": "address"
        },
        {
          "internalType": "bool",
          "name": "approved",
          "type": "bool"
        }
      ],
      "name": "setApprovalForAll",
      "outputs": [],
      "stateMutability": "nonpayable",
      "type": "function"
    },
    {
      "inputs": [
        {
          "internalType": "bytes4",
          "name": "interfaceId",
          "type": "bytes4"
        }
      ],
      "name": "supportsInterface",
      "outputs": [
        {
          "internalType": "bool",
          "name": "",
          "type": "bool"
        }
      ],
      "stateMutability": "view",
      "type": "function"
    },
    {
      "inputs": [],
      "name": "symbol",
      "outputs": [
        {
          "internalType": "string",
          "name": "",
          "type": "string"
        }
      ],
      "stateMutability": "view",
      "type": "function"
    },
    {
      "inputs": [
        {
          "internalType": "uint256",
          "name": "tokenId",
          "type": "uint256"
        }
      ],
      "name": "tokenURI",
      "outputs": [
        {
          "internalType": "string",
          "name": "",
          "type": "string"
        }
      ],
      "stateMutability": "view",
      "type": "function"
    },
    {
      "inputs": [
        {
          "internalType": "address",
          "name": "from",
          "type": "address"
        },
        {
          "internalType": "address",
          "name": "to",
          "type": "address"
        },
        {
          "internalType": "uint256",
          "name": "tokenId",
          "type": "uint256"
        }
      ],
      "name": "transferFrom",
      "outputs": [],
      "stateMutability": "nonpayable",
      "type": "function"
    },
    {
      "inputs": [
        {
          "internalType": "address",
          "name": "newOwner",
          "type": "address"
        }
      ],
      "name": "transferOwnership",
      "outputs": [],
      "stateMutability": "nonpayable",
      "type": "function"
    }
  ],
  "bytecode": "0x608060405234801561001057600080fd5b50613dce806100206000396000f3fe60806040526004361061012a5760003560e01c8063715018a6116100ab578063a22cb4651161006f578063a22cb465146103bb578063b88d4fde146103e4578063c87b56dd1461040d578063e985e9c51461044a578063e9a7215f14610487578063f2fde38b146104c45761012a565b8063715018a61461031b5780638129fc1c146103325780638da5cb5b1461034957806395d89b41146103745780639a3eb0e21461039f5761012a565b806329ab0281116100f257806329ab02811461022657806342842e0e1461024f578063505de93c146102785780636352211e146102a157806370a08231146102de5761012a565b806301ffc9a71461012f57806306fdde031461016c578063081812fc14610197578063095ea7b3146101d457806323b872dd146101fd575b600080fd5b34801561013b57600080fd5b5061015660048036038101906101519190612ac2565b6104ed565b604051610163919061302c565b60405180910390f35b34801561017857600080fd5b506101816105cf565b60405161018e9190613047565b60405180910390f35b3480156101a357600080fd5b506101be60048036038101906101b99190612b55565b610661565b6040516101cb9190612fc5565b60405180910390f35b3480156101e057600080fd5b506101fb60048036038101906101f69190612a86565b6106e6565b005b34801561020957600080fd5b50610224600480360381019061021f919061292c565b6107fe565b005b34801561023257600080fd5b5061024d60048036038101906102489190612ba7565b61085e565b005b34801561025b57600080fd5b506102766004803603810190610271919061292c565b610949565b005b34801561028457600080fd5b5061029f600480360381019061029a9190612a32565b610969565b005b3480156102ad57600080fd5b506102c860048036038101906102c39190612b55565b610b60565b6040516102d59190612fc5565b60405180910390f35b3480156102ea57600080fd5b50610305600480360381019061030091906128c7565b610c12565b6040516103129190613309565b60405180910390f35b34801561032757600080fd5b50610330610cca565b005b34801561033e57600080fd5b50610347610d52565b005b34801561035557600080fd5b5061035e610ef2565b60405161036b9190612fc5565b60405180910390f35b34801561038057600080fd5b50610389610f1c565b6040516103969190613047565b60405180910390f35b6103b960048036038101906103b49190612b14565b610fae565b005b3480156103c757600080fd5b506103e260048036038101906103dd91906129f6565b6110a1565b005b3480156103f057600080fd5b5061040b6004803603810190610406919061297b565b6110b7565b005b34801561041957600080fd5b50610434600480360381019061042f9190612b55565b611119565b6040516104419190613047565b60405180910390f35b34801561045657600080fd5b50610471600480360381019061046c91906128f0565b61112b565b60405161047e919061302c565b60405180910390f35b34801561049357600080fd5b506104ae60048036038101906104a99190612b7e565b6111bf565b6040516104bb919061335b565b60405180910390f35b3480156104d057600080fd5b506104eb60048036038101906104e691906128c7565b6111ef565b005b60007f80ac58cd000000000000000000000000000000000000000000000000000000007bffffffffffffffffffffffffffffffffffffffffffffffffffffffff1916827bffffffffffffffffffffffffffffffffffffffffffffffffffffffff191614806105b857507f5b5e139f000000000000000000000000000000000000000000000000000000007bffffffffffffffffffffffffffffffffffffffffffffffffffffffff1916827bffffffffffffffffffffffffffffffffffffffffffffffffffffffff1916145b806105c857506105c7826112e7565b5b9050919050565b6060606580546105de906135be565b80601f016020809104026020016040519081016040528092919081815260200182805461060a906135be565b80156106575780601f1061062c57610100808354040283529160200191610657565b820191906000526020600020905b81548152906001019060200180831161063a57829003601f168201915b5050505050905090565b600061066c82611351565b6106ab576040517f08c379a00000000000000000000000000000000000000000000000000000000081526004016106a290613209565b60405180910390fd5b6069600083815260200190815260200160002060009054906101000a900473ffffffffffffffffffffffffffffffffffffffff169050919050565b60006106f182610b60565b90508073ffffffffffffffffffffffffffffffffffffffff168373ffffffffffffffffffffffffffffffffffffffff161415610762576040517f08c379a000000000000000000000000000000000000000000000000000000000815260040161075990613289565b60405180910390fd5b8073ffffffffffffffffffffffffffffffffffffffff166107816113bd565b73ffffffffffffffffffffffffffffffffffffffff1614806107b057506107af816107aa6113bd565b61112b565b5b6107ef576040517f08c379a00000000000000000000000000000000000000000000000000000000081526004016107e690613129565b60405180910390fd5b6107f983836113c5565b505050565b61080f6108096113bd565b8261147e565b61084e576040517f08c379a0000000000000000000000000000000000000000000000000000000008152600401610845906132c9565b60405180910390fd5b61085983838361155c565b505050565b6108666113bd565b73ffffffffffffffffffffffffffffffffffffffff16610884610ef2565b73ffffffffffffffffffffffffffffffffffffffff16146108da576040517f08c379a00000000000000000000000000000000000000000000000000000000081526004016108d190613229565b60405180910390fd5b8060ff1660fe60008460ff1660ff16815260200190815260200160002060009054906101000a900460ff1660ff16141561091357600080fd5b8060fe60008460ff1660ff16815260200190815260200160002060006101000a81548160ff021916908360ff1602179055505050565b610964838383604051806020016040528060008152506110b7565b505050565b6109716113bd565b73ffffffffffffffffffffffffffffffffffffffff1661098f610ef2565b73ffffffffffffffffffffffffffffffffffffffff16146109e5576040517f08c379a00000000000000000000000000000000000000000000000000000000081526004016109dc90613229565b60405180910390fd5b60fb60019054906101000a900460ff1660ff16610a0260fc6117b8565b10610a42576040517f08c379a0000000000000000000000000000000000000000000000000000000008152600401610a39906132a9565b60405180910390fd5b60fb60009054906101000a900460ff1660ff1660fd60019054906101000a900460ff1660ff1610610aa8576040517f08c379a0000000000000000000000000000000000000000000000000000000008152600401610a9f906132a9565b60405180910390fd5b60fb60009054906101000a900460ff1660ff1660fd60009054906101000a900460ff1660ff161015610ae357610ade82826117c6565b610b5c565b60fb60009054906101000a900460ff1660ff1660fd60019054906101000a900460ff1660ff1610610b49576040517f08c379a0000000000000000000000000000000000000000000000000000000008152600401610b40906132a9565b60405180910390fd5b610b51611878565b610b5b82826117c6565b5b5050565b6000806067600084815260200190815260200160002060009054906101000a900473ffffffffffffffffffffffffffffffffffffffff169050600073ffffffffffffffffffffffffffffffffffffffff168173ffffffffffffffffffffffffffffffffffffffff161415610c09576040517f08c379a0000000000000000000000000000000000000000000000000000000008152600401610c0090613169565b60405180910390fd5b80915050919050565b60008073ffffffffffffffffffffffffffffffffffffffff168273ffffffffffffffffffffffffffffffffffffffff161415610c83576040517f08c379a0000000000000000000000000000000000000000000000000000000008152600401610c7a90613149565b60405180910390fd5b606860008373ffffffffffffffffffffffffffffffffffffffff1673ffffffffffffffffffffffffffffffffffffffff168152602001908152602001600020549050919050565b610cd26113bd565b73ffffffffffffffffffffffffffffffffffffffff16610cf0610ef2565b73ffffffffffffffffffffffffffffffffffffffff1614610d46576040517f08c379a0000000000000000000000000000000000000000000000000000000008152600401610d3d90613229565b60405180910390fd5b610d5060006118be565b565b600060019054906101000a900460ff16610d7a5760008054906101000a900460ff1615610d83565b610d82611984565b5b610dc2576040517f08c379a0000000000000000000000000000000000000000000000000000000008152600401610db9906131a9565b60405180910390fd5b60008060019054906101000a900460ff161590508015610e12576001600060016101000a81548160ff02191690831515021790555060016000806101000a81548160ff0219169083151502179055505b610e866040518060400160405280600b81526020017f4f6b69446f6b694c616e640000000000000000000000000000000000000000008152506040518060400160405280600381526020017f4f4b4c0000000000000000000000000000000000000000000000000000000000815250611995565b610e8e611a02565b610e96611a6b565b600860fb60006101000a81548160ff021916908360ff160217905550604060fb60016101000a81548160ff021916908360ff1602179055508015610eef5760008060016101000a81548160ff0219169083151502179055505b50565b600060c960009054906101000a900473ffffffffffffffffffffffffffffffffffffffff16905090565b606060668054610f2b906135be565b80601f0160208091040260200160405190810160405280929190818152602001828054610f57906135be565b8015610fa45780601f10610f7957610100808354040283529160200191610fa4565b820191906000526020600020905b815481529060010190602001808311610f8757829003601f168201915b5050505050905090565b66470de4df820000341015610fc257600080fd5b66470de4df82000034111561102b573373ffffffffffffffffffffffffffffffffffffffff166108fc66470de4df82000034610ffe91906134c7565b9081150290604051600060405180830381858888f19350505050158015611029573d6000803e3d6000fd5b505b600073e311d8baba1324348d972fa3f3a2d115b677b15a90508073ffffffffffffffffffffffffffffffffffffffff166108fc6706f05b59d3b200009081150290604051600060405180830381858888f19350505050158015611092573d6000803e3d6000fd5b5061109d3383610969565b5050565b6110b36110ac6113bd565b8383611acc565b5050565b6110c86110c26113bd565b8361147e565b611107576040517f08c379a00000000000000000000000000000000000000000000000000000000081526004016110fe906132c9565b60405180910390fd5b61111384848484611c39565b50505050565b606061112482611c95565b9050919050565b6000606a60008473ffffffffffffffffffffffffffffffffffffffff1673ffffffffffffffffffffffffffffffffffffffff16815260200190815260200160002060008373ffffffffffffffffffffffffffffffffffffffff1673ffffffffffffffffffffffffffffffffffffffff16815260200190815260200160002060009054906101000a900460ff16905092915050565b600060fe60008360ff1660ff16815260200190815260200160002060009054906101000a900460ff169050919050565b6111f76113bd565b73ffffffffffffffffffffffffffffffffffffffff16611215610ef2565b73ffffffffffffffffffffffffffffffffffffffff161461126b576040517f08c379a000000000000000000000000000000000000000000000000000000000815260040161126290613229565b60405180910390fd5b600073ffffffffffffffffffffffffffffffffffffffff168173ffffffffffffffffffffffffffffffffffffffff1614156112db576040517f08c379a00000000000000000000000000000000000000000000000000000000081526004016112d290613089565b60405180910390fd5b6112e4816118be565b50565b60007f01ffc9a7000000000000000000000000000000000000000000000000000000007bffffffffffffffffffffffffffffffffffffffffffffffffffffffff1916827bffffffffffffffffffffffffffffffffffffffffffffffffffffffff1916149050919050565b60008073ffffffffffffffffffffffffffffffffffffffff166067600084815260200190815260200160002060009054906101000a900473ffffffffffffffffffffffffffffffffffffffff1673ffffffffffffffffffffffffffffffffffffffff1614159050919050565b600033905090565b816069600083815260200190815260200160002060006101000a81548173ffffffffffffffffffffffffffffffffffffffff021916908373ffffffffffffffffffffffffffffffffffffffff160217905550808273ffffffffffffffffffffffffffffffffffffffff1661143883610b60565b73ffffffffffffffffffffffffffffffffffffffff167f8c5be1e5ebec7d5bd14f71427d1e84f3dd0314c0f7b2291e5b200ac8c7c3b92560405160405180910390a45050565b600061148982611351565b6114c8576040517f08c379a00000000000000000000000000000000000000000000000000000000081526004016114bf90613109565b60405180910390fd5b60006114d383610b60565b90508073ffffffffffffffffffffffffffffffffffffffff168473ffffffffffffffffffffffffffffffffffffffff16148061154257508373ffffffffffffffffffffffffffffffffffffffff1661152a84610661565b73ffffffffffffffffffffffffffffffffffffffff16145b806115535750611552818561112b565b5b91505092915050565b8273ffffffffffffffffffffffffffffffffffffffff1661157c82610b60565b73ffffffffffffffffffffffffffffffffffffffff16146115d2576040517f08c379a00000000000000000000000000000000000000000000000000000000081526004016115c990613249565b60405180910390fd5b600073ffffffffffffffffffffffffffffffffffffffff168273ffffffffffffffffffffffffffffffffffffffff161415611642576040517f08c379a0000000000000000000000000000000000000000000000000000000008152600401611639906130c9565b60405180910390fd5b61164d838383611de7565b6116586000826113c5565b6001606860008573ffffffffffffffffffffffffffffffffffffffff1673ffffffffffffffffffffffffffffffffffffffff16815260200190815260200160002060008282546116a891906134c7565b925050819055506001606860008473ffffffffffffffffffffffffffffffffffffffff1673ffffffffffffffffffffffffffffffffffffffff16815260200190815260200160002060008282546116ff9190613440565b92505081905550816067600083815260200190815260200160002060006101000a81548173ffffffffffffffffffffffffffffffffffffffff021916908373ffffffffffffffffffffffffffffffffffffffff160217905550808273ffffffffffffffffffffffffffffffffffffffff168473ffffffffffffffffffffffffffffffffffffffff167fddf252ad1be2c89b69c2b068fc378daa952ba7f163c4a11628f55a4df523b3ef60405160405180910390a4505050565b600081600001549050919050565b60006117d260fc6117b8565b90506117de60fc611dec565b6117e88382611e02565b6117f28183611e20565b7fbff369cf070b8461ab54c289739d440bef3814eb0b9a831b7ac65d5c64256e1b8160fd60009054906101000a900460ff1660fd60019054906101000a900460ff1660405161184393929190613324565b60405180910390a1611871600160fd60009054906101000a900460ff1660ff16611e9490919063ffffffff16565b5050505050565b600060fd60006101000a81548160ff021916908360ff1602179055506118ba600160fd60019054906101000a900460ff1660ff16611e9490919063ffffffff16565b5050565b600060c960009054906101000a900473ffffffffffffffffffffffffffffffffffffffff1690508160c960006101000a81548173ffffffffffffffffffffffffffffffffffffffff021916908373ffffffffffffffffffffffffffffffffffffffff1602179055508173ffffffffffffffffffffffffffffffffffffffff168173ffffffffffffffffffffffffffffffffffffffff167f8be0079c531659141344cd1fd0a4f28419497f9722a3daafe3b4186f6b6457e060405160405180910390a35050565b600061198f30611ec3565b15905090565b600060019054906101000a900460ff166119e4576040517f08c379a00000000000000000000000000000000000000000000000000000000081526004016119db906132e9565b60405180910390fd5b6119ec611ed6565b6119f4611f27565b6119fe8282611f78565b5050565b600060019054906101000a900460ff16611a51576040517f08c379a0000000000000000000000000000000000000000000000000000000008152600401611a48906132e9565b60405180910390fd5b611a59611ed6565b611a61611f27565b611a69611ff9565b565b600060019054906101000a900460ff16611aba576040517f08c379a0000000000000000000000000000000000000000000000000000000008152600401611ab1906132e9565b60405180910390fd5b611ac2611ed6565b611aca61204a565b565b8173ffffffffffffffffffffffffffffffffffffffff168373ffffffffffffffffffffffffffffffffffffffff161415611b3b576040517f08c379a0000000000000000000000000000000000000000000000000000000008152600401611b32906130e9565b60405180910390fd5b80606a60008573ffffffffffffffffffffffffffffffffffffffff1673ffffffffffffffffffffffffffffffffffffffff16815260200190815260200160002060008473ffffffffffffffffffffffffffffffffffffffff1673ffffffffffffffffffffffffffffffffffffffff16815260200190815260200160002060006101000a81548160ff0219169083151502179055508173ffffffffffffffffffffffffffffffffffffffff168373ffffffffffffffffffffffffffffffffffffffff167f17307eab39ab6107e8899845ad3d59bd9653f200f220920489ca2b5937696c3183604051611c2c919061302c565b60405180910390a3505050565b611c4484848461155c565b611c50848484846120ab565b611c8f576040517f08c379a0000000000000000000000000000000000000000000000000000000008152600401611c8690613069565b60405180910390fd5b50505050565b6060611ca082611351565b611cdf576040517f08c379a0000000000000000000000000000000000000000000000000000000008152600401611cd6906131e9565b60405180910390fd5b6000609760008481526020019081526020016000208054611cff906135be565b80601f0160208091040260200160405190810160405280929190818152602001828054611d2b906135be565b8015611d785780601f10611d4d57610100808354040283529160200191611d78565b820191906000526020600020905b815481529060010190602001808311611d5b57829003601f168201915b505050505090506000611d89612242565b9050600081511415611d9f578192505050611de2565b600082511115611dd4578082604051602001611dbc929190612fa1565b60405160208183030381529060405292505050611de2565b611ddd84612259565b925050505b919050565b505050565b6001816000016000828254019250508190555050565b611e1c828260405180602001604052806000815250612300565b5050565b611e2982611351565b611e68576040517f08c379a0000000000000000000000000000000000000000000000000000000008152600401611e5f90613189565b60405180910390fd5b80609760008481526020019081526020016000209080519060200190611e8f9291906126d6565b505050565b6000806000838501905084811015611eb3576000809250925050611ebc565b60018192509250505b9250929050565b600080823b905060008111915050919050565b600060019054906101000a900460ff16611f25576040517f08c379a0000000000000000000000000000000000000000000000000000000008152600401611f1c906132e9565b60405180910390fd5b565b600060019054906101000a900460ff16611f76576040517f08c379a0000000000000000000000000000000000000000000000000000000008152600401611f6d906132e9565b60405180910390fd5b565b600060019054906101000a900460ff16611fc7576040517f08c379a0000000000000000000000000000000000000000000000000000000008152600401611fbe906132e9565b60405180910390fd5b8160659080519060200190611fdd9291906126d6565b508060669080519060200190611ff49291906126d6565b505050565b600060019054906101000a900460ff16612048576040517f08c379a000000000000000000000000000000000000000000000000000000000815260040161203f906132e9565b60405180910390fd5b565b600060019054906101000a900460ff16612099576040517f08c379a0000000000000000000000000000000000000000000000000000000008152600401612090906132e9565b60405180910390fd5b6120a96120a46113bd565b6118be565b565b60006120cc8473ffffffffffffffffffffffffffffffffffffffff16611ec3565b15612235578373ffffffffffffffffffffffffffffffffffffffff1663150b7a026120f56113bd565b8786866040518563ffffffff1660e01b81526004016121179493929190612fe0565b602060405180830381600087803b15801561213157600080fd5b505af192505050801561216257506040513d601f19601f8201168201806040525081019061215f9190612aeb565b60015b6121e5573d8060008114612192576040519150601f19603f3d011682016040523d82523d6000602084013e612197565b606091505b506000815114156121dd576040517f08c379a00000000000000000000000000000000000000000000000000000000081526004016121d490613069565b60405180910390fd5b805181602001fd5b63150b7a0260e01b7bffffffffffffffffffffffffffffffffffffffffffffffffffffffff1916817bffffffffffffffffffffffffffffffffffffffffffffffffffffffff19161491505061223a565b600190505b949350505050565b606060405180602001604052806000815250905090565b606061226482611351565b6122a3576040517f08c379a000000000000000000000000000000000000000000000000000000000815260040161229a90613269565b60405180910390fd5b60006122ad612242565b905060008151116122cd57604051806020016040528060008152506122f8565b806122d78461235b565b6040516020016122e8929190612fa1565b6040516020818303038152906040525b915050919050565b61230a8383612508565b61231760008484846120ab565b612356576040517f08c379a000000000000000000000000000000000000000000000000000000000815260040161234d90613069565b60405180910390fd5b505050565b606060008214156123a3576040518060400160405280600181526020017f30000000000000000000000000000000000000000000000000000000000000008152509050612503565b600082905060005b600082146123d55780806123be90613621565b915050600a826123ce9190613496565b91506123ab565b60008167ffffffffffffffff811115612417577f4e487b7100000000000000000000000000000000000000000000000000000000600052604160045260246000fd5b6040519080825280601f01601f1916602001820160405280156124495781602001600182028036833780820191505090505b5090505b600085146124fc5760018261246291906134c7565b9150600a85612471919061366a565b603061247d9190613440565b60f81b8183815181106124b9577f4e487b7100000000000000000000000000000000000000000000000000000000600052603260045260246000fd5b60200101907effffffffffffffffffffffffffffffffffffffffffffffffffffffffffffff1916908160001a905350600a856124f59190613496565b945061244d565b8093505050505b919050565b600073ffffffffffffffffffffffffffffffffffffffff168273ffffffffffffffffffffffffffffffffffffffff161415612578576040517f08c379a000000000000000000000000000000000000000000000000000000000815260040161256f906131c9565b60405180910390fd5b61258181611351565b156125c1576040517f08c379a00000000000000000000000000000000000000000000000000000000081526004016125b8906130a9565b60405180910390fd5b6125cd60008383611de7565b6001606860008473ffffffffffffffffffffffffffffffffffffffff1673ffffffffffffffffffffffffffffffffffffffff168152602001908152602001600020600082825461261d9190613440565b92505081905550816067600083815260200190815260200160002060006101000a81548173ffffffffffffffffffffffffffffffffffffffff021916908373ffffffffffffffffffffffffffffffffffffffff160217905550808273ffffffffffffffffffffffffffffffffffffffff16600073ffffffffffffffffffffffffffffffffffffffff167fddf252ad1be2c89b69c2b068fc378daa952ba7f163c4a11628f55a4df523b3ef60405160405180910390a45050565b8280546126e2906135be565b90600052602060002090601f016020900481019282612704576000855561274b565b82601f1061271d57805160ff191683800117855561274b565b8280016001018555821561274b579182015b8281111561274a57825182559160200191906001019061272f565b5b509050612758919061275c565b5090565b5b8082111561277557600081600090555060010161275d565b5090565b600061278c6127878461339b565b613376565b9050828152602081018484840111156127a457600080fd5b6127af84828561357c565b509392505050565b60006127ca6127c5846133cc565b613376565b9050828152602081018484840111156127e257600080fd5b6127ed84828561357c565b509392505050565b60008135905061280481613d25565b92915050565b60008135905061281981613d3c565b92915050565b60008135905061282e81613d53565b92915050565b60008151905061284381613d53565b92915050565b600082601f83011261285a57600080fd5b813561286a848260208601612779565b91505092915050565b600082601f83011261288457600080fd5b81356128948482602086016127b7565b91505092915050565b6000813590506128ac81613d6a565b92915050565b6000813590506128c181613d81565b92915050565b6000602082840312156128d957600080fd5b60006128e7848285016127f5565b91505092915050565b6000806040838503121561290357600080fd5b6000612911858286016127f5565b9250506020612922858286016127f5565b9150509250929050565b60008060006060848603121561294157600080fd5b600061294f868287016127f5565b9350506020612960868287016127f5565b92505060406129718682870161289d565b9150509250925092565b6000806000806080858703121561299157600080fd5b600061299f878288016127f5565b94505060206129b0878288016127f5565b93505060406129c18782880161289d565b925050606085013567ffffffffffffffff8111156129de57600080fd5b6129ea87828801612849565b91505092959194509250565b60008060408385031215612a0957600080fd5b6000612a17858286016127f5565b9250506020612a288582860161280a565b9150509250929050565b60008060408385031215612a4557600080fd5b6000612a53858286016127f5565b925050602083013567ffffffffffffffff811115612a7057600080fd5b612a7c85828601612873565b9150509250929050565b60008060408385031215612a9957600080fd5b6000612aa7858286016127f5565b9250506020612ab88582860161289d565b9150509250929050565b600060208284031215612ad457600080fd5b6000612ae28482850161281f565b91505092915050565b600060208284031215612afd57600080fd5b6000612b0b84828501612834565b91505092915050565b600060208284031215612b2657600080fd5b600082013567ffffffffffffffff811115612b4057600080fd5b612b4c84828501612873565b91505092915050565b600060208284031215612b6757600080fd5b6000612b758482850161289d565b91505092915050565b600060208284031215612b9057600080fd5b6000612b9e848285016128b2565b91505092915050565b60008060408385031215612bba57600080fd5b6000612bc8858286016128b2565b9250506020612bd9858286016128b2565b9150509250929050565b612bec816134fb565b82525050565b612bfb8161350d565b82525050565b6000612c0c826133fd565b612c168185613413565b9350612c2681856020860161358b565b612c2f81613757565b840191505092915050565b6000612c4582613408565b612c4f8185613424565b9350612c5f81856020860161358b565b612c6881613757565b840191505092915050565b6000612c7e82613408565b612c888185613435565b9350612c9881856020860161358b565b80840191505092915050565b6000612cb1603283613424565b9150612cbc82613768565b604082019050919050565b6000612cd4602683613424565b9150612cdf826137b7565b604082019050919050565b6000612cf7601c83613424565b9150612d0282613806565b602082019050919050565b6000612d1a602483613424565b9150612d258261382f565b604082019050919050565b6000612d3d601983613424565b9150612d488261387e565b602082019050919050565b6000612d60602c83613424565b9150612d6b826138a7565b604082019050919050565b6000612d83603883613424565b9150612d8e826138f6565b604082019050919050565b6000612da6602a83613424565b9150612db182613945565b604082019050919050565b6000612dc9602983613424565b9150612dd482613994565b604082019050919050565b6000612dec602e83613424565b9150612df7826139e3565b604082019050919050565b6000612e0f602e83613424565b9150612e1a82613a32565b604082019050919050565b6000612e32602083613424565b9150612e3d82613a81565b602082019050919050565b6000612e55603183613424565b9150612e6082613aaa565b604082019050919050565b6000612e78602c83613424565b9150612e8382613af9565b604082019050919050565b6000612e9b602083613424565b9150612ea682613b48565b602082019050919050565b6000612ebe602983613424565b9150612ec982613b71565b604082019050919050565b6000612ee1602f83613424565b9150612eec82613bc0565b604082019050919050565b6000612f04602183613424565b9150612f0f82613c0f565b604082019050919050565b6000612f27601383613424565b9150612f3282613c5e565b602082019050919050565b6000612f4a603183613424565b9150612f5582613c87565b604082019050919050565b6000612f6d602b83613424565b9150612f7882613cd6565b604082019050919050565b612f8c81613565565b82525050565b612f9b8161356f565b82525050565b6000612fad8285612c73565b9150612fb98284612c73565b91508190509392505050565b6000602082019050612fda6000830184612be3565b92915050565b6000608082019050612ff56000830187612be3565b6130026020830186612be3565b61300f6040830185612f83565b81810360608301526130218184612c01565b905095945050505050565b60006020820190506130416000830184612bf2565b92915050565b600060208201905081810360008301526130618184612c3a565b905092915050565b6000602082019050818103600083015261308281612ca4565b9050919050565b600060208201905081810360008301526130a281612cc7565b9050919050565b600060208201905081810360008301526130c281612cea565b9050919050565b600060208201905081810360008301526130e281612d0d565b9050919050565b6000602082019050818103600083015261310281612d30565b9050919050565b6000602082019050818103600083015261312281612d53565b9050919050565b6000602082019050818103600083015261314281612d76565b9050919050565b6000602082019050818103600083015261316281612d99565b9050919050565b6000602082019050818103600083015261318281612dbc565b9050919050565b600060208201905081810360008301526131a281612ddf565b9050919050565b600060208201905081810360008301526131c281612e02565b9050919050565b600060208201905081810360008301526131e281612e25565b9050919050565b6000602082019050818103600083015261320281612e48565b9050919050565b6000602082019050818103600083015261322281612e6b565b9050919050565b6000602082019050818103600083015261324281612e8e565b9050919050565b6000602082019050818103600083015261326281612eb1565b9050919050565b6000602082019050818103600083015261328281612ed4565b9050919050565b600060208201905081810360008301526132a281612ef7565b9050919050565b600060208201905081810360008301526132c281612f1a565b9050919050565b600060208201905081810360008301526132e281612f3d565b9050919050565b6000602082019050818103600083015261330281612f60565b9050919050565b600060208201905061331e6000830184612f83565b92915050565b60006060820190506133396000830186612f83565b6133466020830185612f92565b6133536040830184612f92565b949350505050565b60006020820190506133706000830184612f92565b92915050565b6000613380613391565b905061338c82826135f0565b919050565b6000604051905090565b600067ffffffffffffffff8211156133b6576133b5613728565b5b6133bf82613757565b9050602081019050919050565b600067ffffffffffffffff8211156133e7576133e6613728565b5b6133f082613757565b9050602081019050919050565b600081519050919050565b600081519050919050565b600082825260208201905092915050565b600082825260208201905092915050565b600081905092915050565b600061344b82613565565b915061345683613565565b9250827fffffffffffffffffffffffffffffffffffffffffffffffffffffffffffffffff0382111561348b5761348a61369b565b5b828201905092915050565b60006134a182613565565b91506134ac83613565565b9250826134bc576134bb6136ca565b5b828204905092915050565b60006134d282613565565b91506134dd83613565565b9250828210156134f0576134ef61369b565b5b828203905092915050565b600061350682613545565b9050919050565b60008115159050919050565b60007fffffffff0000000000000000000000000000000000000000000000000000000082169050919050565b600073ffffffffffffffffffffffffffffffffffffffff82169050919050565b6000819050919050565b600060ff82169050919050565b82818337600083830152505050565b60005b838110156135a957808201518184015260208101905061358e565b838111156135b8576000848401525b50505050565b600060028204905060018216806135d657607f821691505b602082108114156135ea576135e96136f9565b5b50919050565b6135f982613757565b810181811067ffffffffffffffff8211171561361857613617613728565b5b80604052505050565b600061362c82613565565b91507fffffffffffffffffffffffffffffffffffffffffffffffffffffffffffffffff82141561365f5761365e61369b565b5b600182019050919050565b600061367582613565565b915061368083613565565b9250826136905761368f6136ca565b5b828206905092915050565b7f4e487b7100000000000000000000000000000000000000000000000000000000600052601160045260246000fd5b7f4e487b7100000000000000000000000000000000000000000000000000000000600052601260045260246000fd5b7f4e487b7100000000000000000000000000000000000000000000000000000000600052602260045260246000fd5b7f4e487b7100000000000000000000000000000000000000000000000000000000600052604160045260246000fd5b6000601f19601f8301169050919050565b7f4552433732313a207472616e7366657220746f206e6f6e20455243373231526560008201527f63656976657220696d706c656d656e7465720000000000000000000000000000602082015250565b7f4f776e61626c653a206e6577206f776e657220697320746865207a65726f206160008201527f6464726573730000000000000000000000000000000000000000000000000000602082015250565b7f4552433732313a20746f6b656e20616c7265616479206d696e74656400000000600082015250565b7f4552433732313a207472616e7366657220746f20746865207a65726f2061646460008201527f7265737300000000000000000000000000000000000000000000000000000000602082015250565b7f4552433732313a20617070726f766520746f2063616c6c657200000000000000600082015250565b7f4552433732313a206f70657261746f7220717565727920666f72206e6f6e657860008201527f697374656e7420746f6b656e0000000000000000000000000000000000000000602082015250565b7f4552433732313a20617070726f76652063616c6c6572206973206e6f74206f7760008201527f6e6572206e6f7220617070726f76656420666f7220616c6c0000000000000000602082015250565b7f4552433732313a2062616c616e636520717565727920666f7220746865207a6560008201527f726f206164647265737300000000000000000000000000000000000000000000602082015250565b7f4552433732313a206f776e657220717565727920666f72206e6f6e657869737460008201527f656e7420746f6b656e0000000000000000000000000000000000000000000000602082015250565b7f45524337323155524953746f726167653a2055524920736574206f66206e6f6e60008201527f6578697374656e7420746f6b656e000000000000000000000000000000000000602082015250565b7f496e697469616c697a61626c653a20636f6e747261637420697320616c72656160008201527f647920696e697469616c697a6564000000000000000000000000000000000000602082015250565b7f4552433732313a206d696e7420746f20746865207a65726f2061646472657373600082015250565b7f45524337323155524953746f726167653a2055524920717565727920666f722060008201527f6e6f6e6578697374656e7420746f6b656e000000000000000000000000000000602082015250565b7f4552433732313a20617070726f76656420717565727920666f72206e6f6e657860008201527f697374656e7420746f6b656e0000000000000000000000000000000000000000602082015250565b7f4f776e61626c653a2063616c6c6572206973206e6f7420746865206f776e6572600082015250565b7f4552433732313a207472616e73666572206f6620746f6b656e2074686174206960008201527f73206e6f74206f776e0000000000000000000000000000000000000000000000602082015250565b7f4552433732314d657461646174613a2055524920717565727920666f72206e6f60008201527f6e6578697374656e7420746f6b656e0000000000000000000000000000000000602082015250565b7f4552433732313a20617070726f76616c20746f2063757272656e74206f776e6560008201527f7200000000000000000000000000000000000000000000000000000000000000602082015250565b7f536f7272792c206f7574206f662073746f636b00000000000000000000000000600082015250565b7f4552433732313a207472616e736665722063616c6c6572206973206e6f74206f60008201527f776e6572206e6f7220617070726f766564000000000000000000000000000000602082015250565b7f496e697469616c697a61626c653a20636f6e7472616374206973206e6f74206960008201527f6e697469616c697a696e67000000000000000000000000000000000000000000602082015250565b613d2e816134fb565b8114613d3957600080fd5b50565b613d458161350d565b8114613d5057600080fd5b50565b613d5c81613519565b8114613d6757600080fd5b50565b613d7381613565565b8114613d7e57600080fd5b50565b613d8a8161356f565b8114613d9557600080fd5b5056fea264697066735822122016661aa1c46282cce0ce1b5598627ad1c7607ca4ba7e72d69d9df021a94ce59764736f6c63430008030033",
  "linkReferences": {},
  "deployedLinkReferences": {}
}