{
  "_format": "hh-sol-artifact-1",
  "contractName": "ERC1155PresetMinterPauserUpgradeable",
  "sourceName": "contracts/artifacts/lib/contracts-upgradeable/token/ERC1155/presets/ERC1155PresetMinterPauserUpgradeable.sol",
  "abi": [
    {
      "anonymous": false,
      "inputs": [
        {
          "indexed": true,
          "internalType": "address",
          "name": "account",
          "type": "address"
        },
        {
          "indexed": true,
          "internalType": "address",
          "name": "operator",
          "type": "address"
        },
        {
          "indexed": false,
          "internalType": "bool",
          "name": "approved",
          "type": "bool"
        }
      ],
      "name": "ApprovalForAll",
      "type": "event"
    },
    {
      "anonymous": false,
      "inputs": [
        {
          "indexed": false,
          "internalType": "address",
          "name": "account",
          "type": "address"
        }
      ],
      "name": "Paused",
      "type": "event"
    },
    {
      "anonymous": false,
      "inputs": [
        {
          "indexed": true,
          "internalType": "bytes32",
          "name": "role",
          "type": "bytes32"
        },
        {
          "indexed": true,
          "internalType": "bytes32",
          "name": "previousAdminRole",
          "type": "bytes32"
        },
        {
          "indexed": true,
          "internalType": "bytes32",
          "name": "newAdminRole",
          "type": "bytes32"
        }
      ],
      "name": "RoleAdminChanged",
      "type": "event"
    },
    {
      "anonymous": false,
      "inputs": [
        {
          "indexed": true,
          "internalType": "bytes32",
          "name": "role",
          "type": "bytes32"
        },
        {
          "indexed": true,
          "internalType": "address",
          "name": "account",
          "type": "address"
        },
        {
          "indexed": true,
          "internalType": "address",
          "name": "sender",
          "type": "address"
        }
      ],
      "name": "RoleGranted",
      "type": "event"
    },
    {
      "anonymous": false,
      "inputs": [
        {
          "indexed": true,
          "internalType": "bytes32",
          "name": "role",
          "type": "bytes32"
        },
        {
          "indexed": true,
          "internalType": "address",
          "name": "account",
          "type": "address"
        },
        {
          "indexed": true,
          "internalType": "address",
          "name": "sender",
          "type": "address"
        }
      ],
      "name": "RoleRevoked",
      "type": "event"
    },
    {
      "anonymous": false,
      "inputs": [
        {
          "indexed": true,
          "internalType": "address",
          "name": "operator",
          "type": "address"
        },
        {
          "indexed": true,
          "internalType": "address",
          "name": "from",
          "type": "address"
        },
        {
          "indexed": true,
          "internalType": "address",
          "name": "to",
          "type": "address"
        },
        {
          "indexed": false,
          "internalType": "uint256[]",
          "name": "ids",
          "type": "uint256[]"
        },
        {
          "indexed": false,
          "internalType": "uint256[]",
          "name": "values",
          "type": "uint256[]"
        }
      ],
      "name": "TransferBatch",
      "type": "event"
    },
    {
      "anonymous": false,
      "inputs": [
        {
          "indexed": true,
          "internalType": "address",
          "name": "operator",
          "type": "address"
        },
        {
          "indexed": true,
          "internalType": "address",
          "name": "from",
          "type": "address"
        },
        {
          "indexed": true,
          "internalType": "address",
          "name": "to",
          "type": "address"
        },
        {
          "indexed": false,
          "internalType": "uint256",
          "name": "id",
          "type": "uint256"
        },
        {
          "indexed": false,
          "internalType": "uint256",
          "name": "value",
          "type": "uint256"
        }
      ],
      "name": "TransferSingle",
      "type": "event"
    },
    {
      "anonymous": false,
      "inputs": [
        {
          "indexed": false,
          "internalType": "string",
          "name": "value",
          "type": "string"
        },
        {
          "indexed": true,
          "internalType": "uint256",
          "name": "id",
          "type": "uint256"
        }
      ],
      "name": "URI",
      "type": "event"
    },
    {
      "anonymous": false,
      "inputs": [
        {
          "indexed": false,
          "internalType": "address",
          "name": "account",
          "type": "address"
        }
      ],
      "name": "Unpaused",
      "type": "event"
    },
    {
      "inputs": [],
      "name": "DEFAULT_ADMIN_ROLE",
      "outputs": [
        {
          "internalType": "bytes32",
          "name": "",
          "type": "bytes32"
        }
      ],
      "stateMutability": "view",
      "type": "function"
    },
    {
      "inputs": [],
      "name": "MINTER_ROLE",
      "outputs": [
        {
          "internalType": "bytes32",
          "name": "",
          "type": "bytes32"
        }
      ],
      "stateMutability": "view",
      "type": "function"
    },
    {
      "inputs": [],
      "name": "PAUSER_ROLE",
      "outputs": [
        {
          "internalType": "bytes32",
          "name": "",
          "type": "bytes32"
        }
      ],
      "stateMutability": "view",
      "type": "function"
    },
    {
      "inputs": [
        {
          "internalType": "address",
          "name": "account",
          "type": "address"
        },
        {
          "internalType": "uint256",
          "name": "id",
          "type": "uint256"
        }
      ],
      "name": "balanceOf",
      "outputs": [
        {
          "internalType": "uint256",
          "name": "",
          "type": "uint256"
        }
      ],
      "stateMutability": "view",
      "type": "function"
    },
    {
      "inputs": [
        {
          "internalType": "address[]",
          "name": "accounts",
          "type": "address[]"
        },
        {
          "internalType": "uint256[]",
          "name": "ids",
          "type": "uint256[]"
        }
      ],
      "name": "balanceOfBatch",
      "outputs": [
        {
          "internalType": "uint256[]",
          "name": "",
          "type": "uint256[]"
        }
      ],
      "stateMutability": "view",
      "type": "function"
    },
    {
      "inputs": [
        {
          "internalType": "address",
          "name": "account",
          "type": "address"
        },
        {
          "internalType": "uint256",
          "name": "id",
          "type": "uint256"
        },
        {
          "internalType": "uint256",
          "name": "value",
          "type": "uint256"
        }
      ],
      "name": "burn",
      "outputs": [],
      "stateMutability": "nonpayable",
      "type": "function"
    },
    {
      "inputs": [
        {
          "internalType": "address",
          "name": "account",
          "type": "address"
        },
        {
          "internalType": "uint256[]",
          "name": "ids",
          "type": "uint256[]"
        },
        {
          "internalType": "uint256[]",
          "name": "values",
          "type": "uint256[]"
        }
      ],
      "name": "burnBatch",
      "outputs": [],
      "stateMutability": "nonpayable",
      "type": "function"
    },
    {
      "inputs": [
        {
          "internalType": "bytes32",
          "name": "role",
          "type": "bytes32"
        }
      ],
      "name": "getRoleAdmin",
      "outputs": [
        {
          "internalType": "bytes32",
          "name": "",
          "type": "bytes32"
        }
      ],
      "stateMutability": "view",
      "type": "function"
    },
    {
      "inputs": [
        {
          "internalType": "bytes32",
          "name": "role",
          "type": "bytes32"
        },
        {
          "internalType": "uint256",
          "name": "index",
          "type": "uint256"
        }
      ],
      "name": "getRoleMember",
      "outputs": [
        {
          "internalType": "address",
          "name": "",
          "type": "address"
        }
      ],
      "stateMutability": "view",
      "type": "function"
    },
    {
      "inputs": [
        {
          "internalType": "bytes32",
          "name": "role",
          "type": "bytes32"
        }
      ],
      "name": "getRoleMemberCount",
      "outputs": [
        {
          "internalType": "uint256",
          "name": "",
          "type": "uint256"
        }
      ],
      "stateMutability": "view",
      "type": "function"
    },
    {
      "inputs": [
        {
          "internalType": "bytes32",
          "name": "role",
          "type": "bytes32"
        },
        {
          "internalType": "address",
          "name": "account",
          "type": "address"
        }
      ],
      "name": "grantRole",
      "outputs": [],
      "stateMutability": "nonpayable",
      "type": "function"
    },
    {
      "inputs": [
        {
          "internalType": "bytes32",
          "name": "role",
          "type": "bytes32"
        },
        {
          "internalType": "address",
          "name": "account",
          "type": "address"
        }
      ],
      "name": "hasRole",
      "outputs": [
        {
          "internalType": "bool",
          "name": "",
          "type": "bool"
        }
      ],
      "stateMutability": "view",
      "type": "function"
    },
    {
      "inputs": [
        {
          "internalType": "string",
          "name": "uri",
          "type": "string"
        }
      ],
      "name": "initialize",
      "outputs": [],
      "stateMutability": "nonpayable",
      "type": "function"
    },
    {
      "inputs": [
        {
          "internalType": "address",
          "name": "account",
          "type": "address"
        },
        {
          "internalType": "address",
          "name": "operator",
          "type": "address"
        }
      ],
      "name": "isApprovedForAll",
      "outputs": [
        {
          "internalType": "bool",
          "name": "",
          "type": "bool"
        }
      ],
      "stateMutability": "view",
      "type": "function"
    },
    {
      "inputs": [
        {
          "internalType": "address",
          "name": "to",
          "type": "address"
        },
        {
          "internalType": "uint256",
          "name": "id",
          "type": "uint256"
        },
        {
          "internalType": "uint256",
          "name": "amount",
          "type": "uint256"
        },
        {
          "internalType": "bytes",
          "name": "data",
          "type": "bytes"
        }
      ],
      "name": "mint",
      "outputs": [],
      "stateMutability": "nonpayable",
      "type": "function"
    },
    {
      "inputs": [
        {
          "internalType": "address",
          "name": "to",
          "type": "address"
        },
        {
          "internalType": "uint256[]",
          "name": "ids",
          "type": "uint256[]"
        },
        {
          "internalType": "uint256[]",
          "name": "amounts",
          "type": "uint256[]"
        },
        {
          "internalType": "bytes",
          "name": "data",
          "type": "bytes"
        }
      ],
      "name": "mintBatch",
      "outputs": [],
      "stateMutability": "nonpayable",
      "type": "function"
    },
    {
      "inputs": [],
      "name": "pause",
      "outputs": [],
      "stateMutability": "nonpayable",
      "type": "function"
    },
    {
      "inputs": [],
      "name": "paused",
      "outputs": [
        {
          "internalType": "bool",
          "name": "",
          "type": "bool"
        }
      ],
      "stateMutability": "view",
      "type": "function"
    },
    {
      "inputs": [
        {
          "internalType": "bytes32",
          "name": "role",
          "type": "bytes32"
        },
        {
          "internalType": "address",
          "name": "account",
          "type": "address"
        }
      ],
      "name": "renounceRole",
      "outputs": [],
      "stateMutability": "nonpayable",
      "type": "function"
    },
    {
      "inputs": [
        {
          "internalType": "bytes32",
          "name": "role",
          "type": "bytes32"
        },
        {
          "internalType": "address",
          "name": "account",
          "type": "address"
        }
      ],
      "name": "revokeRole",
      "outputs": [],
      "stateMutability": "nonpayable",
      "type": "function"
    },
    {
      "inputs": [
        {
          "internalType": "address",
          "name": "from",
          "type": "address"
        },
        {
          "internalType": "address",
          "name": "to",
          "type": "address"
        },
        {
          "internalType": "uint256[]",
          "name": "ids",
          "type": "uint256[]"
        },
        {
          "internalType": "uint256[]",
          "name": "amounts",
          "type": "uint256[]"
        },
        {
          "internalType": "bytes",
          "name": "data",
          "type": "bytes"
        }
      ],
      "name": "safeBatchTransferFrom",
      "outputs": [],
      "stateMutability": "nonpayable",
      "type": "function"
    },
    {
      "inputs": [
        {
          "internalType": "address",
          "name": "from",
          "type": "address"
        },
        {
          "internalType": "address",
          "name": "to",
          "type": "address"
        },
        {
          "internalType": "uint256",
          "name": "id",
          "type": "uint256"
        },
        {
          "internalType": "uint256",
          "name": "amount",
          "type": "uint256"
        },
        {
          "internalType": "bytes",
          "name": "data",
          "type": "bytes"
        }
      ],
      "name": "safeTransferFrom",
      "outputs": [],
      "stateMutability": "nonpayable",
      "type": "function"
    },
    {
      "inputs": [
        {
          "internalType": "address",
          "name": "operator",
          "type": "address"
        },
        {
          "internalType": "bool",
          "name": "approved",
          "type": "bool"
        }
      ],
      "name": "setApprovalForAll",
      "outputs": [],
      "stateMutability": "nonpayable",
      "type": "function"
    },
    {
      "inputs": [
        {
          "internalType": "bytes4",
          "name": "interfaceId",
          "type": "bytes4"
        }
      ],
      "name": "supportsInterface",
      "outputs": [
        {
          "internalType": "bool",
          "name": "",
          "type": "bool"
        }
      ],
      "stateMutability": "view",
      "type": "function"
    },
    {
      "inputs": [],
      "name": "unpause",
      "outputs": [],
      "stateMutability": "nonpayable",
      "type": "function"
    },
    {
      "inputs": [
        {
          "internalType": "uint256",
          "name": "",
          "type": "uint256"
        }
      ],
      "name": "uri",
      "outputs": [
        {
          "internalType": "string",
          "name": "",
          "type": "string"
        }
      ],
      "stateMutability": "view",
      "type": "function"
    }
  ],
  "bytecode": "0x608060405234801561001057600080fd5b506155f880620000216000396000f3fe608060405234801561001057600080fd5b506004361061018d5760003560e01c80638456cb59116100de578063d539139311610097578063e985e9c511610071578063e985e9c51461047e578063f242432a146104ae578063f5298aca146104ca578063f62d1888146104e65761018d565b8063d539139314610426578063d547741f14610444578063e63ab1e9146104605761018d565b80638456cb59146103525780639010d07c1461035c57806391d148541461038c578063a217fddf146103bc578063a22cb465146103da578063ca15c873146103f65761018d565b80632f2ff15d1161014b5780634e1273f4116101255780634e1273f4146102cc5780635c975abb146102fc5780636b20c4541461031a578063731133e9146103365761018d565b80632f2ff15d1461028a57806336568abe146102a65780633f4ba83a146102c25761018d565b8062fdd58e1461019257806301ffc9a7146101c25780630e89341c146101f25780631f7fdffa14610222578063248a9ca31461023e5780632eb2c2d61461026e575b600080fd5b6101ac60048036038101906101a79190613c94565b610502565b6040516101b991906148da565b60405180910390f35b6101dc60048036038101906101d79190613ea7565b6105cc565b6040516101e991906145a2565b60405180910390f35b61020c60048036038101906102079190613f3a565b6105de565b60405161021991906145d8565b60405180910390f35b61023c60048036038101906102379190613bad565b610672565b005b61025860048036038101906102539190613e06565b6106f4565b60405161026591906145bd565b60405180910390f35b610288600480360381019061028391906139e0565b610714565b005b6102a4600480360381019061029f9190613e2f565b6107b5565b005b6102c060048036038101906102bb9190613e2f565b6107de565b005b6102ca610861565b005b6102e660048036038101906102e19190613d9a565b6108db565b6040516102f39190614549565b60405180910390f35b610304610a8c565b60405161031191906145a2565b60405180910390f35b610334600480360381019061032f9190613b2e565b610aa4565b005b610350600480360381019061034b9190613d1f565b610b41565b005b61035a610bc3565b005b61037660048036038101906103719190613e6b565b610c3d565b604051610383919061446c565b60405180910390f35b6103a660048036038101906103a19190613e2f565b610c6c565b6040516103b391906145a2565b60405180910390f35b6103c4610cd7565b6040516103d191906145bd565b60405180910390f35b6103f460048036038101906103ef9190613c58565b610cde565b005b610410600480360381019061040b9190613e06565b610cf4565b60405161041d91906148da565b60405180910390f35b61042e610d18565b60405161043b91906145bd565b60405180910390f35b61045e60048036038101906104599190613e2f565b610d3c565b005b610468610d65565b60405161047591906145bd565b60405180910390f35b610498600480360381019061049391906139a4565b610d89565b6040516104a591906145a2565b60405180910390f35b6104c860048036038101906104c39190613a9f565b610e1d565b005b6104e460048036038101906104df9190613cd0565b610ebe565b005b61050060048036038101906104fb9190613ef9565b610f5b565b005b60008073ffffffffffffffffffffffffffffffffffffffff168373ffffffffffffffffffffffffffffffffffffffff161415610573576040517f08c379a000000000000000000000000000000000000000000000000000000000815260040161056a9061467a565b60405180910390fd5b60c9600083815260200190815260200160002060008473ffffffffffffffffffffffffffffffffffffffff1673ffffffffffffffffffffffffffffffffffffffff16815260200190815260200160002054905092915050565b60006105d782611049565b9050919050565b606060cb80546105ed90614c47565b80601f016020809104026020016040519081016040528092919081815260200182805461061990614c47565b80156106665780601f1061063b57610100808354040283529160200191610666565b820191906000526020600020905b81548152906001019060200180831161064957829003601f168201915b50505050509050919050565b6106a37f9f2df0fed2c77648de5860a4cc508cd0818c85b8b8a1ab4ceeef8d981c8956a661069e61112b565b610c6c565b6106e2576040517f08c379a00000000000000000000000000000000000000000000000000000000081526004016106d99061479a565b60405180910390fd5b6106ee84848484611133565b50505050565b600060656000838152602001908152602001600020600101549050919050565b61071c61112b565b73ffffffffffffffffffffffffffffffffffffffff168573ffffffffffffffffffffffffffffffffffffffff16148061076257506107618561075c61112b565b610d89565b5b6107a1576040517f08c379a00000000000000000000000000000000000000000000000000000000081526004016107989061473a565b60405180910390fd5b6107ae858585858561139e565b5050505050565b6107be826106f4565b6107cf816107ca61112b565b611701565b6107d9838361179e565b505050565b6107e661112b565b73ffffffffffffffffffffffffffffffffffffffff168173ffffffffffffffffffffffffffffffffffffffff1614610853576040517f08c379a000000000000000000000000000000000000000000000000000000000815260040161084a906148ba565b60405180910390fd5b61085d82826117d2565b5050565b6108927f65d7a28e3265b37a6474929f336521b332c1681b933f6cb9f3376673440d862a61088d61112b565b610c6c565b6108d1576040517f08c379a00000000000000000000000000000000000000000000000000000000081526004016108c8906147da565b60405180910390fd5b6108d9611806565b565b60608151835114610921576040517f08c379a00000000000000000000000000000000000000000000000000000000081526004016109189061485a565b60405180910390fd5b6000835167ffffffffffffffff811115610964577f4e487b7100000000000000000000000000000000000000000000000000000000600052604160045260246000fd5b6040519080825280602002602001820160405280156109925781602001602082028036833780820191505090505b50905060005b8451811015610a8157610a2b8582815181106109dd577f4e487b7100000000000000000000000000000000000000000000000000000000600052603260045260246000fd5b6020026020010151858381518110610a1e577f4e487b7100000000000000000000000000000000000000000000000000000000600052603260045260246000fd5b6020026020010151610502565b828281518110610a64577f4e487b7100000000000000000000000000000000000000000000000000000000600052603260045260246000fd5b60200260200101818152505080610a7a90614caa565b9050610998565b508091505092915050565b600061012d60009054906101000a900460ff16905090565b610aac61112b565b73ffffffffffffffffffffffffffffffffffffffff168373ffffffffffffffffffffffffffffffffffffffff161480610af25750610af183610aec61112b565b610d89565b5b610b31576040517f08c379a0000000000000000000000000000000000000000000000000000000008152600401610b28906146da565b60405180910390fd5b610b3c8383836118a9565b505050565b610b727f9f2df0fed2c77648de5860a4cc508cd0818c85b8b8a1ab4ceeef8d981c8956a6610b6d61112b565b610c6c565b610bb1576040517f08c379a0000000000000000000000000000000000000000000000000000000008152600401610ba89061479a565b60405180910390fd5b610bbd84848484611ba8565b50505050565b610bf47f65d7a28e3265b37a6474929f336521b332c1681b933f6cb9f3376673440d862a610bef61112b565b610c6c565b610c33576040517f08c379a0000000000000000000000000000000000000000000000000000000008152600401610c2a906147fa565b60405180910390fd5b610c3b611d3f565b565b6000610c648260976000868152602001908152602001600020611de390919063ffffffff16565b905092915050565b60006065600084815260200190815260200160002060000160008373ffffffffffffffffffffffffffffffffffffffff1673ffffffffffffffffffffffffffffffffffffffff16815260200190815260200160002060009054906101000a900460ff16905092915050565b6000801b81565b610cf0610ce961112b565b8383611dfd565b5050565b6000610d1160976000848152602001908152602001600020611f6a565b9050919050565b7f9f2df0fed2c77648de5860a4cc508cd0818c85b8b8a1ab4ceeef8d981c8956a681565b610d45826106f4565b610d5681610d5161112b565b611701565b610d6083836117d2565b505050565b7f65d7a28e3265b37a6474929f336521b332c1681b933f6cb9f3376673440d862a81565b600060ca60008473ffffffffffffffffffffffffffffffffffffffff1673ffffffffffffffffffffffffffffffffffffffff16815260200190815260200160002060008373ffffffffffffffffffffffffffffffffffffffff1673ffffffffffffffffffffffffffffffffffffffff16815260200190815260200160002060009054906101000a900460ff16905092915050565b610e2561112b565b73ffffffffffffffffffffffffffffffffffffffff168573ffffffffffffffffffffffffffffffffffffffff161480610e6b5750610e6a85610e6561112b565b610d89565b5b610eaa576040517f08c379a0000000000000000000000000000000000000000000000000000000008152600401610ea1906146da565b60405180910390fd5b610eb78585858585611f7f565b5050505050565b610ec661112b565b73ffffffffffffffffffffffffffffffffffffffff168373ffffffffffffffffffffffffffffffffffffffff161480610f0c5750610f0b83610f0661112b565b610d89565b5b610f4b576040517f08c379a0000000000000000000000000000000000000000000000000000000008152600401610f42906146da565b60405180910390fd5b610f56838383612204565b505050565b600060019054906101000a900460ff16610f835760008054906101000a900460ff1615610f8c565b610f8b612423565b5b610fcb576040517f08c379a0000000000000000000000000000000000000000000000000000000008152600401610fc29061475a565b60405180910390fd5b60008060019054906101000a900460ff16159050801561101b576001600060016101000a81548160ff02191690831515021790555060016000806101000a81548160ff0219169083151502179055505b61102482612434565b80156110455760008060016101000a81548160ff0219169083151502179055505b5050565b60007fd9b67a26000000000000000000000000000000000000000000000000000000007bffffffffffffffffffffffffffffffffffffffffffffffffffffffff1916827bffffffffffffffffffffffffffffffffffffffffffffffffffffffff1916148061111457507f0e89341c000000000000000000000000000000000000000000000000000000007bffffffffffffffffffffffffffffffffffffffffffffffffffffffff1916827bffffffffffffffffffffffffffffffffffffffffffffffffffffffff1916145b806111245750611123826124d0565b5b9050919050565b600033905090565b600073ffffffffffffffffffffffffffffffffffffffff168473ffffffffffffffffffffffffffffffffffffffff1614156111a3576040517f08c379a000000000000000000000000000000000000000000000000000000000815260040161119a9061489a565b60405180910390fd5b81518351146111e7576040517f08c379a00000000000000000000000000000000000000000000000000000000081526004016111de9061487a565b60405180910390fd5b60006111f161112b565b90506112028160008787878761254a565b60005b845181101561130857838181518110611247577f4e487b7100000000000000000000000000000000000000000000000000000000600052603260045260246000fd5b602002602001015160c9600087848151811061128c577f4e487b7100000000000000000000000000000000000000000000000000000000600052603260045260246000fd5b6020026020010151815260200190815260200160002060008873ffffffffffffffffffffffffffffffffffffffff1673ffffffffffffffffffffffffffffffffffffffff16815260200190815260200160002060008282546112ee9190614a79565b92505081905550808061130090614caa565b915050611205565b508473ffffffffffffffffffffffffffffffffffffffff16600073ffffffffffffffffffffffffffffffffffffffff168273ffffffffffffffffffffffffffffffffffffffff167f4a39dc06d4c0dbc64b70af90fd698a233a518aa5d07e595d983b8c0526c8f7fb878760405161138092919061456b565b60405180910390a461139781600087878787612560565b5050505050565b81518351146113e2576040517f08c379a00000000000000000000000000000000000000000000000000000000081526004016113d99061487a565b60405180910390fd5b600073ffffffffffffffffffffffffffffffffffffffff168473ffffffffffffffffffffffffffffffffffffffff161415611452576040517f08c379a00000000000000000000000000000000000000000000000000000000081526004016114499061471a565b60405180910390fd5b600061145c61112b565b905061146c81878787878761254a565b60005b845181101561166c5760008582815181106114b3577f4e487b7100000000000000000000000000000000000000000000000000000000600052603260045260246000fd5b6020026020010151905060008583815181106114f8577f4e487b7100000000000000000000000000000000000000000000000000000000600052603260045260246000fd5b60200260200101519050600060c9600084815260200190815260200160002060008b73ffffffffffffffffffffffffffffffffffffffff1673ffffffffffffffffffffffffffffffffffffffff1681526020019081526020016000205490508181101561159a576040517f08c379a0000000000000000000000000000000000000000000000000000000008152600401611591906147ba565b60405180910390fd5b81810360c9600085815260200190815260200160002060008c73ffffffffffffffffffffffffffffffffffffffff1673ffffffffffffffffffffffffffffffffffffffff168152602001908152602001600020819055508160c9600085815260200190815260200160002060008b73ffffffffffffffffffffffffffffffffffffffff1673ffffffffffffffffffffffffffffffffffffffff16815260200190815260200160002060008282546116519190614a79565b925050819055505050508061166590614caa565b905061146f565b508473ffffffffffffffffffffffffffffffffffffffff168673ffffffffffffffffffffffffffffffffffffffff168273ffffffffffffffffffffffffffffffffffffffff167f4a39dc06d4c0dbc64b70af90fd698a233a518aa5d07e595d983b8c0526c8f7fb87876040516116e392919061456b565b60405180910390a46116f9818787878787612560565b505050505050565b61170b8282610c6c565b61179a576117308173ffffffffffffffffffffffffffffffffffffffff166014612747565b61173e8360001c6020612747565b60405160200161174f929190614432565b6040516020818303038152906040526040517f08c379a000000000000000000000000000000000000000000000000000000000815260040161179191906145d8565b60405180910390fd5b5050565b6117a88282612a41565b6117cd8160976000858152602001908152602001600020612b2290919063ffffffff16565b505050565b6117dc8282612b52565b6118018160976000858152602001908152602001600020612c3490919063ffffffff16565b505050565b61180e610a8c565b61184d576040517f08c379a00000000000000000000000000000000000000000000000000000000081526004016118449061465a565b60405180910390fd5b600061012d60006101000a81548160ff0219169083151502179055507f5db9ee0a495bf2e6ff9c91a7834c1ba4fdd244a5e8aa4e537bd38aeae4b073aa61189261112b565b60405161189f919061446c565b60405180910390a1565b600073ffffffffffffffffffffffffffffffffffffffff168373ffffffffffffffffffffffffffffffffffffffff161415611919576040517f08c379a00000000000000000000000000000000000000000000000000000000081526004016119109061477a565b60405180910390fd5b805182511461195d576040517f08c379a00000000000000000000000000000000000000000000000000000000081526004016119549061487a565b60405180910390fd5b600061196761112b565b90506119878185600086866040518060200160405280600081525061254a565b60005b8351811015611b225760008482815181106119ce577f4e487b7100000000000000000000000000000000000000000000000000000000600052603260045260246000fd5b602002602001015190506000848381518110611a13577f4e487b7100000000000000000000000000000000000000000000000000000000600052603260045260246000fd5b60200260200101519050600060c9600084815260200190815260200160002060008973ffffffffffffffffffffffffffffffffffffffff1673ffffffffffffffffffffffffffffffffffffffff16815260200190815260200160002054905081811015611ab5576040517f08c379a0000000000000000000000000000000000000000000000000000000008152600401611aac9061469a565b60405180910390fd5b81810360c9600085815260200190815260200160002060008a73ffffffffffffffffffffffffffffffffffffffff1673ffffffffffffffffffffffffffffffffffffffff168152602001908152602001600020819055505050508080611b1a90614caa565b91505061198a565b50600073ffffffffffffffffffffffffffffffffffffffff168473ffffffffffffffffffffffffffffffffffffffff168273ffffffffffffffffffffffffffffffffffffffff167f4a39dc06d4c0dbc64b70af90fd698a233a518aa5d07e595d983b8c0526c8f7fb8686604051611b9a92919061456b565b60405180910390a450505050565b600073ffffffffffffffffffffffffffffffffffffffff168473ffffffffffffffffffffffffffffffffffffffff161415611c18576040517f08c379a0000000000000000000000000000000000000000000000000000000008152600401611c0f9061489a565b60405180910390fd5b6000611c2261112b565b9050611c4381600087611c3488612c64565b611c3d88612c64565b8761254a565b8260c9600086815260200190815260200160002060008773ffffffffffffffffffffffffffffffffffffffff1673ffffffffffffffffffffffffffffffffffffffff1681526020019081526020016000206000828254611ca39190614a79565b925050819055508473ffffffffffffffffffffffffffffffffffffffff16600073ffffffffffffffffffffffffffffffffffffffff168273ffffffffffffffffffffffffffffffffffffffff167fc3d58168c5ae7397731d063d5bbf3d657854427343f4c083240f7aacaa2d0f628787604051611d219291906148f5565b60405180910390a4611d3881600087878787612d2a565b5050505050565b611d47610a8c565b15611d87576040517f08c379a0000000000000000000000000000000000000000000000000000000008152600401611d7e906146fa565b60405180910390fd5b600161012d60006101000a81548160ff0219169083151502179055507f62e78cea01bee320cd4e420270b5ea74000d11b0c9f74754ebdbfc544b05a258611dcc61112b565b604051611dd9919061446c565b60405180910390a1565b6000611df28360000183612f11565b60001c905092915050565b8173ffffffffffffffffffffffffffffffffffffffff168373ffffffffffffffffffffffffffffffffffffffff161415611e6c576040517f08c379a0000000000000000000000000000000000000000000000000000000008152600401611e639061483a565b60405180910390fd5b8060ca60008573ffffffffffffffffffffffffffffffffffffffff1673ffffffffffffffffffffffffffffffffffffffff16815260200190815260200160002060008473ffffffffffffffffffffffffffffffffffffffff1673ffffffffffffffffffffffffffffffffffffffff16815260200190815260200160002060006101000a81548160ff0219169083151502179055508173ffffffffffffffffffffffffffffffffffffffff168373ffffffffffffffffffffffffffffffffffffffff167f17307eab39ab6107e8899845ad3d59bd9653f200f220920489ca2b5937696c3183604051611f5d91906145a2565b60405180910390a3505050565b6000611f7882600001612f62565b9050919050565b600073ffffffffffffffffffffffffffffffffffffffff168473ffffffffffffffffffffffffffffffffffffffff161415611fef576040517f08c379a0000000000000000000000000000000000000000000000000000000008152600401611fe69061471a565b60405180910390fd5b6000611ff961112b565b905061201981878761200a88612c64565b61201388612c64565b8761254a565b600060c9600086815260200190815260200160002060008873ffffffffffffffffffffffffffffffffffffffff1673ffffffffffffffffffffffffffffffffffffffff168152602001908152602001600020549050838110156120b1576040517f08c379a00000000000000000000000000000000000000000000000000000000081526004016120a8906147ba565b60405180910390fd5b83810360c9600087815260200190815260200160002060008973ffffffffffffffffffffffffffffffffffffffff1673ffffffffffffffffffffffffffffffffffffffff168152602001908152602001600020819055508360c9600087815260200190815260200160002060008873ffffffffffffffffffffffffffffffffffffffff1673ffffffffffffffffffffffffffffffffffffffff16815260200190815260200160002060008282546121689190614a79565b925050819055508573ffffffffffffffffffffffffffffffffffffffff168773ffffffffffffffffffffffffffffffffffffffff168373ffffffffffffffffffffffffffffffffffffffff167fc3d58168c5ae7397731d063d5bbf3d657854427343f4c083240f7aacaa2d0f6288886040516121e59291906148f5565b60405180910390a46121fb828888888888612d2a565b50505050505050565b600073ffffffffffffffffffffffffffffffffffffffff168373ffffffffffffffffffffffffffffffffffffffff161415612274576040517f08c379a000000000000000000000000000000000000000000000000000000000815260040161226b9061477a565b60405180910390fd5b600061227e61112b565b90506122ae8185600061229087612c64565b61229987612c64565b6040518060200160405280600081525061254a565b600060c9600085815260200190815260200160002060008673ffffffffffffffffffffffffffffffffffffffff1673ffffffffffffffffffffffffffffffffffffffff16815260200190815260200160002054905082811015612346576040517f08c379a000000000000000000000000000000000000000000000000000000000815260040161233d9061469a565b60405180910390fd5b82810360c9600086815260200190815260200160002060008773ffffffffffffffffffffffffffffffffffffffff1673ffffffffffffffffffffffffffffffffffffffff16815260200190815260200160002081905550600073ffffffffffffffffffffffffffffffffffffffff168573ffffffffffffffffffffffffffffffffffffffff168373ffffffffffffffffffffffffffffffffffffffff167fc3d58168c5ae7397731d063d5bbf3d657854427343f4c083240f7aacaa2d0f6287876040516124149291906148f5565b60405180910390a45050505050565b600061242e30612f73565b15905090565b600060019054906101000a900460ff16612483576040517f08c379a000000000000000000000000000000000000000000000000000000000815260040161247a9061481a565b60405180910390fd5b61248b612f86565b612493612fd7565b61249b613028565b6124a3613079565b6124ac816130ca565b6124b4613125565b6124bc613176565b6124c46131e3565b6124cd81613234565b50565b60007f5a05180f000000000000000000000000000000000000000000000000000000007bffffffffffffffffffffffffffffffffffffffffffffffffffffffff1916827bffffffffffffffffffffffffffffffffffffffffffffffffffffffff191614806125435750612542826132fc565b5b9050919050565b612558868686868686613376565b505050505050565b61257f8473ffffffffffffffffffffffffffffffffffffffff16612f73565b1561273f578373ffffffffffffffffffffffffffffffffffffffff1663bc197c8187878686866040518663ffffffff1660e01b81526004016125c5959493929190614487565b602060405180830381600087803b1580156125df57600080fd5b505af192505050801561261057506040513d601f19601f8201168201806040525081019061260d9190613ed0565b60015b6126b65761261c614d80565b806308c379a0141561267957506126316154b9565b8061263c575061267b565b806040517f08c379a000000000000000000000000000000000000000000000000000000000815260040161267091906145d8565b60405180910390fd5b505b6040517f08c379a00000000000000000000000000000000000000000000000000000000081526004016126ad906145fa565b60405180910390fd5b63bc197c8160e01b7bffffffffffffffffffffffffffffffffffffffffffffffffffffffff1916817bffffffffffffffffffffffffffffffffffffffffffffffffffffffff19161461273d576040517f08c379a00000000000000000000000000000000000000000000000000000000081526004016127349061463a565b60405180910390fd5b505b505050505050565b60606000600283600261275a9190614acf565b6127649190614a79565b67ffffffffffffffff8111156127a3577f4e487b7100000000000000000000000000000000000000000000000000000000600052604160045260246000fd5b6040519080825280601f01601f1916602001820160405280156127d55781602001600182028036833780820191505090505b5090507f300000000000000000000000000000000000000000000000000000000000000081600081518110612833577f4e487b7100000000000000000000000000000000000000000000000000000000600052603260045260246000fd5b60200101907effffffffffffffffffffffffffffffffffffffffffffffffffffffffffffff1916908160001a9053507f7800000000000000000000000000000000000000000000000000000000000000816001815181106128bd577f4e487b7100000000000000000000000000000000000000000000000000000000600052603260045260246000fd5b60200101907effffffffffffffffffffffffffffffffffffffffffffffffffffffffffffff1916908160001a905350600060018460026128fd9190614acf565b6129079190614a79565b90505b60018111156129f3577f3031323334353637383961626364656600000000000000000000000000000000600f86166010811061296f577f4e487b7100000000000000000000000000000000000000000000000000000000600052603260045260246000fd5b1a60f81b8282815181106129ac577f4e487b7100000000000000000000000000000000000000000000000000000000600052603260045260246000fd5b60200101907effffffffffffffffffffffffffffffffffffffffffffffffffffffffffffff1916908160001a905350600485901c9450806129ec90614c1d565b905061290a565b5060008414612a37576040517f08c379a0000000000000000000000000000000000000000000000000000000008152600401612a2e9061461a565b60405180910390fd5b8091505092915050565b612a4b8282610c6c565b612b1e5760016065600084815260200190815260200160002060000160008373ffffffffffffffffffffffffffffffffffffffff1673ffffffffffffffffffffffffffffffffffffffff16815260200190815260200160002060006101000a81548160ff021916908315150217905550612ac361112b565b73ffffffffffffffffffffffffffffffffffffffff168173ffffffffffffffffffffffffffffffffffffffff16837f2f8788117e7eff1d82e926ec794901d17c78024a50270940304540a733656f0d60405160405180910390a45b5050565b6000612b4a836000018373ffffffffffffffffffffffffffffffffffffffff1660001b6133d4565b905092915050565b612b5c8282610c6c565b15612c305760006065600084815260200190815260200160002060000160008373ffffffffffffffffffffffffffffffffffffffff1673ffffffffffffffffffffffffffffffffffffffff16815260200190815260200160002060006101000a81548160ff021916908315150217905550612bd561112b565b73ffffffffffffffffffffffffffffffffffffffff168173ffffffffffffffffffffffffffffffffffffffff16837ff6391f5c32d9c69d2a47ea670b442974b53935d1edc7fd64eb21e047a839171b60405160405180910390a45b5050565b6000612c5c836000018373ffffffffffffffffffffffffffffffffffffffff1660001b613444565b905092915050565b60606000600167ffffffffffffffff811115612ca9577f4e487b7100000000000000000000000000000000000000000000000000000000600052604160045260246000fd5b604051908082528060200260200182016040528015612cd75781602001602082028036833780820191505090505b5090508281600081518110612d15577f4e487b7100000000000000000000000000000000000000000000000000000000600052603260045260246000fd5b60200260200101818152505080915050919050565b612d498473ffffffffffffffffffffffffffffffffffffffff16612f73565b15612f09578373ffffffffffffffffffffffffffffffffffffffff1663f23a6e6187878686866040518663ffffffff1660e01b8152600401612d8f9594939291906144ef565b602060405180830381600087803b158015612da957600080fd5b505af1925050508015612dda57506040513d601f19601f82011682018060405250810190612dd79190613ed0565b60015b612e8057612de6614d80565b806308c379a01415612e435750612dfb6154b9565b80612e065750612e45565b806040517f08c379a0000000000000000000000000000000000000000000000000000000008152600401612e3a91906145d8565b60405180910390fd5b505b6040517f08c379a0000000000000000000000000000000000000000000000000000000008152600401612e77906145fa565b60405180910390fd5b63f23a6e6160e01b7bffffffffffffffffffffffffffffffffffffffffffffffffffffffff1916817bffffffffffffffffffffffffffffffffffffffffffffffffffffffff191614612f07576040517f08c379a0000000000000000000000000000000000000000000000000000000008152600401612efe9061463a565b60405180910390fd5b505b505050505050565b6000826000018281548110612f4f577f4e487b7100000000000000000000000000000000000000000000000000000000600052603260045260246000fd5b9060005260206000200154905092915050565b600081600001805490509050919050565b600080823b905060008111915050919050565b600060019054906101000a900460ff16612fd5576040517f08c379a0000000000000000000000000000000000000000000000000000000008152600401612fcc9061481a565b60405180910390fd5b565b600060019054906101000a900460ff16613026576040517f08c379a000000000000000000000000000000000000000000000000000000000815260040161301d9061481a565b60405180910390fd5b565b600060019054906101000a900460ff16613077576040517f08c379a000000000000000000000000000000000000000000000000000000000815260040161306e9061481a565b60405180910390fd5b565b600060019054906101000a900460ff166130c8576040517f08c379a00000000000000000000000000000000000000000000000000000000081526004016130bf9061481a565b60405180910390fd5b565b600060019054906101000a900460ff16613119576040517f08c379a00000000000000000000000000000000000000000000000000000000081526004016131109061481a565b60405180910390fd5b613122816135ca565b50565b600060019054906101000a900460ff16613174576040517f08c379a000000000000000000000000000000000000000000000000000000000815260040161316b9061481a565b60405180910390fd5b565b600060019054906101000a900460ff166131c5576040517f08c379a00000000000000000000000000000000000000000000000000000000081526004016131bc9061481a565b60405180910390fd5b600061012d60006101000a81548160ff021916908315150217905550565b600060019054906101000a900460ff16613232576040517f08c379a00000000000000000000000000000000000000000000000000000000081526004016132299061481a565b60405180910390fd5b565b600060019054906101000a900460ff16613283576040517f08c379a000000000000000000000000000000000000000000000000000000000815260040161327a9061481a565b60405180910390fd5b6132976000801b61329261112b565b6135e4565b6132c87f9f2df0fed2c77648de5860a4cc508cd0818c85b8b8a1ab4ceeef8d981c8956a66132c361112b565b6135e4565b6132f97f65d7a28e3265b37a6474929f336521b332c1681b933f6cb9f3376673440d862a6132f461112b565b6135e4565b50565b60007f7965db0b000000000000000000000000000000000000000000000000000000007bffffffffffffffffffffffffffffffffffffffffffffffffffffffff1916827bffffffffffffffffffffffffffffffffffffffffffffffffffffffff1916148061336f575061336e826135f2565b5b9050919050565b61338486868686868661365c565b61338c610a8c565b156133cc576040517f08c379a00000000000000000000000000000000000000000000000000000000081526004016133c3906146ba565b60405180910390fd5b505050505050565b60006133e08383613664565b61343957826000018290806001815401808255809150506001900390600052602060002001600090919091909150558260000180549050836001016000848152602001908152602001600020819055506001905061343e565b600090505b92915050565b600080836001016000848152602001908152602001600020549050600081146135be5760006001826134769190614b29565b905060006001866000018054905061348e9190614b29565b90508181146135495760008660000182815481106134d5577f4e487b7100000000000000000000000000000000000000000000000000000000600052603260045260246000fd5b906000526020600020015490508087600001848154811061351f577f4e487b7100000000000000000000000000000000000000000000000000000000600052603260045260246000fd5b90600052602060002001819055508387600101600083815260200190815260200160002081905550505b85600001805480613583577f4e487b7100000000000000000000000000000000000000000000000000000000600052603160045260246000fd5b6001900381819060005260206000200160009055905585600101600086815260200190815260200160002060009055600193505050506135c4565b60009150505b92915050565b8060cb90805190602001906135e0929190613687565b5050565b6135ee828261179e565b5050565b60007f01ffc9a7000000000000000000000000000000000000000000000000000000007bffffffffffffffffffffffffffffffffffffffffffffffffffffffff1916827bffffffffffffffffffffffffffffffffffffffffffffffffffffffff1916149050919050565b505050505050565b600080836001016000848152602001908152602001600020541415905092915050565b82805461369390614c47565b90600052602060002090601f0160209004810192826136b557600085556136fc565b82601f106136ce57805160ff19168380011785556136fc565b828001600101855582156136fc579182015b828111156136fb5782518255916020019190600101906136e0565b5b509050613709919061370d565b5090565b5b8082111561372657600081600090555060010161370e565b5090565b600061373d61373884614943565b61491e565b9050808382526020820190508285602086028201111561375c57600080fd5b60005b8581101561378c5781613772888261387e565b84526020840193506020830192505060018101905061375f565b5050509392505050565b60006137a96137a48461496f565b61491e565b905080838252602082019050828560208602820111156137c857600080fd5b60005b858110156137f857816137de888261398f565b8452602084019350602083019250506001810190506137cb565b5050509392505050565b60006138156138108461499b565b61491e565b90508281526020810184848401111561382d57600080fd5b613838848285614bdb565b509392505050565b600061385361384e846149cc565b61491e565b90508281526020810184848401111561386b57600080fd5b613876848285614bdb565b509392505050565b60008135905061388d8161554f565b92915050565b600082601f8301126138a457600080fd5b81356138b484826020860161372a565b91505092915050565b600082601f8301126138ce57600080fd5b81356138de848260208601613796565b91505092915050565b6000813590506138f681615566565b92915050565b60008135905061390b8161557d565b92915050565b60008135905061392081615594565b92915050565b60008151905061393581615594565b92915050565b600082601f83011261394c57600080fd5b813561395c848260208601613802565b91505092915050565b600082601f83011261397657600080fd5b8135613986848260208601613840565b91505092915050565b60008135905061399e816155ab565b92915050565b600080604083850312156139b757600080fd5b60006139c58582860161387e565b92505060206139d68582860161387e565b9150509250929050565b600080600080600060a086880312156139f857600080fd5b6000613a068882890161387e565b9550506020613a178882890161387e565b945050604086013567ffffffffffffffff811115613a3457600080fd5b613a40888289016138bd565b935050606086013567ffffffffffffffff811115613a5d57600080fd5b613a69888289016138bd565b925050608086013567ffffffffffffffff811115613a8657600080fd5b613a928882890161393b565b9150509295509295909350565b600080600080600060a08688031215613ab757600080fd5b6000613ac58882890161387e565b9550506020613ad68882890161387e565b9450506040613ae78882890161398f565b9350506060613af88882890161398f565b925050608086013567ffffffffffffffff811115613b1557600080fd5b613b218882890161393b565b9150509295509295909350565b600080600060608486031215613b4357600080fd5b6000613b518682870161387e565b935050602084013567ffffffffffffffff811115613b6e57600080fd5b613b7a868287016138bd565b925050604084013567ffffffffffffffff811115613b9757600080fd5b613ba3868287016138bd565b9150509250925092565b60008060008060808587031215613bc357600080fd5b6000613bd18782880161387e565b945050602085013567ffffffffffffffff811115613bee57600080fd5b613bfa878288016138bd565b935050604085013567ffffffffffffffff811115613c1757600080fd5b613c23878288016138bd565b925050606085013567ffffffffffffffff811115613c4057600080fd5b613c4c8782880161393b565b91505092959194509250565b60008060408385031215613c6b57600080fd5b6000613c798582860161387e565b9250506020613c8a858286016138e7565b9150509250929050565b60008060408385031215613ca757600080fd5b6000613cb58582860161387e565b9250506020613cc68582860161398f565b9150509250929050565b600080600060608486031215613ce557600080fd5b6000613cf38682870161387e565b9350506020613d048682870161398f565b9250506040613d158682870161398f565b9150509250925092565b60008060008060808587031215613d3557600080fd5b6000613d438782880161387e565b9450506020613d548782880161398f565b9350506040613d658782880161398f565b925050606085013567ffffffffffffffff811115613d8257600080fd5b613d8e8782880161393b565b91505092959194509250565b60008060408385031215613dad57600080fd5b600083013567ffffffffffffffff811115613dc757600080fd5b613dd385828601613893565b925050602083013567ffffffffffffffff811115613df057600080fd5b613dfc858286016138bd565b9150509250929050565b600060208284031215613e1857600080fd5b6000613e26848285016138fc565b91505092915050565b60008060408385031215613e4257600080fd5b6000613e50858286016138fc565b9250506020613e618582860161387e565b9150509250929050565b60008060408385031215613e7e57600080fd5b6000613e8c858286016138fc565b9250506020613e9d8582860161398f565b9150509250929050565b600060208284031215613eb957600080fd5b6000613ec784828501613911565b91505092915050565b600060208284031215613ee257600080fd5b6000613ef084828501613926565b91505092915050565b600060208284031215613f0b57600080fd5b600082013567ffffffffffffffff811115613f2557600080fd5b613f3184828501613965565b91505092915050565b600060208284031215613f4c57600080fd5b6000613f5a8482850161398f565b91505092915050565b6000613f6f8383614414565b60208301905092915050565b613f8481614b5d565b82525050565b6000613f9582614a0d565b613f9f8185614a3b565b9350613faa836149fd565b8060005b83811015613fdb578151613fc28882613f63565b9750613fcd83614a2e565b925050600181019050613fae565b5085935050505092915050565b613ff181614b6f565b82525050565b61400081614b7b565b82525050565b600061401182614a18565b61401b8185614a4c565b935061402b818560208601614bea565b61403481614da2565b840191505092915050565b600061404a82614a23565b6140548185614a5d565b9350614064818560208601614bea565b61406d81614da2565b840191505092915050565b600061408382614a23565b61408d8185614a6e565b935061409d818560208601614bea565b80840191505092915050565b60006140b6603483614a5d565b91506140c182614dc0565b604082019050919050565b60006140d9602083614a5d565b91506140e482614e0f565b602082019050919050565b60006140fc602883614a5d565b915061410782614e38565b604082019050919050565b600061411f601483614a5d565b915061412a82614e87565b602082019050919050565b6000614142602b83614a5d565b915061414d82614eb0565b604082019050919050565b6000614165602483614a5d565b915061417082614eff565b604082019050919050565b6000614188602c83614a5d565b915061419382614f4e565b604082019050919050565b60006141ab602983614a5d565b91506141b682614f9d565b604082019050919050565b60006141ce601083614a5d565b91506141d982614fec565b602082019050919050565b60006141f1602583614a5d565b91506141fc82615015565b604082019050919050565b6000614214603283614a5d565b915061421f82615064565b604082019050919050565b6000614237602e83614a5d565b9150614242826150b3565b604082019050919050565b600061425a602383614a5d565b915061426582615102565b604082019050919050565b600061427d603883614a5d565b915061428882615151565b604082019050919050565b60006142a0602a83614a5d565b91506142ab826151a0565b604082019050919050565b60006142c3603b83614a5d565b91506142ce826151ef565b604082019050919050565b60006142e6603983614a5d565b91506142f18261523e565b604082019050919050565b6000614309602b83614a5d565b91506143148261528d565b604082019050919050565b600061432c601783614a6e565b9150614337826152dc565b601782019050919050565b600061434f602983614a5d565b915061435a82615305565b604082019050919050565b6000614372602983614a5d565b915061437d82615354565b604082019050919050565b6000614395602883614a5d565b91506143a0826153a3565b604082019050919050565b60006143b8602183614a5d565b91506143c3826153f2565b604082019050919050565b60006143db601183614a6e565b91506143e682615441565b601182019050919050565b60006143fe602f83614a5d565b91506144098261546a565b604082019050919050565b61441d81614bd1565b82525050565b61442c81614bd1565b82525050565b600061443d8261431f565b91506144498285614078565b9150614454826143ce565b91506144608284614078565b91508190509392505050565b60006020820190506144816000830184613f7b565b92915050565b600060a08201905061449c6000830188613f7b565b6144a96020830187613f7b565b81810360408301526144bb8186613f8a565b905081810360608301526144cf8185613f8a565b905081810360808301526144e38184614006565b90509695505050505050565b600060a0820190506145046000830188613f7b565b6145116020830187613f7b565b61451e6040830186614423565b61452b6060830185614423565b818103608083015261453d8184614006565b90509695505050505050565b600060208201905081810360008301526145638184613f8a565b905092915050565b600060408201905081810360008301526145858185613f8a565b905081810360208301526145998184613f8a565b90509392505050565b60006020820190506145b76000830184613fe8565b92915050565b60006020820190506145d26000830184613ff7565b92915050565b600060208201905081810360008301526145f2818461403f565b905092915050565b60006020820190508181036000830152614613816140a9565b9050919050565b60006020820190508181036000830152614633816140cc565b9050919050565b60006020820190508181036000830152614653816140ef565b9050919050565b6000602082019050818103600083015261467381614112565b9050919050565b6000602082019050818103600083015261469381614135565b9050919050565b600060208201905081810360008301526146b381614158565b9050919050565b600060208201905081810360008301526146d38161417b565b9050919050565b600060208201905081810360008301526146f38161419e565b9050919050565b60006020820190508181036000830152614713816141c1565b9050919050565b60006020820190508181036000830152614733816141e4565b9050919050565b6000602082019050818103600083015261475381614207565b9050919050565b600060208201905081810360008301526147738161422a565b9050919050565b600060208201905081810360008301526147938161424d565b9050919050565b600060208201905081810360008301526147b381614270565b9050919050565b600060208201905081810360008301526147d381614293565b9050919050565b600060208201905081810360008301526147f3816142b6565b9050919050565b60006020820190508181036000830152614813816142d9565b9050919050565b60006020820190508181036000830152614833816142fc565b9050919050565b6000602082019050818103600083015261485381614342565b9050919050565b6000602082019050818103600083015261487381614365565b9050919050565b6000602082019050818103600083015261489381614388565b9050919050565b600060208201905081810360008301526148b3816143ab565b9050919050565b600060208201905081810360008301526148d3816143f1565b9050919050565b60006020820190506148ef6000830184614423565b92915050565b600060408201905061490a6000830185614423565b6149176020830184614423565b9392505050565b6000614928614939565b90506149348282614c79565b919050565b6000604051905090565b600067ffffffffffffffff82111561495e5761495d614d51565b5b602082029050602081019050919050565b600067ffffffffffffffff82111561498a57614989614d51565b5b602082029050602081019050919050565b600067ffffffffffffffff8211156149b6576149b5614d51565b5b6149bf82614da2565b9050602081019050919050565b600067ffffffffffffffff8211156149e7576149e6614d51565b5b6149f082614da2565b9050602081019050919050565b6000819050602082019050919050565b600081519050919050565b600081519050919050565b600081519050919050565b6000602082019050919050565b600082825260208201905092915050565b600082825260208201905092915050565b600082825260208201905092915050565b600081905092915050565b6000614a8482614bd1565b9150614a8f83614bd1565b9250827fffffffffffffffffffffffffffffffffffffffffffffffffffffffffffffffff03821115614ac457614ac3614cf3565b5b828201905092915050565b6000614ada82614bd1565b9150614ae583614bd1565b9250817fffffffffffffffffffffffffffffffffffffffffffffffffffffffffffffffff0483118215151615614b1e57614b1d614cf3565b5b828202905092915050565b6000614b3482614bd1565b9150614b3f83614bd1565b925082821015614b5257614b51614cf3565b5b828203905092915050565b6000614b6882614bb1565b9050919050565b60008115159050919050565b6000819050919050565b60007fffffffff0000000000000000000000000000000000000000000000000000000082169050919050565b600073ffffffffffffffffffffffffffffffffffffffff82169050919050565b6000819050919050565b82818337600083830152505050565b60005b83811015614c08578082015181840152602081019050614bed565b83811115614c17576000848401525b50505050565b6000614c2882614bd1565b91506000821415614c3c57614c3b614cf3565b5b600182039050919050565b60006002820490506001821680614c5f57607f821691505b60208210811415614c7357614c72614d22565b5b50919050565b614c8282614da2565b810181811067ffffffffffffffff82111715614ca157614ca0614d51565b5b80604052505050565b6000614cb582614bd1565b91507fffffffffffffffffffffffffffffffffffffffffffffffffffffffffffffffff821415614ce857614ce7614cf3565b5b600182019050919050565b7f4e487b7100000000000000000000000000000000000000000000000000000000600052601160045260246000fd5b7f4e487b7100000000000000000000000000000000000000000000000000000000600052602260045260246000fd5b7f4e487b7100000000000000000000000000000000000000000000000000000000600052604160045260246000fd5b600060033d1115614d9f5760046000803e614d9c600051614db3565b90505b90565b6000601f19601f8301169050919050565b60008160e01c9050919050565b7f455243313135353a207472616e7366657220746f206e6f6e204552433131353560008201527f526563656976657220696d706c656d656e746572000000000000000000000000602082015250565b7f537472696e67733a20686578206c656e67746820696e73756666696369656e74600082015250565b7f455243313135353a204552433131353552656365697665722072656a6563746560008201527f6420746f6b656e73000000000000000000000000000000000000000000000000602082015250565b7f5061757361626c653a206e6f7420706175736564000000000000000000000000600082015250565b7f455243313135353a2062616c616e636520717565727920666f7220746865207a60008201527f65726f2061646472657373000000000000000000000000000000000000000000602082015250565b7f455243313135353a206275726e20616d6f756e7420657863656564732062616c60008201527f616e636500000000000000000000000000000000000000000000000000000000602082015250565b7f455243313135355061757361626c653a20746f6b656e207472616e736665722060008201527f7768696c65207061757365640000000000000000000000000000000000000000602082015250565b7f455243313135353a2063616c6c6572206973206e6f74206f776e6572206e6f7260008201527f20617070726f7665640000000000000000000000000000000000000000000000602082015250565b7f5061757361626c653a2070617573656400000000000000000000000000000000600082015250565b7f455243313135353a207472616e7366657220746f20746865207a65726f20616460008201527f6472657373000000000000000000000000000000000000000000000000000000602082015250565b7f455243313135353a207472616e736665722063616c6c6572206973206e6f742060008201527f6f776e6572206e6f7220617070726f7665640000000000000000000000000000602082015250565b7f496e697469616c697a61626c653a20636f6e747261637420697320616c72656160008201527f647920696e697469616c697a6564000000000000000000000000000000000000602082015250565b7f455243313135353a206275726e2066726f6d20746865207a65726f206164647260008201527f6573730000000000000000000000000000000000000000000000000000000000602082015250565b7f455243313135355072657365744d696e7465725061757365723a206d7573742060008201527f68617665206d696e74657220726f6c6520746f206d696e740000000000000000602082015250565b7f455243313135353a20696e73756666696369656e742062616c616e636520666f60008201527f72207472616e7366657200000000000000000000000000000000000000000000602082015250565b7f455243313135355072657365744d696e7465725061757365723a206d7573742060008201527f686176652070617573657220726f6c6520746f20756e70617573650000000000602082015250565b7f455243313135355072657365744d696e7465725061757365723a206d7573742060008201527f686176652070617573657220726f6c6520746f20706175736500000000000000602082015250565b7f496e697469616c697a61626c653a20636f6e7472616374206973206e6f74206960008201527f6e697469616c697a696e67000000000000000000000000000000000000000000602082015250565b7f416363657373436f6e74726f6c3a206163636f756e7420000000000000000000600082015250565b7f455243313135353a2073657474696e6720617070726f76616c2073746174757360008201527f20666f722073656c660000000000000000000000000000000000000000000000602082015250565b7f455243313135353a206163636f756e747320616e6420696473206c656e67746860008201527f206d69736d617463680000000000000000000000000000000000000000000000602082015250565b7f455243313135353a2069647320616e6420616d6f756e7473206c656e6774682060008201527f6d69736d61746368000000000000000000000000000000000000000000000000602082015250565b7f455243313135353a206d696e7420746f20746865207a65726f2061646472657360008201527f7300000000000000000000000000000000000000000000000000000000000000602082015250565b7f206973206d697373696e6720726f6c6520000000000000000000000000000000600082015250565b7f416363657373436f6e74726f6c3a2063616e206f6e6c792072656e6f756e636560008201527f20726f6c657320666f722073656c660000000000000000000000000000000000602082015250565b600060443d10156154c95761554c565b6154d1614939565b60043d036004823e80513d602482011167ffffffffffffffff821117156154f957505061554c565b808201805167ffffffffffffffff811115615517575050505061554c565b80602083010160043d03850181111561553457505050505061554c565b61554382602001850186614c79565b82955050505050505b90565b61555881614b5d565b811461556357600080fd5b50565b61556f81614b6f565b811461557a57600080fd5b50565b61558681614b7b565b811461559157600080fd5b50565b61559d81614b85565b81146155a857600080fd5b50565b6155b481614bd1565b81146155bf57600080fd5b5056fea2646970667358221220148ed4c7f76cfb6c0eb0b34bc6e34fe0079aafe3b6cccb6d6dc4d326316dd23e64736f6c63430008030033",
  "linkReferences": {},
  "deployedLinkReferences": {}
}