{
  "_format": "hh-sol-artifact-1",
  "contractName": "ERC20PresetFixedSupplyUpgradeable",
  "sourceName": "contracts/artifacts/lib/contracts-upgradeable/token/ERC20/presets/ERC20PresetFixedSupplyUpgradeable.sol",
  "abi": [
    {
      "anonymous": false,
      "inputs": [
        {
          "indexed": true,
          "internalType": "address",
          "name": "owner",
          "type": "address"
        },
        {
          "indexed": true,
          "internalType": "address",
          "name": "spender",
          "type": "address"
        },
        {
          "indexed": false,
          "internalType": "uint256",
          "name": "value",
          "type": "uint256"
        }
      ],
      "name": "Approval",
      "type": "event"
    },
    {
      "anonymous": false,
      "inputs": [
        {
          "indexed": true,
          "internalType": "address",
          "name": "from",
          "type": "address"
        },
        {
          "indexed": true,
          "internalType": "address",
          "name": "to",
          "type": "address"
        },
        {
          "indexed": false,
          "internalType": "uint256",
          "name": "value",
          "type": "uint256"
        }
      ],
      "name": "Transfer",
      "type": "event"
    },
    {
      "inputs": [
        {
          "internalType": "address",
          "name": "owner",
          "type": "address"
        },
        {
          "internalType": "address",
          "name": "spender",
          "type": "address"
        }
      ],
      "name": "allowance",
      "outputs": [
        {
          "internalType": "uint256",
          "name": "",
          "type": "uint256"
        }
      ],
      "stateMutability": "view",
      "type": "function"
    },
    {
      "inputs": [
        {
          "internalType": "address",
          "name": "spender",
          "type": "address"
        },
        {
          "internalType": "uint256",
          "name": "amount",
          "type": "uint256"
        }
      ],
      "name": "approve",
      "outputs": [
        {
          "internalType": "bool",
          "name": "",
          "type": "bool"
        }
      ],
      "stateMutability": "nonpayable",
      "type": "function"
    },
    {
      "inputs": [
        {
          "internalType": "address",
          "name": "account",
          "type": "address"
        }
      ],
      "name": "balanceOf",
      "outputs": [
        {
          "internalType": "uint256",
          "name": "",
          "type": "uint256"
        }
      ],
      "stateMutability": "view",
      "type": "function"
    },
    {
      "inputs": [
        {
          "internalType": "uint256",
          "name": "amount",
          "type": "uint256"
        }
      ],
      "name": "burn",
      "outputs": [],
      "stateMutability": "nonpayable",
      "type": "function"
    },
    {
      "inputs": [
        {
          "internalType": "address",
          "name": "account",
          "type": "address"
        },
        {
          "internalType": "uint256",
          "name": "amount",
          "type": "uint256"
        }
      ],
      "name": "burnFrom",
      "outputs": [],
      "stateMutability": "nonpayable",
      "type": "function"
    },
    {
      "inputs": [],
      "name": "decimals",
      "outputs": [
        {
          "internalType": "uint8",
          "name": "",
          "type": "uint8"
        }
      ],
      "stateMutability": "view",
      "type": "function"
    },
    {
      "inputs": [
        {
          "internalType": "address",
          "name": "spender",
          "type": "address"
        },
        {
          "internalType": "uint256",
          "name": "subtractedValue",
          "type": "uint256"
        }
      ],
      "name": "decreaseAllowance",
      "outputs": [
        {
          "internalType": "bool",
          "name": "",
          "type": "bool"
        }
      ],
      "stateMutability": "nonpayable",
      "type": "function"
    },
    {
      "inputs": [
        {
          "internalType": "address",
          "name": "spender",
          "type": "address"
        },
        {
          "internalType": "uint256",
          "name": "addedValue",
          "type": "uint256"
        }
      ],
      "name": "increaseAllowance",
      "outputs": [
        {
          "internalType": "bool",
          "name": "",
          "type": "bool"
        }
      ],
      "stateMutability": "nonpayable",
      "type": "function"
    },
    {
      "inputs": [
        {
          "internalType": "string",
          "name": "name",
          "type": "string"
        },
        {
          "internalType": "string",
          "name": "symbol",
          "type": "string"
        },
        {
          "internalType": "uint256",
          "name": "initialSupply",
          "type": "uint256"
        },
        {
          "internalType": "address",
          "name": "owner",
          "type": "address"
        }
      ],
      "name": "initialize",
      "outputs": [],
      "stateMutability": "nonpayable",
      "type": "function"
    },
    {
      "inputs": [],
      "name": "name",
      "outputs": [
        {
          "internalType": "string",
          "name": "",
          "type": "string"
        }
      ],
      "stateMutability": "view",
      "type": "function"
    },
    {
      "inputs": [],
      "name": "symbol",
      "outputs": [
        {
          "internalType": "string",
          "name": "",
          "type": "string"
        }
      ],
      "stateMutability": "view",
      "type": "function"
    },
    {
      "inputs": [],
      "name": "totalSupply",
      "outputs": [
        {
          "internalType": "uint256",
          "name": "",
          "type": "uint256"
        }
      ],
      "stateMutability": "view",
      "type": "function"
    },
    {
      "inputs": [
        {
          "internalType": "address",
          "name": "recipient",
          "type": "address"
        },
        {
          "internalType": "uint256",
          "name": "amount",
          "type": "uint256"
        }
      ],
      "name": "transfer",
      "outputs": [
        {
          "internalType": "bool",
          "name": "",
          "type": "bool"
        }
      ],
      "stateMutability": "nonpayable",
      "type": "function"
    },
    {
      "inputs": [
        {
          "internalType": "address",
          "name": "sender",
          "type": "address"
        },
        {
          "internalType": "address",
          "name": "recipient",
          "type": "address"
        },
        {
          "internalType": "uint256",
          "name": "amount",
          "type": "uint256"
        }
      ],
      "name": "transferFrom",
      "outputs": [
        {
          "internalType": "bool",
          "name": "",
          "type": "bool"
        }
      ],
      "stateMutability": "nonpayable",
      "type": "function"
    }
  ],
  "bytecode": "0x608060405234801561001057600080fd5b50612112806100206000396000f3fe608060405234801561001057600080fd5b50600436106100ea5760003560e01c806370a082311161008c578063a457c2d711610066578063a457c2d71461025f578063a9059cbb1461028f578063bd3a13f6146102bf578063dd62ed3e146102db576100ea565b806370a08231146101f557806379cc67901461022557806395d89b4114610241576100ea565b806323b872dd116100c857806323b872dd1461015b578063313ce5671461018b57806339509351146101a957806342966c68146101d9576100ea565b806306fdde03146100ef578063095ea7b31461010d57806318160ddd1461013d575b600080fd5b6100f761030b565b6040516101049190611845565b60405180910390f35b61012760048036038101906101229190611505565b61039d565b604051610134919061182a565b60405180910390f35b6101456103bb565b6040516101529190611a07565b60405180910390f35b610175600480360381019061017091906114b6565b6103c5565b604051610182919061182a565b60405180910390f35b6101936104bd565b6040516101a09190611a22565b60405180910390f35b6101c360048036038101906101be9190611505565b6104c6565b6040516101d0919061182a565b60405180910390f35b6101f360048036038101906101ee91906115d4565b610572565b005b61020f600480360381019061020a9190611451565b610586565b60405161021c9190611a07565b60405180910390f35b61023f600480360381019061023a9190611505565b6105cf565b005b61024961064a565b6040516102569190611845565b60405180910390f35b61027960048036038101906102749190611505565b6106dc565b604051610286919061182a565b60405180910390f35b6102a960048036038101906102a49190611505565b6107c7565b6040516102b6919061182a565b60405180910390f35b6102d960048036038101906102d49190611541565b6107e5565b005b6102f560048036038101906102f0919061147a565b6108d9565b6040516103029190611a07565b60405180910390f35b60606036805461031a90611bd0565b80601f016020809104026020016040519081016040528092919081815260200182805461034690611bd0565b80156103935780601f1061036857610100808354040283529160200191610393565b820191906000526020600020905b81548152906001019060200180831161037657829003601f168201915b5050505050905090565b60006103b16103aa610960565b8484610968565b6001905092915050565b6000603554905090565b60006103d2848484610b33565b6000603460008673ffffffffffffffffffffffffffffffffffffffff1673ffffffffffffffffffffffffffffffffffffffff168152602001908152602001600020600061041d610960565b73ffffffffffffffffffffffffffffffffffffffff1673ffffffffffffffffffffffffffffffffffffffff1681526020019081526020016000205490508281101561049d576040517f08c379a000000000000000000000000000000000000000000000000000000000815260040161049490611907565b60405180910390fd5b6104b1856104a9610960565b858403610968565b60019150509392505050565b60006012905090565b60006105686104d3610960565b8484603460006104e1610960565b73ffffffffffffffffffffffffffffffffffffffff1673ffffffffffffffffffffffffffffffffffffffff16815260200190815260200160002060008873ffffffffffffffffffffffffffffffffffffffff1673ffffffffffffffffffffffffffffffffffffffff168152602001908152602001600020546105639190611aaf565b610968565b6001905092915050565b61058361057d610960565b82610db7565b50565b6000603360008373ffffffffffffffffffffffffffffffffffffffff1673ffffffffffffffffffffffffffffffffffffffff168152602001908152602001600020549050919050565b60006105e2836105dd610960565b6108d9565b905081811015610627576040517f08c379a000000000000000000000000000000000000000000000000000000000815260040161061e90611927565b60405180910390fd5b61063b83610633610960565b848403610968565b6106458383610db7565b505050565b60606037805461065990611bd0565b80601f016020809104026020016040519081016040528092919081815260200182805461068590611bd0565b80156106d25780601f106106a7576101008083540402835291602001916106d2565b820191906000526020600020905b8154815290600101906020018083116106b557829003601f168201915b5050505050905090565b600080603460006106eb610960565b73ffffffffffffffffffffffffffffffffffffffff1673ffffffffffffffffffffffffffffffffffffffff16815260200190815260200160002060008573ffffffffffffffffffffffffffffffffffffffff1673ffffffffffffffffffffffffffffffffffffffff168152602001908152602001600020549050828110156107a8576040517f08c379a000000000000000000000000000000000000000000000000000000000815260040161079f906119c7565b60405180910390fd5b6107bc6107b3610960565b85858403610968565b600191505092915050565b60006107db6107d4610960565b8484610b33565b6001905092915050565b600060019054906101000a900460ff1661080d5760008054906101000a900460ff1615610816565b610815610f90565b5b610855576040517f08c379a000000000000000000000000000000000000000000000000000000000815260040161084c906118e7565b60405180910390fd5b60008060019054906101000a900460ff1615905080156108a5576001600060016101000a81548160ff02191690831515021790555060016000806101000a81548160ff0219169083151502179055505b6108b185858585610fa1565b80156108d25760008060016101000a81548160ff0219169083151502179055505b5050505050565b6000603460008473ffffffffffffffffffffffffffffffffffffffff1673ffffffffffffffffffffffffffffffffffffffff16815260200190815260200160002060008373ffffffffffffffffffffffffffffffffffffffff1673ffffffffffffffffffffffffffffffffffffffff16815260200190815260200160002054905092915050565b600033905090565b600073ffffffffffffffffffffffffffffffffffffffff168373ffffffffffffffffffffffffffffffffffffffff1614156109d8576040517f08c379a00000000000000000000000000000000000000000000000000000000081526004016109cf90611987565b60405180910390fd5b600073ffffffffffffffffffffffffffffffffffffffff168273ffffffffffffffffffffffffffffffffffffffff161415610a48576040517f08c379a0000000000000000000000000000000000000000000000000000000008152600401610a3f906118a7565b60405180910390fd5b80603460008573ffffffffffffffffffffffffffffffffffffffff1673ffffffffffffffffffffffffffffffffffffffff16815260200190815260200160002060008473ffffffffffffffffffffffffffffffffffffffff1673ffffffffffffffffffffffffffffffffffffffff168152602001908152602001600020819055508173ffffffffffffffffffffffffffffffffffffffff168373ffffffffffffffffffffffffffffffffffffffff167f8c5be1e5ebec7d5bd14f71427d1e84f3dd0314c0f7b2291e5b200ac8c7c3b92583604051610b269190611a07565b60405180910390a3505050565b600073ffffffffffffffffffffffffffffffffffffffff168373ffffffffffffffffffffffffffffffffffffffff161415610ba3576040517f08c379a0000000000000000000000000000000000000000000000000000000008152600401610b9a90611967565b60405180910390fd5b600073ffffffffffffffffffffffffffffffffffffffff168273ffffffffffffffffffffffffffffffffffffffff161415610c13576040517f08c379a0000000000000000000000000000000000000000000000000000000008152600401610c0a90611867565b60405180910390fd5b610c1e83838361101c565b6000603360008573ffffffffffffffffffffffffffffffffffffffff1673ffffffffffffffffffffffffffffffffffffffff16815260200190815260200160002054905081811015610ca5576040517f08c379a0000000000000000000000000000000000000000000000000000000008152600401610c9c906118c7565b60405180910390fd5b818103603360008673ffffffffffffffffffffffffffffffffffffffff1673ffffffffffffffffffffffffffffffffffffffff1681526020019081526020016000208190555081603360008573ffffffffffffffffffffffffffffffffffffffff1673ffffffffffffffffffffffffffffffffffffffff1681526020019081526020016000206000828254610d3a9190611aaf565b925050819055508273ffffffffffffffffffffffffffffffffffffffff168473ffffffffffffffffffffffffffffffffffffffff167fddf252ad1be2c89b69c2b068fc378daa952ba7f163c4a11628f55a4df523b3ef84604051610d9e9190611a07565b60405180910390a3610db1848484611021565b50505050565b600073ffffffffffffffffffffffffffffffffffffffff168273ffffffffffffffffffffffffffffffffffffffff161415610e27576040517f08c379a0000000000000000000000000000000000000000000000000000000008152600401610e1e90611947565b60405180910390fd5b610e338260008361101c565b6000603360008473ffffffffffffffffffffffffffffffffffffffff1673ffffffffffffffffffffffffffffffffffffffff16815260200190815260200160002054905081811015610eba576040517f08c379a0000000000000000000000000000000000000000000000000000000008152600401610eb190611887565b60405180910390fd5b818103603360008573ffffffffffffffffffffffffffffffffffffffff1673ffffffffffffffffffffffffffffffffffffffff168152602001908152602001600020819055508160356000828254610f129190611b05565b92505081905550600073ffffffffffffffffffffffffffffffffffffffff168373ffffffffffffffffffffffffffffffffffffffff167fddf252ad1be2c89b69c2b068fc378daa952ba7f163c4a11628f55a4df523b3ef84604051610f779190611a07565b60405180910390a3610f8b83600084611021565b505050565b6000610f9b30611026565b15905090565b600060019054906101000a900460ff16610ff0576040517f08c379a0000000000000000000000000000000000000000000000000000000008152600401610fe7906119a7565b60405180910390fd5b610ff8611039565b611002848461108a565b61100a61110b565b6110168484848461115c565b50505050565b505050565b505050565b600080823b905060008111915050919050565b600060019054906101000a900460ff16611088576040517f08c379a000000000000000000000000000000000000000000000000000000000815260040161107f906119a7565b60405180910390fd5b565b600060019054906101000a900460ff166110d9576040517f08c379a00000000000000000000000000000000000000000000000000000000081526004016110d0906119a7565b60405180910390fd5b81603690805190602001906110ef92919061131c565b50806037908051906020019061110692919061131c565b505050565b600060019054906101000a900460ff1661115a576040517f08c379a0000000000000000000000000000000000000000000000000000000008152600401611151906119a7565b60405180910390fd5b565b600060019054906101000a900460ff166111ab576040517f08c379a00000000000000000000000000000000000000000000000000000000081526004016111a2906119a7565b60405180910390fd5b6111b581836111bb565b50505050565b600073ffffffffffffffffffffffffffffffffffffffff168273ffffffffffffffffffffffffffffffffffffffff16141561122b576040517f08c379a0000000000000000000000000000000000000000000000000000000008152600401611222906119e7565b60405180910390fd5b6112376000838361101c565b80603560008282546112499190611aaf565b9250508190555080603360008473ffffffffffffffffffffffffffffffffffffffff1673ffffffffffffffffffffffffffffffffffffffff168152602001908152602001600020600082825461129f9190611aaf565b925050819055508173ffffffffffffffffffffffffffffffffffffffff16600073ffffffffffffffffffffffffffffffffffffffff167fddf252ad1be2c89b69c2b068fc378daa952ba7f163c4a11628f55a4df523b3ef836040516113049190611a07565b60405180910390a361131860008383611021565b5050565b82805461132890611bd0565b90600052602060002090601f01602090048101928261134a5760008555611391565b82601f1061136357805160ff1916838001178555611391565b82800160010185558215611391579182015b82811115611390578251825591602001919060010190611375565b5b50905061139e91906113a2565b5090565b5b808211156113bb5760008160009055506001016113a3565b5090565b60006113d26113cd84611a62565b611a3d565b9050828152602081018484840111156113ea57600080fd5b6113f5848285611b8e565b509392505050565b60008135905061140c816120ae565b92915050565b600082601f83011261142357600080fd5b81356114338482602086016113bf565b91505092915050565b60008135905061144b816120c5565b92915050565b60006020828403121561146357600080fd5b6000611471848285016113fd565b91505092915050565b6000806040838503121561148d57600080fd5b600061149b858286016113fd565b92505060206114ac858286016113fd565b9150509250929050565b6000806000606084860312156114cb57600080fd5b60006114d9868287016113fd565b93505060206114ea868287016113fd565b92505060406114fb8682870161143c565b9150509250925092565b6000806040838503121561151857600080fd5b6000611526858286016113fd565b92505060206115378582860161143c565b9150509250929050565b6000806000806080858703121561155757600080fd5b600085013567ffffffffffffffff81111561157157600080fd5b61157d87828801611412565b945050602085013567ffffffffffffffff81111561159a57600080fd5b6115a687828801611412565b93505060406115b78782880161143c565b92505060606115c8878288016113fd565b91505092959194509250565b6000602082840312156115e657600080fd5b60006115f48482850161143c565b91505092915050565b61160681611b4b565b82525050565b600061161782611a93565b6116218185611a9e565b9350611631818560208601611b9d565b61163a81611cc0565b840191505092915050565b6000611652602383611a9e565b915061165d82611cd1565b604082019050919050565b6000611675602283611a9e565b915061168082611d20565b604082019050919050565b6000611698602283611a9e565b91506116a382611d6f565b604082019050919050565b60006116bb602683611a9e565b91506116c682611dbe565b604082019050919050565b60006116de602e83611a9e565b91506116e982611e0d565b604082019050919050565b6000611701602883611a9e565b915061170c82611e5c565b604082019050919050565b6000611724602483611a9e565b915061172f82611eab565b604082019050919050565b6000611747602183611a9e565b915061175282611efa565b604082019050919050565b600061176a602583611a9e565b915061177582611f49565b604082019050919050565b600061178d602483611a9e565b915061179882611f98565b604082019050919050565b60006117b0602b83611a9e565b91506117bb82611fe7565b604082019050919050565b60006117d3602583611a9e565b91506117de82612036565b604082019050919050565b60006117f6601f83611a9e565b915061180182612085565b602082019050919050565b61181581611b77565b82525050565b61182481611b81565b82525050565b600060208201905061183f60008301846115fd565b92915050565b6000602082019050818103600083015261185f818461160c565b905092915050565b6000602082019050818103600083015261188081611645565b9050919050565b600060208201905081810360008301526118a081611668565b9050919050565b600060208201905081810360008301526118c08161168b565b9050919050565b600060208201905081810360008301526118e0816116ae565b9050919050565b60006020820190508181036000830152611900816116d1565b9050919050565b60006020820190508181036000830152611920816116f4565b9050919050565b6000602082019050818103600083015261194081611717565b9050919050565b600060208201905081810360008301526119608161173a565b9050919050565b600060208201905081810360008301526119808161175d565b9050919050565b600060208201905081810360008301526119a081611780565b9050919050565b600060208201905081810360008301526119c0816117a3565b9050919050565b600060208201905081810360008301526119e0816117c6565b9050919050565b60006020820190508181036000830152611a00816117e9565b9050919050565b6000602082019050611a1c600083018461180c565b92915050565b6000602082019050611a37600083018461181b565b92915050565b6000611a47611a58565b9050611a538282611c02565b919050565b6000604051905090565b600067ffffffffffffffff821115611a7d57611a7c611c91565b5b611a8682611cc0565b9050602081019050919050565b600081519050919050565b600082825260208201905092915050565b6000611aba82611b77565b9150611ac583611b77565b9250827fffffffffffffffffffffffffffffffffffffffffffffffffffffffffffffffff03821115611afa57611af9611c33565b5b828201905092915050565b6000611b1082611b77565b9150611b1b83611b77565b925082821015611b2e57611b2d611c33565b5b828203905092915050565b6000611b4482611b57565b9050919050565b60008115159050919050565b600073ffffffffffffffffffffffffffffffffffffffff82169050919050565b6000819050919050565b600060ff82169050919050565b82818337600083830152505050565b60005b83811015611bbb578082015181840152602081019050611ba0565b83811115611bca576000848401525b50505050565b60006002820490506001821680611be857607f821691505b60208210811415611bfc57611bfb611c62565b5b50919050565b611c0b82611cc0565b810181811067ffffffffffffffff82111715611c2a57611c29611c91565b5b80604052505050565b7f4e487b7100000000000000000000000000000000000000000000000000000000600052601160045260246000fd5b7f4e487b7100000000000000000000000000000000000000000000000000000000600052602260045260246000fd5b7f4e487b7100000000000000000000000000000000000000000000000000000000600052604160045260246000fd5b6000601f19601f8301169050919050565b7f45524332303a207472616e7366657220746f20746865207a65726f206164647260008201527f6573730000000000000000000000000000000000000000000000000000000000602082015250565b7f45524332303a206275726e20616d6f756e7420657863656564732062616c616e60008201527f6365000000000000000000000000000000000000000000000000000000000000602082015250565b7f45524332303a20617070726f766520746f20746865207a65726f20616464726560008201527f7373000000000000000000000000000000000000000000000000000000000000602082015250565b7f45524332303a207472616e7366657220616d6f756e742065786365656473206260008201527f616c616e63650000000000000000000000000000000000000000000000000000602082015250565b7f496e697469616c697a61626c653a20636f6e747261637420697320616c72656160008201527f647920696e697469616c697a6564000000000000000000000000000000000000602082015250565b7f45524332303a207472616e7366657220616d6f756e742065786365656473206160008201527f6c6c6f77616e6365000000000000000000000000000000000000000000000000602082015250565b7f45524332303a206275726e20616d6f756e74206578636565647320616c6c6f7760008201527f616e636500000000000000000000000000000000000000000000000000000000602082015250565b7f45524332303a206275726e2066726f6d20746865207a65726f2061646472657360008201527f7300000000000000000000000000000000000000000000000000000000000000602082015250565b7f45524332303a207472616e736665722066726f6d20746865207a65726f20616460008201527f6472657373000000000000000000000000000000000000000000000000000000602082015250565b7f45524332303a20617070726f76652066726f6d20746865207a65726f2061646460008201527f7265737300000000000000000000000000000000000000000000000000000000602082015250565b7f496e697469616c697a61626c653a20636f6e7472616374206973206e6f74206960008201527f6e697469616c697a696e67000000000000000000000000000000000000000000602082015250565b7f45524332303a2064656372656173656420616c6c6f77616e63652062656c6f7760008201527f207a65726f000000000000000000000000000000000000000000000000000000602082015250565b7f45524332303a206d696e7420746f20746865207a65726f206164647265737300600082015250565b6120b781611b39565b81146120c257600080fd5b50565b6120ce81611b77565b81146120d957600080fd5b5056fea264697066735822122020187e05c9a40fb0ea8bb51d8654425be9aaf023cb04c4b5b94ab7f78d879d2364736f6c63430008030033",
  "linkReferences": {},
  "deployedLinkReferences": {}
}