{
  "_format": "hh-sol-artifact-1",
  "contractName": "EscrowUpgradeable",
  "sourceName": "contracts/artifacts/lib/contracts-upgradeable/utils/escrow/EscrowUpgradeable.sol",
  "abi": [
    {
      "anonymous": false,
      "inputs": [
        {
          "indexed": true,
          "internalType": "address",
          "name": "payee",
          "type": "address"
        },
        {
          "indexed": false,
          "internalType": "uint256",
          "name": "weiAmount",
          "type": "uint256"
        }
      ],
      "name": "Deposited",
      "type": "event"
    },
    {
      "anonymous": false,
      "inputs": [
        {
          "indexed": true,
          "internalType": "address",
          "name": "previousOwner",
          "type": "address"
        },
        {
          "indexed": true,
          "internalType": "address",
          "name": "newOwner",
          "type": "address"
        }
      ],
      "name": "OwnershipTransferred",
      "type": "event"
    },
    {
      "anonymous": false,
      "inputs": [
        {
          "indexed": true,
          "internalType": "address",
          "name": "payee",
          "type": "address"
        },
        {
          "indexed": false,
          "internalType": "uint256",
          "name": "weiAmount",
          "type": "uint256"
        }
      ],
      "name": "Withdrawn",
      "type": "event"
    },
    {
      "inputs": [
        {
          "internalType": "address",
          "name": "payee",
          "type": "address"
        }
      ],
      "name": "deposit",
      "outputs": [],
      "stateMutability": "payable",
      "type": "function"
    },
    {
      "inputs": [
        {
          "internalType": "address",
          "name": "payee",
          "type": "address"
        }
      ],
      "name": "depositsOf",
      "outputs": [
        {
          "internalType": "uint256",
          "name": "",
          "type": "uint256"
        }
      ],
      "stateMutability": "view",
      "type": "function"
    },
    {
      "inputs": [],
      "name": "initialize",
      "outputs": [],
      "stateMutability": "nonpayable",
      "type": "function"
    },
    {
      "inputs": [],
      "name": "owner",
      "outputs": [
        {
          "internalType": "address",
          "name": "",
          "type": "address"
        }
      ],
      "stateMutability": "view",
      "type": "function"
    },
    {
      "inputs": [],
      "name": "renounceOwnership",
      "outputs": [],
      "stateMutability": "nonpayable",
      "type": "function"
    },
    {
      "inputs": [
        {
          "internalType": "address",
          "name": "newOwner",
          "type": "address"
        }
      ],
      "name": "transferOwnership",
      "outputs": [],
      "stateMutability": "nonpayable",
      "type": "function"
    },
    {
      "inputs": [
        {
          "internalType": "address payable",
          "name": "payee",
          "type": "address"
        }
      ],
      "name": "withdraw",
      "outputs": [],
      "stateMutability": "nonpayable",
      "type": "function"
    }
  ],
  "bytecode": "0x608060405234801561001057600080fd5b50610fd1806100206000396000f3fe6080604052600436106100705760003560e01c80638da5cb5b1161004e5780638da5cb5b146100cc578063e3a9db1a146100f7578063f2fde38b14610134578063f340fa011461015d57610070565b806351cff8d914610075578063715018a61461009e5780638129fc1c146100b5575b600080fd5b34801561008157600080fd5b5061009c60048036038101906100979190610aa6565b610179565b005b3480156100aa57600080fd5b506100b36102f9565b005b3480156100c157600080fd5b506100ca610381565b005b3480156100d857600080fd5b506100e161046d565b6040516100ee9190610bf7565b60405180910390f35b34801561010357600080fd5b5061011e60048036038101906101199190610a7d565b610497565b60405161012b9190610cd2565b60405180910390f35b34801561014057600080fd5b5061015b60048036038101906101569190610a7d565b6104e0565b005b61017760048036038101906101729190610a7d565b6105d8565b005b610181610701565b73ffffffffffffffffffffffffffffffffffffffff1661019f61046d565b73ffffffffffffffffffffffffffffffffffffffff16146101f5576040517f08c379a00000000000000000000000000000000000000000000000000000000081526004016101ec90610c92565b60405180910390fd5b6000606560008373ffffffffffffffffffffffffffffffffffffffff1673ffffffffffffffffffffffffffffffffffffffff1681526020019081526020016000205490506000606560008473ffffffffffffffffffffffffffffffffffffffff1673ffffffffffffffffffffffffffffffffffffffff168152602001908152602001600020819055506102a7818373ffffffffffffffffffffffffffffffffffffffff1661070990919063ffffffff16565b8173ffffffffffffffffffffffffffffffffffffffff167f7084f5476618d8e60b11ef0d7d3f06914655adb8793e28ff7f018d4c76d505d5826040516102ed9190610cd2565b60405180910390a25050565b610301610701565b73ffffffffffffffffffffffffffffffffffffffff1661031f61046d565b73ffffffffffffffffffffffffffffffffffffffff1614610375576040517f08c379a000000000000000000000000000000000000000000000000000000000815260040161036c90610c92565b60405180910390fd5b61037f60006107fd565b565b600060019054906101000a900460ff166103a95760008054906101000a900460ff16156103b2565b6103b16108c3565b5b6103f1576040517f08c379a00000000000000000000000000000000000000000000000000000000081526004016103e890610c72565b60405180910390fd5b60008060019054906101000a900460ff161590508015610441576001600060016101000a81548160ff02191690831515021790555060016000806101000a81548160ff0219169083151502179055505b6104496108d4565b801561046a5760008060016101000a81548160ff0219169083151502179055505b50565b6000603360009054906101000a900473ffffffffffffffffffffffffffffffffffffffff16905090565b6000606560008373ffffffffffffffffffffffffffffffffffffffff1673ffffffffffffffffffffffffffffffffffffffff168152602001908152602001600020549050919050565b6104e8610701565b73ffffffffffffffffffffffffffffffffffffffff1661050661046d565b73ffffffffffffffffffffffffffffffffffffffff161461055c576040517f08c379a000000000000000000000000000000000000000000000000000000000815260040161055390610c92565b60405180910390fd5b600073ffffffffffffffffffffffffffffffffffffffff168173ffffffffffffffffffffffffffffffffffffffff1614156105cc576040517f08c379a00000000000000000000000000000000000000000000000000000000081526004016105c390610c12565b60405180910390fd5b6105d5816107fd565b50565b6105e0610701565b73ffffffffffffffffffffffffffffffffffffffff166105fe61046d565b73ffffffffffffffffffffffffffffffffffffffff1614610654576040517f08c379a000000000000000000000000000000000000000000000000000000000815260040161064b90610c92565b60405180910390fd5b600034905080606560008473ffffffffffffffffffffffffffffffffffffffff1673ffffffffffffffffffffffffffffffffffffffff16815260200190815260200160002060008282546106a89190610d09565b925050819055508173ffffffffffffffffffffffffffffffffffffffff167f2da466a7b24304f47e87fa2e1e5a81b9831ce54fec19055ce277ca2f39ba42c4826040516106f59190610cd2565b60405180910390a25050565b600033905090565b8047101561074c576040517f08c379a000000000000000000000000000000000000000000000000000000000815260040161074390610c52565b60405180910390fd5b60008273ffffffffffffffffffffffffffffffffffffffff168260405161077290610be2565b60006040518083038185875af1925050503d80600081146107af576040519150601f19603f3d011682016040523d82523d6000602084013e6107b4565b606091505b50509050806107f8576040517f08c379a00000000000000000000000000000000000000000000000000000000081526004016107ef90610c32565b60405180910390fd5b505050565b6000603360009054906101000a900473ffffffffffffffffffffffffffffffffffffffff16905081603360006101000a81548173ffffffffffffffffffffffffffffffffffffffff021916908373ffffffffffffffffffffffffffffffffffffffff1602179055508173ffffffffffffffffffffffffffffffffffffffff168173ffffffffffffffffffffffffffffffffffffffff167f8be0079c531659141344cd1fd0a4f28419497f9722a3daafe3b4186f6b6457e060405160405180910390a35050565b60006108ce3061093d565b15905090565b600060019054906101000a900460ff16610923576040517f08c379a000000000000000000000000000000000000000000000000000000000815260040161091a90610cb2565b60405180910390fd5b61092b610950565b6109336109a1565b61093b610a02565b565b600080823b905060008111915050919050565b600060019054906101000a900460ff1661099f576040517f08c379a000000000000000000000000000000000000000000000000000000000815260040161099690610cb2565b60405180910390fd5b565b600060019054906101000a900460ff166109f0576040517f08c379a00000000000000000000000000000000000000000000000000000000081526004016109e790610cb2565b60405180910390fd5b610a006109fb610701565b6107fd565b565b600060019054906101000a900460ff16610a51576040517f08c379a0000000000000000000000000000000000000000000000000000000008152600401610a4890610cb2565b60405180910390fd5b565b600081359050610a6281610f6d565b92915050565b600081359050610a7781610f84565b92915050565b600060208284031215610a8f57600080fd5b6000610a9d84828501610a53565b91505092915050565b600060208284031215610ab857600080fd5b6000610ac684828501610a68565b91505092915050565b610ad881610d5f565b82525050565b6000610aeb602683610cf8565b9150610af682610ddc565b604082019050919050565b6000610b0e603a83610cf8565b9150610b1982610e2b565b604082019050919050565b6000610b31601d83610cf8565b9150610b3c82610e7a565b602082019050919050565b6000610b54602e83610cf8565b9150610b5f82610ea3565b604082019050919050565b6000610b77602083610cf8565b9150610b8282610ef2565b602082019050919050565b6000610b9a600083610ced565b9150610ba582610f1b565b600082019050919050565b6000610bbd602b83610cf8565b9150610bc882610f1e565b604082019050919050565b610bdc81610da3565b82525050565b6000610bed82610b8d565b9150819050919050565b6000602082019050610c0c6000830184610acf565b92915050565b60006020820190508181036000830152610c2b81610ade565b9050919050565b60006020820190508181036000830152610c4b81610b01565b9050919050565b60006020820190508181036000830152610c6b81610b24565b9050919050565b60006020820190508181036000830152610c8b81610b47565b9050919050565b60006020820190508181036000830152610cab81610b6a565b9050919050565b60006020820190508181036000830152610ccb81610bb0565b9050919050565b6000602082019050610ce76000830184610bd3565b92915050565b600081905092915050565b600082825260208201905092915050565b6000610d1482610da3565b9150610d1f83610da3565b9250827fffffffffffffffffffffffffffffffffffffffffffffffffffffffffffffffff03821115610d5457610d53610dad565b5b828201905092915050565b6000610d6a82610d83565b9050919050565b6000610d7c82610d83565b9050919050565b600073ffffffffffffffffffffffffffffffffffffffff82169050919050565b6000819050919050565b7f4e487b7100000000000000000000000000000000000000000000000000000000600052601160045260246000fd5b7f4f776e61626c653a206e6577206f776e657220697320746865207a65726f206160008201527f6464726573730000000000000000000000000000000000000000000000000000602082015250565b7f416464726573733a20756e61626c6520746f2073656e642076616c75652c207260008201527f6563697069656e74206d61792068617665207265766572746564000000000000602082015250565b7f416464726573733a20696e73756666696369656e742062616c616e6365000000600082015250565b7f496e697469616c697a61626c653a20636f6e747261637420697320616c72656160008201527f647920696e697469616c697a6564000000000000000000000000000000000000602082015250565b7f4f776e61626c653a2063616c6c6572206973206e6f7420746865206f776e6572600082015250565b50565b7f496e697469616c697a61626c653a20636f6e7472616374206973206e6f74206960008201527f6e697469616c697a696e67000000000000000000000000000000000000000000602082015250565b610f7681610d5f565b8114610f8157600080fd5b50565b610f8d81610d71565b8114610f9857600080fd5b5056fea2646970667358221220969a7fb43b55ee713f469c62ba0f192529febf632dccb0012773422b9c19f66a64736f6c63430008030033",
  "linkReferences": {},
  "deployedLinkReferences": {}
}