{
  "_format": "hh-sol-artifact-1",
  "contractName": "VestingWalletUpgradeable",
  "sourceName": "contracts/artifacts/lib/contracts-upgradeable/finance/VestingWalletUpgradeable.sol",
  "abi": [
    {
      "anonymous": false,
      "inputs": [
        {
          "indexed": true,
          "internalType": "address",
          "name": "token",
          "type": "address"
        },
        {
          "indexed": false,
          "internalType": "uint256",
          "name": "amount",
          "type": "uint256"
        }
      ],
      "name": "ERC20Released",
      "type": "event"
    },
    {
      "anonymous": false,
      "inputs": [
        {
          "indexed": false,
          "internalType": "uint256",
          "name": "amount",
          "type": "uint256"
        }
      ],
      "name": "EtherReleased",
      "type": "event"
    },
    {
      "inputs": [],
      "name": "beneficiary",
      "outputs": [
        {
          "internalType": "address",
          "name": "",
          "type": "address"
        }
      ],
      "stateMutability": "view",
      "type": "function"
    },
    {
      "inputs": [],
      "name": "duration",
      "outputs": [
        {
          "internalType": "uint256",
          "name": "",
          "type": "uint256"
        }
      ],
      "stateMutability": "view",
      "type": "function"
    },
    {
      "inputs": [
        {
          "internalType": "address",
          "name": "token",
          "type": "address"
        }
      ],
      "name": "release",
      "outputs": [],
      "stateMutability": "nonpayable",
      "type": "function"
    },
    {
      "inputs": [],
      "name": "release",
      "outputs": [],
      "stateMutability": "nonpayable",
      "type": "function"
    },
    {
      "inputs": [],
      "name": "released",
      "outputs": [
        {
          "internalType": "uint256",
          "name": "",
          "type": "uint256"
        }
      ],
      "stateMutability": "view",
      "type": "function"
    },
    {
      "inputs": [
        {
          "internalType": "address",
          "name": "token",
          "type": "address"
        }
      ],
      "name": "released",
      "outputs": [
        {
          "internalType": "uint256",
          "name": "",
          "type": "uint256"
        }
      ],
      "stateMutability": "view",
      "type": "function"
    },
    {
      "inputs": [],
      "name": "start",
      "outputs": [
        {
          "internalType": "uint256",
          "name": "",
          "type": "uint256"
        }
      ],
      "stateMutability": "view",
      "type": "function"
    },
    {
      "inputs": [
        {
          "internalType": "uint64",
          "name": "timestamp",
          "type": "uint64"
        }
      ],
      "name": "vestedAmount",
      "outputs": [
        {
          "internalType": "uint256",
          "name": "",
          "type": "uint256"
        }
      ],
      "stateMutability": "view",
      "type": "function"
    },
    {
      "inputs": [
        {
          "internalType": "address",
          "name": "token",
          "type": "address"
        },
        {
          "internalType": "uint64",
          "name": "timestamp",
          "type": "uint64"
        }
      ],
      "name": "vestedAmount",
      "outputs": [
        {
          "internalType": "uint256",
          "name": "",
          "type": "uint256"
        }
      ],
      "stateMutability": "view",
      "type": "function"
    },
    {
      "stateMutability": "payable",
      "type": "receive"
    }
  ],
  "bytecode": "0x608060405234801561001057600080fd5b506111ad806100206000396000f3fe60806040526004361061008a5760003560e01c8063810ec23b11610059578063810ec23b1461015257806386d1a69f1461018f57806396132521146101a65780639852595c146101d1578063be9a65551461020e57610091565b80630a17b06b146100965780630fb5a6b4146100d357806319165587146100fe57806338af3eed1461012757610091565b3661009157005b600080fd5b3480156100a257600080fd5b506100bd60048036038101906100b89190610ac4565b610239565b6040516100ca9190610d79565b60405180910390f35b3480156100df57600080fd5b506100e861025e565b6040516100f59190610d79565b60405180910390f35b34801561010a57600080fd5b5061012560048036038101906101209190610a0d565b610286565b005b34801561013357600080fd5b5061013c610361565b6040516101499190610c73565b60405180910390f35b34801561015e57600080fd5b5061017960048036038101906101749190610a36565b61038b565b6040516101869190610d79565b60405180910390f35b34801561019b57600080fd5b506101a461043a565b005b3480156101b257600080fd5b506101bb6104bd565b6040516101c89190610d79565b60405180910390f35b3480156101dd57600080fd5b506101f860048036038101906101f39190610a0d565b6104c7565b6040516102059190610d79565b60405180910390f35b34801561021a57600080fd5b50610223610510565b6040516102309190610d79565b60405180910390f35b60006102576102466104bd565b476102519190610dc6565b83610538565b9050919050565b6000603660009054906101000a900467ffffffffffffffff1667ffffffffffffffff16905090565b6000610291826104c7565b61029b834261038b565b6102a59190610ea7565b905080603460008473ffffffffffffffffffffffffffffffffffffffff1673ffffffffffffffffffffffffffffffffffffffff16815260200190815260200160002060008282546102f69190610dc6565b925050819055508173ffffffffffffffffffffffffffffffffffffffff167fc0e523490dd523c33b1878c9eb14ff46991e3f5b2cd33710918618f2a39cba1b826040516103439190610d79565b60405180910390a261035d82610357610361565b836105d2565b5050565b6000603560009054906101000a900473ffffffffffffffffffffffffffffffffffffffff16905090565b6000610432610399846104c7565b8473ffffffffffffffffffffffffffffffffffffffff166370a08231306040518263ffffffff1660e01b81526004016103d29190610c73565b60206040518083038186803b1580156103ea57600080fd5b505afa1580156103fe573d6000803e3d6000fd5b505050506040513d601f19601f820116820180604052508101906104229190610a9b565b61042c9190610dc6565b83610538565b905092915050565b60006104446104bd565b61044d42610239565b6104579190610ea7565b9050806033600082825461046b9190610dc6565b925050819055507fda9d4e5f101b8b9b1c5b76d0c5a9f7923571acfc02376aa076b75a8c080c956b816040516104a19190610d79565b60405180910390a16104ba6104b4610361565b82610658565b50565b6000603354905090565b6000603460008373ffffffffffffffffffffffffffffffffffffffff1673ffffffffffffffffffffffffffffffffffffffff168152602001908152602001600020549050919050565b6000603560149054906101000a900467ffffffffffffffff1667ffffffffffffffff16905090565b6000610542610510565b8267ffffffffffffffff16101561055c57600090506105cc565b61056461025e565b61056c610510565b6105769190610dc6565b8267ffffffffffffffff16111561058f578290506105cc565b61059761025e565b61059f610510565b8367ffffffffffffffff166105b49190610ea7565b846105bf9190610e4d565b6105c99190610e1c565b90505b92915050565b6106538363a9059cbb60e01b84846040516024016105f1929190610c8e565b604051602081830303815290604052907bffffffffffffffffffffffffffffffffffffffffffffffffffffffff19166020820180517bffffffffffffffffffffffffffffffffffffffffffffffffffffffff838183161783525050505061074c565b505050565b8047101561069b576040517f08c379a000000000000000000000000000000000000000000000000000000000815260040161069290610cf9565b60405180910390fd5b60008273ffffffffffffffffffffffffffffffffffffffff16826040516106c190610c5e565b60006040518083038185875af1925050503d80600081146106fe576040519150601f19603f3d011682016040523d82523d6000602084013e610703565b606091505b5050905080610747576040517f08c379a000000000000000000000000000000000000000000000000000000000815260040161073e90610cd9565b60405180910390fd5b505050565b60006107ae826040518060400160405280602081526020017f5361666545524332303a206c6f772d6c6576656c2063616c6c206661696c65648152508573ffffffffffffffffffffffffffffffffffffffff166108139092919063ffffffff16565b905060008151111561080e57808060200190518101906107ce9190610a72565b61080d576040517f08c379a000000000000000000000000000000000000000000000000000000000815260040161080490610d59565b60405180910390fd5b5b505050565b6060610822848460008561082b565b90509392505050565b606082471015610870576040517f08c379a000000000000000000000000000000000000000000000000000000000815260040161086790610d19565b60405180910390fd5b6108798561093f565b6108b8576040517f08c379a00000000000000000000000000000000000000000000000000000000081526004016108af90610d39565b60405180910390fd5b6000808673ffffffffffffffffffffffffffffffffffffffff1685876040516108e19190610c47565b60006040518083038185875af1925050503d806000811461091e576040519150601f19603f3d011682016040523d82523d6000602084013e610923565b606091505b5091509150610933828286610952565b92505050949350505050565b600080823b905060008111915050919050565b60608315610962578290506109b2565b6000835111156109755782518084602001fd5b816040517f08c379a00000000000000000000000000000000000000000000000000000000081526004016109a99190610cb7565b60405180910390fd5b9392505050565b6000813590506109c88161111b565b92915050565b6000815190506109dd81611132565b92915050565b6000815190506109f281611149565b92915050565b600081359050610a0781611160565b92915050565b600060208284031215610a1f57600080fd5b6000610a2d848285016109b9565b91505092915050565b60008060408385031215610a4957600080fd5b6000610a57858286016109b9565b9250506020610a68858286016109f8565b9150509250929050565b600060208284031215610a8457600080fd5b6000610a92848285016109ce565b91505092915050565b600060208284031215610aad57600080fd5b6000610abb848285016109e3565b91505092915050565b600060208284031215610ad657600080fd5b6000610ae4848285016109f8565b91505092915050565b610af681610edb565b82525050565b6000610b0782610d94565b610b118185610daa565b9350610b21818560208601610f37565b80840191505092915050565b6000610b3882610d9f565b610b428185610db5565b9350610b52818560208601610f37565b610b5b81610fc8565b840191505092915050565b6000610b73603a83610db5565b9150610b7e82610fd9565b604082019050919050565b6000610b96601d83610db5565b9150610ba182611028565b602082019050919050565b6000610bb9602683610db5565b9150610bc482611051565b604082019050919050565b6000610bdc600083610daa565b9150610be7826110a0565b600082019050919050565b6000610bff601d83610db5565b9150610c0a826110a3565b602082019050919050565b6000610c22602a83610db5565b9150610c2d826110cc565b604082019050919050565b610c4181610f19565b82525050565b6000610c538284610afc565b915081905092915050565b6000610c6982610bcf565b9150819050919050565b6000602082019050610c886000830184610aed565b92915050565b6000604082019050610ca36000830185610aed565b610cb06020830184610c38565b9392505050565b60006020820190508181036000830152610cd18184610b2d565b905092915050565b60006020820190508181036000830152610cf281610b66565b9050919050565b60006020820190508181036000830152610d1281610b89565b9050919050565b60006020820190508181036000830152610d3281610bac565b9050919050565b60006020820190508181036000830152610d5281610bf2565b9050919050565b60006020820190508181036000830152610d7281610c15565b9050919050565b6000602082019050610d8e6000830184610c38565b92915050565b600081519050919050565b600081519050919050565b600081905092915050565b600082825260208201905092915050565b6000610dd182610f19565b9150610ddc83610f19565b9250827fffffffffffffffffffffffffffffffffffffffffffffffffffffffffffffffff03821115610e1157610e10610f6a565b5b828201905092915050565b6000610e2782610f19565b9150610e3283610f19565b925082610e4257610e41610f99565b5b828204905092915050565b6000610e5882610f19565b9150610e6383610f19565b9250817fffffffffffffffffffffffffffffffffffffffffffffffffffffffffffffffff0483118215151615610e9c57610e9b610f6a565b5b828202905092915050565b6000610eb282610f19565b9150610ebd83610f19565b925082821015610ed057610ecf610f6a565b5b828203905092915050565b6000610ee682610ef9565b9050919050565b60008115159050919050565b600073ffffffffffffffffffffffffffffffffffffffff82169050919050565b6000819050919050565b600067ffffffffffffffff82169050919050565b60005b83811015610f55578082015181840152602081019050610f3a565b83811115610f64576000848401525b50505050565b7f4e487b7100000000000000000000000000000000000000000000000000000000600052601160045260246000fd5b7f4e487b7100000000000000000000000000000000000000000000000000000000600052601260045260246000fd5b6000601f19601f8301169050919050565b7f416464726573733a20756e61626c6520746f2073656e642076616c75652c207260008201527f6563697069656e74206d61792068617665207265766572746564000000000000602082015250565b7f416464726573733a20696e73756666696369656e742062616c616e6365000000600082015250565b7f416464726573733a20696e73756666696369656e742062616c616e636520666f60008201527f722063616c6c0000000000000000000000000000000000000000000000000000602082015250565b50565b7f416464726573733a2063616c6c20746f206e6f6e2d636f6e7472616374000000600082015250565b7f5361666545524332303a204552433230206f7065726174696f6e20646964206e60008201527f6f74207375636365656400000000000000000000000000000000000000000000602082015250565b61112481610edb565b811461112f57600080fd5b50565b61113b81610eed565b811461114657600080fd5b50565b61115281610f19565b811461115d57600080fd5b50565b61116981610f23565b811461117457600080fd5b5056fea2646970667358221220f11940819114bbd15f568c31a882bb02d850f192c347b601df619fa028e4ae2f64736f6c63430008030033",
  "linkReferences": {},
  "deployedLinkReferences": {}
}