{
  "_format": "hh-sol-artifact-1",
  "contractName": "OkiDokiLandBuilding",
  "sourceName": "contracts/OkiDokiLandBuilding.sol",
  "abi": [
    {
      "anonymous": false,
      "inputs": [
        {
          "indexed": true,
          "internalType": "address",
          "name": "owner",
          "type": "address"
        },
        {
          "indexed": true,
          "internalType": "address",
          "name": "approved",
          "type": "address"
        },
        {
          "indexed": true,
          "internalType": "uint256",
          "name": "tokenId",
          "type": "uint256"
        }
      ],
      "name": "Approval",
      "type": "event"
    },
    {
      "anonymous": false,
      "inputs": [
        {
          "indexed": true,
          "internalType": "address",
          "name": "owner",
          "type": "address"
        },
        {
          "indexed": true,
          "internalType": "address",
          "name": "operator",
          "type": "address"
        },
        {
          "indexed": false,
          "internalType": "bool",
          "name": "approved",
          "type": "bool"
        }
      ],
      "name": "ApprovalForAll",
      "type": "event"
    },
    {
      "anonymous": false,
      "inputs": [
        {
          "indexed": false,
          "internalType": "uint256",
          "name": "buildingTokenId",
          "type": "uint256"
        },
        {
          "indexed": false,
          "internalType": "uint256",
          "name": "landTokenId",
          "type": "uint256"
        }
      ],
      "name": "BuildingAttached",
      "type": "event"
    },
    {
      "anonymous": false,
      "inputs": [
        {
          "indexed": false,
          "internalType": "uint256",
          "name": "tokenId",
          "type": "uint256"
        }
      ],
      "name": "BuildingMinted",
      "type": "event"
    },
    {
      "anonymous": false,
      "inputs": [
        {
          "indexed": true,
          "internalType": "address",
          "name": "previousOwner",
          "type": "address"
        },
        {
          "indexed": true,
          "internalType": "address",
          "name": "newOwner",
          "type": "address"
        }
      ],
      "name": "OwnershipTransferred",
      "type": "event"
    },
    {
      "anonymous": false,
      "inputs": [
        {
          "indexed": true,
          "internalType": "address",
          "name": "from",
          "type": "address"
        },
        {
          "indexed": true,
          "internalType": "address",
          "name": "to",
          "type": "address"
        },
        {
          "indexed": true,
          "internalType": "uint256",
          "name": "tokenId",
          "type": "uint256"
        }
      ],
      "name": "Transfer",
      "type": "event"
    },
    {
      "inputs": [
        {
          "internalType": "address",
          "name": "to",
          "type": "address"
        },
        {
          "internalType": "uint256",
          "name": "tokenId",
          "type": "uint256"
        }
      ],
      "name": "approve",
      "outputs": [],
      "stateMutability": "nonpayable",
      "type": "function"
    },
    {
      "inputs": [
        {
          "internalType": "address",
          "name": "owner",
          "type": "address"
        }
      ],
      "name": "balanceOf",
      "outputs": [
        {
          "internalType": "uint256",
          "name": "",
          "type": "uint256"
        }
      ],
      "stateMutability": "view",
      "type": "function"
    },
    {
      "inputs": [
        {
          "internalType": "address",
          "name": "to",
          "type": "address"
        },
        {
          "internalType": "string",
          "name": "uri",
          "type": "string"
        }
      ],
      "name": "buyBuildingOnly",
      "outputs": [],
      "stateMutability": "payable",
      "type": "function"
    },
    {
      "inputs": [
        {
          "internalType": "address",
          "name": "to",
          "type": "address"
        },
        {
          "internalType": "string",
          "name": "uri",
          "type": "string"
        }
      ],
      "name": "buyLandAndBuilding",
      "outputs": [],
      "stateMutability": "payable",
      "type": "function"
    },
    {
      "inputs": [
        {
          "internalType": "uint256",
          "name": "tokenId",
          "type": "uint256"
        }
      ],
      "name": "getApproved",
      "outputs": [
        {
          "internalType": "address",
          "name": "",
          "type": "address"
        }
      ],
      "stateMutability": "view",
      "type": "function"
    },
    {
      "inputs": [],
      "name": "initialize",
      "outputs": [],
      "stateMutability": "nonpayable",
      "type": "function"
    },
    {
      "inputs": [
        {
          "internalType": "address",
          "name": "owner",
          "type": "address"
        },
        {
          "internalType": "address",
          "name": "operator",
          "type": "address"
        }
      ],
      "name": "isApprovedForAll",
      "outputs": [
        {
          "internalType": "bool",
          "name": "",
          "type": "bool"
        }
      ],
      "stateMutability": "view",
      "type": "function"
    },
    {
      "inputs": [
        {
          "internalType": "address",
          "name": "to",
          "type": "address"
        },
        {
          "internalType": "string",
          "name": "uri",
          "type": "string"
        }
      ],
      "name": "mintBuilding",
      "outputs": [],
      "stateMutability": "nonpayable",
      "type": "function"
    },
    {
      "inputs": [],
      "name": "name",
      "outputs": [
        {
          "internalType": "string",
          "name": "",
          "type": "string"
        }
      ],
      "stateMutability": "view",
      "type": "function"
    },
    {
      "inputs": [],
      "name": "owner",
      "outputs": [
        {
          "internalType": "address",
          "name": "",
          "type": "address"
        }
      ],
      "stateMutability": "view",
      "type": "function"
    },
    {
      "inputs": [
        {
          "internalType": "uint256",
          "name": "tokenId",
          "type": "uint256"
        }
      ],
      "name": "ownerOf",
      "outputs": [
        {
          "internalType": "address",
          "name": "",
          "type": "address"
        }
      ],
      "stateMutability": "view",
      "type": "function"
    },
    {
      "inputs": [],
      "name": "renounceOwnership",
      "outputs": [],
      "stateMutability": "nonpayable",
      "type": "function"
    },
    {
      "inputs": [
        {
          "internalType": "address",
          "name": "to",
          "type": "address"
        },
        {
          "internalType": "string",
          "name": "uri",
          "type": "string"
        }
      ],
      "name": "safeMint",
      "outputs": [],
      "stateMutability": "nonpayable",
      "type": "function"
    },
    {
      "inputs": [
        {
          "internalType": "address",
          "name": "from",
          "type": "address"
        },
        {
          "internalType": "address",
          "name": "to",
          "type": "address"
        },
        {
          "internalType": "uint256",
          "name": "tokenId",
          "type": "uint256"
        }
      ],
      "name": "safeTransferFrom",
      "outputs": [],
      "stateMutability": "nonpayable",
      "type": "function"
    },
    {
      "inputs": [
        {
          "internalType": "address",
          "name": "from",
          "type": "address"
        },
        {
          "internalType": "address",
          "name": "to",
          "type": "address"
        },
        {
          "internalType": "uint256",
          "name": "tokenId",
          "type": "uint256"
        },
        {
          "internalType": "bytes",
          "name": "_data",
          "type": "bytes"
        }
      ],
      "name": "safeTransferFrom",
      "outputs": [],
      "stateMutability": "nonpayable",
      "type": "function"
    },
    {
      "inputs": [
        {
          "internalType": "address",
          "name": "operator",
          "type": "address"
        },
        {
          "internalType": "bool",
          "name": "approved",
          "type": "bool"
        }
      ],
      "name": "setApprovalForAll",
      "outputs": [],
      "stateMutability": "nonpayable",
      "type": "function"
    },
    {
      "inputs": [
        {
          "internalType": "bytes4",
          "name": "interfaceId",
          "type": "bytes4"
        }
      ],
      "name": "supportsInterface",
      "outputs": [
        {
          "internalType": "bool",
          "name": "",
          "type": "bool"
        }
      ],
      "stateMutability": "view",
      "type": "function"
    },
    {
      "inputs": [],
      "name": "symbol",
      "outputs": [
        {
          "internalType": "string",
          "name": "",
          "type": "string"
        }
      ],
      "stateMutability": "view",
      "type": "function"
    },
    {
      "inputs": [
        {
          "internalType": "uint256",
          "name": "tokenId",
          "type": "uint256"
        }
      ],
      "name": "tokenURI",
      "outputs": [
        {
          "internalType": "string",
          "name": "",
          "type": "string"
        }
      ],
      "stateMutability": "view",
      "type": "function"
    },
    {
      "inputs": [
        {
          "internalType": "address",
          "name": "from",
          "type": "address"
        },
        {
          "internalType": "address",
          "name": "to",
          "type": "address"
        },
        {
          "internalType": "uint256",
          "name": "tokenId",
          "type": "uint256"
        }
      ],
      "name": "transferFrom",
      "outputs": [],
      "stateMutability": "nonpayable",
      "type": "function"
    },
    {
      "inputs": [
        {
          "internalType": "address",
          "name": "newOwner",
          "type": "address"
        }
      ],
      "name": "transferOwnership",
      "outputs": [],
      "stateMutability": "nonpayable",
      "type": "function"
    }
  ],
  "bytecode": "0x608060405234801561001057600080fd5b506138f8806100206000396000f3fe60806040526004361061012a5760003560e01c80638da5cb5b116100ab578063d204c45e1161006f578063d204c45e146103dc578063df0e573c14610405578063e0c567fb1461042e578063e4b97e9a1461044a578063e985e9c514610466578063f2fde38b146104a35761012a565b80638da5cb5b146102f757806395d89b4114610322578063a22cb4651461034d578063b88d4fde14610376578063c87b56dd1461039f5761012a565b806342842e0e116100f257806342842e0e146102265780636352211e1461024f57806370a082311461028c578063715018a6146102c95780638129fc1c146102e05761012a565b806301ffc9a71461012f57806306fdde031461016c578063081812fc14610197578063095ea7b3146101d457806323b872dd146101fd575b600080fd5b34801561013b57600080fd5b5061015660048036038101906101519190612717565b6104cc565b6040516101639190612bcc565b60405180910390f35b34801561017857600080fd5b506101816105ae565b60405161018e9190612be7565b60405180910390f35b3480156101a357600080fd5b506101be60048036038101906101b99190612769565b610640565b6040516101cb9190612b65565b60405180910390f35b3480156101e057600080fd5b506101fb60048036038101906101f691906126db565b6106c5565b005b34801561020957600080fd5b50610224600480360381019061021f9190612581565b6107dd565b005b34801561023257600080fd5b5061024d60048036038101906102489190612581565b61083d565b005b34801561025b57600080fd5b5061027660048036038101906102719190612769565b61085d565b6040516102839190612b65565b60405180910390f35b34801561029857600080fd5b506102b360048036038101906102ae919061251c565b61090f565b6040516102c09190612ea9565b60405180910390f35b3480156102d557600080fd5b506102de6109c7565b005b3480156102ec57600080fd5b506102f5610a4f565b005b34801561030357600080fd5b5061030c610bd3565b6040516103199190612b65565b60405180910390f35b34801561032e57600080fd5b50610337610bfd565b6040516103449190612be7565b60405180910390f35b34801561035957600080fd5b50610374600480360381019061036f919061264b565b610c8f565b005b34801561038257600080fd5b5061039d600480360381019061039891906125d0565b610ca5565b005b3480156103ab57600080fd5b506103c660048036038101906103c19190612769565b610d07565b6040516103d39190612be7565b60405180910390f35b3480156103e857600080fd5b5061040360048036038101906103fe9190612687565b610d19565b005b34801561041157600080fd5b5061042c60048036038101906104279190612687565b610dfd565b005b61044860048036038101906104439190612687565b610ee4565b005b610464600480360381019061045f9190612687565b610ee8565b005b34801561047257600080fd5b5061048d60048036038101906104889190612545565b610eec565b60405161049a9190612bcc565b60405180910390f35b3480156104af57600080fd5b506104ca60048036038101906104c5919061251c565b610f80565b005b60007f80ac58cd000000000000000000000000000000000000000000000000000000007bffffffffffffffffffffffffffffffffffffffffffffffffffffffff1916827bffffffffffffffffffffffffffffffffffffffffffffffffffffffff1916148061059757507f5b5e139f000000000000000000000000000000000000000000000000000000007bffffffffffffffffffffffffffffffffffffffffffffffffffffffff1916827bffffffffffffffffffffffffffffffffffffffffffffffffffffffff1916145b806105a757506105a682611078565b5b9050919050565b6060606580546105bd906130ff565b80601f01602080910402602001604051908101604052809291908181526020018280546105e9906130ff565b80156106365780601f1061060b57610100808354040283529160200191610636565b820191906000526020600020905b81548152906001019060200180831161061957829003601f168201915b5050505050905090565b600061064b826110e2565b61068a576040517f08c379a000000000000000000000000000000000000000000000000000000000815260040161068190612da9565b60405180910390fd5b6069600083815260200190815260200160002060009054906101000a900473ffffffffffffffffffffffffffffffffffffffff169050919050565b60006106d08261085d565b90508073ffffffffffffffffffffffffffffffffffffffff168373ffffffffffffffffffffffffffffffffffffffff161415610741576040517f08c379a000000000000000000000000000000000000000000000000000000000815260040161073890612e29565b60405180910390fd5b8073ffffffffffffffffffffffffffffffffffffffff1661076061114e565b73ffffffffffffffffffffffffffffffffffffffff16148061078f575061078e8161078961114e565b610eec565b5b6107ce576040517f08c379a00000000000000000000000000000000000000000000000000000000081526004016107c590612cc9565b60405180910390fd5b6107d88383611156565b505050565b6107ee6107e861114e565b8261120f565b61082d576040517f08c379a000000000000000000000000000000000000000000000000000000000815260040161082490612e69565b60405180910390fd5b6108388383836112ed565b505050565b61085883838360405180602001604052806000815250610ca5565b505050565b6000806067600084815260200190815260200160002060009054906101000a900473ffffffffffffffffffffffffffffffffffffffff169050600073ffffffffffffffffffffffffffffffffffffffff168173ffffffffffffffffffffffffffffffffffffffff161415610906576040517f08c379a00000000000000000000000000000000000000000000000000000000081526004016108fd90612d09565b60405180910390fd5b80915050919050565b60008073ffffffffffffffffffffffffffffffffffffffff168273ffffffffffffffffffffffffffffffffffffffff161415610980576040517f08c379a000000000000000000000000000000000000000000000000000000000815260040161097790612ce9565b60405180910390fd5b606860008373ffffffffffffffffffffffffffffffffffffffff1673ffffffffffffffffffffffffffffffffffffffff168152602001908152602001600020549050919050565b6109cf61114e565b73ffffffffffffffffffffffffffffffffffffffff166109ed610bd3565b73ffffffffffffffffffffffffffffffffffffffff1614610a43576040517f08c379a0000000000000000000000000000000000000000000000000000000008152600401610a3a90612dc9565b60405180910390fd5b610a4d6000611549565b565b600060019054906101000a900460ff16610a775760008054906101000a900460ff1615610a80565b610a7f61160f565b5b610abf576040517f08c379a0000000000000000000000000000000000000000000000000000000008152600401610ab690612d49565b60405180910390fd5b60008060019054906101000a900460ff161590508015610b0f576001600060016101000a81548160ff02191690831515021790555060016000806101000a81548160ff0219169083151502179055505b610b836040518060400160405280601381526020017f4f6b69446f6b696c616e644275696c64696e67000000000000000000000000008152506040518060400160405280600581526020017f42424c444e000000000000000000000000000000000000000000000000000000815250611620565b610b8b61168d565b610b936116f6565b606460fb60006101000a81548160ff021916908360ff1602179055508015610bd05760008060016101000a81548160ff0219169083151502179055505b50565b600060c960009054906101000a900473ffffffffffffffffffffffffffffffffffffffff16905090565b606060668054610c0c906130ff565b80601f0160208091040260200160405190810160405280929190818152602001828054610c38906130ff565b8015610c855780601f10610c5a57610100808354040283529160200191610c85565b820191906000526020600020905b815481529060010190602001808311610c6857829003601f168201915b5050505050905090565b610ca1610c9a61114e565b8383611757565b5050565b610cb6610cb061114e565b8361120f565b610cf5576040517f08c379a0000000000000000000000000000000000000000000000000000000008152600401610cec90612e69565b60405180910390fd5b610d01848484846118c4565b50505050565b6060610d1282611920565b9050919050565b610d2161114e565b73ffffffffffffffffffffffffffffffffffffffff16610d3f610bd3565b73ffffffffffffffffffffffffffffffffffffffff1614610d95576040517f08c379a0000000000000000000000000000000000000000000000000000000008152600401610d8c90612dc9565b60405180910390fd5b6000610da160fc611a72565b9050610dad60fc611a80565b610db78382611a96565b610dc18183611ab4565b7f68d2245829139413f8cec1af1fd11d285ef21658d852cb66a583a6e93b60a3c081604051610df09190612ea9565b60405180910390a1505050565b610e0561114e565b73ffffffffffffffffffffffffffffffffffffffff16610e23610bd3565b73ffffffffffffffffffffffffffffffffffffffff1614610e79576040517f08c379a0000000000000000000000000000000000000000000000000000000008152600401610e7090612dc9565b60405180910390fd5b60fb60009054906101000a900460ff1660ff16610e9660fc611a72565b10610ed6576040517f08c379a0000000000000000000000000000000000000000000000000000000008152600401610ecd90612e49565b60405180910390fd5b610ee08282610d19565b5050565b5050565b5050565b6000606a60008473ffffffffffffffffffffffffffffffffffffffff1673ffffffffffffffffffffffffffffffffffffffff16815260200190815260200160002060008373ffffffffffffffffffffffffffffffffffffffff1673ffffffffffffffffffffffffffffffffffffffff16815260200190815260200160002060009054906101000a900460ff16905092915050565b610f8861114e565b73ffffffffffffffffffffffffffffffffffffffff16610fa6610bd3565b73ffffffffffffffffffffffffffffffffffffffff1614610ffc576040517f08c379a0000000000000000000000000000000000000000000000000000000008152600401610ff390612dc9565b60405180910390fd5b600073ffffffffffffffffffffffffffffffffffffffff168173ffffffffffffffffffffffffffffffffffffffff16141561106c576040517f08c379a000000000000000000000000000000000000000000000000000000000815260040161106390612c29565b60405180910390fd5b61107581611549565b50565b60007f01ffc9a7000000000000000000000000000000000000000000000000000000007bffffffffffffffffffffffffffffffffffffffffffffffffffffffff1916827bffffffffffffffffffffffffffffffffffffffffffffffffffffffff1916149050919050565b60008073ffffffffffffffffffffffffffffffffffffffff166067600084815260200190815260200160002060009054906101000a900473ffffffffffffffffffffffffffffffffffffffff1673ffffffffffffffffffffffffffffffffffffffff1614159050919050565b600033905090565b816069600083815260200190815260200160002060006101000a81548173ffffffffffffffffffffffffffffffffffffffff021916908373ffffffffffffffffffffffffffffffffffffffff160217905550808273ffffffffffffffffffffffffffffffffffffffff166111c98361085d565b73ffffffffffffffffffffffffffffffffffffffff167f8c5be1e5ebec7d5bd14f71427d1e84f3dd0314c0f7b2291e5b200ac8c7c3b92560405160405180910390a45050565b600061121a826110e2565b611259576040517f08c379a000000000000000000000000000000000000000000000000000000000815260040161125090612ca9565b60405180910390fd5b60006112648361085d565b90508073ffffffffffffffffffffffffffffffffffffffff168473ffffffffffffffffffffffffffffffffffffffff1614806112d357508373ffffffffffffffffffffffffffffffffffffffff166112bb84610640565b73ffffffffffffffffffffffffffffffffffffffff16145b806112e457506112e38185610eec565b5b91505092915050565b8273ffffffffffffffffffffffffffffffffffffffff1661130d8261085d565b73ffffffffffffffffffffffffffffffffffffffff1614611363576040517f08c379a000000000000000000000000000000000000000000000000000000000815260040161135a90612de9565b60405180910390fd5b600073ffffffffffffffffffffffffffffffffffffffff168273ffffffffffffffffffffffffffffffffffffffff1614156113d3576040517f08c379a00000000000000000000000000000000000000000000000000000000081526004016113ca90612c69565b60405180910390fd5b6113de838383611b28565b6113e9600082611156565b6001606860008573ffffffffffffffffffffffffffffffffffffffff1673ffffffffffffffffffffffffffffffffffffffff16815260200190815260200160002060008282546114399190613015565b925050819055506001606860008473ffffffffffffffffffffffffffffffffffffffff1673ffffffffffffffffffffffffffffffffffffffff16815260200190815260200160002060008282546114909190612f8e565b92505081905550816067600083815260200190815260200160002060006101000a81548173ffffffffffffffffffffffffffffffffffffffff021916908373ffffffffffffffffffffffffffffffffffffffff160217905550808273ffffffffffffffffffffffffffffffffffffffff168473ffffffffffffffffffffffffffffffffffffffff167fddf252ad1be2c89b69c2b068fc378daa952ba7f163c4a11628f55a4df523b3ef60405160405180910390a4505050565b600060c960009054906101000a900473ffffffffffffffffffffffffffffffffffffffff1690508160c960006101000a81548173ffffffffffffffffffffffffffffffffffffffff021916908373ffffffffffffffffffffffffffffffffffffffff1602179055508173ffffffffffffffffffffffffffffffffffffffff168173ffffffffffffffffffffffffffffffffffffffff167f8be0079c531659141344cd1fd0a4f28419497f9722a3daafe3b4186f6b6457e060405160405180910390a35050565b600061161a30611b2d565b15905090565b600060019054906101000a900460ff1661166f576040517f08c379a000000000000000000000000000000000000000000000000000000000815260040161166690612e89565b60405180910390fd5b611677611b40565b61167f611b91565b6116898282611be2565b5050565b600060019054906101000a900460ff166116dc576040517f08c379a00000000000000000000000000000000000000000000000000000000081526004016116d390612e89565b60405180910390fd5b6116e4611b40565b6116ec611b91565b6116f4611c63565b565b600060019054906101000a900460ff16611745576040517f08c379a000000000000000000000000000000000000000000000000000000000815260040161173c90612e89565b60405180910390fd5b61174d611b40565b611755611cb4565b565b8173ffffffffffffffffffffffffffffffffffffffff168373ffffffffffffffffffffffffffffffffffffffff1614156117c6576040517f08c379a00000000000000000000000000000000000000000000000000000000081526004016117bd90612c89565b60405180910390fd5b80606a60008573ffffffffffffffffffffffffffffffffffffffff1673ffffffffffffffffffffffffffffffffffffffff16815260200190815260200160002060008473ffffffffffffffffffffffffffffffffffffffff1673ffffffffffffffffffffffffffffffffffffffff16815260200190815260200160002060006101000a81548160ff0219169083151502179055508173ffffffffffffffffffffffffffffffffffffffff168373ffffffffffffffffffffffffffffffffffffffff167f17307eab39ab6107e8899845ad3d59bd9653f200f220920489ca2b5937696c31836040516118b79190612bcc565b60405180910390a3505050565b6118cf8484846112ed565b6118db84848484611d15565b61191a576040517f08c379a000000000000000000000000000000000000000000000000000000000815260040161191190612c09565b60405180910390fd5b50505050565b606061192b826110e2565b61196a576040517f08c379a000000000000000000000000000000000000000000000000000000000815260040161196190612d89565b60405180910390fd5b600060976000848152602001908152602001600020805461198a906130ff565b80601f01602080910402602001604051908101604052809291908181526020018280546119b6906130ff565b8015611a035780601f106119d857610100808354040283529160200191611a03565b820191906000526020600020905b8154815290600101906020018083116119e657829003601f168201915b505050505090506000611a14611eac565b9050600081511415611a2a578192505050611a6d565b600082511115611a5f578082604051602001611a47929190612b41565b60405160208183030381529060405292505050611a6d565b611a6884611ec3565b925050505b919050565b600081600001549050919050565b6001816000016000828254019250508190555050565b611ab0828260405180602001604052806000815250611f6a565b5050565b611abd826110e2565b611afc576040517f08c379a0000000000000000000000000000000000000000000000000000000008152600401611af390612d29565b60405180910390fd5b80609760008481526020019081526020016000209080519060200190611b23929190612340565b505050565b505050565b600080823b905060008111915050919050565b600060019054906101000a900460ff16611b8f576040517f08c379a0000000000000000000000000000000000000000000000000000000008152600401611b8690612e89565b60405180910390fd5b565b600060019054906101000a900460ff16611be0576040517f08c379a0000000000000000000000000000000000000000000000000000000008152600401611bd790612e89565b60405180910390fd5b565b600060019054906101000a900460ff16611c31576040517f08c379a0000000000000000000000000000000000000000000000000000000008152600401611c2890612e89565b60405180910390fd5b8160659080519060200190611c47929190612340565b508060669080519060200190611c5e929190612340565b505050565b600060019054906101000a900460ff16611cb2576040517f08c379a0000000000000000000000000000000000000000000000000000000008152600401611ca990612e89565b60405180910390fd5b565b600060019054906101000a900460ff16611d03576040517f08c379a0000000000000000000000000000000000000000000000000000000008152600401611cfa90612e89565b60405180910390fd5b611d13611d0e61114e565b611549565b565b6000611d368473ffffffffffffffffffffffffffffffffffffffff16611b2d565b15611e9f578373ffffffffffffffffffffffffffffffffffffffff1663150b7a02611d5f61114e565b8786866040518563ffffffff1660e01b8152600401611d819493929190612b80565b602060405180830381600087803b158015611d9b57600080fd5b505af1925050508015611dcc57506040513d601f19601f82011682018060405250810190611dc99190612740565b60015b611e4f573d8060008114611dfc576040519150601f19603f3d011682016040523d82523d6000602084013e611e01565b606091505b50600081511415611e47576040517f08c379a0000000000000000000000000000000000000000000000000000000008152600401611e3e90612c09565b60405180910390fd5b805181602001fd5b63150b7a0260e01b7bffffffffffffffffffffffffffffffffffffffffffffffffffffffff1916817bffffffffffffffffffffffffffffffffffffffffffffffffffffffff191614915050611ea4565b600190505b949350505050565b606060405180602001604052806000815250905090565b6060611ece826110e2565b611f0d576040517f08c379a0000000000000000000000000000000000000000000000000000000008152600401611f0490612e09565b60405180910390fd5b6000611f17611eac565b90506000815111611f375760405180602001604052806000815250611f62565b80611f4184611fc5565b604051602001611f52929190612b41565b6040516020818303038152906040525b915050919050565b611f748383612172565b611f816000848484611d15565b611fc0576040517f08c379a0000000000000000000000000000000000000000000000000000000008152600401611fb790612c09565b60405180910390fd5b505050565b6060600082141561200d576040518060400160405280600181526020017f3000000000000000000000000000000000000000000000000000000000000000815250905061216d565b600082905060005b6000821461203f57808061202890613162565b915050600a826120389190612fe4565b9150612015565b60008167ffffffffffffffff811115612081577f4e487b7100000000000000000000000000000000000000000000000000000000600052604160045260246000fd5b6040519080825280601f01601f1916602001820160405280156120b35781602001600182028036833780820191505090505b5090505b60008514612166576001826120cc9190613015565b9150600a856120db91906131ab565b60306120e79190612f8e565b60f81b818381518110612123577f4e487b7100000000000000000000000000000000000000000000000000000000600052603260045260246000fd5b60200101907effffffffffffffffffffffffffffffffffffffffffffffffffffffffffffff1916908160001a905350600a8561215f9190612fe4565b94506120b7565b8093505050505b919050565b600073ffffffffffffffffffffffffffffffffffffffff168273ffffffffffffffffffffffffffffffffffffffff1614156121e2576040517f08c379a00000000000000000000000000000000000000000000000000000000081526004016121d990612d69565b60405180910390fd5b6121eb816110e2565b1561222b576040517f08c379a000000000000000000000000000000000000000000000000000000000815260040161222290612c49565b60405180910390fd5b61223760008383611b28565b6001606860008473ffffffffffffffffffffffffffffffffffffffff1673ffffffffffffffffffffffffffffffffffffffff16815260200190815260200160002060008282546122879190612f8e565b92505081905550816067600083815260200190815260200160002060006101000a81548173ffffffffffffffffffffffffffffffffffffffff021916908373ffffffffffffffffffffffffffffffffffffffff160217905550808273ffffffffffffffffffffffffffffffffffffffff16600073ffffffffffffffffffffffffffffffffffffffff167fddf252ad1be2c89b69c2b068fc378daa952ba7f163c4a11628f55a4df523b3ef60405160405180910390a45050565b82805461234c906130ff565b90600052602060002090601f01602090048101928261236e57600085556123b5565b82601f1061238757805160ff19168380011785556123b5565b828001600101855582156123b5579182015b828111156123b4578251825591602001919060010190612399565b5b5090506123c291906123c6565b5090565b5b808211156123df5760008160009055506001016123c7565b5090565b60006123f66123f184612ee9565b612ec4565b90508281526020810184848401111561240e57600080fd5b6124198482856130bd565b509392505050565b600061243461242f84612f1a565b612ec4565b90508281526020810184848401111561244c57600080fd5b6124578482856130bd565b509392505050565b60008135905061246e81613866565b92915050565b6000813590506124838161387d565b92915050565b60008135905061249881613894565b92915050565b6000815190506124ad81613894565b92915050565b600082601f8301126124c457600080fd5b81356124d48482602086016123e3565b91505092915050565b600082601f8301126124ee57600080fd5b81356124fe848260208601612421565b91505092915050565b600081359050612516816138ab565b92915050565b60006020828403121561252e57600080fd5b600061253c8482850161245f565b91505092915050565b6000806040838503121561255857600080fd5b60006125668582860161245f565b92505060206125778582860161245f565b9150509250929050565b60008060006060848603121561259657600080fd5b60006125a48682870161245f565b93505060206125b58682870161245f565b92505060406125c686828701612507565b9150509250925092565b600080600080608085870312156125e657600080fd5b60006125f48782880161245f565b94505060206126058782880161245f565b935050604061261687828801612507565b925050606085013567ffffffffffffffff81111561263357600080fd5b61263f878288016124b3565b91505092959194509250565b6000806040838503121561265e57600080fd5b600061266c8582860161245f565b925050602061267d85828601612474565b9150509250929050565b6000806040838503121561269a57600080fd5b60006126a88582860161245f565b925050602083013567ffffffffffffffff8111156126c557600080fd5b6126d1858286016124dd565b9150509250929050565b600080604083850312156126ee57600080fd5b60006126fc8582860161245f565b925050602061270d85828601612507565b9150509250929050565b60006020828403121561272957600080fd5b600061273784828501612489565b91505092915050565b60006020828403121561275257600080fd5b60006127608482850161249e565b91505092915050565b60006020828403121561277b57600080fd5b600061278984828501612507565b91505092915050565b61279b81613049565b82525050565b6127aa8161305b565b82525050565b60006127bb82612f4b565b6127c58185612f61565b93506127d58185602086016130cc565b6127de81613298565b840191505092915050565b60006127f482612f56565b6127fe8185612f72565b935061280e8185602086016130cc565b61281781613298565b840191505092915050565b600061282d82612f56565b6128378185612f83565b93506128478185602086016130cc565b80840191505092915050565b6000612860603283612f72565b915061286b826132a9565b604082019050919050565b6000612883602683612f72565b915061288e826132f8565b604082019050919050565b60006128a6601c83612f72565b91506128b182613347565b602082019050919050565b60006128c9602483612f72565b91506128d482613370565b604082019050919050565b60006128ec601983612f72565b91506128f7826133bf565b602082019050919050565b600061290f602c83612f72565b915061291a826133e8565b604082019050919050565b6000612932603883612f72565b915061293d82613437565b604082019050919050565b6000612955602a83612f72565b915061296082613486565b604082019050919050565b6000612978602983612f72565b9150612983826134d5565b604082019050919050565b600061299b602e83612f72565b91506129a682613524565b604082019050919050565b60006129be602e83612f72565b91506129c982613573565b604082019050919050565b60006129e1602083612f72565b91506129ec826135c2565b602082019050919050565b6000612a04603183612f72565b9150612a0f826135eb565b604082019050919050565b6000612a27602c83612f72565b9150612a328261363a565b604082019050919050565b6000612a4a602083612f72565b9150612a5582613689565b602082019050919050565b6000612a6d602983612f72565b9150612a78826136b2565b604082019050919050565b6000612a90602f83612f72565b9150612a9b82613701565b604082019050919050565b6000612ab3602183612f72565b9150612abe82613750565b604082019050919050565b6000612ad6601683612f72565b9150612ae18261379f565b602082019050919050565b6000612af9603183612f72565b9150612b04826137c8565b604082019050919050565b6000612b1c602b83612f72565b9150612b2782613817565b604082019050919050565b612b3b816130b3565b82525050565b6000612b4d8285612822565b9150612b598284612822565b91508190509392505050565b6000602082019050612b7a6000830184612792565b92915050565b6000608082019050612b956000830187612792565b612ba26020830186612792565b612baf6040830185612b32565b8181036060830152612bc181846127b0565b905095945050505050565b6000602082019050612be160008301846127a1565b92915050565b60006020820190508181036000830152612c0181846127e9565b905092915050565b60006020820190508181036000830152612c2281612853565b9050919050565b60006020820190508181036000830152612c4281612876565b9050919050565b60006020820190508181036000830152612c6281612899565b9050919050565b60006020820190508181036000830152612c82816128bc565b9050919050565b60006020820190508181036000830152612ca2816128df565b9050919050565b60006020820190508181036000830152612cc281612902565b9050919050565b60006020820190508181036000830152612ce281612925565b9050919050565b60006020820190508181036000830152612d0281612948565b9050919050565b60006020820190508181036000830152612d228161296b565b9050919050565b60006020820190508181036000830152612d428161298e565b9050919050565b60006020820190508181036000830152612d62816129b1565b9050919050565b60006020820190508181036000830152612d82816129d4565b9050919050565b60006020820190508181036000830152612da2816129f7565b9050919050565b60006020820190508181036000830152612dc281612a1a565b9050919050565b60006020820190508181036000830152612de281612a3d565b9050919050565b60006020820190508181036000830152612e0281612a60565b9050919050565b60006020820190508181036000830152612e2281612a83565b9050919050565b60006020820190508181036000830152612e4281612aa6565b9050919050565b60006020820190508181036000830152612e6281612ac9565b9050919050565b60006020820190508181036000830152612e8281612aec565b9050919050565b60006020820190508181036000830152612ea281612b0f565b9050919050565b6000602082019050612ebe6000830184612b32565b92915050565b6000612ece612edf565b9050612eda8282613131565b919050565b6000604051905090565b600067ffffffffffffffff821115612f0457612f03613269565b5b612f0d82613298565b9050602081019050919050565b600067ffffffffffffffff821115612f3557612f34613269565b5b612f3e82613298565b9050602081019050919050565b600081519050919050565b600081519050919050565b600082825260208201905092915050565b600082825260208201905092915050565b600081905092915050565b6000612f99826130b3565b9150612fa4836130b3565b9250827fffffffffffffffffffffffffffffffffffffffffffffffffffffffffffffffff03821115612fd957612fd86131dc565b5b828201905092915050565b6000612fef826130b3565b9150612ffa836130b3565b92508261300a5761300961320b565b5b828204905092915050565b6000613020826130b3565b915061302b836130b3565b92508282101561303e5761303d6131dc565b5b828203905092915050565b600061305482613093565b9050919050565b60008115159050919050565b60007fffffffff0000000000000000000000000000000000000000000000000000000082169050919050565b600073ffffffffffffffffffffffffffffffffffffffff82169050919050565b6000819050919050565b82818337600083830152505050565b60005b838110156130ea5780820151818401526020810190506130cf565b838111156130f9576000848401525b50505050565b6000600282049050600182168061311757607f821691505b6020821081141561312b5761312a61323a565b5b50919050565b61313a82613298565b810181811067ffffffffffffffff8211171561315957613158613269565b5b80604052505050565b600061316d826130b3565b91507fffffffffffffffffffffffffffffffffffffffffffffffffffffffffffffffff8214156131a05761319f6131dc565b5b600182019050919050565b60006131b6826130b3565b91506131c1836130b3565b9250826131d1576131d061320b565b5b828206905092915050565b7f4e487b7100000000000000000000000000000000000000000000000000000000600052601160045260246000fd5b7f4e487b7100000000000000000000000000000000000000000000000000000000600052601260045260246000fd5b7f4e487b7100000000000000000000000000000000000000000000000000000000600052602260045260246000fd5b7f4e487b7100000000000000000000000000000000000000000000000000000000600052604160045260246000fd5b6000601f19601f8301169050919050565b7f4552433732313a207472616e7366657220746f206e6f6e20455243373231526560008201527f63656976657220696d706c656d656e7465720000000000000000000000000000602082015250565b7f4f776e61626c653a206e6577206f776e657220697320746865207a65726f206160008201527f6464726573730000000000000000000000000000000000000000000000000000602082015250565b7f4552433732313a20746f6b656e20616c7265616479206d696e74656400000000600082015250565b7f4552433732313a207472616e7366657220746f20746865207a65726f2061646460008201527f7265737300000000000000000000000000000000000000000000000000000000602082015250565b7f4552433732313a20617070726f766520746f2063616c6c657200000000000000600082015250565b7f4552433732313a206f70657261746f7220717565727920666f72206e6f6e657860008201527f697374656e7420746f6b656e0000000000000000000000000000000000000000602082015250565b7f4552433732313a20617070726f76652063616c6c6572206973206e6f74206f7760008201527f6e6572206e6f7220617070726f76656420666f7220616c6c0000000000000000602082015250565b7f4552433732313a2062616c616e636520717565727920666f7220746865207a6560008201527f726f206164647265737300000000000000000000000000000000000000000000602082015250565b7f4552433732313a206f776e657220717565727920666f72206e6f6e657869737460008201527f656e7420746f6b656e0000000000000000000000000000000000000000000000602082015250565b7f45524337323155524953746f726167653a2055524920736574206f66206e6f6e60008201527f6578697374656e7420746f6b656e000000000000000000000000000000000000602082015250565b7f496e697469616c697a61626c653a20636f6e747261637420697320616c72656160008201527f647920696e697469616c697a6564000000000000000000000000000000000000602082015250565b7f4552433732313a206d696e7420746f20746865207a65726f2061646472657373600082015250565b7f45524337323155524953746f726167653a2055524920717565727920666f722060008201527f6e6f6e6578697374656e7420746f6b656e000000000000000000000000000000602082015250565b7f4552433732313a20617070726f76656420717565727920666f72206e6f6e657860008201527f697374656e7420746f6b656e0000000000000000000000000000000000000000602082015250565b7f4f776e61626c653a2063616c6c6572206973206e6f7420746865206f776e6572600082015250565b7f4552433732313a207472616e73666572206f6620746f6b656e2074686174206960008201527f73206e6f74206f776e0000000000000000000000000000000000000000000000602082015250565b7f4552433732314d657461646174613a2055524920717565727920666f72206e6f60008201527f6e6578697374656e7420746f6b656e0000000000000000000000000000000000602082015250565b7f4552433732313a20617070726f76616c20746f2063757272656e74206f776e6560008201527f7200000000000000000000000000000000000000000000000000000000000000602082015250565b7f4275696c64696e6773206f7574206f662073746f636b00000000000000000000600082015250565b7f4552433732313a207472616e736665722063616c6c6572206973206e6f74206f60008201527f776e6572206e6f7220617070726f766564000000000000000000000000000000602082015250565b7f496e697469616c697a61626c653a20636f6e7472616374206973206e6f74206960008201527f6e697469616c697a696e67000000000000000000000000000000000000000000602082015250565b61386f81613049565b811461387a57600080fd5b50565b6138868161305b565b811461389157600080fd5b50565b61389d81613067565b81146138a857600080fd5b50565b6138b4816130b3565b81146138bf57600080fd5b5056fea26469706673582212208e4cc4e81a4d7e1ee9e93dc447b550dfc47bc12a91c917766e5b5a81e5653e2164736f6c63430008030033",
  "linkReferences": {},
  "deployedLinkReferences": {}
}