{
  "_format": "hh-sol-artifact-1",
  "contractName": "OkiDokiWorld",
  "sourceName": "contracts/OkiDokiWorld.sol",
  "abi": [
    {
      "anonymous": false,
      "inputs": [
        {
          "indexed": true,
          "internalType": "address",
          "name": "account",
          "type": "address"
        },
        {
          "indexed": true,
          "internalType": "address",
          "name": "operator",
          "type": "address"
        },
        {
          "indexed": false,
          "internalType": "bool",
          "name": "approved",
          "type": "bool"
        }
      ],
      "name": "ApprovalForAll",
      "type": "event"
    },
    {
      "anonymous": false,
      "inputs": [
        {
          "indexed": true,
          "internalType": "address",
          "name": "previousOwner",
          "type": "address"
        },
        {
          "indexed": true,
          "internalType": "address",
          "name": "newOwner",
          "type": "address"
        }
      ],
      "name": "OwnershipTransferred",
      "type": "event"
    },
    {
      "anonymous": false,
      "inputs": [
        {
          "indexed": true,
          "internalType": "address",
          "name": "operator",
          "type": "address"
        },
        {
          "indexed": true,
          "internalType": "address",
          "name": "from",
          "type": "address"
        },
        {
          "indexed": true,
          "internalType": "address",
          "name": "to",
          "type": "address"
        },
        {
          "indexed": false,
          "internalType": "uint256[]",
          "name": "ids",
          "type": "uint256[]"
        },
        {
          "indexed": false,
          "internalType": "uint256[]",
          "name": "values",
          "type": "uint256[]"
        }
      ],
      "name": "TransferBatch",
      "type": "event"
    },
    {
      "anonymous": false,
      "inputs": [
        {
          "indexed": true,
          "internalType": "address",
          "name": "operator",
          "type": "address"
        },
        {
          "indexed": true,
          "internalType": "address",
          "name": "from",
          "type": "address"
        },
        {
          "indexed": true,
          "internalType": "address",
          "name": "to",
          "type": "address"
        },
        {
          "indexed": false,
          "internalType": "uint256",
          "name": "id",
          "type": "uint256"
        },
        {
          "indexed": false,
          "internalType": "uint256",
          "name": "value",
          "type": "uint256"
        }
      ],
      "name": "TransferSingle",
      "type": "event"
    },
    {
      "anonymous": false,
      "inputs": [
        {
          "indexed": false,
          "internalType": "string",
          "name": "value",
          "type": "string"
        },
        {
          "indexed": true,
          "internalType": "uint256",
          "name": "id",
          "type": "uint256"
        }
      ],
      "name": "URI",
      "type": "event"
    },
    {
      "inputs": [],
      "name": "BUILDING",
      "outputs": [
        {
          "internalType": "uint256",
          "name": "",
          "type": "uint256"
        }
      ],
      "stateMutability": "view",
      "type": "function"
    },
    {
      "inputs": [],
      "name": "LAND",
      "outputs": [
        {
          "internalType": "uint256",
          "name": "",
          "type": "uint256"
        }
      ],
      "stateMutability": "view",
      "type": "function"
    },
    {
      "inputs": [
        {
          "internalType": "address",
          "name": "account",
          "type": "address"
        },
        {
          "internalType": "uint256",
          "name": "id",
          "type": "uint256"
        }
      ],
      "name": "balanceOf",
      "outputs": [
        {
          "internalType": "uint256",
          "name": "",
          "type": "uint256"
        }
      ],
      "stateMutability": "view",
      "type": "function"
    },
    {
      "inputs": [
        {
          "internalType": "address[]",
          "name": "accounts",
          "type": "address[]"
        },
        {
          "internalType": "uint256[]",
          "name": "ids",
          "type": "uint256[]"
        }
      ],
      "name": "balanceOfBatch",
      "outputs": [
        {
          "internalType": "uint256[]",
          "name": "",
          "type": "uint256[]"
        }
      ],
      "stateMutability": "view",
      "type": "function"
    },
    {
      "inputs": [
        {
          "internalType": "address",
          "name": "account",
          "type": "address"
        },
        {
          "internalType": "uint256",
          "name": "id",
          "type": "uint256"
        },
        {
          "internalType": "uint256",
          "name": "value",
          "type": "uint256"
        }
      ],
      "name": "burn",
      "outputs": [],
      "stateMutability": "nonpayable",
      "type": "function"
    },
    {
      "inputs": [
        {
          "internalType": "address",
          "name": "account",
          "type": "address"
        },
        {
          "internalType": "uint256[]",
          "name": "ids",
          "type": "uint256[]"
        },
        {
          "internalType": "uint256[]",
          "name": "values",
          "type": "uint256[]"
        }
      ],
      "name": "burnBatch",
      "outputs": [],
      "stateMutability": "nonpayable",
      "type": "function"
    },
    {
      "inputs": [],
      "name": "initialize",
      "outputs": [],
      "stateMutability": "nonpayable",
      "type": "function"
    },
    {
      "inputs": [
        {
          "internalType": "address",
          "name": "account",
          "type": "address"
        },
        {
          "internalType": "address",
          "name": "operator",
          "type": "address"
        }
      ],
      "name": "isApprovedForAll",
      "outputs": [
        {
          "internalType": "bool",
          "name": "",
          "type": "bool"
        }
      ],
      "stateMutability": "view",
      "type": "function"
    },
    {
      "inputs": [
        {
          "internalType": "uint256",
          "name": "id",
          "type": "uint256"
        },
        {
          "internalType": "uint256",
          "name": "amount",
          "type": "uint256"
        },
        {
          "internalType": "string",
          "name": "newuri",
          "type": "string"
        }
      ],
      "name": "mint",
      "outputs": [],
      "stateMutability": "payable",
      "type": "function"
    },
    {
      "inputs": [
        {
          "internalType": "uint256[]",
          "name": "ids",
          "type": "uint256[]"
        },
        {
          "internalType": "uint256[]",
          "name": "amounts",
          "type": "uint256[]"
        }
      ],
      "name": "mintBatch",
      "outputs": [],
      "stateMutability": "payable",
      "type": "function"
    },
    {
      "inputs": [
        {
          "internalType": "address",
          "name": "to",
          "type": "address"
        },
        {
          "internalType": "uint256[]",
          "name": "ids",
          "type": "uint256[]"
        },
        {
          "internalType": "uint256[]",
          "name": "amounts",
          "type": "uint256[]"
        }
      ],
      "name": "mySafeBatchTransferFrom",
      "outputs": [],
      "stateMutability": "payable",
      "type": "function"
    },
    {
      "inputs": [],
      "name": "owner",
      "outputs": [
        {
          "internalType": "address",
          "name": "",
          "type": "address"
        }
      ],
      "stateMutability": "view",
      "type": "function"
    },
    {
      "inputs": [],
      "name": "renounceOwnership",
      "outputs": [],
      "stateMutability": "nonpayable",
      "type": "function"
    },
    {
      "inputs": [
        {
          "internalType": "address",
          "name": "from",
          "type": "address"
        },
        {
          "internalType": "address",
          "name": "to",
          "type": "address"
        },
        {
          "internalType": "uint256[]",
          "name": "ids",
          "type": "uint256[]"
        },
        {
          "internalType": "uint256[]",
          "name": "amounts",
          "type": "uint256[]"
        },
        {
          "internalType": "bytes",
          "name": "data",
          "type": "bytes"
        }
      ],
      "name": "safeBatchTransferFrom",
      "outputs": [],
      "stateMutability": "nonpayable",
      "type": "function"
    },
    {
      "inputs": [
        {
          "internalType": "address",
          "name": "from",
          "type": "address"
        },
        {
          "internalType": "address",
          "name": "to",
          "type": "address"
        },
        {
          "internalType": "uint256",
          "name": "id",
          "type": "uint256"
        },
        {
          "internalType": "uint256",
          "name": "amount",
          "type": "uint256"
        },
        {
          "internalType": "bytes",
          "name": "data",
          "type": "bytes"
        }
      ],
      "name": "safeTransferFrom",
      "outputs": [],
      "stateMutability": "nonpayable",
      "type": "function"
    },
    {
      "inputs": [
        {
          "internalType": "address",
          "name": "operator",
          "type": "address"
        },
        {
          "internalType": "bool",
          "name": "approved",
          "type": "bool"
        }
      ],
      "name": "setApprovalForAll",
      "outputs": [],
      "stateMutability": "nonpayable",
      "type": "function"
    },
    {
      "inputs": [
        {
          "internalType": "string",
          "name": "newuri",
          "type": "string"
        }
      ],
      "name": "setURI",
      "outputs": [],
      "stateMutability": "nonpayable",
      "type": "function"
    },
    {
      "inputs": [
        {
          "internalType": "bytes4",
          "name": "interfaceId",
          "type": "bytes4"
        }
      ],
      "name": "supportsInterface",
      "outputs": [
        {
          "internalType": "bool",
          "name": "",
          "type": "bool"
        }
      ],
      "stateMutability": "view",
      "type": "function"
    },
    {
      "inputs": [
        {
          "internalType": "address",
          "name": "newOwner",
          "type": "address"
        }
      ],
      "name": "transferOwnership",
      "outputs": [],
      "stateMutability": "nonpayable",
      "type": "function"
    },
    {
      "inputs": [
        {
          "internalType": "uint256",
          "name": "",
          "type": "uint256"
        }
      ],
      "name": "uri",
      "outputs": [
        {
          "internalType": "string",
          "name": "",
          "type": "string"
        }
      ],
      "stateMutability": "view",
      "type": "function"
    }
  ],
  "bytecode": "0x608060405234801561001057600080fd5b50614cbc806100206000396000f3fe60806040526004361061011e5760003560e01c80638129fc1c116100a0578063d351cfdc11610064578063d351cfdc146103a2578063e985e9c5146103be578063f242432a146103fb578063f2fde38b14610424578063f5298aca1461044d5761011e565b80638129fc1c146102f05780638da5cb5b14610307578063a22cb46514610332578063c6e64e531461035b578063ce89205b146103775761011e565b80632eb2c2d6116100e75780632eb2c2d61461021f5780634e1273f4146102485780635cebd25e146102855780636b20c454146102b0578063715018a6146102d95761011e565b8062fdd58e1461012357806301ffc9a71461016057806302fe53051461019d5780630e89341c146101c65780631c25c16f14610203575b600080fd5b34801561012f57600080fd5b5061014a60048036038101906101459190613668565b610476565b60405161015791906140c1565b60405180910390f35b34801561016c57600080fd5b50610187600480360381019061018291906137cb565b610540565b6040516101949190613e04565b60405180910390f35b3480156101a957600080fd5b506101c460048036038101906101bf919061381d565b610622565b005b3480156101d257600080fd5b506101ed60048036038101906101e8919061385e565b6106aa565b6040516101fa9190613e1f565b60405180910390f35b61021d600480360381019061021891906135ad565b61073e565b005b34801561022b57600080fd5b506102466004803603810190610241919061345f565b6107db565b005b34801561025457600080fd5b5061026f600480360381019061026a91906136f3565b61087c565b60405161027c9190613dab565b60405180910390f35b34801561029157600080fd5b5061029a610a2d565b6040516102a791906140c1565b60405180910390f35b3480156102bc57600080fd5b506102d760048036038101906102d291906135ad565b610a32565b005b3480156102e557600080fd5b506102ee610acf565b005b3480156102fc57600080fd5b50610305610b57565b005b34801561031357600080fd5b5061031c610d54565b6040516103299190613cce565b60405180910390f35b34801561033e57600080fd5b506103596004803603810190610354919061362c565b610d7e565b005b61037560048036038101906103709190613887565b610d94565b005b34801561038357600080fd5b5061038c61104f565b60405161039991906140c1565b60405180910390f35b6103bc60048036038101906103b7919061375f565b611054565b005b3480156103ca57600080fd5b506103e560048036038101906103e09190613423565b611391565b6040516103f29190613e04565b60405180910390f35b34801561040757600080fd5b50610422600480360381019061041d919061351e565b611425565b005b34801561043057600080fd5b5061044b600480360381019061044691906133fa565b6114c6565b005b34801561045957600080fd5b50610474600480360381019061046f91906136a4565b6115be565b005b60008073ffffffffffffffffffffffffffffffffffffffff168373ffffffffffffffffffffffffffffffffffffffff1614156104e7576040517f08c379a00000000000000000000000000000000000000000000000000000000081526004016104de90613e81565b60405180910390fd5b6065600083815260200190815260200160002060008473ffffffffffffffffffffffffffffffffffffffff1673ffffffffffffffffffffffffffffffffffffffff16815260200190815260200160002054905092915050565b60007fd9b67a26000000000000000000000000000000000000000000000000000000007bffffffffffffffffffffffffffffffffffffffffffffffffffffffff1916827bffffffffffffffffffffffffffffffffffffffffffffffffffffffff1916148061060b57507f0e89341c000000000000000000000000000000000000000000000000000000007bffffffffffffffffffffffffffffffffffffffffffffffffffffffff1916827bffffffffffffffffffffffffffffffffffffffffffffffffffffffff1916145b8061061b575061061a8261165b565b5b9050919050565b61062a6116c5565b73ffffffffffffffffffffffffffffffffffffffff16610648610d54565b73ffffffffffffffffffffffffffffffffffffffff161461069e576040517f08c379a000000000000000000000000000000000000000000000000000000000815260040161069590613fc1565b60405180910390fd5b6106a7816116cd565b50565b6060606780546106b9906143bb565b80601f01602080910402602001604051908101604052809291908181526020018280546106e5906143bb565b80156107325780601f1061070757610100808354040283529160200191610732565b820191906000526020600020905b81548152906001019060200180831161071557829003601f168201915b50505050509050919050565b6107466116c5565b73ffffffffffffffffffffffffffffffffffffffff16610764610d54565b73ffffffffffffffffffffffffffffffffffffffff16146107ba576040517f08c379a00000000000000000000000000000000000000000000000000000000081526004016107b190613fc1565b60405180910390fd5b6107d633848484604051806020016040528060008152506107db565b505050565b6107e36116c5565b73ffffffffffffffffffffffffffffffffffffffff168573ffffffffffffffffffffffffffffffffffffffff1614806108295750610828856108236116c5565b611391565b5b610868576040517f08c379a000000000000000000000000000000000000000000000000000000000815260040161085f90613f41565b60405180910390fd5b61087585858585856116e7565b5050505050565b606081518351146108c2576040517f08c379a00000000000000000000000000000000000000000000000000000000081526004016108b990614061565b60405180910390fd5b6000835167ffffffffffffffff811115610905577f4e487b7100000000000000000000000000000000000000000000000000000000600052604160045260246000fd5b6040519080825280602002602001820160405280156109335781602001602082028036833780820191505090505b50905060005b8451811015610a22576109cc85828151811061097e577f4e487b7100000000000000000000000000000000000000000000000000000000600052603260045260246000fd5b60200260200101518583815181106109bf577f4e487b7100000000000000000000000000000000000000000000000000000000600052603260045260246000fd5b6020026020010151610476565b828281518110610a05577f4e487b7100000000000000000000000000000000000000000000000000000000600052603260045260246000fd5b60200260200101818152505080610a1b9061441e565b9050610939565b508091505092915050565b600181565b610a3a6116c5565b73ffffffffffffffffffffffffffffffffffffffff168373ffffffffffffffffffffffffffffffffffffffff161480610a805750610a7f83610a7a6116c5565b611391565b5b610abf576040517f08c379a0000000000000000000000000000000000000000000000000000000008152600401610ab690613ee1565b60405180910390fd5b610aca838383611a4a565b505050565b610ad76116c5565b73ffffffffffffffffffffffffffffffffffffffff16610af5610d54565b73ffffffffffffffffffffffffffffffffffffffff1614610b4b576040517f08c379a0000000000000000000000000000000000000000000000000000000008152600401610b4290613fc1565b60405180910390fd5b610b556000611d49565b565b600060019054906101000a900460ff16610b7f5760008054906101000a900460ff1615610b88565b610b87611e0f565b5b610bc7576040517f08c379a0000000000000000000000000000000000000000000000000000000008152600401610bbe90613f61565b60405180910390fd5b60008060019054906101000a900460ff161590508015610c17576001600060016101000a81548160ff02191690831515021790555060016000806101000a81548160ff0219169083151502179055505b610c386040518060800160405280605a8152602001614c2d605a9139611e20565b610c40611e8b565b610c48611eec565b6040518060400160405280600060ff168152602001600060ff1681525060fd906002610c75929190612ff5565b5060405180604001604052806601c6bf5263400066ffffffffffffff168152602001660110d9316ec00066ffffffffffffff1681525060fe906002610cbb929190613047565b50600360fb60006101000a81548161ffff021916908361ffff160217905550604051806040016040528060fb60009054906101000a900461ffff1661ffff1661ffff16815260200160fb60009054906101000a900461ffff1661ffff1661ffff1681525060fc906002610d2f92919061309f565b508015610d515760008060016101000a81548160ff0219169083151502179055505b50565b6000609760009054906101000a900473ffffffffffffffffffffffffffffffffffffffff16905090565b610d90610d896116c5565b8383611f55565b5050565b610d9c6116c5565b73ffffffffffffffffffffffffffffffffffffffff16610dba610d54565b73ffffffffffffffffffffffffffffffffffffffff1614610e10576040517f08c379a0000000000000000000000000000000000000000000000000000000008152600401610e0790613fc1565b60405180910390fd5b60fc8054905083108015610e25575060008310155b610e64576040517f08c379a0000000000000000000000000000000000000000000000000000000008152600401610e5b90613f01565b60405180910390fd5b60fc8381548110610e9e577f4e487b7100000000000000000000000000000000000000000000000000000000600052603260045260246000fd5b90600052602060002001548260fd8581548110610ee4577f4e487b7100000000000000000000000000000000000000000000000000000000600052603260045260246000fd5b9060005260206000200154610ef99190614255565b1115610f3a576040517f08c379a0000000000000000000000000000000000000000000000000000000008152600401610f3190613fe1565b60405180910390fd5b60fe8381548110610f74577f4e487b7100000000000000000000000000000000000000000000000000000000600052603260045260246000fd5b906000526020600020015482610f8a91906142ab565b341015610fcc576040517f08c379a0000000000000000000000000000000000000000000000000000000008152600401610fc390614001565b60405180910390fd5b610fd581610622565b610ff0338484604051806020016040528060008152506120c2565b611048600160fd858154811061102f577f4e487b7100000000000000000000000000000000000000000000000000000000600052603260045260246000fd5b906000526020600020015461225990919063ffffffff16565b5050505050565b600081565b61105c6116c5565b73ffffffffffffffffffffffffffffffffffffffff1661107a610d54565b73ffffffffffffffffffffffffffffffffffffffff16146110d0576040517f08c379a00000000000000000000000000000000000000000000000000000000081526004016110c790613fc1565b60405180910390fd5b60005b8251811015611371576000838281518110611117577f4e487b7100000000000000000000000000000000000000000000000000000000600052603260045260246000fd5b6020026020010151905060fc8054905081108015611136575060008110155b611175576040517f08c379a000000000000000000000000000000000000000000000000000000000815260040161116c90613f01565b60405180910390fd5b60fc81815481106111af577f4e487b7100000000000000000000000000000000000000000000000000000000600052603260045260246000fd5b90600052602060002001548382815181106111f3577f4e487b7100000000000000000000000000000000000000000000000000000000600052603260045260246000fd5b602002602001015160fd8381548110611235577f4e487b7100000000000000000000000000000000000000000000000000000000600052603260045260246000fd5b906000526020600020015461124a9190614255565b111561128b576040517f08c379a000000000000000000000000000000000000000000000000000000000815260040161128290613fe1565b60405180910390fd5b60fe81815481106112c5577f4e487b7100000000000000000000000000000000000000000000000000000000600052603260045260246000fd5b9060005260206000200154838281518110611309577f4e487b7100000000000000000000000000000000000000000000000000000000600052603260045260246000fd5b602002602001015161131b91906142ab565b34101561135d576040517f08c379a000000000000000000000000000000000000000000000000000000000815260040161135490614001565b60405180910390fd5b5080806113699061441e565b9150506110d3565b5061138d33838360405180602001604052806000815250612288565b5050565b6000606660008473ffffffffffffffffffffffffffffffffffffffff1673ffffffffffffffffffffffffffffffffffffffff16815260200190815260200160002060008373ffffffffffffffffffffffffffffffffffffffff1673ffffffffffffffffffffffffffffffffffffffff16815260200190815260200160002060009054906101000a900460ff16905092915050565b61142d6116c5565b73ffffffffffffffffffffffffffffffffffffffff168573ffffffffffffffffffffffffffffffffffffffff16148061147357506114728561146d6116c5565b611391565b5b6114b2576040517f08c379a00000000000000000000000000000000000000000000000000000000081526004016114a990613ee1565b60405180910390fd5b6114bf85858585856124f3565b5050505050565b6114ce6116c5565b73ffffffffffffffffffffffffffffffffffffffff166114ec610d54565b73ffffffffffffffffffffffffffffffffffffffff1614611542576040517f08c379a000000000000000000000000000000000000000000000000000000000815260040161153990613fc1565b60405180910390fd5b600073ffffffffffffffffffffffffffffffffffffffff168173ffffffffffffffffffffffffffffffffffffffff1614156115b2576040517f08c379a00000000000000000000000000000000000000000000000000000000081526004016115a990613ea1565b60405180910390fd5b6115bb81611d49565b50565b6115c66116c5565b73ffffffffffffffffffffffffffffffffffffffff168373ffffffffffffffffffffffffffffffffffffffff16148061160c575061160b836116066116c5565b611391565b5b61164b576040517f08c379a000000000000000000000000000000000000000000000000000000000815260040161164290613ee1565b60405180910390fd5b611656838383612778565b505050565b60007f01ffc9a7000000000000000000000000000000000000000000000000000000007bffffffffffffffffffffffffffffffffffffffffffffffffffffffff1916827bffffffffffffffffffffffffffffffffffffffffffffffffffffffff1916149050919050565b600033905090565b80606790805190602001906116e39291906130f2565b5050565b815183511461172b576040517f08c379a000000000000000000000000000000000000000000000000000000000815260040161172290614081565b60405180910390fd5b600073ffffffffffffffffffffffffffffffffffffffff168473ffffffffffffffffffffffffffffffffffffffff16141561179b576040517f08c379a000000000000000000000000000000000000000000000000000000000815260040161179290613f21565b60405180910390fd5b60006117a56116c5565b90506117b5818787878787612997565b60005b84518110156119b55760008582815181106117fc577f4e487b7100000000000000000000000000000000000000000000000000000000600052603260045260246000fd5b602002602001015190506000858381518110611841577f4e487b7100000000000000000000000000000000000000000000000000000000600052603260045260246000fd5b6020026020010151905060006065600084815260200190815260200160002060008b73ffffffffffffffffffffffffffffffffffffffff1673ffffffffffffffffffffffffffffffffffffffff168152602001908152602001600020549050818110156118e3576040517f08c379a00000000000000000000000000000000000000000000000000000000081526004016118da90613fa1565b60405180910390fd5b8181036065600085815260200190815260200160002060008c73ffffffffffffffffffffffffffffffffffffffff1673ffffffffffffffffffffffffffffffffffffffff16815260200190815260200160002081905550816065600085815260200190815260200160002060008b73ffffffffffffffffffffffffffffffffffffffff1673ffffffffffffffffffffffffffffffffffffffff168152602001908152602001600020600082825461199a9190614255565b92505081905550505050806119ae9061441e565b90506117b8565b508473ffffffffffffffffffffffffffffffffffffffff168673ffffffffffffffffffffffffffffffffffffffff168273ffffffffffffffffffffffffffffffffffffffff167f4a39dc06d4c0dbc64b70af90fd698a233a518aa5d07e595d983b8c0526c8f7fb8787604051611a2c929190613dcd565b60405180910390a4611a4281878787878761299f565b505050505050565b600073ffffffffffffffffffffffffffffffffffffffff168373ffffffffffffffffffffffffffffffffffffffff161415611aba576040517f08c379a0000000000000000000000000000000000000000000000000000000008152600401611ab190613f81565b60405180910390fd5b8051825114611afe576040517f08c379a0000000000000000000000000000000000000000000000000000000008152600401611af590614081565b60405180910390fd5b6000611b086116c5565b9050611b2881856000868660405180602001604052806000815250612997565b60005b8351811015611cc3576000848281518110611b6f577f4e487b7100000000000000000000000000000000000000000000000000000000600052603260045260246000fd5b602002602001015190506000848381518110611bb4577f4e487b7100000000000000000000000000000000000000000000000000000000600052603260045260246000fd5b6020026020010151905060006065600084815260200190815260200160002060008973ffffffffffffffffffffffffffffffffffffffff1673ffffffffffffffffffffffffffffffffffffffff16815260200190815260200160002054905081811015611c56576040517f08c379a0000000000000000000000000000000000000000000000000000000008152600401611c4d90613ec1565b60405180910390fd5b8181036065600085815260200190815260200160002060008a73ffffffffffffffffffffffffffffffffffffffff1673ffffffffffffffffffffffffffffffffffffffff168152602001908152602001600020819055505050508080611cbb9061441e565b915050611b2b565b50600073ffffffffffffffffffffffffffffffffffffffff168473ffffffffffffffffffffffffffffffffffffffff168273ffffffffffffffffffffffffffffffffffffffff167f4a39dc06d4c0dbc64b70af90fd698a233a518aa5d07e595d983b8c0526c8f7fb8686604051611d3b929190613dcd565b60405180910390a450505050565b6000609760009054906101000a900473ffffffffffffffffffffffffffffffffffffffff16905081609760006101000a81548173ffffffffffffffffffffffffffffffffffffffff021916908373ffffffffffffffffffffffffffffffffffffffff1602179055508173ffffffffffffffffffffffffffffffffffffffff168173ffffffffffffffffffffffffffffffffffffffff167f8be0079c531659141344cd1fd0a4f28419497f9722a3daafe3b4186f6b6457e060405160405180910390a35050565b6000611e1a30612b86565b15905090565b600060019054906101000a900460ff16611e6f576040517f08c379a0000000000000000000000000000000000000000000000000000000008152600401611e6690614021565b60405180910390fd5b611e77612b99565b611e7f612bea565b611e8881612c3b565b50565b600060019054906101000a900460ff16611eda576040517f08c379a0000000000000000000000000000000000000000000000000000000008152600401611ed190614021565b60405180910390fd5b611ee2612b99565b611eea612c96565b565b600060019054906101000a900460ff16611f3b576040517f08c379a0000000000000000000000000000000000000000000000000000000008152600401611f3290614021565b60405180910390fd5b611f43612b99565b611f4b612bea565b611f53612cf7565b565b8173ffffffffffffffffffffffffffffffffffffffff168373ffffffffffffffffffffffffffffffffffffffff161415611fc4576040517f08c379a0000000000000000000000000000000000000000000000000000000008152600401611fbb90614041565b60405180910390fd5b80606660008573ffffffffffffffffffffffffffffffffffffffff1673ffffffffffffffffffffffffffffffffffffffff16815260200190815260200160002060008473ffffffffffffffffffffffffffffffffffffffff1673ffffffffffffffffffffffffffffffffffffffff16815260200190815260200160002060006101000a81548160ff0219169083151502179055508173ffffffffffffffffffffffffffffffffffffffff168373ffffffffffffffffffffffffffffffffffffffff167f17307eab39ab6107e8899845ad3d59bd9653f200f220920489ca2b5937696c31836040516120b59190613e04565b60405180910390a3505050565b600073ffffffffffffffffffffffffffffffffffffffff168473ffffffffffffffffffffffffffffffffffffffff161415612132576040517f08c379a0000000000000000000000000000000000000000000000000000000008152600401612129906140a1565b60405180910390fd5b600061213c6116c5565b905061215d8160008761214e88612d48565b61215788612d48565b87612997565b826065600086815260200190815260200160002060008773ffffffffffffffffffffffffffffffffffffffff1673ffffffffffffffffffffffffffffffffffffffff16815260200190815260200160002060008282546121bd9190614255565b925050819055508473ffffffffffffffffffffffffffffffffffffffff16600073ffffffffffffffffffffffffffffffffffffffff168273ffffffffffffffffffffffffffffffffffffffff167fc3d58168c5ae7397731d063d5bbf3d657854427343f4c083240f7aacaa2d0f62878760405161223b9291906140dc565b60405180910390a461225281600087878787612e0e565b5050505050565b6000806000838501905084811015612278576000809250925050612281565b60018192509250505b9250929050565b600073ffffffffffffffffffffffffffffffffffffffff168473ffffffffffffffffffffffffffffffffffffffff1614156122f8576040517f08c379a00000000000000000000000000000000000000000000000000000000081526004016122ef906140a1565b60405180910390fd5b815183511461233c576040517f08c379a000000000000000000000000000000000000000000000000000000000815260040161233390614081565b60405180910390fd5b60006123466116c5565b905061235781600087878787612997565b60005b845181101561245d5783818151811061239c577f4e487b7100000000000000000000000000000000000000000000000000000000600052603260045260246000fd5b6020026020010151606560008784815181106123e1577f4e487b7100000000000000000000000000000000000000000000000000000000600052603260045260246000fd5b6020026020010151815260200190815260200160002060008873ffffffffffffffffffffffffffffffffffffffff1673ffffffffffffffffffffffffffffffffffffffff16815260200190815260200160002060008282546124439190614255565b9250508190555080806124559061441e565b91505061235a565b508473ffffffffffffffffffffffffffffffffffffffff16600073ffffffffffffffffffffffffffffffffffffffff168273ffffffffffffffffffffffffffffffffffffffff167f4a39dc06d4c0dbc64b70af90fd698a233a518aa5d07e595d983b8c0526c8f7fb87876040516124d5929190613dcd565b60405180910390a46124ec8160008787878761299f565b5050505050565b600073ffffffffffffffffffffffffffffffffffffffff168473ffffffffffffffffffffffffffffffffffffffff161415612563576040517f08c379a000000000000000000000000000000000000000000000000000000000815260040161255a90613f21565b60405180910390fd5b600061256d6116c5565b905061258d81878761257e88612d48565b61258788612d48565b87612997565b60006065600086815260200190815260200160002060008873ffffffffffffffffffffffffffffffffffffffff1673ffffffffffffffffffffffffffffffffffffffff16815260200190815260200160002054905083811015612625576040517f08c379a000000000000000000000000000000000000000000000000000000000815260040161261c90613fa1565b60405180910390fd5b8381036065600087815260200190815260200160002060008973ffffffffffffffffffffffffffffffffffffffff1673ffffffffffffffffffffffffffffffffffffffff16815260200190815260200160002081905550836065600087815260200190815260200160002060008873ffffffffffffffffffffffffffffffffffffffff1673ffffffffffffffffffffffffffffffffffffffff16815260200190815260200160002060008282546126dc9190614255565b925050819055508573ffffffffffffffffffffffffffffffffffffffff168773ffffffffffffffffffffffffffffffffffffffff168373ffffffffffffffffffffffffffffffffffffffff167fc3d58168c5ae7397731d063d5bbf3d657854427343f4c083240f7aacaa2d0f6288886040516127599291906140dc565b60405180910390a461276f828888888888612e0e565b50505050505050565b600073ffffffffffffffffffffffffffffffffffffffff168373ffffffffffffffffffffffffffffffffffffffff1614156127e8576040517f08c379a00000000000000000000000000000000000000000000000000000000081526004016127df90613f81565b60405180910390fd5b60006127f26116c5565b90506128228185600061280487612d48565b61280d87612d48565b60405180602001604052806000815250612997565b60006065600085815260200190815260200160002060008673ffffffffffffffffffffffffffffffffffffffff1673ffffffffffffffffffffffffffffffffffffffff168152602001908152602001600020549050828110156128ba576040517f08c379a00000000000000000000000000000000000000000000000000000000081526004016128b190613ec1565b60405180910390fd5b8281036065600086815260200190815260200160002060008773ffffffffffffffffffffffffffffffffffffffff1673ffffffffffffffffffffffffffffffffffffffff16815260200190815260200160002081905550600073ffffffffffffffffffffffffffffffffffffffff168573ffffffffffffffffffffffffffffffffffffffff168373ffffffffffffffffffffffffffffffffffffffff167fc3d58168c5ae7397731d063d5bbf3d657854427343f4c083240f7aacaa2d0f6287876040516129889291906140dc565b60405180910390a45050505050565b505050505050565b6129be8473ffffffffffffffffffffffffffffffffffffffff16612b86565b15612b7e578373ffffffffffffffffffffffffffffffffffffffff1663bc197c8187878686866040518663ffffffff1660e01b8152600401612a04959493929190613ce9565b602060405180830381600087803b158015612a1e57600080fd5b505af1925050508015612a4f57506040513d601f19601f82011682018060405250810190612a4c91906137f4565b60015b612af557612a5b6144f4565b806308c379a01415612ab85750612a70614b3a565b80612a7b5750612aba565b806040517f08c379a0000000000000000000000000000000000000000000000000000000008152600401612aaf9190613e1f565b60405180910390fd5b505b6040517f08c379a0000000000000000000000000000000000000000000000000000000008152600401612aec90613e41565b60405180910390fd5b63bc197c8160e01b7bffffffffffffffffffffffffffffffffffffffffffffffffffffffff1916817bffffffffffffffffffffffffffffffffffffffffffffffffffffffff191614612b7c576040517f08c379a0000000000000000000000000000000000000000000000000000000008152600401612b7390613e61565b60405180910390fd5b505b505050505050565b600080823b905060008111915050919050565b600060019054906101000a900460ff16612be8576040517f08c379a0000000000000000000000000000000000000000000000000000000008152600401612bdf90614021565b60405180910390fd5b565b600060019054906101000a900460ff16612c39576040517f08c379a0000000000000000000000000000000000000000000000000000000008152600401612c3090614021565b60405180910390fd5b565b600060019054906101000a900460ff16612c8a576040517f08c379a0000000000000000000000000000000000000000000000000000000008152600401612c8190614021565b60405180910390fd5b612c93816116cd565b50565b600060019054906101000a900460ff16612ce5576040517f08c379a0000000000000000000000000000000000000000000000000000000008152600401612cdc90614021565b60405180910390fd5b612cf5612cf06116c5565b611d49565b565b600060019054906101000a900460ff16612d46576040517f08c379a0000000000000000000000000000000000000000000000000000000008152600401612d3d90614021565b60405180910390fd5b565b60606000600167ffffffffffffffff811115612d8d577f4e487b7100000000000000000000000000000000000000000000000000000000600052604160045260246000fd5b604051908082528060200260200182016040528015612dbb5781602001602082028036833780820191505090505b5090508281600081518110612df9577f4e487b7100000000000000000000000000000000000000000000000000000000600052603260045260246000fd5b60200260200101818152505080915050919050565b612e2d8473ffffffffffffffffffffffffffffffffffffffff16612b86565b15612fed578373ffffffffffffffffffffffffffffffffffffffff1663f23a6e6187878686866040518663ffffffff1660e01b8152600401612e73959493929190613d51565b602060405180830381600087803b158015612e8d57600080fd5b505af1925050508015612ebe57506040513d601f19601f82011682018060405250810190612ebb91906137f4565b60015b612f6457612eca6144f4565b806308c379a01415612f275750612edf614b3a565b80612eea5750612f29565b806040517f08c379a0000000000000000000000000000000000000000000000000000000008152600401612f1e9190613e1f565b60405180910390fd5b505b6040517f08c379a0000000000000000000000000000000000000000000000000000000008152600401612f5b90613e41565b60405180910390fd5b63f23a6e6160e01b7bffffffffffffffffffffffffffffffffffffffffffffffffffffffff1916817bffffffffffffffffffffffffffffffffffffffffffffffffffffffff191614612feb576040517f08c379a0000000000000000000000000000000000000000000000000000000008152600401612fe290613e61565b60405180910390fd5b505b505050505050565b828054828255906000526020600020908101928215613036579160200282015b82811115613035578251829060ff16905591602001919060010190613015565b5b5090506130439190613178565b5090565b82805482825590600052602060002090810192821561308e579160200282015b8281111561308d578251829066ffffffffffffff16905591602001919060010190613067565b5b50905061309b9190613178565b5090565b8280548282559060005260206000209081019282156130e1579160200282015b828111156130e0578251829061ffff169055916020019190600101906130bf565b5b5090506130ee9190613178565b5090565b8280546130fe906143bb565b90600052602060002090601f0160209004810192826131205760008555613167565b82601f1061313957805160ff1916838001178555613167565b82800160010185558215613167579182015b8281111561316657825182559160200191906001019061314b565b5b5090506131749190613178565b5090565b5b80821115613191576000816000905550600101613179565b5090565b60006131a86131a38461412a565b614105565b905080838252602082019050828560208602820111156131c757600080fd5b60005b858110156131f757816131dd88826132e9565b8452602084019350602083019250506001810190506131ca565b5050509392505050565b600061321461320f84614156565b614105565b9050808382526020820190508285602086028201111561323357600080fd5b60005b85811015613263578161324988826133e5565b845260208401935060208301925050600181019050613236565b5050509392505050565b600061328061327b84614182565b614105565b90508281526020810184848401111561329857600080fd5b6132a3848285614379565b509392505050565b60006132be6132b9846141b3565b614105565b9050828152602081018484840111156132d657600080fd5b6132e1848285614379565b509392505050565b6000813590506132f881614bd0565b92915050565b600082601f83011261330f57600080fd5b813561331f848260208601613195565b91505092915050565b600082601f83011261333957600080fd5b8135613349848260208601613201565b91505092915050565b60008135905061336181614be7565b92915050565b60008135905061337681614bfe565b92915050565b60008151905061338b81614bfe565b92915050565b600082601f8301126133a257600080fd5b81356133b284826020860161326d565b91505092915050565b600082601f8301126133cc57600080fd5b81356133dc8482602086016132ab565b91505092915050565b6000813590506133f481614c15565b92915050565b60006020828403121561340c57600080fd5b600061341a848285016132e9565b91505092915050565b6000806040838503121561343657600080fd5b6000613444858286016132e9565b9250506020613455858286016132e9565b9150509250929050565b600080600080600060a0868803121561347757600080fd5b6000613485888289016132e9565b9550506020613496888289016132e9565b945050604086013567ffffffffffffffff8111156134b357600080fd5b6134bf88828901613328565b935050606086013567ffffffffffffffff8111156134dc57600080fd5b6134e888828901613328565b925050608086013567ffffffffffffffff81111561350557600080fd5b61351188828901613391565b9150509295509295909350565b600080600080600060a0868803121561353657600080fd5b6000613544888289016132e9565b9550506020613555888289016132e9565b9450506040613566888289016133e5565b9350506060613577888289016133e5565b925050608086013567ffffffffffffffff81111561359457600080fd5b6135a088828901613391565b9150509295509295909350565b6000806000606084860312156135c257600080fd5b60006135d0868287016132e9565b935050602084013567ffffffffffffffff8111156135ed57600080fd5b6135f986828701613328565b925050604084013567ffffffffffffffff81111561361657600080fd5b61362286828701613328565b9150509250925092565b6000806040838503121561363f57600080fd5b600061364d858286016132e9565b925050602061365e85828601613352565b9150509250929050565b6000806040838503121561367b57600080fd5b6000613689858286016132e9565b925050602061369a858286016133e5565b9150509250929050565b6000806000606084860312156136b957600080fd5b60006136c7868287016132e9565b93505060206136d8868287016133e5565b92505060406136e9868287016133e5565b9150509250925092565b6000806040838503121561370657600080fd5b600083013567ffffffffffffffff81111561372057600080fd5b61372c858286016132fe565b925050602083013567ffffffffffffffff81111561374957600080fd5b61375585828601613328565b9150509250929050565b6000806040838503121561377257600080fd5b600083013567ffffffffffffffff81111561378c57600080fd5b61379885828601613328565b925050602083013567ffffffffffffffff8111156137b557600080fd5b6137c185828601613328565b9150509250929050565b6000602082840312156137dd57600080fd5b60006137eb84828501613367565b91505092915050565b60006020828403121561380657600080fd5b60006138148482850161337c565b91505092915050565b60006020828403121561382f57600080fd5b600082013567ffffffffffffffff81111561384957600080fd5b613855848285016133bb565b91505092915050565b60006020828403121561387057600080fd5b600061387e848285016133e5565b91505092915050565b60008060006060848603121561389c57600080fd5b60006138aa868287016133e5565b93505060206138bb868287016133e5565b925050604084013567ffffffffffffffff8111156138d857600080fd5b6138e4868287016133bb565b9150509250925092565b60006138fa8383613cb0565b60208301905092915050565b61390f81614305565b82525050565b6000613920826141f4565b61392a8185614222565b9350613935836141e4565b8060005b8381101561396657815161394d88826138ee565b975061395883614215565b925050600181019050613939565b5085935050505092915050565b61397c81614317565b82525050565b600061398d826141ff565b6139978185614233565b93506139a7818560208601614388565b6139b081614516565b840191505092915050565b60006139c68261420a565b6139d08185614244565b93506139e0818560208601614388565b6139e981614516565b840191505092915050565b6000613a01603483614244565b9150613a0c82614534565b604082019050919050565b6000613a24602883614244565b9150613a2f82614583565b604082019050919050565b6000613a47602b83614244565b9150613a52826145d2565b604082019050919050565b6000613a6a602683614244565b9150613a7582614621565b604082019050919050565b6000613a8d602483614244565b9150613a9882614670565b604082019050919050565b6000613ab0602983614244565b9150613abb826146bf565b604082019050919050565b6000613ad3604683614244565b9150613ade8261470e565b606082019050919050565b6000613af6602583614244565b9150613b0182614783565b604082019050919050565b6000613b19603283614244565b9150613b24826147d2565b604082019050919050565b6000613b3c602e83614244565b9150613b4782614821565b604082019050919050565b6000613b5f602383614244565b9150613b6a82614870565b604082019050919050565b6000613b82602a83614244565b9150613b8d826148bf565b604082019050919050565b6000613ba5602083614244565b9150613bb08261490e565b602082019050919050565b6000613bc8603383614244565b9150613bd382614937565b604082019050919050565b6000613beb601683614244565b9150613bf682614986565b602082019050919050565b6000613c0e602b83614244565b9150613c19826149af565b604082019050919050565b6000613c31602983614244565b9150613c3c826149fe565b604082019050919050565b6000613c54602983614244565b9150613c5f82614a4d565b604082019050919050565b6000613c77602883614244565b9150613c8282614a9c565b604082019050919050565b6000613c9a602183614244565b9150613ca582614aeb565b604082019050919050565b613cb98161436f565b82525050565b613cc88161436f565b82525050565b6000602082019050613ce36000830184613906565b92915050565b600060a082019050613cfe6000830188613906565b613d0b6020830187613906565b8181036040830152613d1d8186613915565b90508181036060830152613d318185613915565b90508181036080830152613d458184613982565b90509695505050505050565b600060a082019050613d666000830188613906565b613d736020830187613906565b613d806040830186613cbf565b613d8d6060830185613cbf565b8181036080830152613d9f8184613982565b90509695505050505050565b60006020820190508181036000830152613dc58184613915565b905092915050565b60006040820190508181036000830152613de78185613915565b90508181036020830152613dfb8184613915565b90509392505050565b6000602082019050613e196000830184613973565b92915050565b60006020820190508181036000830152613e3981846139bb565b905092915050565b60006020820190508181036000830152613e5a816139f4565b9050919050565b60006020820190508181036000830152613e7a81613a17565b9050919050565b60006020820190508181036000830152613e9a81613a3a565b9050919050565b60006020820190508181036000830152613eba81613a5d565b9050919050565b60006020820190508181036000830152613eda81613a80565b9050919050565b60006020820190508181036000830152613efa81613aa3565b9050919050565b60006020820190508181036000830152613f1a81613ac6565b9050919050565b60006020820190508181036000830152613f3a81613ae9565b9050919050565b60006020820190508181036000830152613f5a81613b0c565b9050919050565b60006020820190508181036000830152613f7a81613b2f565b9050919050565b60006020820190508181036000830152613f9a81613b52565b9050919050565b60006020820190508181036000830152613fba81613b75565b9050919050565b60006020820190508181036000830152613fda81613b98565b9050919050565b60006020820190508181036000830152613ffa81613bbb565b9050919050565b6000602082019050818103600083015261401a81613bde565b9050919050565b6000602082019050818103600083015261403a81613c01565b9050919050565b6000602082019050818103600083015261405a81613c24565b9050919050565b6000602082019050818103600083015261407a81613c47565b9050919050565b6000602082019050818103600083015261409a81613c6a565b9050919050565b600060208201905081810360008301526140ba81613c8d565b9050919050565b60006020820190506140d66000830184613cbf565b92915050565b60006040820190506140f16000830185613cbf565b6140fe6020830184613cbf565b9392505050565b600061410f614120565b905061411b82826143ed565b919050565b6000604051905090565b600067ffffffffffffffff821115614145576141446144c5565b5b602082029050602081019050919050565b600067ffffffffffffffff821115614171576141706144c5565b5b602082029050602081019050919050565b600067ffffffffffffffff82111561419d5761419c6144c5565b5b6141a682614516565b9050602081019050919050565b600067ffffffffffffffff8211156141ce576141cd6144c5565b5b6141d782614516565b9050602081019050919050565b6000819050602082019050919050565b600081519050919050565b600081519050919050565b600081519050919050565b6000602082019050919050565b600082825260208201905092915050565b600082825260208201905092915050565b600082825260208201905092915050565b60006142608261436f565b915061426b8361436f565b9250827fffffffffffffffffffffffffffffffffffffffffffffffffffffffffffffffff038211156142a05761429f614467565b5b828201905092915050565b60006142b68261436f565b91506142c18361436f565b9250817fffffffffffffffffffffffffffffffffffffffffffffffffffffffffffffffff04831182151516156142fa576142f9614467565b5b828202905092915050565b60006143108261434f565b9050919050565b60008115159050919050565b60007fffffffff0000000000000000000000000000000000000000000000000000000082169050919050565b600073ffffffffffffffffffffffffffffffffffffffff82169050919050565b6000819050919050565b82818337600083830152505050565b60005b838110156143a657808201518184015260208101905061438b565b838111156143b5576000848401525b50505050565b600060028204905060018216806143d357607f821691505b602082108114156143e7576143e6614496565b5b50919050565b6143f682614516565b810181811067ffffffffffffffff82111715614415576144146144c5565b5b80604052505050565b60006144298261436f565b91507fffffffffffffffffffffffffffffffffffffffffffffffffffffffffffffffff82141561445c5761445b614467565b5b600182019050919050565b7f4e487b7100000000000000000000000000000000000000000000000000000000600052601160045260246000fd5b7f4e487b7100000000000000000000000000000000000000000000000000000000600052602260045260246000fd5b7f4e487b7100000000000000000000000000000000000000000000000000000000600052604160045260246000fd5b600060033d11156145135760046000803e614510600051614527565b90505b90565b6000601f19601f8301169050919050565b60008160e01c9050919050565b7f455243313135353a207472616e7366657220746f206e6f6e204552433131353560008201527f526563656976657220696d706c656d656e746572000000000000000000000000602082015250565b7f455243313135353a204552433131353552656365697665722072656a6563746560008201527f6420746f6b656e73000000000000000000000000000000000000000000000000602082015250565b7f455243313135353a2062616c616e636520717565727920666f7220746865207a60008201527f65726f2061646472657373000000000000000000000000000000000000000000602082015250565b7f4f776e61626c653a206e6577206f776e657220697320746865207a65726f206160008201527f6464726573730000000000000000000000000000000000000000000000000000602082015250565b7f455243313135353a206275726e20616d6f756e7420657863656564732062616c60008201527f616e636500000000000000000000000000000000000000000000000000000000602082015250565b7f455243313135353a2063616c6c6572206973206e6f74206f776e6572206e6f7260008201527f20617070726f7665640000000000000000000000000000000000000000000000602082015250565b7f526571756972656420746f6b656e20646f65736e2774206578697374732e204f60008201527f6e6c79206c616e647320286964203029206f72206275696c64696e67732e202860208201527f69642031292e0000000000000000000000000000000000000000000000000000604082015250565b7f455243313135353a207472616e7366657220746f20746865207a65726f20616460008201527f6472657373000000000000000000000000000000000000000000000000000000602082015250565b7f455243313135353a207472616e736665722063616c6c6572206973206e6f742060008201527f6f776e6572206e6f7220617070726f7665640000000000000000000000000000602082015250565b7f496e697469616c697a61626c653a20636f6e747261637420697320616c72656160008201527f647920696e697469616c697a6564000000000000000000000000000000000000602082015250565b7f455243313135353a206275726e2066726f6d20746865207a65726f206164647260008201527f6573730000000000000000000000000000000000000000000000000000000000602082015250565b7f455243313135353a20696e73756666696369656e742062616c616e636520666f60008201527f72207472616e7366657200000000000000000000000000000000000000000000602082015250565b7f4f776e61626c653a2063616c6c6572206973206e6f7420746865206f776e6572600082015250565b7f4e6f7420656e6f75676820746f6b656e732e20596f757220726571756573742060008201527f63616e2774206265207361746973666965642e00000000000000000000000000602082015250565b7f4e6f7420656e6f7567682065746865722073656e742e00000000000000000000600082015250565b7f496e697469616c697a61626c653a20636f6e7472616374206973206e6f74206960008201527f6e697469616c697a696e67000000000000000000000000000000000000000000602082015250565b7f455243313135353a2073657474696e6720617070726f76616c2073746174757360008201527f20666f722073656c660000000000000000000000000000000000000000000000602082015250565b7f455243313135353a206163636f756e747320616e6420696473206c656e67746860008201527f206d69736d617463680000000000000000000000000000000000000000000000602082015250565b7f455243313135353a2069647320616e6420616d6f756e7473206c656e6774682060008201527f6d69736d61746368000000000000000000000000000000000000000000000000602082015250565b7f455243313135353a206d696e7420746f20746865207a65726f2061646472657360008201527f7300000000000000000000000000000000000000000000000000000000000000602082015250565b600060443d1015614b4a57614bcd565b614b52614120565b60043d036004823e80513d602482011167ffffffffffffffff82111715614b7a575050614bcd565b808201805167ffffffffffffffff811115614b985750505050614bcd565b80602083010160043d038501811115614bb5575050505050614bcd565b614bc4826020018501866143ed565b82955050505050505b90565b614bd981614305565b8114614be457600080fd5b50565b614bf081614317565b8114614bfb57600080fd5b50565b614c0781614323565b8114614c1257600080fd5b50565b614c1e8161436f565b8114614c2957600080fd5b5056fe68747470733a2f2f676174657761792e70696e6174612e636c6f75642f697066732f516d55783234467537584776686931674645675763437937693642465574656a34704871424d77757648434d38702f7b69647d2e6a736f6ea2646970667358221220470670d31fb6f73d0adc756c0bbb032d0f0f1af4bb01e6f289eef7c8d32bd8e564736f6c63430008030033",
  "linkReferences": {},
  "deployedLinkReferences": {}
}