{
  "_format": "hh-sol-artifact-1",
  "contractName": "ERC721PresetMinterPauserAutoIdUpgradeable",
  "sourceName": "contracts/artifacts/lib/contracts-upgradeable/token/ERC721/presets/ERC721PresetMinterPauserAutoIdUpgradeable.sol",
  "abi": [
    {
      "anonymous": false,
      "inputs": [
        {
          "indexed": true,
          "internalType": "address",
          "name": "owner",
          "type": "address"
        },
        {
          "indexed": true,
          "internalType": "address",
          "name": "approved",
          "type": "address"
        },
        {
          "indexed": true,
          "internalType": "uint256",
          "name": "tokenId",
          "type": "uint256"
        }
      ],
      "name": "Approval",
      "type": "event"
    },
    {
      "anonymous": false,
      "inputs": [
        {
          "indexed": true,
          "internalType": "address",
          "name": "owner",
          "type": "address"
        },
        {
          "indexed": true,
          "internalType": "address",
          "name": "operator",
          "type": "address"
        },
        {
          "indexed": false,
          "internalType": "bool",
          "name": "approved",
          "type": "bool"
        }
      ],
      "name": "ApprovalForAll",
      "type": "event"
    },
    {
      "anonymous": false,
      "inputs": [
        {
          "indexed": false,
          "internalType": "address",
          "name": "account",
          "type": "address"
        }
      ],
      "name": "Paused",
      "type": "event"
    },
    {
      "anonymous": false,
      "inputs": [
        {
          "indexed": true,
          "internalType": "bytes32",
          "name": "role",
          "type": "bytes32"
        },
        {
          "indexed": true,
          "internalType": "bytes32",
          "name": "previousAdminRole",
          "type": "bytes32"
        },
        {
          "indexed": true,
          "internalType": "bytes32",
          "name": "newAdminRole",
          "type": "bytes32"
        }
      ],
      "name": "RoleAdminChanged",
      "type": "event"
    },
    {
      "anonymous": false,
      "inputs": [
        {
          "indexed": true,
          "internalType": "bytes32",
          "name": "role",
          "type": "bytes32"
        },
        {
          "indexed": true,
          "internalType": "address",
          "name": "account",
          "type": "address"
        },
        {
          "indexed": true,
          "internalType": "address",
          "name": "sender",
          "type": "address"
        }
      ],
      "name": "RoleGranted",
      "type": "event"
    },
    {
      "anonymous": false,
      "inputs": [
        {
          "indexed": true,
          "internalType": "bytes32",
          "name": "role",
          "type": "bytes32"
        },
        {
          "indexed": true,
          "internalType": "address",
          "name": "account",
          "type": "address"
        },
        {
          "indexed": true,
          "internalType": "address",
          "name": "sender",
          "type": "address"
        }
      ],
      "name": "RoleRevoked",
      "type": "event"
    },
    {
      "anonymous": false,
      "inputs": [
        {
          "indexed": true,
          "internalType": "address",
          "name": "from",
          "type": "address"
        },
        {
          "indexed": true,
          "internalType": "address",
          "name": "to",
          "type": "address"
        },
        {
          "indexed": true,
          "internalType": "uint256",
          "name": "tokenId",
          "type": "uint256"
        }
      ],
      "name": "Transfer",
      "type": "event"
    },
    {
      "anonymous": false,
      "inputs": [
        {
          "indexed": false,
          "internalType": "address",
          "name": "account",
          "type": "address"
        }
      ],
      "name": "Unpaused",
      "type": "event"
    },
    {
      "inputs": [],
      "name": "DEFAULT_ADMIN_ROLE",
      "outputs": [
        {
          "internalType": "bytes32",
          "name": "",
          "type": "bytes32"
        }
      ],
      "stateMutability": "view",
      "type": "function"
    },
    {
      "inputs": [],
      "name": "MINTER_ROLE",
      "outputs": [
        {
          "internalType": "bytes32",
          "name": "",
          "type": "bytes32"
        }
      ],
      "stateMutability": "view",
      "type": "function"
    },
    {
      "inputs": [],
      "name": "PAUSER_ROLE",
      "outputs": [
        {
          "internalType": "bytes32",
          "name": "",
          "type": "bytes32"
        }
      ],
      "stateMutability": "view",
      "type": "function"
    },
    {
      "inputs": [
        {
          "internalType": "address",
          "name": "to",
          "type": "address"
        },
        {
          "internalType": "uint256",
          "name": "tokenId",
          "type": "uint256"
        }
      ],
      "name": "approve",
      "outputs": [],
      "stateMutability": "nonpayable",
      "type": "function"
    },
    {
      "inputs": [
        {
          "internalType": "address",
          "name": "owner",
          "type": "address"
        }
      ],
      "name": "balanceOf",
      "outputs": [
        {
          "internalType": "uint256",
          "name": "",
          "type": "uint256"
        }
      ],
      "stateMutability": "view",
      "type": "function"
    },
    {
      "inputs": [
        {
          "internalType": "uint256",
          "name": "tokenId",
          "type": "uint256"
        }
      ],
      "name": "burn",
      "outputs": [],
      "stateMutability": "nonpayable",
      "type": "function"
    },
    {
      "inputs": [
        {
          "internalType": "uint256",
          "name": "tokenId",
          "type": "uint256"
        }
      ],
      "name": "getApproved",
      "outputs": [
        {
          "internalType": "address",
          "name": "",
          "type": "address"
        }
      ],
      "stateMutability": "view",
      "type": "function"
    },
    {
      "inputs": [
        {
          "internalType": "bytes32",
          "name": "role",
          "type": "bytes32"
        }
      ],
      "name": "getRoleAdmin",
      "outputs": [
        {
          "internalType": "bytes32",
          "name": "",
          "type": "bytes32"
        }
      ],
      "stateMutability": "view",
      "type": "function"
    },
    {
      "inputs": [
        {
          "internalType": "bytes32",
          "name": "role",
          "type": "bytes32"
        },
        {
          "internalType": "uint256",
          "name": "index",
          "type": "uint256"
        }
      ],
      "name": "getRoleMember",
      "outputs": [
        {
          "internalType": "address",
          "name": "",
          "type": "address"
        }
      ],
      "stateMutability": "view",
      "type": "function"
    },
    {
      "inputs": [
        {
          "internalType": "bytes32",
          "name": "role",
          "type": "bytes32"
        }
      ],
      "name": "getRoleMemberCount",
      "outputs": [
        {
          "internalType": "uint256",
          "name": "",
          "type": "uint256"
        }
      ],
      "stateMutability": "view",
      "type": "function"
    },
    {
      "inputs": [
        {
          "internalType": "bytes32",
          "name": "role",
          "type": "bytes32"
        },
        {
          "internalType": "address",
          "name": "account",
          "type": "address"
        }
      ],
      "name": "grantRole",
      "outputs": [],
      "stateMutability": "nonpayable",
      "type": "function"
    },
    {
      "inputs": [
        {
          "internalType": "bytes32",
          "name": "role",
          "type": "bytes32"
        },
        {
          "internalType": "address",
          "name": "account",
          "type": "address"
        }
      ],
      "name": "hasRole",
      "outputs": [
        {
          "internalType": "bool",
          "name": "",
          "type": "bool"
        }
      ],
      "stateMutability": "view",
      "type": "function"
    },
    {
      "inputs": [
        {
          "internalType": "string",
          "name": "name",
          "type": "string"
        },
        {
          "internalType": "string",
          "name": "symbol",
          "type": "string"
        },
        {
          "internalType": "string",
          "name": "baseTokenURI",
          "type": "string"
        }
      ],
      "name": "initialize",
      "outputs": [],
      "stateMutability": "nonpayable",
      "type": "function"
    },
    {
      "inputs": [
        {
          "internalType": "address",
          "name": "owner",
          "type": "address"
        },
        {
          "internalType": "address",
          "name": "operator",
          "type": "address"
        }
      ],
      "name": "isApprovedForAll",
      "outputs": [
        {
          "internalType": "bool",
          "name": "",
          "type": "bool"
        }
      ],
      "stateMutability": "view",
      "type": "function"
    },
    {
      "inputs": [
        {
          "internalType": "address",
          "name": "to",
          "type": "address"
        }
      ],
      "name": "mint",
      "outputs": [],
      "stateMutability": "nonpayable",
      "type": "function"
    },
    {
      "inputs": [],
      "name": "name",
      "outputs": [
        {
          "internalType": "string",
          "name": "",
          "type": "string"
        }
      ],
      "stateMutability": "view",
      "type": "function"
    },
    {
      "inputs": [
        {
          "internalType": "uint256",
          "name": "tokenId",
          "type": "uint256"
        }
      ],
      "name": "ownerOf",
      "outputs": [
        {
          "internalType": "address",
          "name": "",
          "type": "address"
        }
      ],
      "stateMutability": "view",
      "type": "function"
    },
    {
      "inputs": [],
      "name": "pause",
      "outputs": [],
      "stateMutability": "nonpayable",
      "type": "function"
    },
    {
      "inputs": [],
      "name": "paused",
      "outputs": [
        {
          "internalType": "bool",
          "name": "",
          "type": "bool"
        }
      ],
      "stateMutability": "view",
      "type": "function"
    },
    {
      "inputs": [
        {
          "internalType": "bytes32",
          "name": "role",
          "type": "bytes32"
        },
        {
          "internalType": "address",
          "name": "account",
          "type": "address"
        }
      ],
      "name": "renounceRole",
      "outputs": [],
      "stateMutability": "nonpayable",
      "type": "function"
    },
    {
      "inputs": [
        {
          "internalType": "bytes32",
          "name": "role",
          "type": "bytes32"
        },
        {
          "internalType": "address",
          "name": "account",
          "type": "address"
        }
      ],
      "name": "revokeRole",
      "outputs": [],
      "stateMutability": "nonpayable",
      "type": "function"
    },
    {
      "inputs": [
        {
          "internalType": "address",
          "name": "from",
          "type": "address"
        },
        {
          "internalType": "address",
          "name": "to",
          "type": "address"
        },
        {
          "internalType": "uint256",
          "name": "tokenId",
          "type": "uint256"
        }
      ],
      "name": "safeTransferFrom",
      "outputs": [],
      "stateMutability": "nonpayable",
      "type": "function"
    },
    {
      "inputs": [
        {
          "internalType": "address",
          "name": "from",
          "type": "address"
        },
        {
          "internalType": "address",
          "name": "to",
          "type": "address"
        },
        {
          "internalType": "uint256",
          "name": "tokenId",
          "type": "uint256"
        },
        {
          "internalType": "bytes",
          "name": "_data",
          "type": "bytes"
        }
      ],
      "name": "safeTransferFrom",
      "outputs": [],
      "stateMutability": "nonpayable",
      "type": "function"
    },
    {
      "inputs": [
        {
          "internalType": "address",
          "name": "operator",
          "type": "address"
        },
        {
          "internalType": "bool",
          "name": "approved",
          "type": "bool"
        }
      ],
      "name": "setApprovalForAll",
      "outputs": [],
      "stateMutability": "nonpayable",
      "type": "function"
    },
    {
      "inputs": [
        {
          "internalType": "bytes4",
          "name": "interfaceId",
          "type": "bytes4"
        }
      ],
      "name": "supportsInterface",
      "outputs": [
        {
          "internalType": "bool",
          "name": "",
          "type": "bool"
        }
      ],
      "stateMutability": "view",
      "type": "function"
    },
    {
      "inputs": [],
      "name": "symbol",
      "outputs": [
        {
          "internalType": "string",
          "name": "",
          "type": "string"
        }
      ],
      "stateMutability": "view",
      "type": "function"
    },
    {
      "inputs": [
        {
          "internalType": "uint256",
          "name": "index",
          "type": "uint256"
        }
      ],
      "name": "tokenByIndex",
      "outputs": [
        {
          "internalType": "uint256",
          "name": "",
          "type": "uint256"
        }
      ],
      "stateMutability": "view",
      "type": "function"
    },
    {
      "inputs": [
        {
          "internalType": "address",
          "name": "owner",
          "type": "address"
        },
        {
          "internalType": "uint256",
          "name": "index",
          "type": "uint256"
        }
      ],
      "name": "tokenOfOwnerByIndex",
      "outputs": [
        {
          "internalType": "uint256",
          "name": "",
          "type": "uint256"
        }
      ],
      "stateMutability": "view",
      "type": "function"
    },
    {
      "inputs": [
        {
          "internalType": "uint256",
          "name": "tokenId",
          "type": "uint256"
        }
      ],
      "name": "tokenURI",
      "outputs": [
        {
          "internalType": "string",
          "name": "",
          "type": "string"
        }
      ],
      "stateMutability": "view",
      "type": "function"
    },
    {
      "inputs": [],
      "name": "totalSupply",
      "outputs": [
        {
          "internalType": "uint256",
          "name": "",
          "type": "uint256"
        }
      ],
      "stateMutability": "view",
      "type": "function"
    },
    {
      "inputs": [
        {
          "internalType": "address",
          "name": "from",
          "type": "address"
        },
        {
          "internalType": "address",
          "name": "to",
          "type": "address"
        },
        {
          "internalType": "uint256",
          "name": "tokenId",
          "type": "uint256"
        }
      ],
      "name": "transferFrom",
      "outputs": [],
      "stateMutability": "nonpayable",
      "type": "function"
    },
    {
      "inputs": [],
      "name": "unpause",
      "outputs": [],
      "stateMutability": "nonpayable",
      "type": "function"
    }
  ],
  "bytecode": "0x608060405234801561001057600080fd5b50615240806100206000396000f3fe608060405234801561001057600080fd5b50600436106101f05760003560e01c80636a6278421161010f578063a6487c53116100a2578063d539139311610071578063d5391393146105c7578063d547741f146105e5578063e63ab1e914610601578063e985e9c51461061f576101f0565b8063a6487c531461052f578063b88d4fde1461054b578063c87b56dd14610567578063ca15c87314610597576101f0565b806391d14854116100de57806391d14854146104a757806395d89b41146104d7578063a217fddf146104f5578063a22cb46514610513576101f0565b80636a6278421461042157806370a082311461043d5780638456cb591461046d5780639010d07c14610477576101f0565b80632f745c591161018757806342966c681161015657806342966c68146103875780634f6ccce7146103a35780635c975abb146103d35780636352211e146103f1576101f0565b80632f745c591461031557806336568abe146103455780633f4ba83a1461036157806342842e0e1461036b576101f0565b806318160ddd116101c357806318160ddd1461028f57806323b872dd146102ad578063248a9ca3146102c95780632f2ff15d146102f9576101f0565b806301ffc9a7146101f557806306fdde0314610225578063081812fc14610243578063095ea7b314610273575b600080fd5b61020f600480360381019061020a9190613ae1565b61064f565b60405161021c919061418e565b60405180910390f35b61022d610661565b60405161023a91906141c4565b60405180910390f35b61025d60048036038101906102589190613bca565b6106f3565b60405161026a9190614127565b60405180910390f35b61028d60048036038101906102889190613a04565b610778565b005b610297610890565b6040516102a49190614546565b60405180910390f35b6102c760048036038101906102c291906138fe565b61089d565b005b6102e360048036038101906102de9190613a40565b6108fd565b6040516102f091906141a9565b60405180910390f35b610313600480360381019061030e9190613a69565b61091d565b005b61032f600480360381019061032a9190613a04565b610946565b60405161033c9190614546565b60405180910390f35b61035f600480360381019061035a9190613a69565b6109eb565b005b610369610a6e565b005b610385600480360381019061038091906138fe565b610ae8565b005b6103a1600480360381019061039c9190613bca565b610b08565b005b6103bd60048036038101906103b89190613bca565b610b64565b6040516103ca9190614546565b60405180910390f35b6103db610bfb565b6040516103e8919061418e565b60405180910390f35b61040b60048036038101906104069190613bca565b610c13565b6040516104189190614127565b60405180910390f35b61043b60048036038101906104369190613899565b610cc5565b005b61045760048036038101906104529190613899565b610d57565b6040516104649190614546565b60405180910390f35b610475610e0f565b005b610491600480360381019061048c9190613aa5565b610e89565b60405161049e9190614127565b60405180910390f35b6104c160048036038101906104bc9190613a69565b610eb8565b6040516104ce919061418e565b60405180910390f35b6104df610f23565b6040516104ec91906141c4565b60405180910390f35b6104fd610fb5565b60405161050a91906141a9565b60405180910390f35b61052d600480360381019061052891906139c8565b610fbc565b005b61054960048036038101906105449190613b33565b610fd2565b005b6105656004803603810190610560919061394d565b6110c4565b005b610581600480360381019061057c9190613bca565b611126565b60405161058e91906141c4565b60405180910390f35b6105b160048036038101906105ac9190613a40565b6111cd565b6040516105be9190614546565b60405180910390f35b6105cf6111f1565b6040516105dc91906141a9565b60405180910390f35b6105ff60048036038101906105fa9190613a69565b611215565b005b61060961123e565b60405161061691906141a9565b60405180910390f35b610639600480360381019061063491906138c2565b611262565b604051610646919061418e565b60405180910390f35b600061065a826112f6565b9050919050565b606060c980546106709061482a565b80601f016020809104026020016040519081016040528092919081815260200182805461069c9061482a565b80156106e95780601f106106be576101008083540402835291602001916106e9565b820191906000526020600020905b8154815290600101906020018083116106cc57829003601f168201915b5050505050905090565b60006106fe82611370565b61073d576040517f08c379a0000000000000000000000000000000000000000000000000000000008152600401610734906143e6565b60405180910390fd5b60cd600083815260200190815260200160002060009054906101000a900473ffffffffffffffffffffffffffffffffffffffff169050919050565b600061078382610c13565b90508073ffffffffffffffffffffffffffffffffffffffff168373ffffffffffffffffffffffffffffffffffffffff1614156107f4576040517f08c379a00000000000000000000000000000000000000000000000000000000081526004016107eb90614446565b60405180910390fd5b8073ffffffffffffffffffffffffffffffffffffffff166108136113dc565b73ffffffffffffffffffffffffffffffffffffffff16148061084257506108418161083c6113dc565b611262565b5b610881576040517f08c379a000000000000000000000000000000000000000000000000000000000815260040161087890614346565b60405180910390fd5b61088b83836113e4565b505050565b600060fd80549050905090565b6108ae6108a86113dc565b8261149d565b6108ed576040517f08c379a00000000000000000000000000000000000000000000000000000000081526004016108e490614466565b60405180910390fd5b6108f883838361157b565b505050565b600060656000838152602001908152602001600020600101549050919050565b610926826108fd565b610937816109326113dc565b6117d7565b6109418383611874565b505050565b600061095183610d57565b8210610992576040517f08c379a000000000000000000000000000000000000000000000000000000000815260040161098990614246565b60405180910390fd5b60fb60008473ffffffffffffffffffffffffffffffffffffffff1673ffffffffffffffffffffffffffffffffffffffff168152602001908152602001600020600083815260200190815260200160002054905092915050565b6109f36113dc565b73ffffffffffffffffffffffffffffffffffffffff168173ffffffffffffffffffffffffffffffffffffffff1614610a60576040517f08c379a0000000000000000000000000000000000000000000000000000000008152600401610a5790614526565b60405180910390fd5b610a6a82826118a8565b5050565b610a9f7f65d7a28e3265b37a6474929f336521b332c1681b933f6cb9f3376673440d862a610a9a6113dc565b610eb8565b610ade576040517f08c379a0000000000000000000000000000000000000000000000000000000008152600401610ad590614506565b60405180910390fd5b610ae66118dc565b565b610b03838383604051806020016040528060008152506110c4565b505050565b610b19610b136113dc565b8261149d565b610b58576040517f08c379a0000000000000000000000000000000000000000000000000000000008152600401610b4f906144e6565b60405180910390fd5b610b618161197f565b50565b6000610b6e610890565b8210610baf576040517f08c379a0000000000000000000000000000000000000000000000000000000008152600401610ba690614486565b60405180910390fd5b60fd8281548110610be9577f4e487b7100000000000000000000000000000000000000000000000000000000600052603260045260246000fd5b90600052602060002001549050919050565b600061015f60009054906101000a900460ff16905090565b60008060cb600084815260200190815260200160002060009054906101000a900473ffffffffffffffffffffffffffffffffffffffff169050600073ffffffffffffffffffffffffffffffffffffffff168173ffffffffffffffffffffffffffffffffffffffff161415610cbc576040517f08c379a0000000000000000000000000000000000000000000000000000000008152600401610cb390614386565b60405180910390fd5b80915050919050565b610cf67f9f2df0fed2c77648de5860a4cc508cd0818c85b8b8a1ab4ceeef8d981c8956a6610cf16113dc565b610eb8565b610d35576040517f08c379a0000000000000000000000000000000000000000000000000000000008152600401610d2c906144c6565b60405180910390fd5b610d4981610d446101c3611a90565b611a9e565b610d546101c3611c6c565b50565b60008073ffffffffffffffffffffffffffffffffffffffff168273ffffffffffffffffffffffffffffffffffffffff161415610dc8576040517f08c379a0000000000000000000000000000000000000000000000000000000008152600401610dbf90614366565b60405180910390fd5b60cc60008373ffffffffffffffffffffffffffffffffffffffff1673ffffffffffffffffffffffffffffffffffffffff168152602001908152602001600020549050919050565b610e407f65d7a28e3265b37a6474929f336521b332c1681b933f6cb9f3376673440d862a610e3b6113dc565b610eb8565b610e7f576040517f08c379a0000000000000000000000000000000000000000000000000000000008152600401610e76906142a6565b60405180910390fd5b610e87611c82565b565b6000610eb08260976000868152602001908152602001600020611d2690919063ffffffff16565b905092915050565b60006065600084815260200190815260200160002060000160008373ffffffffffffffffffffffffffffffffffffffff1673ffffffffffffffffffffffffffffffffffffffff16815260200190815260200160002060009054906101000a900460ff16905092915050565b606060ca8054610f329061482a565b80601f0160208091040260200160405190810160405280929190818152602001828054610f5e9061482a565b8015610fab5780601f10610f8057610100808354040283529160200191610fab565b820191906000526020600020905b815481529060010190602001808311610f8e57829003601f168201915b5050505050905090565b6000801b81565b610fce610fc76113dc565b8383611d40565b5050565b600060019054906101000a900460ff16610ffa5760008054906101000a900460ff1615611003565b611002611ead565b5b611042576040517f08c379a0000000000000000000000000000000000000000000000000000000008152600401611039906143a6565b60405180910390fd5b60008060019054906101000a900460ff161590508015611092576001600060016101000a81548160ff02191690831515021790555060016000806101000a81548160ff0219169083151502179055505b61109d848484611ebe565b80156110be5760008060016101000a81548160ff0219169083151502179055505b50505050565b6110d56110cf6113dc565b8361149d565b611114576040517f08c379a000000000000000000000000000000000000000000000000000000000815260040161110b90614466565b60405180910390fd5b61112084848484611f67565b50505050565b606061113182611370565b611170576040517f08c379a000000000000000000000000000000000000000000000000000000000815260040161116790614426565b60405180910390fd5b600061117a611fc3565b9050600081511161119a57604051806020016040528060008152506111c5565b806111a484612056565b6040516020016111b59291906140c9565b6040516020818303038152906040525b915050919050565b60006111ea60976000848152602001908152602001600020612203565b9050919050565b7f9f2df0fed2c77648de5860a4cc508cd0818c85b8b8a1ab4ceeef8d981c8956a681565b61121e826108fd565b61122f8161122a6113dc565b6117d7565b61123983836118a8565b505050565b7f65d7a28e3265b37a6474929f336521b332c1681b933f6cb9f3376673440d862a81565b600060ce60008473ffffffffffffffffffffffffffffffffffffffff1673ffffffffffffffffffffffffffffffffffffffff16815260200190815260200160002060008373ffffffffffffffffffffffffffffffffffffffff1673ffffffffffffffffffffffffffffffffffffffff16815260200190815260200160002060009054906101000a900460ff16905092915050565b60007f780e9d63000000000000000000000000000000000000000000000000000000007bffffffffffffffffffffffffffffffffffffffffffffffffffffffff1916827bffffffffffffffffffffffffffffffffffffffffffffffffffffffff19161480611369575061136882612218565b5b9050919050565b60008073ffffffffffffffffffffffffffffffffffffffff1660cb600084815260200190815260200160002060009054906101000a900473ffffffffffffffffffffffffffffffffffffffff1673ffffffffffffffffffffffffffffffffffffffff1614159050919050565b600033905090565b8160cd600083815260200190815260200160002060006101000a81548173ffffffffffffffffffffffffffffffffffffffff021916908373ffffffffffffffffffffffffffffffffffffffff160217905550808273ffffffffffffffffffffffffffffffffffffffff1661145783610c13565b73ffffffffffffffffffffffffffffffffffffffff167f8c5be1e5ebec7d5bd14f71427d1e84f3dd0314c0f7b2291e5b200ac8c7c3b92560405160405180910390a45050565b60006114a882611370565b6114e7576040517f08c379a00000000000000000000000000000000000000000000000000000000081526004016114de90614306565b60405180910390fd5b60006114f283610c13565b90508073ffffffffffffffffffffffffffffffffffffffff168473ffffffffffffffffffffffffffffffffffffffff16148061156157508373ffffffffffffffffffffffffffffffffffffffff16611549846106f3565b73ffffffffffffffffffffffffffffffffffffffff16145b8061157257506115718185611262565b5b91505092915050565b8273ffffffffffffffffffffffffffffffffffffffff1661159b82610c13565b73ffffffffffffffffffffffffffffffffffffffff16146115f1576040517f08c379a00000000000000000000000000000000000000000000000000000000081526004016115e890614406565b60405180910390fd5b600073ffffffffffffffffffffffffffffffffffffffff168273ffffffffffffffffffffffffffffffffffffffff161415611661576040517f08c379a0000000000000000000000000000000000000000000000000000000008152600401611658906142c6565b60405180910390fd5b61166c8383836122fa565b6116776000826113e4565b600160cc60008573ffffffffffffffffffffffffffffffffffffffff1673ffffffffffffffffffffffffffffffffffffffff16815260200190815260200160002060008282546116c7919061470c565b92505081905550600160cc60008473ffffffffffffffffffffffffffffffffffffffff1673ffffffffffffffffffffffffffffffffffffffff168152602001908152602001600020600082825461171e919061462b565b925050819055508160cb600083815260200190815260200160002060006101000a81548173ffffffffffffffffffffffffffffffffffffffff021916908373ffffffffffffffffffffffffffffffffffffffff160217905550808273ffffffffffffffffffffffffffffffffffffffff168473ffffffffffffffffffffffffffffffffffffffff167fddf252ad1be2c89b69c2b068fc378daa952ba7f163c4a11628f55a4df523b3ef60405160405180910390a4505050565b6117e18282610eb8565b611870576118068173ffffffffffffffffffffffffffffffffffffffff16601461230a565b6118148360001c602061230a565b6040516020016118259291906140ed565b6040516020818303038152906040526040517f08c379a000000000000000000000000000000000000000000000000000000000815260040161186791906141c4565b60405180910390fd5b5050565b61187e8282612604565b6118a381609760008581526020019081526020016000206126e590919063ffffffff16565b505050565b6118b28282612715565b6118d781609760008581526020019081526020016000206127f790919063ffffffff16565b505050565b6118e4610bfb565b611923576040517f08c379a000000000000000000000000000000000000000000000000000000000815260040161191a90614226565b60405180910390fd5b600061015f60006101000a81548160ff0219169083151502179055507f5db9ee0a495bf2e6ff9c91a7834c1ba4fdd244a5e8aa4e537bd38aeae4b073aa6119686113dc565b6040516119759190614127565b60405180910390a1565b600061198a82610c13565b9050611998816000846122fa565b6119a36000836113e4565b600160cc60008373ffffffffffffffffffffffffffffffffffffffff1673ffffffffffffffffffffffffffffffffffffffff16815260200190815260200160002060008282546119f3919061470c565b9250508190555060cb600083815260200190815260200160002060006101000a81549073ffffffffffffffffffffffffffffffffffffffff021916905581600073ffffffffffffffffffffffffffffffffffffffff168273ffffffffffffffffffffffffffffffffffffffff167fddf252ad1be2c89b69c2b068fc378daa952ba7f163c4a11628f55a4df523b3ef60405160405180910390a45050565b600081600001549050919050565b600073ffffffffffffffffffffffffffffffffffffffff168273ffffffffffffffffffffffffffffffffffffffff161415611b0e576040517f08c379a0000000000000000000000000000000000000000000000000000000008152600401611b05906143c6565b60405180910390fd5b611b1781611370565b15611b57576040517f08c379a0000000000000000000000000000000000000000000000000000000008152600401611b4e90614286565b60405180910390fd5b611b63600083836122fa565b600160cc60008473ffffffffffffffffffffffffffffffffffffffff1673ffffffffffffffffffffffffffffffffffffffff1681526020019081526020016000206000828254611bb3919061462b565b925050819055508160cb600083815260200190815260200160002060006101000a81548173ffffffffffffffffffffffffffffffffffffffff021916908373ffffffffffffffffffffffffffffffffffffffff160217905550808273ffffffffffffffffffffffffffffffffffffffff16600073ffffffffffffffffffffffffffffffffffffffff167fddf252ad1be2c89b69c2b068fc378daa952ba7f163c4a11628f55a4df523b3ef60405160405180910390a45050565b6001816000016000828254019250508190555050565b611c8a610bfb565b15611cca576040517f08c379a0000000000000000000000000000000000000000000000000000000008152600401611cc190614326565b60405180910390fd5b600161015f60006101000a81548160ff0219169083151502179055507f62e78cea01bee320cd4e420270b5ea74000d11b0c9f74754ebdbfc544b05a258611d0f6113dc565b604051611d1c9190614127565b60405180910390a1565b6000611d358360000183612827565b60001c905092915050565b8173ffffffffffffffffffffffffffffffffffffffff168373ffffffffffffffffffffffffffffffffffffffff161415611daf576040517f08c379a0000000000000000000000000000000000000000000000000000000008152600401611da6906142e6565b60405180910390fd5b8060ce60008573ffffffffffffffffffffffffffffffffffffffff1673ffffffffffffffffffffffffffffffffffffffff16815260200190815260200160002060008473ffffffffffffffffffffffffffffffffffffffff1673ffffffffffffffffffffffffffffffffffffffff16815260200190815260200160002060006101000a81548160ff0219169083151502179055508173ffffffffffffffffffffffffffffffffffffffff168373ffffffffffffffffffffffffffffffffffffffff167f17307eab39ab6107e8899845ad3d59bd9653f200f220920489ca2b5937696c3183604051611ea0919061418e565b60405180910390a3505050565b6000611eb830612878565b15905090565b600060019054906101000a900460ff16611f0d576040517f08c379a0000000000000000000000000000000000000000000000000000000008152600401611f04906144a6565b60405180910390fd5b611f1561288b565b611f1d6128dc565b611f2561292d565b611f2d61297e565b611f3783836129cf565b611f3f612a50565b611f47612aa1565b611f4f612af2565b611f57612b5f565b611f62838383612bb0565b505050565b611f7284848461157b565b611f7e84848484612c92565b611fbd576040517f08c379a0000000000000000000000000000000000000000000000000000000008152600401611fb490614266565b60405180910390fd5b50505050565b60606101c48054611fd39061482a565b80601f0160208091040260200160405190810160405280929190818152602001828054611fff9061482a565b801561204c5780601f106120215761010080835404028352916020019161204c565b820191906000526020600020905b81548152906001019060200180831161202f57829003601f168201915b5050505050905090565b6060600082141561209e576040518060400160405280600181526020017f300000000000000000000000000000000000000000000000000000000000000081525090506121fe565b600082905060005b600082146120d05780806120b99061488d565b915050600a826120c99190614681565b91506120a6565b60008167ffffffffffffffff811115612112577f4e487b7100000000000000000000000000000000000000000000000000000000600052604160045260246000fd5b6040519080825280601f01601f1916602001820160405280156121445781602001600182028036833780820191505090505b5090505b600085146121f75760018261215d919061470c565b9150600a8561216c91906148d6565b6030612178919061462b565b60f81b8183815181106121b4577f4e487b7100000000000000000000000000000000000000000000000000000000600052603260045260246000fd5b60200101907effffffffffffffffffffffffffffffffffffffffffffffffffffffffffffff1916908160001a905350600a856121f09190614681565b9450612148565b8093505050505b919050565b600061221182600001612e29565b9050919050565b60007f80ac58cd000000000000000000000000000000000000000000000000000000007bffffffffffffffffffffffffffffffffffffffffffffffffffffffff1916827bffffffffffffffffffffffffffffffffffffffffffffffffffffffff191614806122e357507f5b5e139f000000000000000000000000000000000000000000000000000000007bffffffffffffffffffffffffffffffffffffffffffffffffffffffff1916827bffffffffffffffffffffffffffffffffffffffffffffffffffffffff1916145b806122f357506122f282612e3a565b5b9050919050565b612305838383612eb4565b505050565b60606000600283600261231d91906146b2565b612327919061462b565b67ffffffffffffffff811115612366577f4e487b7100000000000000000000000000000000000000000000000000000000600052604160045260246000fd5b6040519080825280601f01601f1916602001820160405280156123985781602001600182028036833780820191505090505b5090507f3000000000000000000000000000000000000000000000000000000000000000816000815181106123f6577f4e487b7100000000000000000000000000000000000000000000000000000000600052603260045260246000fd5b60200101907effffffffffffffffffffffffffffffffffffffffffffffffffffffffffffff1916908160001a9053507f780000000000000000000000000000000000000000000000000000000000000081600181518110612480577f4e487b7100000000000000000000000000000000000000000000000000000000600052603260045260246000fd5b60200101907effffffffffffffffffffffffffffffffffffffffffffffffffffffffffffff1916908160001a905350600060018460026124c091906146b2565b6124ca919061462b565b90505b60018111156125b6577f3031323334353637383961626364656600000000000000000000000000000000600f861660108110612532577f4e487b7100000000000000000000000000000000000000000000000000000000600052603260045260246000fd5b1a60f81b82828151811061256f577f4e487b7100000000000000000000000000000000000000000000000000000000600052603260045260246000fd5b60200101907effffffffffffffffffffffffffffffffffffffffffffffffffffffffffffff1916908160001a905350600485901c9450806125af90614800565b90506124cd565b50600084146125fa576040517f08c379a00000000000000000000000000000000000000000000000000000000081526004016125f1906141e6565b60405180910390fd5b8091505092915050565b61260e8282610eb8565b6126e15760016065600084815260200190815260200160002060000160008373ffffffffffffffffffffffffffffffffffffffff1673ffffffffffffffffffffffffffffffffffffffff16815260200190815260200160002060006101000a81548160ff0219169083151502179055506126866113dc565b73ffffffffffffffffffffffffffffffffffffffff168173ffffffffffffffffffffffffffffffffffffffff16837f2f8788117e7eff1d82e926ec794901d17c78024a50270940304540a733656f0d60405160405180910390a45b5050565b600061270d836000018373ffffffffffffffffffffffffffffffffffffffff1660001b612f0c565b905092915050565b61271f8282610eb8565b156127f35760006065600084815260200190815260200160002060000160008373ffffffffffffffffffffffffffffffffffffffff1673ffffffffffffffffffffffffffffffffffffffff16815260200190815260200160002060006101000a81548160ff0219169083151502179055506127986113dc565b73ffffffffffffffffffffffffffffffffffffffff168173ffffffffffffffffffffffffffffffffffffffff16837ff6391f5c32d9c69d2a47ea670b442974b53935d1edc7fd64eb21e047a839171b60405160405180910390a45b5050565b600061281f836000018373ffffffffffffffffffffffffffffffffffffffff1660001b612f7c565b905092915050565b6000826000018281548110612865577f4e487b7100000000000000000000000000000000000000000000000000000000600052603260045260246000fd5b9060005260206000200154905092915050565b600080823b905060008111915050919050565b600060019054906101000a900460ff166128da576040517f08c379a00000000000000000000000000000000000000000000000000000000081526004016128d1906144a6565b60405180910390fd5b565b600060019054906101000a900460ff1661292b576040517f08c379a0000000000000000000000000000000000000000000000000000000008152600401612922906144a6565b60405180910390fd5b565b600060019054906101000a900460ff1661297c576040517f08c379a0000000000000000000000000000000000000000000000000000000008152600401612973906144a6565b60405180910390fd5b565b600060019054906101000a900460ff166129cd576040517f08c379a00000000000000000000000000000000000000000000000000000000081526004016129c4906144a6565b60405180910390fd5b565b600060019054906101000a900460ff16612a1e576040517f08c379a0000000000000000000000000000000000000000000000000000000008152600401612a15906144a6565b60405180910390fd5b8160c99080519060200190612a349291906136a8565b508060ca9080519060200190612a4b9291906136a8565b505050565b600060019054906101000a900460ff16612a9f576040517f08c379a0000000000000000000000000000000000000000000000000000000008152600401612a96906144a6565b60405180910390fd5b565b600060019054906101000a900460ff16612af0576040517f08c379a0000000000000000000000000000000000000000000000000000000008152600401612ae7906144a6565b60405180910390fd5b565b600060019054906101000a900460ff16612b41576040517f08c379a0000000000000000000000000000000000000000000000000000000008152600401612b38906144a6565b60405180910390fd5b600061015f60006101000a81548160ff021916908315150217905550565b600060019054906101000a900460ff16612bae576040517f08c379a0000000000000000000000000000000000000000000000000000000008152600401612ba5906144a6565b60405180910390fd5b565b600060019054906101000a900460ff16612bff576040517f08c379a0000000000000000000000000000000000000000000000000000000008152600401612bf6906144a6565b60405180910390fd5b806101c49080519060200190612c169291906136a8565b50612c2b6000801b612c266113dc565b613102565b612c5c7f9f2df0fed2c77648de5860a4cc508cd0818c85b8b8a1ab4ceeef8d981c8956a6612c576113dc565b613102565b612c8d7f65d7a28e3265b37a6474929f336521b332c1681b933f6cb9f3376673440d862a612c886113dc565b613102565b505050565b6000612cb38473ffffffffffffffffffffffffffffffffffffffff16612878565b15612e1c578373ffffffffffffffffffffffffffffffffffffffff1663150b7a02612cdc6113dc565b8786866040518563ffffffff1660e01b8152600401612cfe9493929190614142565b602060405180830381600087803b158015612d1857600080fd5b505af1925050508015612d4957506040513d601f19601f82011682018060405250810190612d469190613b0a565b60015b612dcc573d8060008114612d79576040519150601f19603f3d011682016040523d82523d6000602084013e612d7e565b606091505b50600081511415612dc4576040517f08c379a0000000000000000000000000000000000000000000000000000000008152600401612dbb90614266565b60405180910390fd5b805181602001fd5b63150b7a0260e01b7bffffffffffffffffffffffffffffffffffffffffffffffffffffffff1916817bffffffffffffffffffffffffffffffffffffffffffffffffffffffff191614915050612e21565b600190505b949350505050565b600081600001805490509050919050565b60007f5a05180f000000000000000000000000000000000000000000000000000000007bffffffffffffffffffffffffffffffffffffffffffffffffffffffff1916827bffffffffffffffffffffffffffffffffffffffffffffffffffffffff19161480612ead5750612eac82613110565b5b9050919050565b612ebf83838361318a565b612ec7610bfb565b15612f07576040517f08c379a0000000000000000000000000000000000000000000000000000000008152600401612efe90614206565b60405180910390fd5b505050565b6000612f18838361329e565b612f71578260000182908060018154018082558091505060019003906000526020600020016000909190919091505582600001805490508360010160008481526020019081526020016000208190555060019050612f76565b600090505b92915050565b600080836001016000848152602001908152602001600020549050600081146130f6576000600182612fae919061470c565b9050600060018660000180549050612fc6919061470c565b905081811461308157600086600001828154811061300d577f4e487b7100000000000000000000000000000000000000000000000000000000600052603260045260246000fd5b9060005260206000200154905080876000018481548110613057577f4e487b7100000000000000000000000000000000000000000000000000000000600052603260045260246000fd5b90600052602060002001819055508387600101600083815260200190815260200160002081905550505b856000018054806130bb577f4e487b7100000000000000000000000000000000000000000000000000000000600052603160045260246000fd5b6001900381819060005260206000200160009055905585600101600086815260200190815260200160002060009055600193505050506130fc565b60009150505b92915050565b61310c8282611874565b5050565b60007f7965db0b000000000000000000000000000000000000000000000000000000007bffffffffffffffffffffffffffffffffffffffffffffffffffffffff1916827bffffffffffffffffffffffffffffffffffffffffffffffffffffffff191614806131835750613182826132c1565b5b9050919050565b61319583838361332b565b600073ffffffffffffffffffffffffffffffffffffffff168373ffffffffffffffffffffffffffffffffffffffff1614156131d8576131d381613330565b613217565b8173ffffffffffffffffffffffffffffffffffffffff168373ffffffffffffffffffffffffffffffffffffffff1614613216576132158382613379565b5b5b600073ffffffffffffffffffffffffffffffffffffffff168273ffffffffffffffffffffffffffffffffffffffff16141561325a57613255816134e6565b613299565b8273ffffffffffffffffffffffffffffffffffffffff168273ffffffffffffffffffffffffffffffffffffffff1614613298576132978282613629565b5b5b505050565b600080836001016000848152602001908152602001600020541415905092915050565b60007f01ffc9a7000000000000000000000000000000000000000000000000000000007bffffffffffffffffffffffffffffffffffffffffffffffffffffffff1916827bffffffffffffffffffffffffffffffffffffffffffffffffffffffff1916149050919050565b505050565b60fd8054905060fe60008381526020019081526020016000208190555060fd81908060018154018082558091505060019003906000526020600020016000909190919091505550565b6000600161338684610d57565b613390919061470c565b9050600060fc600084815260200190815260200160002054905081811461347557600060fb60008673ffffffffffffffffffffffffffffffffffffffff1673ffffffffffffffffffffffffffffffffffffffff16815260200190815260200160002060008481526020019081526020016000205490508060fb60008773ffffffffffffffffffffffffffffffffffffffff1673ffffffffffffffffffffffffffffffffffffffff1681526020019081526020016000206000848152602001908152602001600020819055508160fc600083815260200190815260200160002081905550505b60fc60008481526020019081526020016000206000905560fb60008573ffffffffffffffffffffffffffffffffffffffff1673ffffffffffffffffffffffffffffffffffffffff16815260200190815260200160002060008381526020019081526020016000206000905550505050565b6000600160fd805490506134fa919061470c565b9050600060fe6000848152602001908152602001600020549050600060fd8381548110613550577f4e487b7100000000000000000000000000000000000000000000000000000000600052603260045260246000fd5b906000526020600020015490508060fd8381548110613598577f4e487b7100000000000000000000000000000000000000000000000000000000600052603260045260246000fd5b90600052602060002001819055508160fe60008381526020019081526020016000208190555060fe60008581526020019081526020016000206000905560fd80548061360d577f4e487b7100000000000000000000000000000000000000000000000000000000600052603160045260246000fd5b6001900381819060005260206000200160009055905550505050565b600061363483610d57565b90508160fb60008573ffffffffffffffffffffffffffffffffffffffff1673ffffffffffffffffffffffffffffffffffffffff1681526020019081526020016000206000838152602001908152602001600020819055508060fc600084815260200190815260200160002081905550505050565b8280546136b49061482a565b90600052602060002090601f0160209004810192826136d6576000855561371d565b82601f106136ef57805160ff191683800117855561371d565b8280016001018555821561371d579182015b8281111561371c578251825591602001919060010190613701565b5b50905061372a919061372e565b5090565b5b8082111561374757600081600090555060010161372f565b5090565b600061375e61375984614586565b614561565b90508281526020810184848401111561377657600080fd5b6137818482856147be565b509392505050565b600061379c613797846145b7565b614561565b9050828152602081018484840111156137b457600080fd5b6137bf8482856147be565b509392505050565b6000813590506137d681615197565b92915050565b6000813590506137eb816151ae565b92915050565b600081359050613800816151c5565b92915050565b600081359050613815816151dc565b92915050565b60008151905061382a816151dc565b92915050565b600082601f83011261384157600080fd5b813561385184826020860161374b565b91505092915050565b600082601f83011261386b57600080fd5b813561387b848260208601613789565b91505092915050565b600081359050613893816151f3565b92915050565b6000602082840312156138ab57600080fd5b60006138b9848285016137c7565b91505092915050565b600080604083850312156138d557600080fd5b60006138e3858286016137c7565b92505060206138f4858286016137c7565b9150509250929050565b60008060006060848603121561391357600080fd5b6000613921868287016137c7565b9350506020613932868287016137c7565b925050604061394386828701613884565b9150509250925092565b6000806000806080858703121561396357600080fd5b6000613971878288016137c7565b9450506020613982878288016137c7565b935050604061399387828801613884565b925050606085013567ffffffffffffffff8111156139b057600080fd5b6139bc87828801613830565b91505092959194509250565b600080604083850312156139db57600080fd5b60006139e9858286016137c7565b92505060206139fa858286016137dc565b9150509250929050565b60008060408385031215613a1757600080fd5b6000613a25858286016137c7565b9250506020613a3685828601613884565b9150509250929050565b600060208284031215613a5257600080fd5b6000613a60848285016137f1565b91505092915050565b60008060408385031215613a7c57600080fd5b6000613a8a858286016137f1565b9250506020613a9b858286016137c7565b9150509250929050565b60008060408385031215613ab857600080fd5b6000613ac6858286016137f1565b9250506020613ad785828601613884565b9150509250929050565b600060208284031215613af357600080fd5b6000613b0184828501613806565b91505092915050565b600060208284031215613b1c57600080fd5b6000613b2a8482850161381b565b91505092915050565b600080600060608486031215613b4857600080fd5b600084013567ffffffffffffffff811115613b6257600080fd5b613b6e8682870161385a565b935050602084013567ffffffffffffffff811115613b8b57600080fd5b613b978682870161385a565b925050604084013567ffffffffffffffff811115613bb457600080fd5b613bc08682870161385a565b9150509250925092565b600060208284031215613bdc57600080fd5b6000613bea84828501613884565b91505092915050565b613bfc81614740565b82525050565b613c0b81614752565b82525050565b613c1a8161475e565b82525050565b6000613c2b826145e8565b613c3581856145fe565b9350613c458185602086016147cd565b613c4e816149c3565b840191505092915050565b6000613c64826145f3565b613c6e818561460f565b9350613c7e8185602086016147cd565b613c87816149c3565b840191505092915050565b6000613c9d826145f3565b613ca78185614620565b9350613cb78185602086016147cd565b80840191505092915050565b6000613cd060208361460f565b9150613cdb826149d4565b602082019050919050565b6000613cf3602b8361460f565b9150613cfe826149fd565b604082019050919050565b6000613d1660148361460f565b9150613d2182614a4c565b602082019050919050565b6000613d39602b8361460f565b9150613d4482614a75565b604082019050919050565b6000613d5c60328361460f565b9150613d6782614ac4565b604082019050919050565b6000613d7f601c8361460f565b9150613d8a82614b13565b602082019050919050565b6000613da2603e8361460f565b9150613dad82614b3c565b604082019050919050565b6000613dc560248361460f565b9150613dd082614b8b565b604082019050919050565b6000613de860198361460f565b9150613df382614bda565b602082019050919050565b6000613e0b602c8361460f565b9150613e1682614c03565b604082019050919050565b6000613e2e60108361460f565b9150613e3982614c52565b602082019050919050565b6000613e5160388361460f565b9150613e5c82614c7b565b604082019050919050565b6000613e74602a8361460f565b9150613e7f82614cca565b604082019050919050565b6000613e9760298361460f565b9150613ea282614d19565b604082019050919050565b6000613eba602e8361460f565b9150613ec582614d68565b604082019050919050565b6000613edd60208361460f565b9150613ee882614db7565b602082019050919050565b6000613f00602c8361460f565b9150613f0b82614de0565b604082019050919050565b6000613f2360298361460f565b9150613f2e82614e2f565b604082019050919050565b6000613f46602f8361460f565b9150613f5182614e7e565b604082019050919050565b6000613f6960218361460f565b9150613f7482614ecd565b604082019050919050565b6000613f8c60318361460f565b9150613f9782614f1c565b604082019050919050565b6000613faf602c8361460f565b9150613fba82614f6b565b604082019050919050565b6000613fd2602b8361460f565b9150613fdd82614fba565b604082019050919050565b6000613ff5601783614620565b915061400082615009565b601782019050919050565b6000614018603d8361460f565b915061402382615032565b604082019050919050565b600061403b60308361460f565b915061404682615081565b604082019050919050565b600061405e60408361460f565b9150614069826150d0565b604082019050919050565b6000614081601183614620565b915061408c8261511f565b601182019050919050565b60006140a4602f8361460f565b91506140af82615148565b604082019050919050565b6140c3816147b4565b82525050565b60006140d58285613c92565b91506140e18284613c92565b91508190509392505050565b60006140f882613fe8565b91506141048285613c92565b915061410f82614074565b915061411b8284613c92565b91508190509392505050565b600060208201905061413c6000830184613bf3565b92915050565b60006080820190506141576000830187613bf3565b6141646020830186613bf3565b61417160408301856140ba565b81810360608301526141838184613c20565b905095945050505050565b60006020820190506141a36000830184613c02565b92915050565b60006020820190506141be6000830184613c11565b92915050565b600060208201905081810360008301526141de8184613c59565b905092915050565b600060208201905081810360008301526141ff81613cc3565b9050919050565b6000602082019050818103600083015261421f81613ce6565b9050919050565b6000602082019050818103600083015261423f81613d09565b9050919050565b6000602082019050818103600083015261425f81613d2c565b9050919050565b6000602082019050818103600083015261427f81613d4f565b9050919050565b6000602082019050818103600083015261429f81613d72565b9050919050565b600060208201905081810360008301526142bf81613d95565b9050919050565b600060208201905081810360008301526142df81613db8565b9050919050565b600060208201905081810360008301526142ff81613ddb565b9050919050565b6000602082019050818103600083015261431f81613dfe565b9050919050565b6000602082019050818103600083015261433f81613e21565b9050919050565b6000602082019050818103600083015261435f81613e44565b9050919050565b6000602082019050818103600083015261437f81613e67565b9050919050565b6000602082019050818103600083015261439f81613e8a565b9050919050565b600060208201905081810360008301526143bf81613ead565b9050919050565b600060208201905081810360008301526143df81613ed0565b9050919050565b600060208201905081810360008301526143ff81613ef3565b9050919050565b6000602082019050818103600083015261441f81613f16565b9050919050565b6000602082019050818103600083015261443f81613f39565b9050919050565b6000602082019050818103600083015261445f81613f5c565b9050919050565b6000602082019050818103600083015261447f81613f7f565b9050919050565b6000602082019050818103600083015261449f81613fa2565b9050919050565b600060208201905081810360008301526144bf81613fc5565b9050919050565b600060208201905081810360008301526144df8161400b565b9050919050565b600060208201905081810360008301526144ff8161402e565b9050919050565b6000602082019050818103600083015261451f81614051565b9050919050565b6000602082019050818103600083015261453f81614097565b9050919050565b600060208201905061455b60008301846140ba565b92915050565b600061456b61457c565b9050614577828261485c565b919050565b6000604051905090565b600067ffffffffffffffff8211156145a1576145a0614994565b5b6145aa826149c3565b9050602081019050919050565b600067ffffffffffffffff8211156145d2576145d1614994565b5b6145db826149c3565b9050602081019050919050565b600081519050919050565b600081519050919050565b600082825260208201905092915050565b600082825260208201905092915050565b600081905092915050565b6000614636826147b4565b9150614641836147b4565b9250827fffffffffffffffffffffffffffffffffffffffffffffffffffffffffffffffff0382111561467657614675614907565b5b828201905092915050565b600061468c826147b4565b9150614697836147b4565b9250826146a7576146a6614936565b5b828204905092915050565b60006146bd826147b4565b91506146c8836147b4565b9250817fffffffffffffffffffffffffffffffffffffffffffffffffffffffffffffffff048311821515161561470157614700614907565b5b828202905092915050565b6000614717826147b4565b9150614722836147b4565b92508282101561473557614734614907565b5b828203905092915050565b600061474b82614794565b9050919050565b60008115159050919050565b6000819050919050565b60007fffffffff0000000000000000000000000000000000000000000000000000000082169050919050565b600073ffffffffffffffffffffffffffffffffffffffff82169050919050565b6000819050919050565b82818337600083830152505050565b60005b838110156147eb5780820151818401526020810190506147d0565b838111156147fa576000848401525b50505050565b600061480b826147b4565b9150600082141561481f5761481e614907565b5b600182039050919050565b6000600282049050600182168061484257607f821691505b6020821081141561485657614855614965565b5b50919050565b614865826149c3565b810181811067ffffffffffffffff8211171561488457614883614994565b5b80604052505050565b6000614898826147b4565b91507fffffffffffffffffffffffffffffffffffffffffffffffffffffffffffffffff8214156148cb576148ca614907565b5b600182019050919050565b60006148e1826147b4565b91506148ec836147b4565b9250826148fc576148fb614936565b5b828206905092915050565b7f4e487b7100000000000000000000000000000000000000000000000000000000600052601160045260246000fd5b7f4e487b7100000000000000000000000000000000000000000000000000000000600052601260045260246000fd5b7f4e487b7100000000000000000000000000000000000000000000000000000000600052602260045260246000fd5b7f4e487b7100000000000000000000000000000000000000000000000000000000600052604160045260246000fd5b6000601f19601f8301169050919050565b7f537472696e67733a20686578206c656e67746820696e73756666696369656e74600082015250565b7f4552433732315061757361626c653a20746f6b656e207472616e73666572207760008201527f68696c6520706175736564000000000000000000000000000000000000000000602082015250565b7f5061757361626c653a206e6f7420706175736564000000000000000000000000600082015250565b7f455243373231456e756d657261626c653a206f776e657220696e646578206f7560008201527f74206f6620626f756e6473000000000000000000000000000000000000000000602082015250565b7f4552433732313a207472616e7366657220746f206e6f6e20455243373231526560008201527f63656976657220696d706c656d656e7465720000000000000000000000000000602082015250565b7f4552433732313a20746f6b656e20616c7265616479206d696e74656400000000600082015250565b7f4552433732315072657365744d696e7465725061757365724175746f49643a2060008201527f6d75737420686176652070617573657220726f6c6520746f2070617573650000602082015250565b7f4552433732313a207472616e7366657220746f20746865207a65726f2061646460008201527f7265737300000000000000000000000000000000000000000000000000000000602082015250565b7f4552433732313a20617070726f766520746f2063616c6c657200000000000000600082015250565b7f4552433732313a206f70657261746f7220717565727920666f72206e6f6e657860008201527f697374656e7420746f6b656e0000000000000000000000000000000000000000602082015250565b7f5061757361626c653a2070617573656400000000000000000000000000000000600082015250565b7f4552433732313a20617070726f76652063616c6c6572206973206e6f74206f7760008201527f6e6572206e6f7220617070726f76656420666f7220616c6c0000000000000000602082015250565b7f4552433732313a2062616c616e636520717565727920666f7220746865207a6560008201527f726f206164647265737300000000000000000000000000000000000000000000602082015250565b7f4552433732313a206f776e657220717565727920666f72206e6f6e657869737460008201527f656e7420746f6b656e0000000000000000000000000000000000000000000000602082015250565b7f496e697469616c697a61626c653a20636f6e747261637420697320616c72656160008201527f647920696e697469616c697a6564000000000000000000000000000000000000602082015250565b7f4552433732313a206d696e7420746f20746865207a65726f2061646472657373600082015250565b7f4552433732313a20617070726f76656420717565727920666f72206e6f6e657860008201527f697374656e7420746f6b656e0000000000000000000000000000000000000000602082015250565b7f4552433732313a207472616e73666572206f6620746f6b656e2074686174206960008201527f73206e6f74206f776e0000000000000000000000000000000000000000000000602082015250565b7f4552433732314d657461646174613a2055524920717565727920666f72206e6f60008201527f6e6578697374656e7420746f6b656e0000000000000000000000000000000000602082015250565b7f4552433732313a20617070726f76616c20746f2063757272656e74206f776e6560008201527f7200000000000000000000000000000000000000000000000000000000000000602082015250565b7f4552433732313a207472616e736665722063616c6c6572206973206e6f74206f60008201527f776e6572206e6f7220617070726f766564000000000000000000000000000000602082015250565b7f455243373231456e756d657261626c653a20676c6f62616c20696e646578206f60008201527f7574206f6620626f756e64730000000000000000000000000000000000000000602082015250565b7f496e697469616c697a61626c653a20636f6e7472616374206973206e6f74206960008201527f6e697469616c697a696e67000000000000000000000000000000000000000000602082015250565b7f416363657373436f6e74726f6c3a206163636f756e7420000000000000000000600082015250565b7f4552433732315072657365744d696e7465725061757365724175746f49643a2060008201527f6d7573742068617665206d696e74657220726f6c6520746f206d696e74000000602082015250565b7f4552433732314275726e61626c653a2063616c6c6572206973206e6f74206f7760008201527f6e6572206e6f7220617070726f76656400000000000000000000000000000000602082015250565b7f4552433732315072657365744d696e7465725061757365724175746f49643a2060008201527f6d75737420686176652070617573657220726f6c6520746f20756e7061757365602082015250565b7f206973206d697373696e6720726f6c6520000000000000000000000000000000600082015250565b7f416363657373436f6e74726f6c3a2063616e206f6e6c792072656e6f756e636560008201527f20726f6c657320666f722073656c660000000000000000000000000000000000602082015250565b6151a081614740565b81146151ab57600080fd5b50565b6151b781614752565b81146151c257600080fd5b50565b6151ce8161475e565b81146151d957600080fd5b50565b6151e581614768565b81146151f057600080fd5b50565b6151fc816147b4565b811461520757600080fd5b5056fea26469706673582212203b375d5946253a8fded564faed909808179de09f2bca206d42c975f97b52861164736f6c63430008030033",
  "linkReferences": {},
  "deployedLinkReferences": {}
}