{
  "_format": "hh-sol-artifact-1",
  "contractName": "ERC20PresetMinterPauserUpgradeable",
  "sourceName": "contracts/artifacts/lib/contracts-upgradeable/token/ERC20/presets/ERC20PresetMinterPauserUpgradeable.sol",
  "abi": [
    {
      "anonymous": false,
      "inputs": [
        {
          "indexed": true,
          "internalType": "address",
          "name": "owner",
          "type": "address"
        },
        {
          "indexed": true,
          "internalType": "address",
          "name": "spender",
          "type": "address"
        },
        {
          "indexed": false,
          "internalType": "uint256",
          "name": "value",
          "type": "uint256"
        }
      ],
      "name": "Approval",
      "type": "event"
    },
    {
      "anonymous": false,
      "inputs": [
        {
          "indexed": false,
          "internalType": "address",
          "name": "account",
          "type": "address"
        }
      ],
      "name": "Paused",
      "type": "event"
    },
    {
      "anonymous": false,
      "inputs": [
        {
          "indexed": true,
          "internalType": "bytes32",
          "name": "role",
          "type": "bytes32"
        },
        {
          "indexed": true,
          "internalType": "bytes32",
          "name": "previousAdminRole",
          "type": "bytes32"
        },
        {
          "indexed": true,
          "internalType": "bytes32",
          "name": "newAdminRole",
          "type": "bytes32"
        }
      ],
      "name": "RoleAdminChanged",
      "type": "event"
    },
    {
      "anonymous": false,
      "inputs": [
        {
          "indexed": true,
          "internalType": "bytes32",
          "name": "role",
          "type": "bytes32"
        },
        {
          "indexed": true,
          "internalType": "address",
          "name": "account",
          "type": "address"
        },
        {
          "indexed": true,
          "internalType": "address",
          "name": "sender",
          "type": "address"
        }
      ],
      "name": "RoleGranted",
      "type": "event"
    },
    {
      "anonymous": false,
      "inputs": [
        {
          "indexed": true,
          "internalType": "bytes32",
          "name": "role",
          "type": "bytes32"
        },
        {
          "indexed": true,
          "internalType": "address",
          "name": "account",
          "type": "address"
        },
        {
          "indexed": true,
          "internalType": "address",
          "name": "sender",
          "type": "address"
        }
      ],
      "name": "RoleRevoked",
      "type": "event"
    },
    {
      "anonymous": false,
      "inputs": [
        {
          "indexed": true,
          "internalType": "address",
          "name": "from",
          "type": "address"
        },
        {
          "indexed": true,
          "internalType": "address",
          "name": "to",
          "type": "address"
        },
        {
          "indexed": false,
          "internalType": "uint256",
          "name": "value",
          "type": "uint256"
        }
      ],
      "name": "Transfer",
      "type": "event"
    },
    {
      "anonymous": false,
      "inputs": [
        {
          "indexed": false,
          "internalType": "address",
          "name": "account",
          "type": "address"
        }
      ],
      "name": "Unpaused",
      "type": "event"
    },
    {
      "inputs": [],
      "name": "DEFAULT_ADMIN_ROLE",
      "outputs": [
        {
          "internalType": "bytes32",
          "name": "",
          "type": "bytes32"
        }
      ],
      "stateMutability": "view",
      "type": "function"
    },
    {
      "inputs": [],
      "name": "MINTER_ROLE",
      "outputs": [
        {
          "internalType": "bytes32",
          "name": "",
          "type": "bytes32"
        }
      ],
      "stateMutability": "view",
      "type": "function"
    },
    {
      "inputs": [],
      "name": "PAUSER_ROLE",
      "outputs": [
        {
          "internalType": "bytes32",
          "name": "",
          "type": "bytes32"
        }
      ],
      "stateMutability": "view",
      "type": "function"
    },
    {
      "inputs": [
        {
          "internalType": "address",
          "name": "owner",
          "type": "address"
        },
        {
          "internalType": "address",
          "name": "spender",
          "type": "address"
        }
      ],
      "name": "allowance",
      "outputs": [
        {
          "internalType": "uint256",
          "name": "",
          "type": "uint256"
        }
      ],
      "stateMutability": "view",
      "type": "function"
    },
    {
      "inputs": [
        {
          "internalType": "address",
          "name": "spender",
          "type": "address"
        },
        {
          "internalType": "uint256",
          "name": "amount",
          "type": "uint256"
        }
      ],
      "name": "approve",
      "outputs": [
        {
          "internalType": "bool",
          "name": "",
          "type": "bool"
        }
      ],
      "stateMutability": "nonpayable",
      "type": "function"
    },
    {
      "inputs": [
        {
          "internalType": "address",
          "name": "account",
          "type": "address"
        }
      ],
      "name": "balanceOf",
      "outputs": [
        {
          "internalType": "uint256",
          "name": "",
          "type": "uint256"
        }
      ],
      "stateMutability": "view",
      "type": "function"
    },
    {
      "inputs": [
        {
          "internalType": "uint256",
          "name": "amount",
          "type": "uint256"
        }
      ],
      "name": "burn",
      "outputs": [],
      "stateMutability": "nonpayable",
      "type": "function"
    },
    {
      "inputs": [
        {
          "internalType": "address",
          "name": "account",
          "type": "address"
        },
        {
          "internalType": "uint256",
          "name": "amount",
          "type": "uint256"
        }
      ],
      "name": "burnFrom",
      "outputs": [],
      "stateMutability": "nonpayable",
      "type": "function"
    },
    {
      "inputs": [],
      "name": "decimals",
      "outputs": [
        {
          "internalType": "uint8",
          "name": "",
          "type": "uint8"
        }
      ],
      "stateMutability": "view",
      "type": "function"
    },
    {
      "inputs": [
        {
          "internalType": "address",
          "name": "spender",
          "type": "address"
        },
        {
          "internalType": "uint256",
          "name": "subtractedValue",
          "type": "uint256"
        }
      ],
      "name": "decreaseAllowance",
      "outputs": [
        {
          "internalType": "bool",
          "name": "",
          "type": "bool"
        }
      ],
      "stateMutability": "nonpayable",
      "type": "function"
    },
    {
      "inputs": [
        {
          "internalType": "bytes32",
          "name": "role",
          "type": "bytes32"
        }
      ],
      "name": "getRoleAdmin",
      "outputs": [
        {
          "internalType": "bytes32",
          "name": "",
          "type": "bytes32"
        }
      ],
      "stateMutability": "view",
      "type": "function"
    },
    {
      "inputs": [
        {
          "internalType": "bytes32",
          "name": "role",
          "type": "bytes32"
        },
        {
          "internalType": "uint256",
          "name": "index",
          "type": "uint256"
        }
      ],
      "name": "getRoleMember",
      "outputs": [
        {
          "internalType": "address",
          "name": "",
          "type": "address"
        }
      ],
      "stateMutability": "view",
      "type": "function"
    },
    {
      "inputs": [
        {
          "internalType": "bytes32",
          "name": "role",
          "type": "bytes32"
        }
      ],
      "name": "getRoleMemberCount",
      "outputs": [
        {
          "internalType": "uint256",
          "name": "",
          "type": "uint256"
        }
      ],
      "stateMutability": "view",
      "type": "function"
    },
    {
      "inputs": [
        {
          "internalType": "bytes32",
          "name": "role",
          "type": "bytes32"
        },
        {
          "internalType": "address",
          "name": "account",
          "type": "address"
        }
      ],
      "name": "grantRole",
      "outputs": [],
      "stateMutability": "nonpayable",
      "type": "function"
    },
    {
      "inputs": [
        {
          "internalType": "bytes32",
          "name": "role",
          "type": "bytes32"
        },
        {
          "internalType": "address",
          "name": "account",
          "type": "address"
        }
      ],
      "name": "hasRole",
      "outputs": [
        {
          "internalType": "bool",
          "name": "",
          "type": "bool"
        }
      ],
      "stateMutability": "view",
      "type": "function"
    },
    {
      "inputs": [
        {
          "internalType": "address",
          "name": "spender",
          "type": "address"
        },
        {
          "internalType": "uint256",
          "name": "addedValue",
          "type": "uint256"
        }
      ],
      "name": "increaseAllowance",
      "outputs": [
        {
          "internalType": "bool",
          "name": "",
          "type": "bool"
        }
      ],
      "stateMutability": "nonpayable",
      "type": "function"
    },
    {
      "inputs": [
        {
          "internalType": "string",
          "name": "name",
          "type": "string"
        },
        {
          "internalType": "string",
          "name": "symbol",
          "type": "string"
        }
      ],
      "name": "initialize",
      "outputs": [],
      "stateMutability": "nonpayable",
      "type": "function"
    },
    {
      "inputs": [
        {
          "internalType": "address",
          "name": "to",
          "type": "address"
        },
        {
          "internalType": "uint256",
          "name": "amount",
          "type": "uint256"
        }
      ],
      "name": "mint",
      "outputs": [],
      "stateMutability": "nonpayable",
      "type": "function"
    },
    {
      "inputs": [],
      "name": "name",
      "outputs": [
        {
          "internalType": "string",
          "name": "",
          "type": "string"
        }
      ],
      "stateMutability": "view",
      "type": "function"
    },
    {
      "inputs": [],
      "name": "pause",
      "outputs": [],
      "stateMutability": "nonpayable",
      "type": "function"
    },
    {
      "inputs": [],
      "name": "paused",
      "outputs": [
        {
          "internalType": "bool",
          "name": "",
          "type": "bool"
        }
      ],
      "stateMutability": "view",
      "type": "function"
    },
    {
      "inputs": [
        {
          "internalType": "bytes32",
          "name": "role",
          "type": "bytes32"
        },
        {
          "internalType": "address",
          "name": "account",
          "type": "address"
        }
      ],
      "name": "renounceRole",
      "outputs": [],
      "stateMutability": "nonpayable",
      "type": "function"
    },
    {
      "inputs": [
        {
          "internalType": "bytes32",
          "name": "role",
          "type": "bytes32"
        },
        {
          "internalType": "address",
          "name": "account",
          "type": "address"
        }
      ],
      "name": "revokeRole",
      "outputs": [],
      "stateMutability": "nonpayable",
      "type": "function"
    },
    {
      "inputs": [
        {
          "internalType": "bytes4",
          "name": "interfaceId",
          "type": "bytes4"
        }
      ],
      "name": "supportsInterface",
      "outputs": [
        {
          "internalType": "bool",
          "name": "",
          "type": "bool"
        }
      ],
      "stateMutability": "view",
      "type": "function"
    },
    {
      "inputs": [],
      "name": "symbol",
      "outputs": [
        {
          "internalType": "string",
          "name": "",
          "type": "string"
        }
      ],
      "stateMutability": "view",
      "type": "function"
    },
    {
      "inputs": [],
      "name": "totalSupply",
      "outputs": [
        {
          "internalType": "uint256",
          "name": "",
          "type": "uint256"
        }
      ],
      "stateMutability": "view",
      "type": "function"
    },
    {
      "inputs": [
        {
          "internalType": "address",
          "name": "recipient",
          "type": "address"
        },
        {
          "internalType": "uint256",
          "name": "amount",
          "type": "uint256"
        }
      ],
      "name": "transfer",
      "outputs": [
        {
          "internalType": "bool",
          "name": "",
          "type": "bool"
        }
      ],
      "stateMutability": "nonpayable",
      "type": "function"
    },
    {
      "inputs": [
        {
          "internalType": "address",
          "name": "sender",
          "type": "address"
        },
        {
          "internalType": "address",
          "name": "recipient",
          "type": "address"
        },
        {
          "internalType": "uint256",
          "name": "amount",
          "type": "uint256"
        }
      ],
      "name": "transferFrom",
      "outputs": [
        {
          "internalType": "bool",
          "name": "",
          "type": "bool"
        }
      ],
      "stateMutability": "nonpayable",
      "type": "function"
    },
    {
      "inputs": [],
      "name": "unpause",
      "outputs": [],
      "stateMutability": "nonpayable",
      "type": "function"
    }
  ],
  "bytecode": "0x608060405234801561001057600080fd5b50613cc6806100206000396000f3fe608060405234801561001057600080fd5b50600436106101cf5760003560e01c80635c975abb11610104578063a217fddf116100a2578063d539139311610071578063d539139314610554578063d547741f14610572578063dd62ed3e1461058e578063e63ab1e9146105be576101cf565b8063a217fddf146104a6578063a457c2d7146104c4578063a9059cbb146104f4578063ca15c87314610524576101cf565b80638456cb59116100de5780638456cb591461041e5780639010d07c1461042857806391d148541461045857806395d89b4114610488576101cf565b80635c975abb146103b457806370a08231146103d257806379cc679014610402576101cf565b8063313ce567116101715780633f4ba83a1161014b5780633f4ba83a1461035657806340c10f191461036057806342966c681461037c5780634cd88b7614610398576101cf565b8063313ce567146102ec57806336568abe1461030a5780633950935114610326576101cf565b806318160ddd116101ad57806318160ddd1461025257806323b872dd14610270578063248a9ca3146102a05780632f2ff15d146102d0576101cf565b806301ffc9a7146101d457806306fdde0314610204578063095ea7b314610222575b600080fd5b6101ee60048036038101906101e99190612a8b565b6105dc565b6040516101fb9190612f78565b60405180910390f35b61020c610656565b6040516102199190612fae565b60405180910390f35b61023c600480360381019061023791906129ae565b6106e8565b6040516102499190612f78565b60405180910390f35b61025a610706565b6040516102679190613270565b60405180910390f35b61028a6004803603810190610285919061295f565b610710565b6040516102979190612f78565b60405180910390f35b6102ba60048036038101906102b591906129ea565b610808565b6040516102c79190612f93565b60405180910390f35b6102ea60048036038101906102e59190612a13565b610828565b005b6102f4610851565b604051610301919061328b565b60405180910390f35b610324600480360381019061031f9190612a13565b61085a565b005b610340600480360381019061033b91906129ae565b6108dd565b60405161034d9190612f78565b60405180910390f35b61035e610989565b005b61037a600480360381019061037591906129ae565b610a03565b005b61039660048036038101906103919190612b20565b610a81565b005b6103b260048036038101906103ad9190612ab4565b610a95565b005b6103bc610b85565b6040516103c99190612f78565b60405180910390f35b6103ec60048036038101906103e791906128fa565b610b9d565b6040516103f99190613270565b60405180910390f35b61041c600480360381019061041791906129ae565b610be6565b005b610426610c61565b005b610442600480360381019061043d9190612a4f565b610cdb565b60405161044f9190612f5d565b60405180910390f35b610472600480360381019061046d9190612a13565b610d0a565b60405161047f9190612f78565b60405180910390f35b610490610d75565b60405161049d9190612fae565b60405180910390f35b6104ae610e07565b6040516104bb9190612f93565b60405180910390f35b6104de60048036038101906104d991906129ae565b610e0e565b6040516104eb9190612f78565b60405180910390f35b61050e600480360381019061050991906129ae565b610ef9565b60405161051b9190612f78565b60405180910390f35b61053e600480360381019061053991906129ea565b610f17565b60405161054b9190613270565b60405180910390f35b61055c610f3b565b6040516105699190612f93565b60405180910390f35b61058c60048036038101906105879190612a13565b610f5f565b005b6105a860048036038101906105a39190612923565b610f88565b6040516105b59190613270565b60405180910390f35b6105c661100f565b6040516105d39190612f93565b60405180910390f35b60007f5a05180f000000000000000000000000000000000000000000000000000000007bffffffffffffffffffffffffffffffffffffffffffffffffffffffff1916827bffffffffffffffffffffffffffffffffffffffffffffffffffffffff1916148061064f575061064e82611033565b5b9050919050565b606060cc8054610665906134fe565b80601f0160208091040260200160405190810160405280929190818152602001828054610691906134fe565b80156106de5780601f106106b3576101008083540402835291602001916106de565b820191906000526020600020905b8154815290600101906020018083116106c157829003601f168201915b5050505050905090565b60006106fc6106f56110ad565b84846110b5565b6001905092915050565b600060cb54905090565b600061071d848484611280565b600060ca60008673ffffffffffffffffffffffffffffffffffffffff1673ffffffffffffffffffffffffffffffffffffffff16815260200190815260200160002060006107686110ad565b73ffffffffffffffffffffffffffffffffffffffff1673ffffffffffffffffffffffffffffffffffffffff168152602001908152602001600020549050828110156107e8576040517f08c379a00000000000000000000000000000000000000000000000000000000081526004016107df906130f0565b60405180910390fd5b6107fc856107f46110ad565b8584036110b5565b60019150509392505050565b600060656000838152602001908152602001600020600101549050919050565b61083182610808565b6108428161083d6110ad565b611504565b61084c83836115a1565b505050565b60006012905090565b6108626110ad565b73ffffffffffffffffffffffffffffffffffffffff168173ffffffffffffffffffffffffffffffffffffffff16146108cf576040517f08c379a00000000000000000000000000000000000000000000000000000000081526004016108c690613210565b60405180910390fd5b6108d982826115d5565b5050565b600061097f6108ea6110ad565b848460ca60006108f86110ad565b73ffffffffffffffffffffffffffffffffffffffff1673ffffffffffffffffffffffffffffffffffffffff16815260200190815260200160002060008873ffffffffffffffffffffffffffffffffffffffff1673ffffffffffffffffffffffffffffffffffffffff1681526020019081526020016000205461097a9190613323565b6110b5565b6001905092915050565b6109ba7f65d7a28e3265b37a6474929f336521b332c1681b933f6cb9f3376673440d862a6109b56110ad565b610d0a565b6109f9576040517f08c379a00000000000000000000000000000000000000000000000000000000081526004016109f090613050565b60405180910390fd5b610a01611609565b565b610a347f9f2df0fed2c77648de5860a4cc508cd0818c85b8b8a1ab4ceeef8d981c8956a6610a2f6110ad565b610d0a565b610a73576040517f08c379a0000000000000000000000000000000000000000000000000000000008152600401610a6a90613110565b60405180910390fd5b610a7d82826116ac565b5050565b610a92610a8c6110ad565b8261180d565b50565b600060019054906101000a900460ff16610abd5760008054906101000a900460ff1615610ac6565b610ac56119e6565b5b610b05576040517f08c379a0000000000000000000000000000000000000000000000000000000008152600401610afc906130d0565b60405180910390fd5b60008060019054906101000a900460ff161590508015610b55576001600060016101000a81548160ff02191690831515021790555060016000806101000a81548160ff0219169083151502179055505b610b5f83836119f7565b8015610b805760008060016101000a81548160ff0219169083151502179055505b505050565b600061012d60009054906101000a900460ff16905090565b600060c960008373ffffffffffffffffffffffffffffffffffffffff1673ffffffffffffffffffffffffffffffffffffffff168152602001908152602001600020549050919050565b6000610bf983610bf46110ad565b610f88565b905081811015610c3e576040517f08c379a0000000000000000000000000000000000000000000000000000000008152600401610c3590613130565b60405180910390fd5b610c5283610c4a6110ad565b8484036110b5565b610c5c838361180d565b505050565b610c927f65d7a28e3265b37a6474929f336521b332c1681b933f6cb9f3376673440d862a610c8d6110ad565b610d0a565b610cd1576040517f08c379a0000000000000000000000000000000000000000000000000000000008152600401610cc8906131b0565b60405180910390fd5b610cd9611a96565b565b6000610d028260976000868152602001908152602001600020611b3a90919063ffffffff16565b905092915050565b60006065600084815260200190815260200160002060000160008373ffffffffffffffffffffffffffffffffffffffff1673ffffffffffffffffffffffffffffffffffffffff16815260200190815260200160002060009054906101000a900460ff16905092915050565b606060cd8054610d84906134fe565b80601f0160208091040260200160405190810160405280929190818152602001828054610db0906134fe565b8015610dfd5780601f10610dd257610100808354040283529160200191610dfd565b820191906000526020600020905b815481529060010190602001808311610de057829003601f168201915b5050505050905090565b6000801b81565b60008060ca6000610e1d6110ad565b73ffffffffffffffffffffffffffffffffffffffff1673ffffffffffffffffffffffffffffffffffffffff16815260200190815260200160002060008573ffffffffffffffffffffffffffffffffffffffff1673ffffffffffffffffffffffffffffffffffffffff16815260200190815260200160002054905082811015610eda576040517f08c379a0000000000000000000000000000000000000000000000000000000008152600401610ed1906131f0565b60405180910390fd5b610eee610ee56110ad565b858584036110b5565b600191505092915050565b6000610f0d610f066110ad565b8484611280565b6001905092915050565b6000610f3460976000848152602001908152602001600020611b54565b9050919050565b7f9f2df0fed2c77648de5860a4cc508cd0818c85b8b8a1ab4ceeef8d981c8956a681565b610f6882610808565b610f7981610f746110ad565b611504565b610f8383836115d5565b505050565b600060ca60008473ffffffffffffffffffffffffffffffffffffffff1673ffffffffffffffffffffffffffffffffffffffff16815260200190815260200160002060008373ffffffffffffffffffffffffffffffffffffffff1673ffffffffffffffffffffffffffffffffffffffff16815260200190815260200160002054905092915050565b7f65d7a28e3265b37a6474929f336521b332c1681b933f6cb9f3376673440d862a81565b60007f7965db0b000000000000000000000000000000000000000000000000000000007bffffffffffffffffffffffffffffffffffffffffffffffffffffffff1916827bffffffffffffffffffffffffffffffffffffffffffffffffffffffff191614806110a657506110a582611b69565b5b9050919050565b600033905090565b600073ffffffffffffffffffffffffffffffffffffffff168373ffffffffffffffffffffffffffffffffffffffff161415611125576040517f08c379a000000000000000000000000000000000000000000000000000000000815260040161111c90613190565b60405180910390fd5b600073ffffffffffffffffffffffffffffffffffffffff168273ffffffffffffffffffffffffffffffffffffffff161415611195576040517f08c379a000000000000000000000000000000000000000000000000000000000815260040161118c90613070565b60405180910390fd5b8060ca60008573ffffffffffffffffffffffffffffffffffffffff1673ffffffffffffffffffffffffffffffffffffffff16815260200190815260200160002060008473ffffffffffffffffffffffffffffffffffffffff1673ffffffffffffffffffffffffffffffffffffffff168152602001908152602001600020819055508173ffffffffffffffffffffffffffffffffffffffff168373ffffffffffffffffffffffffffffffffffffffff167f8c5be1e5ebec7d5bd14f71427d1e84f3dd0314c0f7b2291e5b200ac8c7c3b925836040516112739190613270565b60405180910390a3505050565b600073ffffffffffffffffffffffffffffffffffffffff168373ffffffffffffffffffffffffffffffffffffffff1614156112f0576040517f08c379a00000000000000000000000000000000000000000000000000000000081526004016112e790613170565b60405180910390fd5b600073ffffffffffffffffffffffffffffffffffffffff168273ffffffffffffffffffffffffffffffffffffffff161415611360576040517f08c379a000000000000000000000000000000000000000000000000000000000815260040161135790612ff0565b60405180910390fd5b61136b838383611bd3565b600060c960008573ffffffffffffffffffffffffffffffffffffffff1673ffffffffffffffffffffffffffffffffffffffff168152602001908152602001600020549050818110156113f2576040517f08c379a00000000000000000000000000000000000000000000000000000000081526004016113e990613090565b60405180910390fd5b81810360c960008673ffffffffffffffffffffffffffffffffffffffff1673ffffffffffffffffffffffffffffffffffffffff168152602001908152602001600020819055508160c960008573ffffffffffffffffffffffffffffffffffffffff1673ffffffffffffffffffffffffffffffffffffffff16815260200190815260200160002060008282546114879190613323565b925050819055508273ffffffffffffffffffffffffffffffffffffffff168473ffffffffffffffffffffffffffffffffffffffff167fddf252ad1be2c89b69c2b068fc378daa952ba7f163c4a11628f55a4df523b3ef846040516114eb9190613270565b60405180910390a36114fe848484611be3565b50505050565b61150e8282610d0a565b61159d576115338173ffffffffffffffffffffffffffffffffffffffff166014611be8565b6115418360001c6020611be8565b604051602001611552929190612f23565b6040516020818303038152906040526040517f08c379a00000000000000000000000000000000000000000000000000000000081526004016115949190612fae565b60405180910390fd5b5050565b6115ab8282611ee2565b6115d08160976000858152602001908152602001600020611fc390919063ffffffff16565b505050565b6115df8282611ff3565b61160481609760008581526020019081526020016000206120d590919063ffffffff16565b505050565b611611610b85565b611650576040517f08c379a000000000000000000000000000000000000000000000000000000000815260040161164790613010565b60405180910390fd5b600061012d60006101000a81548160ff0219169083151502179055507f5db9ee0a495bf2e6ff9c91a7834c1ba4fdd244a5e8aa4e537bd38aeae4b073aa6116956110ad565b6040516116a29190612f5d565b60405180910390a1565b600073ffffffffffffffffffffffffffffffffffffffff168273ffffffffffffffffffffffffffffffffffffffff16141561171c576040517f08c379a000000000000000000000000000000000000000000000000000000000815260040161171390613230565b60405180910390fd5b61172860008383611bd3565b8060cb600082825461173a9190613323565b925050819055508060c960008473ffffffffffffffffffffffffffffffffffffffff1673ffffffffffffffffffffffffffffffffffffffff16815260200190815260200160002060008282546117909190613323565b925050819055508173ffffffffffffffffffffffffffffffffffffffff16600073ffffffffffffffffffffffffffffffffffffffff167fddf252ad1be2c89b69c2b068fc378daa952ba7f163c4a11628f55a4df523b3ef836040516117f59190613270565b60405180910390a361180960008383611be3565b5050565b600073ffffffffffffffffffffffffffffffffffffffff168273ffffffffffffffffffffffffffffffffffffffff16141561187d576040517f08c379a000000000000000000000000000000000000000000000000000000000815260040161187490613150565b60405180910390fd5b61188982600083611bd3565b600060c960008473ffffffffffffffffffffffffffffffffffffffff1673ffffffffffffffffffffffffffffffffffffffff16815260200190815260200160002054905081811015611910576040517f08c379a000000000000000000000000000000000000000000000000000000000815260040161190790613030565b60405180910390fd5b81810360c960008573ffffffffffffffffffffffffffffffffffffffff1673ffffffffffffffffffffffffffffffffffffffff168152602001908152602001600020819055508160cb600082825461196891906133d3565b92505081905550600073ffffffffffffffffffffffffffffffffffffffff168373ffffffffffffffffffffffffffffffffffffffff167fddf252ad1be2c89b69c2b068fc378daa952ba7f163c4a11628f55a4df523b3ef846040516119cd9190613270565b60405180910390a36119e183600084611be3565b505050565b60006119f130612105565b15905090565b600060019054906101000a900460ff16611a46576040517f08c379a0000000000000000000000000000000000000000000000000000000008152600401611a3d906131d0565b60405180910390fd5b611a4e612118565b611a56612169565b611a5e6121ba565b611a6661220b565b611a70828261225c565b611a786122dd565b611a8061232e565b611a8861239b565b611a9282826123ec565b5050565b611a9e610b85565b15611ade576040517f08c379a0000000000000000000000000000000000000000000000000000000008152600401611ad5906130b0565b60405180910390fd5b600161012d60006101000a81548160ff0219169083151502179055507f62e78cea01bee320cd4e420270b5ea74000d11b0c9f74754ebdbfc544b05a258611b236110ad565b604051611b309190612f5d565b60405180910390a1565b6000611b4983600001836124b5565b60001c905092915050565b6000611b6282600001612506565b9050919050565b60007f01ffc9a7000000000000000000000000000000000000000000000000000000007bffffffffffffffffffffffffffffffffffffffffffffffffffffffff1916827bffffffffffffffffffffffffffffffffffffffffffffffffffffffff1916149050919050565b611bde838383612517565b505050565b505050565b606060006002836002611bfb9190613379565b611c059190613323565b67ffffffffffffffff811115611c44577f4e487b7100000000000000000000000000000000000000000000000000000000600052604160045260246000fd5b6040519080825280601f01601f191660200182016040528015611c765781602001600182028036833780820191505090505b5090507f300000000000000000000000000000000000000000000000000000000000000081600081518110611cd4577f4e487b7100000000000000000000000000000000000000000000000000000000600052603260045260246000fd5b60200101907effffffffffffffffffffffffffffffffffffffffffffffffffffffffffffff1916908160001a9053507f780000000000000000000000000000000000000000000000000000000000000081600181518110611d5e577f4e487b7100000000000000000000000000000000000000000000000000000000600052603260045260246000fd5b60200101907effffffffffffffffffffffffffffffffffffffffffffffffffffffffffffff1916908160001a90535060006001846002611d9e9190613379565b611da89190613323565b90505b6001811115611e94577f3031323334353637383961626364656600000000000000000000000000000000600f861660108110611e10577f4e487b7100000000000000000000000000000000000000000000000000000000600052603260045260246000fd5b1a60f81b828281518110611e4d577f4e487b7100000000000000000000000000000000000000000000000000000000600052603260045260246000fd5b60200101907effffffffffffffffffffffffffffffffffffffffffffffffffffffffffffff1916908160001a905350600485901c945080611e8d906134d4565b9050611dab565b5060008414611ed8576040517f08c379a0000000000000000000000000000000000000000000000000000000008152600401611ecf90612fd0565b60405180910390fd5b8091505092915050565b611eec8282610d0a565b611fbf5760016065600084815260200190815260200160002060000160008373ffffffffffffffffffffffffffffffffffffffff1673ffffffffffffffffffffffffffffffffffffffff16815260200190815260200160002060006101000a81548160ff021916908315150217905550611f646110ad565b73ffffffffffffffffffffffffffffffffffffffff168173ffffffffffffffffffffffffffffffffffffffff16837f2f8788117e7eff1d82e926ec794901d17c78024a50270940304540a733656f0d60405160405180910390a45b5050565b6000611feb836000018373ffffffffffffffffffffffffffffffffffffffff1660001b61256f565b905092915050565b611ffd8282610d0a565b156120d15760006065600084815260200190815260200160002060000160008373ffffffffffffffffffffffffffffffffffffffff1673ffffffffffffffffffffffffffffffffffffffff16815260200190815260200160002060006101000a81548160ff0219169083151502179055506120766110ad565b73ffffffffffffffffffffffffffffffffffffffff168173ffffffffffffffffffffffffffffffffffffffff16837ff6391f5c32d9c69d2a47ea670b442974b53935d1edc7fd64eb21e047a839171b60405160405180910390a45b5050565b60006120fd836000018373ffffffffffffffffffffffffffffffffffffffff1660001b6125df565b905092915050565b600080823b905060008111915050919050565b600060019054906101000a900460ff16612167576040517f08c379a000000000000000000000000000000000000000000000000000000000815260040161215e906131d0565b60405180910390fd5b565b600060019054906101000a900460ff166121b8576040517f08c379a00000000000000000000000000000000000000000000000000000000081526004016121af906131d0565b60405180910390fd5b565b600060019054906101000a900460ff16612209576040517f08c379a0000000000000000000000000000000000000000000000000000000008152600401612200906131d0565b60405180910390fd5b565b600060019054906101000a900460ff1661225a576040517f08c379a0000000000000000000000000000000000000000000000000000000008152600401612251906131d0565b60405180910390fd5b565b600060019054906101000a900460ff166122ab576040517f08c379a00000000000000000000000000000000000000000000000000000000081526004016122a2906131d0565b60405180910390fd5b8160cc90805190602001906122c192919061279b565b508060cd90805190602001906122d892919061279b565b505050565b600060019054906101000a900460ff1661232c576040517f08c379a0000000000000000000000000000000000000000000000000000000008152600401612323906131d0565b60405180910390fd5b565b600060019054906101000a900460ff1661237d576040517f08c379a0000000000000000000000000000000000000000000000000000000008152600401612374906131d0565b60405180910390fd5b600061012d60006101000a81548160ff021916908315150217905550565b600060019054906101000a900460ff166123ea576040517f08c379a00000000000000000000000000000000000000000000000000000000081526004016123e1906131d0565b60405180910390fd5b565b600060019054906101000a900460ff1661243b576040517f08c379a0000000000000000000000000000000000000000000000000000000008152600401612432906131d0565b60405180910390fd5b61244f6000801b61244a6110ad565b612765565b6124807f9f2df0fed2c77648de5860a4cc508cd0818c85b8b8a1ab4ceeef8d981c8956a661247b6110ad565b612765565b6124b17f65d7a28e3265b37a6474929f336521b332c1681b933f6cb9f3376673440d862a6124ac6110ad565b612765565b5050565b60008260000182815481106124f3577f4e487b7100000000000000000000000000000000000000000000000000000000600052603260045260246000fd5b9060005260206000200154905092915050565b600081600001805490509050919050565b612522838383612773565b61252a610b85565b1561256a576040517f08c379a000000000000000000000000000000000000000000000000000000000815260040161256190613250565b60405180910390fd5b505050565b600061257b8383612778565b6125d45782600001829080600181540180825580915050600190039060005260206000200160009091909190915055826000018054905083600101600084815260200190815260200160002081905550600190506125d9565b600090505b92915050565b6000808360010160008481526020019081526020016000205490506000811461275957600060018261261191906133d3565b905060006001866000018054905061262991906133d3565b90508181146126e4576000866000018281548110612670577f4e487b7100000000000000000000000000000000000000000000000000000000600052603260045260246000fd5b90600052602060002001549050808760000184815481106126ba577f4e487b7100000000000000000000000000000000000000000000000000000000600052603260045260246000fd5b90600052602060002001819055508387600101600083815260200190815260200160002081905550505b8560000180548061271e577f4e487b7100000000000000000000000000000000000000000000000000000000600052603160045260246000fd5b60019003818190600052602060002001600090559055856001016000868152602001908152602001600020600090556001935050505061275f565b60009150505b92915050565b61276f82826115a1565b5050565b505050565b600080836001016000848152602001908152602001600020541415905092915050565b8280546127a7906134fe565b90600052602060002090601f0160209004810192826127c95760008555612810565b82601f106127e257805160ff1916838001178555612810565b82800160010185558215612810579182015b8281111561280f5782518255916020019190600101906127f4565b5b50905061281d9190612821565b5090565b5b8082111561283a576000816000905550600101612822565b5090565b600061285161284c846132cb565b6132a6565b90508281526020810184848401111561286957600080fd5b612874848285613492565b509392505050565b60008135905061288b81613c34565b92915050565b6000813590506128a081613c4b565b92915050565b6000813590506128b581613c62565b92915050565b600082601f8301126128cc57600080fd5b81356128dc84826020860161283e565b91505092915050565b6000813590506128f481613c79565b92915050565b60006020828403121561290c57600080fd5b600061291a8482850161287c565b91505092915050565b6000806040838503121561293657600080fd5b60006129448582860161287c565b92505060206129558582860161287c565b9150509250929050565b60008060006060848603121561297457600080fd5b60006129828682870161287c565b93505060206129938682870161287c565b92505060406129a4868287016128e5565b9150509250925092565b600080604083850312156129c157600080fd5b60006129cf8582860161287c565b92505060206129e0858286016128e5565b9150509250929050565b6000602082840312156129fc57600080fd5b6000612a0a84828501612891565b91505092915050565b60008060408385031215612a2657600080fd5b6000612a3485828601612891565b9250506020612a458582860161287c565b9150509250929050565b60008060408385031215612a6257600080fd5b6000612a7085828601612891565b9250506020612a81858286016128e5565b9150509250929050565b600060208284031215612a9d57600080fd5b6000612aab848285016128a6565b91505092915050565b60008060408385031215612ac757600080fd5b600083013567ffffffffffffffff811115612ae157600080fd5b612aed858286016128bb565b925050602083013567ffffffffffffffff811115612b0a57600080fd5b612b16858286016128bb565b9150509250929050565b600060208284031215612b3257600080fd5b6000612b40848285016128e5565b91505092915050565b612b5281613407565b82525050565b612b6181613419565b82525050565b612b7081613425565b82525050565b6000612b81826132fc565b612b8b8185613307565b9350612b9b8185602086016134a1565b612ba4816135ee565b840191505092915050565b6000612bba826132fc565b612bc48185613318565b9350612bd48185602086016134a1565b80840191505092915050565b6000612bed602083613307565b9150612bf8826135ff565b602082019050919050565b6000612c10602383613307565b9150612c1b82613628565b604082019050919050565b6000612c33601483613307565b9150612c3e82613677565b602082019050919050565b6000612c56602283613307565b9150612c61826136a0565b604082019050919050565b6000612c79603983613307565b9150612c84826136ef565b604082019050919050565b6000612c9c602283613307565b9150612ca78261373e565b604082019050919050565b6000612cbf602683613307565b9150612cca8261378d565b604082019050919050565b6000612ce2601083613307565b9150612ced826137dc565b602082019050919050565b6000612d05602e83613307565b9150612d1082613805565b604082019050919050565b6000612d28602883613307565b9150612d3382613854565b604082019050919050565b6000612d4b603683613307565b9150612d56826138a3565b604082019050919050565b6000612d6e602483613307565b9150612d79826138f2565b604082019050919050565b6000612d91602183613307565b9150612d9c82613941565b604082019050919050565b6000612db4602583613307565b9150612dbf82613990565b604082019050919050565b6000612dd7602483613307565b9150612de2826139df565b604082019050919050565b6000612dfa603783613307565b9150612e0582613a2e565b604082019050919050565b6000612e1d602b83613307565b9150612e2882613a7d565b604082019050919050565b6000612e40601783613318565b9150612e4b82613acc565b601782019050919050565b6000612e63602583613307565b9150612e6e82613af5565b604082019050919050565b6000612e86601183613318565b9150612e9182613b44565b601182019050919050565b6000612ea9602f83613307565b9150612eb482613b6d565b604082019050919050565b6000612ecc601f83613307565b9150612ed782613bbc565b602082019050919050565b6000612eef602a83613307565b9150612efa82613be5565b604082019050919050565b612f0e8161347b565b82525050565b612f1d81613485565b82525050565b6000612f2e82612e33565b9150612f3a8285612baf565b9150612f4582612e79565b9150612f518284612baf565b91508190509392505050565b6000602082019050612f726000830184612b49565b92915050565b6000602082019050612f8d6000830184612b58565b92915050565b6000602082019050612fa86000830184612b67565b92915050565b60006020820190508181036000830152612fc88184612b76565b905092915050565b60006020820190508181036000830152612fe981612be0565b9050919050565b6000602082019050818103600083015261300981612c03565b9050919050565b6000602082019050818103600083015261302981612c26565b9050919050565b6000602082019050818103600083015261304981612c49565b9050919050565b6000602082019050818103600083015261306981612c6c565b9050919050565b6000602082019050818103600083015261308981612c8f565b9050919050565b600060208201905081810360008301526130a981612cb2565b9050919050565b600060208201905081810360008301526130c981612cd5565b9050919050565b600060208201905081810360008301526130e981612cf8565b9050919050565b6000602082019050818103600083015261310981612d1b565b9050919050565b6000602082019050818103600083015261312981612d3e565b9050919050565b6000602082019050818103600083015261314981612d61565b9050919050565b6000602082019050818103600083015261316981612d84565b9050919050565b6000602082019050818103600083015261318981612da7565b9050919050565b600060208201905081810360008301526131a981612dca565b9050919050565b600060208201905081810360008301526131c981612ded565b9050919050565b600060208201905081810360008301526131e981612e10565b9050919050565b6000602082019050818103600083015261320981612e56565b9050919050565b6000602082019050818103600083015261322981612e9c565b9050919050565b6000602082019050818103600083015261324981612ebf565b9050919050565b6000602082019050818103600083015261326981612ee2565b9050919050565b60006020820190506132856000830184612f05565b92915050565b60006020820190506132a06000830184612f14565b92915050565b60006132b06132c1565b90506132bc8282613530565b919050565b6000604051905090565b600067ffffffffffffffff8211156132e6576132e56135bf565b5b6132ef826135ee565b9050602081019050919050565b600081519050919050565b600082825260208201905092915050565b600081905092915050565b600061332e8261347b565b91506133398361347b565b9250827fffffffffffffffffffffffffffffffffffffffffffffffffffffffffffffffff0382111561336e5761336d613561565b5b828201905092915050565b60006133848261347b565b915061338f8361347b565b9250817fffffffffffffffffffffffffffffffffffffffffffffffffffffffffffffffff04831182151516156133c8576133c7613561565b5b828202905092915050565b60006133de8261347b565b91506133e98361347b565b9250828210156133fc576133fb613561565b5b828203905092915050565b60006134128261345b565b9050919050565b60008115159050919050565b6000819050919050565b60007fffffffff0000000000000000000000000000000000000000000000000000000082169050919050565b600073ffffffffffffffffffffffffffffffffffffffff82169050919050565b6000819050919050565b600060ff82169050919050565b82818337600083830152505050565b60005b838110156134bf5780820151818401526020810190506134a4565b838111156134ce576000848401525b50505050565b60006134df8261347b565b915060008214156134f3576134f2613561565b5b600182039050919050565b6000600282049050600182168061351657607f821691505b6020821081141561352a57613529613590565b5b50919050565b613539826135ee565b810181811067ffffffffffffffff82111715613558576135576135bf565b5b80604052505050565b7f4e487b7100000000000000000000000000000000000000000000000000000000600052601160045260246000fd5b7f4e487b7100000000000000000000000000000000000000000000000000000000600052602260045260246000fd5b7f4e487b7100000000000000000000000000000000000000000000000000000000600052604160045260246000fd5b6000601f19601f8301169050919050565b7f537472696e67733a20686578206c656e67746820696e73756666696369656e74600082015250565b7f45524332303a207472616e7366657220746f20746865207a65726f206164647260008201527f6573730000000000000000000000000000000000000000000000000000000000602082015250565b7f5061757361626c653a206e6f7420706175736564000000000000000000000000600082015250565b7f45524332303a206275726e20616d6f756e7420657863656564732062616c616e60008201527f6365000000000000000000000000000000000000000000000000000000000000602082015250565b7f45524332305072657365744d696e7465725061757365723a206d75737420686160008201527f76652070617573657220726f6c6520746f20756e706175736500000000000000602082015250565b7f45524332303a20617070726f766520746f20746865207a65726f20616464726560008201527f7373000000000000000000000000000000000000000000000000000000000000602082015250565b7f45524332303a207472616e7366657220616d6f756e742065786365656473206260008201527f616c616e63650000000000000000000000000000000000000000000000000000602082015250565b7f5061757361626c653a2070617573656400000000000000000000000000000000600082015250565b7f496e697469616c697a61626c653a20636f6e747261637420697320616c72656160008201527f647920696e697469616c697a6564000000000000000000000000000000000000602082015250565b7f45524332303a207472616e7366657220616d6f756e742065786365656473206160008201527f6c6c6f77616e6365000000000000000000000000000000000000000000000000602082015250565b7f45524332305072657365744d696e7465725061757365723a206d75737420686160008201527f7665206d696e74657220726f6c6520746f206d696e7400000000000000000000602082015250565b7f45524332303a206275726e20616d6f756e74206578636565647320616c6c6f7760008201527f616e636500000000000000000000000000000000000000000000000000000000602082015250565b7f45524332303a206275726e2066726f6d20746865207a65726f2061646472657360008201527f7300000000000000000000000000000000000000000000000000000000000000602082015250565b7f45524332303a207472616e736665722066726f6d20746865207a65726f20616460008201527f6472657373000000000000000000000000000000000000000000000000000000602082015250565b7f45524332303a20617070726f76652066726f6d20746865207a65726f2061646460008201527f7265737300000000000000000000000000000000000000000000000000000000602082015250565b7f45524332305072657365744d696e7465725061757365723a206d75737420686160008201527f76652070617573657220726f6c6520746f207061757365000000000000000000602082015250565b7f496e697469616c697a61626c653a20636f6e7472616374206973206e6f74206960008201527f6e697469616c697a696e67000000000000000000000000000000000000000000602082015250565b7f416363657373436f6e74726f6c3a206163636f756e7420000000000000000000600082015250565b7f45524332303a2064656372656173656420616c6c6f77616e63652062656c6f7760008201527f207a65726f000000000000000000000000000000000000000000000000000000602082015250565b7f206973206d697373696e6720726f6c6520000000000000000000000000000000600082015250565b7f416363657373436f6e74726f6c3a2063616e206f6e6c792072656e6f756e636560008201527f20726f6c657320666f722073656c660000000000000000000000000000000000602082015250565b7f45524332303a206d696e7420746f20746865207a65726f206164647265737300600082015250565b7f45524332305061757361626c653a20746f6b656e207472616e7366657220776860008201527f696c652070617573656400000000000000000000000000000000000000000000602082015250565b613c3d81613407565b8114613c4857600080fd5b50565b613c5481613425565b8114613c5f57600080fd5b50565b613c6b8161342f565b8114613c7657600080fd5b50565b613c828161347b565b8114613c8d57600080fd5b5056fea264697066735822122053ac895ddf221be8d28f8742beba445bb0a702e784393a781fc71dcdcf41ef2e64736f6c63430008030033",
  "linkReferences": {},
  "deployedLinkReferences": {}
}