{
  "_format": "hh-sol-artifact-1",
  "contractName": "ERC777PresetFixedSupplyUpgradeable",
  "sourceName": "contracts/artifacts/lib/contracts-upgradeable/token/ERC777/presets/ERC777PresetFixedSupplyUpgradeable.sol",
  "abi": [
    {
      "anonymous": false,
      "inputs": [
        {
          "indexed": true,
          "internalType": "address",
          "name": "owner",
          "type": "address"
        },
        {
          "indexed": true,
          "internalType": "address",
          "name": "spender",
          "type": "address"
        },
        {
          "indexed": false,
          "internalType": "uint256",
          "name": "value",
          "type": "uint256"
        }
      ],
      "name": "Approval",
      "type": "event"
    },
    {
      "anonymous": false,
      "inputs": [
        {
          "indexed": true,
          "internalType": "address",
          "name": "operator",
          "type": "address"
        },
        {
          "indexed": true,
          "internalType": "address",
          "name": "tokenHolder",
          "type": "address"
        }
      ],
      "name": "AuthorizedOperator",
      "type": "event"
    },
    {
      "anonymous": false,
      "inputs": [
        {
          "indexed": true,
          "internalType": "address",
          "name": "operator",
          "type": "address"
        },
        {
          "indexed": true,
          "internalType": "address",
          "name": "from",
          "type": "address"
        },
        {
          "indexed": false,
          "internalType": "uint256",
          "name": "amount",
          "type": "uint256"
        },
        {
          "indexed": false,
          "internalType": "bytes",
          "name": "data",
          "type": "bytes"
        },
        {
          "indexed": false,
          "internalType": "bytes",
          "name": "operatorData",
          "type": "bytes"
        }
      ],
      "name": "Burned",
      "type": "event"
    },
    {
      "anonymous": false,
      "inputs": [
        {
          "indexed": true,
          "internalType": "address",
          "name": "operator",
          "type": "address"
        },
        {
          "indexed": true,
          "internalType": "address",
          "name": "to",
          "type": "address"
        },
        {
          "indexed": false,
          "internalType": "uint256",
          "name": "amount",
          "type": "uint256"
        },
        {
          "indexed": false,
          "internalType": "bytes",
          "name": "data",
          "type": "bytes"
        },
        {
          "indexed": false,
          "internalType": "bytes",
          "name": "operatorData",
          "type": "bytes"
        }
      ],
      "name": "Minted",
      "type": "event"
    },
    {
      "anonymous": false,
      "inputs": [
        {
          "indexed": true,
          "internalType": "address",
          "name": "operator",
          "type": "address"
        },
        {
          "indexed": true,
          "internalType": "address",
          "name": "tokenHolder",
          "type": "address"
        }
      ],
      "name": "RevokedOperator",
      "type": "event"
    },
    {
      "anonymous": false,
      "inputs": [
        {
          "indexed": true,
          "internalType": "address",
          "name": "operator",
          "type": "address"
        },
        {
          "indexed": true,
          "internalType": "address",
          "name": "from",
          "type": "address"
        },
        {
          "indexed": true,
          "internalType": "address",
          "name": "to",
          "type": "address"
        },
        {
          "indexed": false,
          "internalType": "uint256",
          "name": "amount",
          "type": "uint256"
        },
        {
          "indexed": false,
          "internalType": "bytes",
          "name": "data",
          "type": "bytes"
        },
        {
          "indexed": false,
          "internalType": "bytes",
          "name": "operatorData",
          "type": "bytes"
        }
      ],
      "name": "Sent",
      "type": "event"
    },
    {
      "anonymous": false,
      "inputs": [
        {
          "indexed": true,
          "internalType": "address",
          "name": "from",
          "type": "address"
        },
        {
          "indexed": true,
          "internalType": "address",
          "name": "to",
          "type": "address"
        },
        {
          "indexed": false,
          "internalType": "uint256",
          "name": "value",
          "type": "uint256"
        }
      ],
      "name": "Transfer",
      "type": "event"
    },
    {
      "inputs": [
        {
          "internalType": "address",
          "name": "holder",
          "type": "address"
        },
        {
          "internalType": "address",
          "name": "spender",
          "type": "address"
        }
      ],
      "name": "allowance",
      "outputs": [
        {
          "internalType": "uint256",
          "name": "",
          "type": "uint256"
        }
      ],
      "stateMutability": "view",
      "type": "function"
    },
    {
      "inputs": [
        {
          "internalType": "address",
          "name": "spender",
          "type": "address"
        },
        {
          "internalType": "uint256",
          "name": "value",
          "type": "uint256"
        }
      ],
      "name": "approve",
      "outputs": [
        {
          "internalType": "bool",
          "name": "",
          "type": "bool"
        }
      ],
      "stateMutability": "nonpayable",
      "type": "function"
    },
    {
      "inputs": [
        {
          "internalType": "address",
          "name": "operator",
          "type": "address"
        }
      ],
      "name": "authorizeOperator",
      "outputs": [],
      "stateMutability": "nonpayable",
      "type": "function"
    },
    {
      "inputs": [
        {
          "internalType": "address",
          "name": "tokenHolder",
          "type": "address"
        }
      ],
      "name": "balanceOf",
      "outputs": [
        {
          "internalType": "uint256",
          "name": "",
          "type": "uint256"
        }
      ],
      "stateMutability": "view",
      "type": "function"
    },
    {
      "inputs": [
        {
          "internalType": "uint256",
          "name": "amount",
          "type": "uint256"
        },
        {
          "internalType": "bytes",
          "name": "data",
          "type": "bytes"
        }
      ],
      "name": "burn",
      "outputs": [],
      "stateMutability": "nonpayable",
      "type": "function"
    },
    {
      "inputs": [],
      "name": "decimals",
      "outputs": [
        {
          "internalType": "uint8",
          "name": "",
          "type": "uint8"
        }
      ],
      "stateMutability": "pure",
      "type": "function"
    },
    {
      "inputs": [],
      "name": "defaultOperators",
      "outputs": [
        {
          "internalType": "address[]",
          "name": "",
          "type": "address[]"
        }
      ],
      "stateMutability": "view",
      "type": "function"
    },
    {
      "inputs": [],
      "name": "granularity",
      "outputs": [
        {
          "internalType": "uint256",
          "name": "",
          "type": "uint256"
        }
      ],
      "stateMutability": "view",
      "type": "function"
    },
    {
      "inputs": [
        {
          "internalType": "string",
          "name": "name",
          "type": "string"
        },
        {
          "internalType": "string",
          "name": "symbol",
          "type": "string"
        },
        {
          "internalType": "address[]",
          "name": "defaultOperators",
          "type": "address[]"
        },
        {
          "internalType": "uint256",
          "name": "initialSupply",
          "type": "uint256"
        },
        {
          "internalType": "address",
          "name": "owner",
          "type": "address"
        }
      ],
      "name": "initialize",
      "outputs": [],
      "stateMutability": "nonpayable",
      "type": "function"
    },
    {
      "inputs": [
        {
          "internalType": "address",
          "name": "operator",
          "type": "address"
        },
        {
          "internalType": "address",
          "name": "tokenHolder",
          "type": "address"
        }
      ],
      "name": "isOperatorFor",
      "outputs": [
        {
          "internalType": "bool",
          "name": "",
          "type": "bool"
        }
      ],
      "stateMutability": "view",
      "type": "function"
    },
    {
      "inputs": [],
      "name": "name",
      "outputs": [
        {
          "internalType": "string",
          "name": "",
          "type": "string"
        }
      ],
      "stateMutability": "view",
      "type": "function"
    },
    {
      "inputs": [
        {
          "internalType": "address",
          "name": "account",
          "type": "address"
        },
        {
          "internalType": "uint256",
          "name": "amount",
          "type": "uint256"
        },
        {
          "internalType": "bytes",
          "name": "data",
          "type": "bytes"
        },
        {
          "internalType": "bytes",
          "name": "operatorData",
          "type": "bytes"
        }
      ],
      "name": "operatorBurn",
      "outputs": [],
      "stateMutability": "nonpayable",
      "type": "function"
    },
    {
      "inputs": [
        {
          "internalType": "address",
          "name": "sender",
          "type": "address"
        },
        {
          "internalType": "address",
          "name": "recipient",
          "type": "address"
        },
        {
          "internalType": "uint256",
          "name": "amount",
          "type": "uint256"
        },
        {
          "internalType": "bytes",
          "name": "data",
          "type": "bytes"
        },
        {
          "internalType": "bytes",
          "name": "operatorData",
          "type": "bytes"
        }
      ],
      "name": "operatorSend",
      "outputs": [],
      "stateMutability": "nonpayable",
      "type": "function"
    },
    {
      "inputs": [
        {
          "internalType": "address",
          "name": "operator",
          "type": "address"
        }
      ],
      "name": "revokeOperator",
      "outputs": [],
      "stateMutability": "nonpayable",
      "type": "function"
    },
    {
      "inputs": [
        {
          "internalType": "address",
          "name": "recipient",
          "type": "address"
        },
        {
          "internalType": "uint256",
          "name": "amount",
          "type": "uint256"
        },
        {
          "internalType": "bytes",
          "name": "data",
          "type": "bytes"
        }
      ],
      "name": "send",
      "outputs": [],
      "stateMutability": "nonpayable",
      "type": "function"
    },
    {
      "inputs": [],
      "name": "symbol",
      "outputs": [
        {
          "internalType": "string",
          "name": "",
          "type": "string"
        }
      ],
      "stateMutability": "view",
      "type": "function"
    },
    {
      "inputs": [],
      "name": "totalSupply",
      "outputs": [
        {
          "internalType": "uint256",
          "name": "",
          "type": "uint256"
        }
      ],
      "stateMutability": "view",
      "type": "function"
    },
    {
      "inputs": [
        {
          "internalType": "address",
          "name": "recipient",
          "type": "address"
        },
        {
          "internalType": "uint256",
          "name": "amount",
          "type": "uint256"
        }
      ],
      "name": "transfer",
      "outputs": [
        {
          "internalType": "bool",
          "name": "",
          "type": "bool"
        }
      ],
      "stateMutability": "nonpayable",
      "type": "function"
    },
    {
      "inputs": [
        {
          "internalType": "address",
          "name": "holder",
          "type": "address"
        },
        {
          "internalType": "address",
          "name": "recipient",
          "type": "address"
        },
        {
          "internalType": "uint256",
          "name": "amount",
          "type": "uint256"
        }
      ],
      "name": "transferFrom",
      "outputs": [
        {
          "internalType": "bool",
          "name": "",
          "type": "bool"
        }
      ],
      "stateMutability": "nonpayable",
      "type": "function"
    }
  ],
  "bytecode": "0x608060405234801561001057600080fd5b50613a32806100206000396000f3fe608060405234801561001057600080fd5b50600436106101215760003560e01c8063768f950a116100ad578063d95b637111610071578063d95b63711461030a578063dd62ed3e1461033a578063fad8b32a1461036a578063fc673c4f14610386578063fe9d9303146103a257610121565b8063768f950a14610268578063959b8c3f1461028457806395d89b41146102a05780639bd9bbc6146102be578063a9059cbb146102da57610121565b806323b872dd116100f457806323b872dd146101b0578063313ce567146101e0578063556f0dc7146101fe57806362ad1b831461021c57806370a082311461023857610121565b806306e485381461012657806306fdde0314610144578063095ea7b31461016257806318160ddd14610192575b600080fd5b61012e6103be565b60405161013b9190612e22565b60405180910390f35b61014c61044c565b6040516101599190612e5f565b60405180910390f35b61017c60048036038101906101779190612775565b6104de565b6040516101899190612e44565b60405180910390f35b61019a610501565b6040516101a791906130a1565b60405180910390f35b6101ca60048036038101906101c5919061267f565b61050b565b6040516101d79190612e44565b60405180910390f35b6101e8610765565b6040516101f59190613101565b60405180910390f35b61020661076e565b60405161021391906130a1565b60405180910390f35b610236600480360381019061023191906126ce565b610777565b005b610252600480360381019061024d91906125f1565b6107dd565b60405161025f91906130a1565b60405180910390f35b610282600480360381019061027d91906128ab565b610826565b005b61029e600480360381019061029991906125f1565b61091c565b005b6102a8610b7d565b6040516102b59190612e5f565b60405180910390f35b6102d860048036038101906102d391906127b1565b610c0f565b005b6102f460048036038101906102ef9190612775565b610c39565b6040516103019190612e44565b60405180910390f35b610324600480360381019061031f9190612643565b610d47565b6040516103319190612e44565b60405180910390f35b610354600480360381019061034f9190612643565b610ef8565b60405161036191906130a1565b60405180910390f35b610384600480360381019061037f91906125f1565b610f7f565b005b6103a0600480360381019061039b9190612818565b6111e0565b005b6103bc60048036038101906103b7919061296a565b611242565b005b6060603780548060200260200160405190810160405280929190818152602001828054801561044257602002820191906000526020600020905b8160009054906101000a900473ffffffffffffffffffffffffffffffffffffffff1673ffffffffffffffffffffffffffffffffffffffff16815260200190600101908083116103f8575b5050505050905090565b60606035805461045b9061336b565b80601f01602080910402602001604051908101604052809291908181526020018280546104879061336b565b80156104d45780601f106104a9576101008083540402835291602001916104d4565b820191906000526020600020905b8154815290600101906020018083116104b757829003601f168201915b5050505050905090565b6000806104e9611268565b90506104f6818585611270565b600191505092915050565b6000603454905090565b60008073ffffffffffffffffffffffffffffffffffffffff168373ffffffffffffffffffffffffffffffffffffffff16141561057c576040517f08c379a000000000000000000000000000000000000000000000000000000000815260040161057390612fa1565b60405180910390fd5b600073ffffffffffffffffffffffffffffffffffffffff168473ffffffffffffffffffffffffffffffffffffffff1614156105ec576040517f08c379a00000000000000000000000000000000000000000000000000000000081526004016105e390613021565b60405180910390fd5b60006105f6611268565b905061062481868686604051806020016040528060008152506040518060200160405280600081525061143b565b6106508186868660405180602001604052806000815250604051806020016040528060008152506115b1565b6000603b60008773ffffffffffffffffffffffffffffffffffffffff1673ffffffffffffffffffffffffffffffffffffffff16815260200190815260200160002060008373ffffffffffffffffffffffffffffffffffffffff1673ffffffffffffffffffffffffffffffffffffffff16815260200190815260200160002054905083811015610714576040517f08c379a000000000000000000000000000000000000000000000000000000000815260040161070b90613001565b60405180910390fd5b61072a868386846107259190613296565b611270565b61075882878787604051806020016040528060008152506040518060200160405280600081525060006117ce565b6001925050509392505050565b60006012905090565b60006001905090565b610788610782611268565b86610d47565b6107c7576040517f08c379a00000000000000000000000000000000000000000000000000000000081526004016107be90612fc1565b60405180910390fd5b6107d6858585858560016119af565b5050505050565b6000603360008373ffffffffffffffffffffffffffffffffffffffff1673ffffffffffffffffffffffffffffffffffffffff168152602001908152602001600020549050919050565b600060019054906101000a900460ff1661084e5760008054906101000a900460ff1615610857565b610856611acf565b5b610896576040517f08c379a000000000000000000000000000000000000000000000000000000000815260040161088d90612f41565b60405180910390fd5b60008060019054906101000a900460ff1615905080156108e6576001600060016101000a81548160ff02191690831515021790555060016000806101000a81548160ff0219169083151502179055505b6108f38686868686611ae0565b80156109145760008060016101000a81548160ff0219169083151502179055505b505050505050565b8073ffffffffffffffffffffffffffffffffffffffff1661093b611268565b73ffffffffffffffffffffffffffffffffffffffff161415610992576040517f08c379a000000000000000000000000000000000000000000000000000000000815260040161098990612f01565b60405180910390fd5b603860008273ffffffffffffffffffffffffffffffffffffffff1673ffffffffffffffffffffffffffffffffffffffff16815260200190815260200160002060009054906101000a900460ff1615610a7c57603a60006109f0611268565b73ffffffffffffffffffffffffffffffffffffffff1673ffffffffffffffffffffffffffffffffffffffff16815260200190815260200160002060008273ffffffffffffffffffffffffffffffffffffffff1673ffffffffffffffffffffffffffffffffffffffff16815260200190815260200160002060006101000a81549060ff0219169055610b19565b600160396000610a8a611268565b73ffffffffffffffffffffffffffffffffffffffff1673ffffffffffffffffffffffffffffffffffffffff16815260200190815260200160002060008373ffffffffffffffffffffffffffffffffffffffff1673ffffffffffffffffffffffffffffffffffffffff16815260200190815260200160002060006101000a81548160ff0219169083151502179055505b610b21611268565b73ffffffffffffffffffffffffffffffffffffffff168173ffffffffffffffffffffffffffffffffffffffff167ff4caeb2d6ca8932a215a353d0703c326ec2d81fc68170f320eb2ab49e9df61f960405160405180910390a350565b606060368054610b8c9061336b565b80601f0160208091040260200160405190810160405280929190818152602001828054610bb89061336b565b8015610c055780601f10610bda57610100808354040283529160200191610c05565b820191906000526020600020905b815481529060010190602001808311610be857829003601f168201915b5050505050905090565b610c34610c1a611268565b8484846040518060200160405280600081525060016119af565b505050565b60008073ffffffffffffffffffffffffffffffffffffffff168373ffffffffffffffffffffffffffffffffffffffff161415610caa576040517f08c379a0000000000000000000000000000000000000000000000000000000008152600401610ca190612fa1565b60405180910390fd5b6000610cb4611268565b9050610ce281828686604051806020016040528060008152506040518060200160405280600081525061143b565b610d0e8182868660405180602001604052806000815250604051806020016040528060008152506115b1565b610d3c81828686604051806020016040528060008152506040518060200160405280600081525060006117ce565b600191505092915050565b60008173ffffffffffffffffffffffffffffffffffffffff168373ffffffffffffffffffffffffffffffffffffffff161480610e5f5750603860008473ffffffffffffffffffffffffffffffffffffffff1673ffffffffffffffffffffffffffffffffffffffff16815260200190815260200160002060009054906101000a900460ff168015610e5e5750603a60008373ffffffffffffffffffffffffffffffffffffffff1673ffffffffffffffffffffffffffffffffffffffff16815260200190815260200160002060008473ffffffffffffffffffffffffffffffffffffffff1673ffffffffffffffffffffffffffffffffffffffff16815260200190815260200160002060009054906101000a900460ff16155b5b80610ef05750603960008373ffffffffffffffffffffffffffffffffffffffff1673ffffffffffffffffffffffffffffffffffffffff16815260200190815260200160002060008473ffffffffffffffffffffffffffffffffffffffff1673ffffffffffffffffffffffffffffffffffffffff16815260200190815260200160002060009054906101000a900460ff165b905092915050565b6000603b60008473ffffffffffffffffffffffffffffffffffffffff1673ffffffffffffffffffffffffffffffffffffffff16815260200190815260200160002060008373ffffffffffffffffffffffffffffffffffffffff1673ffffffffffffffffffffffffffffffffffffffff16815260200190815260200160002054905092915050565b610f87611268565b73ffffffffffffffffffffffffffffffffffffffff168173ffffffffffffffffffffffffffffffffffffffff161415610ff5576040517f08c379a0000000000000000000000000000000000000000000000000000000008152600401610fec90612f21565b60405180910390fd5b603860008273ffffffffffffffffffffffffffffffffffffffff1673ffffffffffffffffffffffffffffffffffffffff16815260200190815260200160002060009054906101000a900460ff16156110e8576001603a6000611055611268565b73ffffffffffffffffffffffffffffffffffffffff1673ffffffffffffffffffffffffffffffffffffffff16815260200190815260200160002060008373ffffffffffffffffffffffffffffffffffffffff1673ffffffffffffffffffffffffffffffffffffffff16815260200190815260200160002060006101000a81548160ff02191690831515021790555061117c565b603960006110f4611268565b73ffffffffffffffffffffffffffffffffffffffff1673ffffffffffffffffffffffffffffffffffffffff16815260200190815260200160002060008273ffffffffffffffffffffffffffffffffffffffff1673ffffffffffffffffffffffffffffffffffffffff16815260200190815260200160002060006101000a81549060ff02191690555b611184611268565b73ffffffffffffffffffffffffffffffffffffffff168173ffffffffffffffffffffffffffffffffffffffff167f50546e66e5f44d728365dc3908c63bc5cfeeab470722c1677e3073a6ac294aa160405160405180910390a350565b6111f16111eb611268565b85610d47565b611230576040517f08c379a000000000000000000000000000000000000000000000000000000000815260040161122790612fc1565b60405180910390fd5b61123c84848484611b56565b50505050565b61126461124d611268565b838360405180602001604052806000815250611b56565b5050565b600033905090565b600073ffffffffffffffffffffffffffffffffffffffff168373ffffffffffffffffffffffffffffffffffffffff1614156112e0576040517f08c379a00000000000000000000000000000000000000000000000000000000081526004016112d790612e81565b60405180910390fd5b600073ffffffffffffffffffffffffffffffffffffffff168273ffffffffffffffffffffffffffffffffffffffff161415611350576040517f08c379a000000000000000000000000000000000000000000000000000000000815260040161134790613081565b60405180910390fd5b80603b60008573ffffffffffffffffffffffffffffffffffffffff1673ffffffffffffffffffffffffffffffffffffffff16815260200190815260200160002060008473ffffffffffffffffffffffffffffffffffffffff1673ffffffffffffffffffffffffffffffffffffffff168152602001908152602001600020819055508173ffffffffffffffffffffffffffffffffffffffff168373ffffffffffffffffffffffffffffffffffffffff167f8c5be1e5ebec7d5bd14f71427d1e84f3dd0314c0f7b2291e5b200ac8c7c3b9258360405161142e91906130a1565b60405180910390a3505050565b6000731820a4b7618bde71dce8cdc73aab6c95905fad2473ffffffffffffffffffffffffffffffffffffffff1663aabbb8ca877f29ddb589b1fb5fc7cf394961c1adf5f8c6454761adf795e67fe149f658abe8956040518363ffffffff1660e01b81526004016114ac929190612dc2565b60206040518083038186803b1580156114c457600080fd5b505afa1580156114d8573d6000803e3d6000fd5b505050506040513d601f19601f820116820180604052508101906114fc919061261a565b9050600073ffffffffffffffffffffffffffffffffffffffff168173ffffffffffffffffffffffffffffffffffffffff16146115a8578073ffffffffffffffffffffffffffffffffffffffff166375ab97828888888888886040518763ffffffff1660e01b815260040161157596959493929190612d53565b600060405180830381600087803b15801561158f57600080fd5b505af11580156115a3573d6000803e3d6000fd5b505050505b50505050505050565b6115bd86868686611dab565b6000603360008773ffffffffffffffffffffffffffffffffffffffff1673ffffffffffffffffffffffffffffffffffffffff16815260200190815260200160002054905083811015611644576040517f08c379a000000000000000000000000000000000000000000000000000000000815260040161163b90612ec1565b60405180910390fd5b838103603360008873ffffffffffffffffffffffffffffffffffffffff1673ffffffffffffffffffffffffffffffffffffffff1681526020019081526020016000208190555083603360008773ffffffffffffffffffffffffffffffffffffffff1673ffffffffffffffffffffffffffffffffffffffff16815260200190815260200160002060008282546116d99190613240565b925050819055508473ffffffffffffffffffffffffffffffffffffffff168673ffffffffffffffffffffffffffffffffffffffff168873ffffffffffffffffffffffffffffffffffffffff167f06b541ddaa720db2b10a4d0cdac39b8d360425fc073085fac19bc82614677987878787604051611758939291906130bc565b60405180910390a48473ffffffffffffffffffffffffffffffffffffffff168673ffffffffffffffffffffffffffffffffffffffff167fddf252ad1be2c89b69c2b068fc378daa952ba7f163c4a11628f55a4df523b3ef866040516117bd91906130a1565b60405180910390a350505050505050565b6000731820a4b7618bde71dce8cdc73aab6c95905fad2473ffffffffffffffffffffffffffffffffffffffff1663aabbb8ca877fb281fc8c12954d22544db45de3159a39272895b169a852b314f9cc762e44c53b6040518363ffffffff1660e01b815260040161183f929190612dc2565b60206040518083038186803b15801561185757600080fd5b505afa15801561186b573d6000803e3d6000fd5b505050506040513d601f19601f8201168201806040525081019061188f919061261a565b9050600073ffffffffffffffffffffffffffffffffffffffff168173ffffffffffffffffffffffffffffffffffffffff161461193e578073ffffffffffffffffffffffffffffffffffffffff166223de298989898989896040518763ffffffff1660e01b815260040161190796959493929190612d53565b600060405180830381600087803b15801561192157600080fd5b505af1158015611935573d6000803e3d6000fd5b505050506119a5565b81156119a4576119638673ffffffffffffffffffffffffffffffffffffffff16611db1565b156119a3576040517f08c379a000000000000000000000000000000000000000000000000000000000815260040161199a90612f81565b60405180910390fd5b5b5b5050505050505050565b600073ffffffffffffffffffffffffffffffffffffffff168673ffffffffffffffffffffffffffffffffffffffff161415611a1f576040517f08c379a0000000000000000000000000000000000000000000000000000000008152600401611a1690612ea1565b60405180910390fd5b600073ffffffffffffffffffffffffffffffffffffffff168573ffffffffffffffffffffffffffffffffffffffff161415611a8f576040517f08c379a0000000000000000000000000000000000000000000000000000000008152600401611a8690613061565b60405180910390fd5b6000611a99611268565b9050611aa981888888888861143b565b611ab78188888888886115b1565b611ac6818888888888886117ce565b50505050505050565b6000611ada30611db1565b15905090565b600060019054906101000a900460ff16611b2f576040517f08c379a0000000000000000000000000000000000000000000000000000000008152600401611b2690612fe1565b60405180910390fd5b611b37611dc4565b611b42858585611e15565b611b4f85858585856120ac565b5050505050565b600073ffffffffffffffffffffffffffffffffffffffff168473ffffffffffffffffffffffffffffffffffffffff161415611bc6576040517f08c379a0000000000000000000000000000000000000000000000000000000008152600401611bbd90612ee1565b60405180910390fd5b6000611bd0611268565b9050611be18186600087878761143b565b611bee8186600087611dab565b6000603360008773ffffffffffffffffffffffffffffffffffffffff1673ffffffffffffffffffffffffffffffffffffffff16815260200190815260200160002054905084811015611c75576040517f08c379a0000000000000000000000000000000000000000000000000000000008152600401611c6c90613041565b60405180910390fd5b848103603360008873ffffffffffffffffffffffffffffffffffffffff1673ffffffffffffffffffffffffffffffffffffffff168152602001908152602001600020819055508460346000828254611ccd9190613296565b925050819055508573ffffffffffffffffffffffffffffffffffffffff168273ffffffffffffffffffffffffffffffffffffffff167fa78a9be3a7b862d26933ad85fb11d80ef66b8f972d7cbba06621d583943a4098878787604051611d35939291906130bc565b60405180910390a3600073ffffffffffffffffffffffffffffffffffffffff168673ffffffffffffffffffffffffffffffffffffffff167fddf252ad1be2c89b69c2b068fc378daa952ba7f163c4a11628f55a4df523b3ef87604051611d9b91906130a1565b60405180910390a3505050505050565b50505050565b600080823b905060008111915050919050565b600060019054906101000a900460ff16611e13576040517f08c379a0000000000000000000000000000000000000000000000000000000008152600401611e0a90612fe1565b60405180910390fd5b565b600060019054906101000a900460ff16611e64576040517f08c379a0000000000000000000000000000000000000000000000000000000008152600401611e5b90612fe1565b60405180910390fd5b8260359080519060200190611e7a92919061231f565b508160369080519060200190611e9192919061231f565b508060379080519060200190611ea89291906123a5565b5060005b8151811015611f6057600160386000848481518110611ef4577f4e487b7100000000000000000000000000000000000000000000000000000000600052603260045260246000fd5b602002602001015173ffffffffffffffffffffffffffffffffffffffff1673ffffffffffffffffffffffffffffffffffffffff16815260200190815260200160002060006101000a81548160ff0219169083151502179055508080611f58906133ce565b915050611eac565b50731820a4b7618bde71dce8cdc73aab6c95905fad2473ffffffffffffffffffffffffffffffffffffffff166329965a1d307fac7fbab5f54a3ca8194167523c6753bfeb96a445279294b6125b68cce2177054306040518463ffffffff1660e01b8152600401611fd293929190612deb565b600060405180830381600087803b158015611fec57600080fd5b505af1158015612000573d6000803e3d6000fd5b50505050731820a4b7618bde71dce8cdc73aab6c95905fad2473ffffffffffffffffffffffffffffffffffffffff166329965a1d307faea199e31a596269b42cdafd93407f14436db6e4cad65417994c2eb37381e05a306040518463ffffffff1660e01b815260040161207593929190612deb565b600060405180830381600087803b15801561208f57600080fd5b505af11580156120a3573d6000803e3d6000fd5b50505050505050565b600060019054906101000a900460ff166120fb576040517f08c379a00000000000000000000000000000000000000000000000000000000081526004016120f290612fe1565b60405180910390fd5b6121258183604051806020016040528060008152506040518060200160405280600081525061212c565b5050505050565b61213a848484846001612140565b50505050565b600073ffffffffffffffffffffffffffffffffffffffff168573ffffffffffffffffffffffffffffffffffffffff1614156121b0576040517f08c379a00000000000000000000000000000000000000000000000000000000081526004016121a790612f61565b60405180910390fd5b60006121ba611268565b90506121c98160008888611dab565b84603460008282546121db9190613240565b9250508190555084603360008873ffffffffffffffffffffffffffffffffffffffff1673ffffffffffffffffffffffffffffffffffffffff16815260200190815260200160002060008282546122319190613240565b9250508190555061224881600088888888886117ce565b8573ffffffffffffffffffffffffffffffffffffffff168173ffffffffffffffffffffffffffffffffffffffff167f2fe5be0146f74c5bce36c0b80911af6c7d86ff27e89d5cfa61fc681327954e5d8787876040516122a9939291906130bc565b60405180910390a38573ffffffffffffffffffffffffffffffffffffffff16600073ffffffffffffffffffffffffffffffffffffffff167fddf252ad1be2c89b69c2b068fc378daa952ba7f163c4a11628f55a4df523b3ef8760405161230f91906130a1565b60405180910390a3505050505050565b82805461232b9061336b565b90600052602060002090601f01602090048101928261234d5760008555612394565b82601f1061236657805160ff1916838001178555612394565b82800160010185558215612394579182015b82811115612393578251825591602001919060010190612378565b5b5090506123a1919061242f565b5090565b82805482825590600052602060002090810192821561241e579160200282015b8281111561241d5782518260006101000a81548173ffffffffffffffffffffffffffffffffffffffff021916908373ffffffffffffffffffffffffffffffffffffffff160217905550916020019190600101906123c5565b5b50905061242b919061242f565b5090565b5b80821115612448576000816000905550600101612430565b5090565b600061245f61245a84613141565b61311c565b9050808382526020820190508285602086028201111561247e57600080fd5b60005b858110156124ae57816124948882612534565b845260208401935060208301925050600181019050612481565b5050509392505050565b60006124cb6124c68461316d565b61311c565b9050828152602081018484840111156124e357600080fd5b6124ee848285613329565b509392505050565b60006125096125048461319e565b61311c565b90508281526020810184848401111561252157600080fd5b61252c848285613329565b509392505050565b600081359050612543816139ce565b92915050565b600081519050612558816139ce565b92915050565b600082601f83011261256f57600080fd5b813561257f84826020860161244c565b91505092915050565b600082601f83011261259957600080fd5b81356125a98482602086016124b8565b91505092915050565b600082601f8301126125c357600080fd5b81356125d38482602086016124f6565b91505092915050565b6000813590506125eb816139e5565b92915050565b60006020828403121561260357600080fd5b600061261184828501612534565b91505092915050565b60006020828403121561262c57600080fd5b600061263a84828501612549565b91505092915050565b6000806040838503121561265657600080fd5b600061266485828601612534565b925050602061267585828601612534565b9150509250929050565b60008060006060848603121561269457600080fd5b60006126a286828701612534565b93505060206126b386828701612534565b92505060406126c4868287016125dc565b9150509250925092565b600080600080600060a086880312156126e657600080fd5b60006126f488828901612534565b955050602061270588828901612534565b9450506040612716888289016125dc565b935050606086013567ffffffffffffffff81111561273357600080fd5b61273f88828901612588565b925050608086013567ffffffffffffffff81111561275c57600080fd5b61276888828901612588565b9150509295509295909350565b6000806040838503121561278857600080fd5b600061279685828601612534565b92505060206127a7858286016125dc565b9150509250929050565b6000806000606084860312156127c657600080fd5b60006127d486828701612534565b93505060206127e5868287016125dc565b925050604084013567ffffffffffffffff81111561280257600080fd5b61280e86828701612588565b9150509250925092565b6000806000806080858703121561282e57600080fd5b600061283c87828801612534565b945050602061284d878288016125dc565b935050604085013567ffffffffffffffff81111561286a57600080fd5b61287687828801612588565b925050606085013567ffffffffffffffff81111561289357600080fd5b61289f87828801612588565b91505092959194509250565b600080600080600060a086880312156128c357600080fd5b600086013567ffffffffffffffff8111156128dd57600080fd5b6128e9888289016125b2565b955050602086013567ffffffffffffffff81111561290657600080fd5b612912888289016125b2565b945050604086013567ffffffffffffffff81111561292f57600080fd5b61293b8882890161255e565b935050606061294c888289016125dc565b925050608061295d88828901612534565b9150509295509295909350565b6000806040838503121561297d57600080fd5b600061298b858286016125dc565b925050602083013567ffffffffffffffff8111156129a857600080fd5b6129b485828601612588565b9150509250929050565b60006129ca83836129d6565b60208301905092915050565b6129df816132ca565b82525050565b6129ee816132ca565b82525050565b60006129ff826131df565b612a09818561320d565b9350612a14836131cf565b8060005b83811015612a45578151612a2c88826129be565b9750612a3783613200565b925050600181019050612a18565b5085935050505092915050565b612a5b816132dc565b82525050565b612a6a816132e8565b82525050565b6000612a7b826131ea565b612a85818561321e565b9350612a95818560208601613338565b612a9e816134a4565b840191505092915050565b6000612ab4826131f5565b612abe818561322f565b9350612ace818560208601613338565b612ad7816134a4565b840191505092915050565b6000612aef60258361322f565b9150612afa826134b5565b604082019050919050565b6000612b1260228361322f565b9150612b1d82613504565b604082019050919050565b6000612b3560278361322f565b9150612b4082613553565b604082019050919050565b6000612b5860228361322f565b9150612b63826135a2565b604082019050919050565b6000612b7b60248361322f565b9150612b86826135f1565b604082019050919050565b6000612b9e60218361322f565b9150612ba982613640565b604082019050919050565b6000612bc1602e8361322f565b9150612bcc8261368f565b604082019050919050565b6000612be460208361322f565b9150612bef826136de565b602082019050919050565b6000612c07604d8361322f565b9150612c1282613707565b606082019050919050565b6000612c2a60248361322f565b9150612c358261377c565b604082019050919050565b6000612c4d602c8361322f565b9150612c58826137cb565b604082019050919050565b6000612c70602b8361322f565b9150612c7b8261381a565b604082019050919050565b6000612c9360298361322f565b9150612c9e82613869565b604082019050919050565b6000612cb660268361322f565b9150612cc1826138b8565b604082019050919050565b6000612cd960238361322f565b9150612ce482613907565b604082019050919050565b6000612cfc60208361322f565b9150612d0782613956565b602082019050919050565b6000612d1f60238361322f565b9150612d2a8261397f565b604082019050919050565b612d3e81613312565b82525050565b612d4d8161331c565b82525050565b600060c082019050612d6860008301896129e5565b612d7560208301886129e5565b612d8260408301876129e5565b612d8f6060830186612d35565b8181036080830152612da18185612a70565b905081810360a0830152612db58184612a70565b9050979650505050505050565b6000604082019050612dd760008301856129e5565b612de46020830184612a61565b9392505050565b6000606082019050612e0060008301866129e5565b612e0d6020830185612a61565b612e1a60408301846129e5565b949350505050565b60006020820190508181036000830152612e3c81846129f4565b905092915050565b6000602082019050612e596000830184612a52565b92915050565b60006020820190508181036000830152612e798184612aa9565b905092915050565b60006020820190508181036000830152612e9a81612ae2565b9050919050565b60006020820190508181036000830152612eba81612b05565b9050919050565b60006020820190508181036000830152612eda81612b28565b9050919050565b60006020820190508181036000830152612efa81612b4b565b9050919050565b60006020820190508181036000830152612f1a81612b6e565b9050919050565b60006020820190508181036000830152612f3a81612b91565b9050919050565b60006020820190508181036000830152612f5a81612bb4565b9050919050565b60006020820190508181036000830152612f7a81612bd7565b9050919050565b60006020820190508181036000830152612f9a81612bfa565b9050919050565b60006020820190508181036000830152612fba81612c1d565b9050919050565b60006020820190508181036000830152612fda81612c40565b9050919050565b60006020820190508181036000830152612ffa81612c63565b9050919050565b6000602082019050818103600083015261301a81612c86565b9050919050565b6000602082019050818103600083015261303a81612ca9565b9050919050565b6000602082019050818103600083015261305a81612ccc565b9050919050565b6000602082019050818103600083015261307a81612cef565b9050919050565b6000602082019050818103600083015261309a81612d12565b9050919050565b60006020820190506130b66000830184612d35565b92915050565b60006060820190506130d16000830186612d35565b81810360208301526130e38185612a70565b905081810360408301526130f78184612a70565b9050949350505050565b60006020820190506131166000830184612d44565b92915050565b6000613126613137565b9050613132828261339d565b919050565b6000604051905090565b600067ffffffffffffffff82111561315c5761315b613475565b5b602082029050602081019050919050565b600067ffffffffffffffff82111561318857613187613475565b5b613191826134a4565b9050602081019050919050565b600067ffffffffffffffff8211156131b9576131b8613475565b5b6131c2826134a4565b9050602081019050919050565b6000819050602082019050919050565b600081519050919050565b600081519050919050565b600081519050919050565b6000602082019050919050565b600082825260208201905092915050565b600082825260208201905092915050565b600082825260208201905092915050565b600061324b82613312565b915061325683613312565b9250827fffffffffffffffffffffffffffffffffffffffffffffffffffffffffffffffff0382111561328b5761328a613417565b5b828201905092915050565b60006132a182613312565b91506132ac83613312565b9250828210156132bf576132be613417565b5b828203905092915050565b60006132d5826132f2565b9050919050565b60008115159050919050565b6000819050919050565b600073ffffffffffffffffffffffffffffffffffffffff82169050919050565b6000819050919050565b600060ff82169050919050565b82818337600083830152505050565b60005b8381101561335657808201518184015260208101905061333b565b83811115613365576000848401525b50505050565b6000600282049050600182168061338357607f821691505b6020821081141561339757613396613446565b5b50919050565b6133a6826134a4565b810181811067ffffffffffffffff821117156133c5576133c4613475565b5b80604052505050565b60006133d982613312565b91507fffffffffffffffffffffffffffffffffffffffffffffffffffffffffffffffff82141561340c5761340b613417565b5b600182019050919050565b7f4e487b7100000000000000000000000000000000000000000000000000000000600052601160045260246000fd5b7f4e487b7100000000000000000000000000000000000000000000000000000000600052602260045260246000fd5b7f4e487b7100000000000000000000000000000000000000000000000000000000600052604160045260246000fd5b6000601f19601f8301169050919050565b7f4552433737373a20617070726f76652066726f6d20746865207a65726f20616460008201527f6472657373000000000000000000000000000000000000000000000000000000602082015250565b7f4552433737373a2073656e642066726f6d20746865207a65726f20616464726560008201527f7373000000000000000000000000000000000000000000000000000000000000602082015250565b7f4552433737373a207472616e7366657220616d6f756e7420657863656564732060008201527f62616c616e636500000000000000000000000000000000000000000000000000602082015250565b7f4552433737373a206275726e2066726f6d20746865207a65726f20616464726560008201527f7373000000000000000000000000000000000000000000000000000000000000602082015250565b7f4552433737373a20617574686f72697a696e672073656c66206173206f70657260008201527f61746f7200000000000000000000000000000000000000000000000000000000602082015250565b7f4552433737373a207265766f6b696e672073656c66206173206f70657261746f60008201527f7200000000000000000000000000000000000000000000000000000000000000602082015250565b7f496e697469616c697a61626c653a20636f6e747261637420697320616c72656160008201527f647920696e697469616c697a6564000000000000000000000000000000000000602082015250565b7f4552433737373a206d696e7420746f20746865207a65726f2061646472657373600082015250565b7f4552433737373a20746f6b656e20726563697069656e7420636f6e747261637460008201527f20686173206e6f20696d706c656d656e74657220666f7220455243373737546f60208201527f6b656e73526563697069656e7400000000000000000000000000000000000000604082015250565b7f4552433737373a207472616e7366657220746f20746865207a65726f2061646460008201527f7265737300000000000000000000000000000000000000000000000000000000602082015250565b7f4552433737373a2063616c6c6572206973206e6f7420616e206f70657261746f60008201527f7220666f7220686f6c6465720000000000000000000000000000000000000000602082015250565b7f496e697469616c697a61626c653a20636f6e7472616374206973206e6f74206960008201527f6e697469616c697a696e67000000000000000000000000000000000000000000602082015250565b7f4552433737373a207472616e7366657220616d6f756e7420657863656564732060008201527f616c6c6f77616e63650000000000000000000000000000000000000000000000602082015250565b7f4552433737373a207472616e736665722066726f6d20746865207a65726f206160008201527f6464726573730000000000000000000000000000000000000000000000000000602082015250565b7f4552433737373a206275726e20616d6f756e7420657863656564732062616c6160008201527f6e63650000000000000000000000000000000000000000000000000000000000602082015250565b7f4552433737373a2073656e6420746f20746865207a65726f2061646472657373600082015250565b7f4552433737373a20617070726f766520746f20746865207a65726f206164647260008201527f6573730000000000000000000000000000000000000000000000000000000000602082015250565b6139d7816132ca565b81146139e257600080fd5b50565b6139ee81613312565b81146139f957600080fd5b5056fea2646970667358221220d2c0170341afba64cfdfad526273643d6b7ad57e8dbec684117487adb2b4e76e64736f6c63430008030033",
  "linkReferences": {},
  "deployedLinkReferences": {}
}